:020000040800F2
:10000000A00F002045010008853A000819370008B4
:10001000813A00084D050008E13F0008000000009B
:10002000000000000000000000000000913E0008F9
:10003000D9080008000000003D3B0008CD3E000844
:100040005F0100085F0100085F0100085F01000810
:100050005F0100085F0100085F0100085F01000800
:100060005F0100085F0100085F010008C90800087F
:100070005F0100085F0100085F0100085F010008E0
:10008000D50800085F0100085F0100085F01000853
:100090005F0100085F0100085F010008C90E000849
:1000A0005F0100085F0100085F0100085F010008B0
:1000B0005F0100085F0100085F0100085F010008A0
:1000C0005F0100085F0100085F0100085F01000890
:1000D0005F0100085F010008DD3F00085F010008C4
:1000E0005F0100085F0100085F0100085F01000870
:1000F0005F0100085F0100085F0100085F01000860
:100100005F0100085F0100085F0100085F0100084F
:100110005F0100085F0100085F0100085F0100083F
:100120005F0100085F0100085F0100085F0100082F
:10013000DFF80CD000F09EF800480047314000087E
:10014000A00F00200648804706480047FEE7FEE76C
:10015000FEE7FEE7FEE7FEE7FEE7FEE7FEE7FEE777
:100160000D3F0008310100082DE9F05F0546002031
:1001700092469B4688460646814640241BE0284618
:1001800041464746224600F064F853465A46C01A94
:10019000914110D311461846224600F04BF82D1A13
:1001A00067EB01084F4622460120002100F042F88B
:1001B00017EB00094E41201EA4F10104DFDC484684
:1001C00031462A464346BDE8F09F40EA01039B07BB
:1001D00003D009E008C9121F08C0042AFAD203E0BC
:1001E00011F8013B00F8013B521EF9D2704730B5BF
:1001F00004460020034600E05B1C934203D2E05C0F
:10020000CD5C401BF8D030BD30B50B460146002018
:100210002022012409E021FA02F59D4205D303FAC8
:1002200002F5491B04FA02F52844151EA2F1010249
:10023000F1DC30BD202A04DB203A00FA02F1002074
:1002400070479140C2F1200320FA03F31943904014
:100250007047202A04DB203A21FA02F0002170477F
:1002600021FA02F3D040C2F120029140084319461E
:10027000704700001CB509480090094801900546E8
:10028000009C06E0E06840F0010394E8070098470E
:100290001034AC42F6D3FFF74FFF000018460008B9
:1002A00038460008B0B5044600688168C90721D007
:1002B000816821F00101816001F020FF21688968D7
:1002C000C90717D0054602E08068C00712D001F0C8
:1002D00015FF411B20680329F6D38168C907F3D0B5
:1002E000A06A40F01000A062E06A40F00100E06205
:1002F0000120B0BD0020B0BD0146406A826A12F004
:10030000500F03D0006A026B084610470168826AEA
:1003100042F400728262896801F46021B1F5602FB5
:1003200001D1017B09B101F0B7B8816A21F4807174
:100330008162816AC90448BF01F0AEB8816A41F0A8
:100340000101816201F0A8B8406A816A41F0400170
:100350008162C16A41F00401C16201F0A1B80000EC
:10036000406A01F09BB80000B0B582B0044600209E
:10037000019021688A68D2074ED1886840F0010058
:10038000886040F20C00C2F2000000684DF6836104
:10039000C4F21B31A0FB0101880C01900198A0B1AF
:1003A000019801380190019878B1019801380190C5
:1003B000019850B1019801380190019828B1019835
:1003C0000138019001980028EAD101F097FE2168D8
:1003D0008968C9071CD1054603E000BF8068C007D3
:1003E00019D101F08BFE411B20680329F6D38168E7
:1003F000C907F3D1A06A40F01000A062E06A40F0A3
:100400000100E062002084F82400012002B0B0BDA9
:10041000002002B0B0BD002002B0B0BDB0B500F009
:10042000E5FE00B340F2BC05C2F2000504462878A0
:10043000012808D101F062FEA968401A642802D29E
:1004400040F2B63019E040F28A2048F21F51604372
:10045000C5F2EB11A0FB0101002028704FF496704B
:1004600000EB511009E040F2BC04C2F2000401208C
:10047000207001F043FEA06000203C21C4F2000186
:100480000860486008684968084443F63521C4F2AA
:10049000FC41A0FB010144F20B604A0AC0F60000D7
:1004A00002A1BDE8B04003F075BE00BF70756D706D
:1004B00031000000B0B500F09FFE00B340F2BC0573
:1004C000C2F2000504462879012808D101F016FE81
:1004D000E968401A642802D240F2B63019E040F2CE
:1004E0008A2048F21F516043C5F2EB11A0FB0101C5
:1004F000002028714FF4967000EB511009E040F293
:10050000BC04C2F200040120207101F0F7FDE0609C
:1005100000203421C4F2000108604860086849687E
:10052000084443F63521C4F2FC41A0FB010144F22A
:100530000B604A0AC0F6000002A1BDE8B04003F01B
:1005400029BE00BF70756D7032000000FEE700002C
:100550002DE9F04F81B040F6A420C2F200000068FF
:1005600040F222064068C2F20006C0F1640430780E
:10057000E5B2854200F0A58140F2041AC2F2000AF9
:1005800010D940F26811C2F20001251A014440F26C
:100590000410EAB2C2F20000FFF717FE280634701A
:1005A0001AD18EE1C0F1640940F26818C2F2000865
:1005B0005FFA89F708EB000150463A46FFF705FE5F
:1005C0000AEB070041462A46FFF7FFFD09EB040549
:1005D0002806347000F0758140F6CC1B4AF2010009
:1005E000E9B24FF0000C4FF00109C2F2000B0025F8
:1005F00005E000BFB37101358D4280F062811AF8C9
:100600000530B479AA2B08BFAA2C15D03279012A5B
:10061000F0D1552B08BF552C16D0B278571CFCB220
:10062000642CB7700BF80230E4D3728986F804C0EA
:1006300001327281DEE700BF86F802C086F80490BE
:1006400001358D42DBD33CE196F802E086F804C028
:10065000BEF1020F40F2D180BEF103044FF6FF78E5
:1006600000F0A580012C04F0010205D100244FF612
:10067000FF78002A6ED19AE0A4B2A2EB040C6FF0CE
:1006800001094FF6FF7800920BEB0904A278E47899
:1006900082EA080280EA5207D30708BF570880EAB7
:1006A0005702FB0708BF7A0880EA5203D70708BF42
:1006B000530880EA5302DF0708BF5A0880EA520352
:1006C000D70708BF530880EA5302DF0708BF5A085C
:1006D00080EA5203D70708BF530880EA5302DF07B6
:1006E00008BF5A08624080EA5203D40708BF530883
:1006F00080EA5302DC0708BF5A0880EA5203D40795
:1007000008BF530880EA5302DC0708BF5A0880EA92
:100710005203D40708BF530880EA5302DC0708BF1E
:100720005A0880EA5203D40708BF5308DA0709F1D0
:10073000020980EA53080CEB090208BF4FEA53088C
:100740000232A1D1009A09F102044FF0000C4FF0DF
:10075000010962B31BF8042082EA080280EA52030E
:10076000D70708BF530880EA5302DF0708BF5A08BB
:1007700080EA5203D70708BF530880EA5302DF0715
:1007800008BF5A0880EA5203D70708BF530880EA17
:100790005302DF0708BF5A0880EA5203D70708BF91
:1007A000530880EA5308DA0708BF4FEA53080EEBF4
:1007B0000B0212F8033C12F8022C43EA02224245D3
:1007C0001BD1BBF8002012BA130C4FF20E629342F9
:1007D0003381A6F83A9018DC4FF20A12934235D0D2
:1007E0004FF20C3293427FF406AFBBF80220F28640
:1007F00001358D42FFF403AF63E0728901327281EB
:1008000001358D42FFF4FBAE5BE04FF20F62934285
:1008100050D04FF6110293427FF4EDAEBBF80220A8
:10082000DBF80830B287DBF80420DBF80C70C6F880
:100830003E20BBF81020C6F84230C6F84670A6F835
:100840004A2001358D42FFF4DAAE3AE0BBF80220CF
:10085000DBF80830B281DBF80420DBF80C70DBF841
:100860001040C6F80E20BBF81C20C6F81230C6F89F
:100870001670C6F81A40DBF81430F284BBF81E205C
:10088000C6F81E303285BBF82020DBF818307285A0
:10089000BBF82220C6F82230B285DBF82420DBF832
:1008A0002830C6F82E20C6F8323001358D42FFF4CC
:1008B000A6AE06E09BF80220328701358D42FFF498
:1008C0009EAE01B0BDE8F08F40F66020C2F200009D
:1008D00001F06AB8704700007047000040F27000F5
:1008E000C2F20000018DB1B140F2F001C2F200018C
:1008F00009886422514340F20112C0F21002A1FBA8
:100900000223C91A03EB5101C1F3C7214278914276
:1009100018BF4170704790F82A104278914218BF72
:100920004170704770B540F27005C2F2000544F2A4
:100930004554A98FC0F60004204603F02BFC0A2082
:1009400001F044FAE98F204603F024FC0A2001F06C
:100950003DFAB5F84010204603F01CFC0A2001F0D7
:1009600035FAB5F84210204603F014FC0A2001F0D5
:100970002DFAB5F84410204603F00CFC0A2001F0D3
:1009800025FAB5F84610204603F004FC0A2001F0D1
:100990001DFAB5F84810204603F0FCFB0A2001F0D0
:1009A00015FAB5F84A10204603F0F4FB0A2001F0CE
:1009B0000DFA2046422103F0EDFB0A2001F006FA71
:1009C00040F2F006C2F200063188204603F0E2FB56
:1009D0000A2001F0FBF901F091FB6968411AB1F5B9
:1009E0007A7F38BF70BD318A48F2C074CDF2066498
:1009F000686049B140F6E440A1FB0023204617217E
:100A0000FFF7B2FB81B200E0002144F24550C0F68E
:100A1000000003F0BFFB0A2001F0D8F9F08948B1CB
:100A200040F6E441A0FB012320461721FFF79CFB81
:100A300081B200E0002144F24550C0F6000003F00E
:100A4000A9FB0A2001F0C2F9708A48B140F6E441DE
:100A5000A0FB012320461721FFF786FB81B200E0AF
:100A6000002144F24550C0F6000003F093FB0A2039
:100A7000BDE8704001F0AAB910B544F29A40C0F642
:100A8000000003F087FB40F27004C2F20004E18929
:100A900044F2CA40C0F6000003F07CFB218A44F215
:100AA000D940C0F6000003F075FBA18944F2E9408B
:100AB000C0F60000002918BF012103F06BFBA18ADA
:100AC00044F2FF40C0F6000003F064FBE18A44F208
:100AD0000E50C0F6000003F05DFB618A44F21E5028
:100AE000C0F60000002918BF012103F053FB218B41
:100AF00044F29250C0F60000002918BF012103F013
:100B000049FB618B44F26A50C0F6000003F042FBDF
:100B1000A18B44F25450C0F6000003F03BFBE18B84
:100B200044F2A650C0F60000002918BF012103F0CE
:100B300031FB218C44F23450C0F6000003F02AFB54
:100B4000618C44F2E350C0F6000003F023FBA18C5B
:100B500044F2F550C0F6000003F01CFBE08C0138B5
:100B6000B0FA80F0410944F2BA50C0F6000003F038
:100B700011FB218D44F27F50C0F6000003F00AFB08
:100B8000618D44F2D250C0F6000003F003FBA18D4A
:100B900044F2BA40C0F6000003F0FCFAE18D44F2E2
:100BA000A840C0F6000003F0F5FA218E0CA003F077
:100BB000F1FA618E0FA003F0EDFAA18E12A003F0FE
:100BC000E9FAE18E16A003F0E5FA1BA003F0E2FAC1
:100BD0001EA003F0DFFA22A0BDE8104003F0DABA4D
:100BE000466C7569646D61696E2E76616C3D256435
:100BF000FFFFFF0045785F5265762E76616C3D25DC
:100C000064FFFFFF0000000054656D705F53656C6A
:100C10006563742E76616C3D2564FFFFFF00000064
:100C20006D616656616C7565496E7075742E76617E
:100C30006C3D2564FFFFFF00736574536176652E7C
:100C400076616C3D30FFFFFF000000007465737437
:100C5000436D642E76616C3D30FFFFFF00000000A5
:100C60006F7574536176652E76616C3D30FFFFFFC2
:100C700000000000B0B544F27B40C0F6000003F075
:100C800089FA40F27005C2F20005E98944F22F406A
:100C9000C0F6000003F07EFA298A44F21540C0F63F
:100CA000000003F077FAA98A44F2B630C0F60000DB
:100CB00003F070FAE98A44F2D030C0F6000003F085
:100CC00069FA698B44F20140C0F6000003F062FA51
:100CD000A98B44F2EB30C0F6000003F05BFAA88960
:100CE0000921002828A04FF0090408BF082103F0BB
:100CF00051FA688A0921002828A008BF082103F0BA
:100D000049FA288B0921002829A008BF082103F0EF
:100D100041FA288F002808BF08242AA0214603F0A2
:100D200039FAE88B2DA100282DA02BA208BF11466F
:100D300003F030FAE88C31A1002831A02EA208BFC0
:100D4000114603F027FA287830B1012807D144F280
:100D50008940C0F6000000E02EA003F01BFA44F228
:100D60004A40C0F6000003F015FA44F25C40C0F6B9
:100D7000000003F00FFA44F26B40C0F60000BDE83B
:100D8000B04003F007BA00BF50756D703153746105
:100D9000742E7069633D2564FFFFFF0050756D7010
:100DA00032537461742E7069633D2564FFFFFF0048
:100DB0005261696E537461742E7069633D2564FFDE
:100DC000FFFF00004578537461742E7069633D2500
:100DD00064FFFFFF000000004D540000415400007C
:100DE00076616C756553746175732E7478743D22E9
:100DF000257322FFFFFF0000487A00004D560000D7
:100E0000756E69742E7478743D22257322FFFFFF7E
:100E100000000000766973207465737449636F2C59
:100E200030FFFFFF0000000070B582B001F066F9EE
:100E300040F27004C2F20004A168411AB1F57A7F51
:100E40003FD3A060218E40F2F000C2F200004FF0CC
:100E5000000541B1418940F6272291429EBF002101
:100E60008DF805100125808840F6AC51884201D9E3
:100E7000012003E040094A2804D802200DF10501B1
:100E80004855013540F21006C2F2000630780228BB
:100E900002D80A2000F09AFF7DB1A0780DF105027A
:100EA000B0FBF5F101FB1500411C105CA170307026
:100EB0000A2000F08BFF02B070BDFF2030700020D0
:100EC000A07002B070BD000040F21440C4F20100F6
:100ED0000168890658BF70472021016040F2180060
:100EE000C2F2000041880131418070477047000024
:100EF00040F67831C2F200010022CA6142F21001CC
:100F0000C4F202010A6842F002020A6048600868FE
:100F100040F040000860704770B542F20C0604468D
:100F2000C4F2020601F0EAF83168C9071AD0002CB1
:100F30005BD00546601C0DD13068C00712D0306808
:100F4000C0071CBF30685FEAC0700BD03068C007B4
:100F5000F2D107E001F0D2F8401BA04245D830683A
:100F6000C007F7D13068800644BF20203060306869
:100F7000C00607D43069C00704D1306840075CBFA1
:100F8000002070BD3068C00604D4002031684907D5
:100F90000CD415E040F67830C2F20000C16941F08F
:100FA0000201C16110203168490709D540F6783146
:100FB000C2F20001CA6940F0040042F00102CA61B5
:100FC0003169C90702D13060012070BD40F6783127
:100FD000C2F20001CA6942F00402CA61316921F01B
:100FE000010131613060012070BD032070BD00003F
:100FF00070B540F27005C2F2000505F10C04204600
:1010000040214FF6FF7600F02FF8A88F2146B0421E
:1010100004BF42F21070A887E88F4022B04204BF9C
:1010200042F21070E887B5F84000B04204BF42F2C7
:101030001070A5F84000B5F84800B04204BF42F275
:101040001070A5F84800B5F84A00B04204BF42F25B
:101050001070A5F84A0040F22E00C2F20000BDE870
:101060007040FFF7B2B8000010B581B300224B1EEC
:10107000C0F60102032B01F0030C01D2002113E0A2
:10108000A0F10803A1EB0C0E002100BF148804316D
:1010900023F8084F54888E455C8094889C80D488BF
:1010A00002F10802DC80F1D1BCF1000F08BF10BDD5
:1010B0001388BCF1010F20F8113008D0538800EBE1
:1010C00041004380BCF1020F1CBF9188818010BD9C
:1010D0000A4601460020C0F6010002F09BBD000058
:1010E00040F22200C2F2000000897047B0B500F063
:1010F00071F840F21E0440F27C05C2F20004C2F214
:10110000000530B100F066F801281AD100F068F847
:1011100016E0688B90B140F2F001C2F20001288E17
:10112000098A48F61032484340F6E441A0FB010129
:10113000C0F290120023FFF717F801E000F062F808
:1011400060802888E8B1628869888A4219D9AB88AA
:1011500064209A4204D2521A5043591A90FBF1F07B
:10116000E988207091B1628829898A4210D96B89F7
:1011700064209A420DD2521A5043591A90FBF1F052
:1011800007E00020E98820700029ECD1002000E071
:101190000020607000F0B2FF41F25971CDF2B7113A
:1011A000A0FB0112510B42F2107201FB120102A0CE
:1011B000BDE8B04002F0EEBF6D616656616C7565CA
:1011C00053686F772E7478743D22256422FFFFFFE9
:1011D0000000000040F27000C2F20000007870478A
:1011E00040F27000C2F20000C08E704740F21E0054
:1011F000C2F200000078704740F21E00C2F2000008
:101200004078704740F21800C2F2000080887047B2
:1012100070B582B004460020019094F824000128A3
:1012200003D10225284602B070BD012084F82400B5
:101230002046FFF737F8054600286DD1A06A41F235
:10124000021188430230A06240F20C00C2F200009A
:101250000668022001F00CF8B6FBF0F040000190A7
:101260000198A0B1019801380190019878B10198D6
:1012700001380190019850B101980138019001980E
:1012800028B101980138019001980028EAD1204640
:10129000FFF76AF82068816841F00801816000F07A
:1012A0002DFF216851F8082F120710D5064602E0DD
:1012B0008168090709D500F021FF811B20680B29EF
:1012C000F6D381680907F3D51AE000F10801086830
:1012D00040F00400086000F011FF216889684907A8
:1012E00013D5064603E000BF806840070DD500F027
:1012F00005FF811B20680B29F6D381684907F3D5C8
:10130000012510206FF0120102E001206FF00301AF
:10131000A26A11400843A062002084F824002846F5
:1013200002B070BDB0B581B00022009290F82420C8
:10133000012A03D10221084601B0B0BD4B68012249
:10134000062B80F8242022D8D0F800C003EB8303BA
:1013500062465D1F1F2352F834EF03FA05F40B6851
:101360002EEA040E03FA05F444EA0E05092B156073
:101370002CD8DCF8102003EB4303072589689D4037
:10138000AA4399401143CCF8101000213EE0D0F858
:1013900000C00C2B624606D852F830EF03EB8303F3
:1013A000A3F1230405E052F82CEF03EB8303A3F130
:1013B00041041F2303FA04F50B682EEA050E03FA15
:1013C00004F444EA0E05092B1560D2D903EB43055A
:1013D000DCF80C201E3D07248968AC40A243A940DC
:1013E000114323F00102102ACCF80C100DD142F267
:1013F0000841C4F20101A1F1080294450CD0816AB0
:1014000041F020018162012100E00021002280F8EA
:101410002420084601B0B0BD0A6812022FD40A6821
:10142000102B42F400020A602BD140F20C01C2F2F0
:10143000000109684DF68362C4F21B32A1FB02125F
:10144000910C01EB8101490000910099D9B10099FB
:10145000013900910099C1B10099013900910099B9
:10146000A9B1009901390091009991B10099013910
:101470000091009900294FF00001E8D1C6E7002152
:10148000C4E70021C2E70021C0E70021BEE7002138
:10149000BCE70021BAE70000704700007047000079
:1014A00070470000002804BF0120704770B5064651
:1014B000044656F8280F20B121688868C0070BD170
:1014C00031E00020E06284F82400204600F0ACF80F
:1014D00021688868C00726D0886820F001008860ED
:1014E00000F00CFE21688A68D2071CD0054602E095
:1014F0008868C00717D000F001FE401B2168032850
:10150000F6D38868C007F3D0A06A40F01000A0624C
:10151000E06A40F00100E062A06AA06A40F01001B9
:101520000120316070BD32683068D2062CD441F29F
:10153000021290430230A062E36981F0804080F49F
:101540009E3083F44022104308BF4FF40023D4E9B7
:10155000010243EA000C531EB3FA83F35D091346FC
:10156000B2F5807F18BF2B02207D257B01284CEA35
:10157000450019D16DB1A56A45F02005A562E56A5F
:1015800045F00105E5620FE040F0100101203160F7
:1015900070BDD4F818C04EF20005CFF6FF7505EB0C
:1015A0004C352B4343F400634D68B2F5807F25F43E
:1015B000694543EA05034B608B684FF2FD75CFF632
:1015C000E17503EA050343EA00038B6001D0012AB9
:1015D00006D122690023CFF6F07303EB025200E03C
:1015E0000022CB6A23F470031A43CA62896840F66A
:1015F000FE62CFF61F721140814207D10020E062E7
:10160000A16A012262F30101316070BDA06A40F05D
:10161000100020F00200A06254F82C0F40F00101ED
:1016200001202646316070BD2DE9F04385B00027CA
:1016300040F600050497CDE902770446C4F201059F
:10164000006805F5E0518842019702D005B0BDE879
:10165000F08341F21806C4F2020630684FF0030925
:1016600040F40070306030680DF1040800F4007040
:10167000009000983068414640F0100030603068BB
:1016800000F0100000900098306840F004003060D6
:10169000306800F0040000900098306840F00800C6
:1016A0003060306800F00800009000981F20CDF8EE
:1016B0000890019005F5006000F01AFCC12001902F
:1016C0002846414600F014FC05F580604146CDF8FF
:1016D000049000F00DFC56F8040C40F6602540F034
:1016E000010046F8040C56F8040CC2F2000500F0A4
:1016F0000100009000980820C4F2020080214FF4FD
:101700008072C5E9000705F110004FF480632026C0
:101710004FF4005CC5E9027180E84C10284600F0E7
:10172000BFFA002818BFFFF7E1FB25626C6205B025
:10173000BDE8F08370B515460446006842F6000225
:10174000C4F2010290420E4605D042F20041C4F2BA
:101750000101884209D142F20440C4F2010000684C
:1017600010F4702F1CBF012070BD94F824000128D4
:1017700004BF022070BD012084F824002046FEF73B
:10178000F3FD18B1002184F8241070BD42F204402A
:101790002168A26AC4F2010040F601739A4300F581
:1017A0007F7302F580729942A26243D0A06A20F44E
:1017B0008010A0624868400504D5A06A012262F347
:1017C0000D30A062A26A0020D2044FF0000244BF94
:1017D000E26A22F00602E26284F82400206A40F203
:1017E000F922C0F6000240F2613340F2493C00F1B8
:1017F000280EC0F60003C0F6000C8EE80C106FF047
:1018000002020A608A682B4642F480728A604C3178
:10181000324600F08DFA2068816801F46022816808
:10182000B2F5602F0CBF41F4A00141F4801181603A
:10183000002070BD026812F4702FB7D0A26A42F483
:101840008012A26200684005BCD5B6E710B54379A6
:10185000012B4FF002031DD00371036802F0100E3C
:10186000D3F800C0D1E9004140F6FE7202FA0EF250
:1018700021432CEA020201FA0EF111431960C02142
:101880001A6801FA0EF122EA010119600121002310
:1018900001714371184610BD002804BF0120704734
:1018A00010B50446007920B900206071204600F090
:1018B00007F802202071002001212061217110BD54
:1018C00080B586B0016847F20040C4F20000814252
:1018D00001D006B080BD0021CDE9041141F218010C
:1018E000C4F202014A6800F5144042F000524A6016
:1018F0004A6802F000520192019A0A6842F004021A
:101900000A60096801F004010191019930210291F6
:101910000321039102A900F0EBFA06B080BD00009C
:1019200081B04FF0000CCDF800C000680029009095
:101930000098104414BF1430083000900099002023
:101940000B6001B07047000010B54279012A4FF0DA
:10195000020226D04FF0010C80F805C00271026827
:1019600001F0100E14680CFA0EF323431360D2F842
:1019700000C051B13C230CF4701103FA0EF39942EC
:101980000BD1516841F0020106E00CF03C013C290A
:1019900003D1516841F00101516001210022017120
:1019A0004271104610BD000010B5D0F800E0D0E93B
:1019B0000FC3DCF80020DEF800104C0734D50424F7
:1019C0009C40144030D0DEF80010890605D4DEF8C3
:1019D000001021F00401CEF800100422C4F202022B
:1019E00002F17C018E4553D940F20841C4F2020154
:1019F0008E4500F0C88040F21C41C4F202018E45C1
:101A000000F0C98040F23041C4F202018E4540F03E
:101A1000CA804FF48061C2F80014C16A002900F046
:101A20003E81BDE8104008478C074ED502249C40FB
:101A300014404AD0DEF80010890608D4DEF8001001
:101A400021F00A01CEF80010012180F821100422B3
:101A5000C4F2020202F17C018E4554D940F20841E1
:101A6000C4F202018E4500F0CC8040F21C41C4F269
:101A700002018E4500F0C98040F23041C4F20201FB
:101A80008E4540F0C6804FF40071C2F80014FEE0AD
:101A90004321C4F202018E454ADD6B21C4F20201EA
:101AA0008E455EDC4421C4F202018E4500F0BC800C
:101AB0005821C4F202018E4540F0CD804FF48021C0
:101AC0001160C16A0029ACD1E9E0090740F1E78063
:101AD00008219940114008BF10BDDEF8001021F028
:101AE0000E01CEF80010012101FA03F2CCF8042017
:101AF0008163016B4FF480720029028400F0CF8073
:101B0000BDE8104008474321C4F202018E4559DD6B
:101B10006B21C4F202018E4566DC4421C4F202014D
:101B20008E4500F0AA805821C4F202018E459AE049
:101B30000821C4F202018E457ED01C21C4F20201AC
:101B40008E4500F093803021C4F202018E4540F0B2
:101B500082804FF480611160C16A00297FF461AF17
:101B60009DE06C21C4F202018E456CD08021C4F24C
:101B700002018E456FD14FF080611160C16A00296A
:101B80007FF44FAF8BE00421C2F80014C16A002932
:101B90007FF447AF83E04021C2F80014C16A0029F6
:101BA0007FF43FAF7BE002F588634FF480219E45D0
:101BB00008BF4FF48041C2F80014C16A00297FF4C5
:101BC00030AF6CE00821C4F202018E4558D01C21D0
:101BD000C4F202018E4558D03021C4F202018E4574
:101BE00041D14FF4007151E06C21C4F202018E45E5
:101BF00048D08021C4F202018E4534D14FF00071EB
:101C000044E00221C2F8001441E02021C2F800148F
:101C10003DE002F588634FF400319E4508BF4FF464
:101C20000051C2F8001432E04FF480411160C16AE3
:101C300000297FF4F6AE32E004211160C16A002968
:101C40007FF4EFAE2BE04FF480011160C16A0029F0
:101C50007FF4E7AE23E04FF480211160C16A0029D0
:101C60007FF4DFAE1BE04FF400310FE04021116044
:101C7000C16A00297FF4D5AE11E04FF4005105E0B0
:101C8000022103E04FF4001100E020211160816A7D
:101C9000002280F8202011B1BDE81040084710BD97
:101CA000002842D02DE9F04140F2000CC4F2020CB1
:101CB00001684FF6F8320CF58163CBF6FD7299425C
:101CC00038BF02F580624CF6CD430A44CCF6CC43D3
:101CD000A2FB03236FF003050CF5806405EA930370
:101CE000D0E9012ED0F80C803CBF0024C4F20204DD
:101CF000C0E90F430B6843F6F075AB431A43D0E9D4
:101D0000045442EA0E0242EA0802D0E906672A4376
:101D1000224332433A430A6000214FF480728163C8
:101D20000284BDE8F041084670470121084670472B
:101D3000F0B590F820C0BCF1010F32D090F821C06E
:101D40004FF0010EBCF1010F80F820E026D14FF0DA
:101D5000020C80F821C04FF0000CC0F838C0D0E968
:101D600000C4C56AC66BDCF80070102C27F00107B0
:101D7000CCF80070006C0EFA00F070600846CCF8E9
:101D8000043004BF10460A46CCF80800CCF80C20FA
:101D9000DCF800003DB140F00E000CE0002180F8BE
:101DA00020100220F0BD20F00400CCF80000DCF888
:101DB000000040F00A00CCF80000DCF8000040F021
:101DC0000100CCF800000020F0BD0000B0B50446D2
:101DD00000F094F9054640F20400C2F200000078D9
:101DE000611C18BF044400BF00F088F9401BA042EA
:101DF000FAD3B0BD42F21001C4F20201086840F00B
:101E0000800200200A6070472DE9F04F81B040F653
:101E10007838C2F20008924698F81820012A03D1B7
:101E2000022001B0BDE8F08F8146012088F818003B
:101E30004CF250301C460E46FFF76EF8D0BB4D46B4
:101E400042F21007B9F1020F18BF0425C4F20207CD
:101E5000B9F1010F08BF4D466FF01F0900204FF088
:101E6000000B00BF202200230101A2EB0012C8F8E2
:101E70001C3004FA02F22AFA01F13B68114309EB23
:101E80000012002A58BF24FA02F143F001023A601E
:101E900026F810104CF25030FFF73EF8396821F068
:101EA0000101396030B90BF1010B5FFA8BF085420B
:101EB000D8D80020002188F8181001B0BDE8F08FB4
:101EC00042F20400C4F20200C16809065CBF0020AF
:101ED000704740F22311C4F26751016048F6AB111C
:101EE000CCF6EF510160C068C0F3C010704700002D
:101EF0002DE9F04F82B0D1F800C0BCF1000F00F026
:101F0000F380A0F1804241F60045A2F58432C4F28C
:101F1000010540F2004E4FEAB2240627A842C4F25F
:101F2000010E08BF0527052C4FF000044FF00108F3
:101F30004FF00F034FF0000A4FF0000B38BF4FEA8D
:101F4000B227009708FA0AF91CEA090F0FD100BF5F
:101F5000D1F800C00AF1010A3CFA0AF204F10404C3
:101F600000F0C28008FA0AF91CEA090FF0D04E68A6
:101F70004FF6FF72C1F21002964211DC122E51D8B8
:101F8000DFE806F0340A424650505050505050504E
:101F90005050505050494D00D1F80CB042E000BFB5
:101FA0004FF6FF72C1F2210296420FDC0022C1F20D
:101FB000110296421AD00022C1F21202964215D0A6
:101FC0000022C1F22102964210D02BE00022C1F281
:101FD000220296420AD00022C1F23102964205D076
:101FE0000022C1F2320296421CD100BF8A6842B17F
:101FF000012A14BFC0F81490C0F810904FF0080BDD
:1020000010E04FF0040B0DE0CA6802F1080B09E084
:102010004FF0000B06E0CA6802F1040B02E0CA6848
:1020200002F10C0B22460646BAF1080F24BF203AF3
:102030000436376803FA02F5AF430BFA02F23A436B
:102040003260CA79D2067FF583AF41F21802C4F23A
:102050000202174612680F2542F001023A603A6800
:102060004FF6084702F001020192019A2AF003029A
:102070007244CFF6FF773B46D75904F00C06B540C3
:10208000AF43009D05FA06F63743D7504E680F233D
:10209000F203DEF8002054BF22EA090242EA0902F4
:1020A000CEF80020DEF80420B70354BF22EA09026C
:1020B00042EA0902CEF80420DEF80820F70254BFF5
:1020C00022EA090242EA0902CEF8082040F20C4254
:1020D000B702C4F201021746126854BF22EA09028D
:1020E00042EA09023A6033E702B0BDE8F08F00002F
:1020F0008068084018BF01207047000040F6983003
:10210000C2F200000068704740F2040040F69831C7
:10211000C2F20000C2F2000100780A6810440860B0
:102120007047000080B542F20000C4F2020001686E
:1021300041F010010160032000F08AF8002000F057
:1021400005F800F027F8002080BD000070B540F2CF
:102150000406C2F2000640F20C013278C2F200011D
:102160004FF47A730968B3FBF2F20446B1FBF2F163
:10217000084600F08FFC0F2C4FF0010508D838B945
:102180004FF0FF3021460022002500F035F8746042
:10219000284670BD82B041F21800C4F20200016806
:1021A000022241F001010160016801F00101019189
:1021B0000199416841F080514160406800F08050D1
:1021C000009000980420C4F20100016862F31A61D3
:1021D000016002B070470000002848BF704700F05F
:1021E0001F01012202FA01F14EF200124009CEF263
:1021F000000242F82010704710B54EF60C5CCEF28B
:10220000000CDCF80030C3F3022E8EF00704042C1F
:1022100028BF0424BEF103034FF0FF3E0EFA04F47E
:1022200038BF0023A14399400EFA03F39A4300F00C
:102230000F03043B1143634409010C3300F1604276
:10224000B0F1FF3FC8BF02F56443197010BD000034
:102250004EF60C51CEF200010A684FF6FF031A4009
:1022600060F30A2242F0806040F0FD700860704721
:1022700080B5411E0F294FF0000038D8DFE801F08B
:102280000C29370837373708373737373737373874
:10229000BDE8804000F0FEB941F20400C4F2020043
:1022A000C16940F202320A40B2F5817F04BF4FF4A7
:1022B000004080BD01F44071B1F5407F48D0B1F5D8
:1022C000007F4DD1006A49F64041800701EAE07085
:1022D00080BD00F0CBF941F20401C4F202010968AB
:1022E0000222C1F3813102EB4101B0FBF1F080BD6C
:1022F00041F20401C4F202010A6851F8040CC00161
:102300005CBF002080BDC2F3834016A3185CD203DB
:1023100005D440F60012C0F23D0250430BE00A68BB
:1023200014A3C2F340429A5C41F20023C0F27A0344
:10233000B3FBF2F250430968490248BF80BD4AF638
:10234000AB214000CAF6AA21A0FB0101480880BDCC
:1023500050F8040C4FF22441800301EAE07080BD84
:10236000002080BD02030405060708090A0B0C0DB6
:102370000E0F1010010200002DE9F04182B004465A
:10238000007841F21C06C007C4F2020660D0306833
:10239000C0000BD430684FF0010840F0805030602E
:1023A000306800F080500190019801E04FF0000883
:1023B00047F20007C4F200073868C00512D4386835
:1023C00040F480703860FFF799FE05463868C00514
:1023D00008D4FFF793FE401B6428F7D9032002B00E
:1023E000BDE8F081706810F4407024D0616801F499
:1023F000407188421FD0706840F24042C4F24222CD
:10240000012320F4407113600023C0071360716042
:1024100011D0FFF773FE054641F2883770688007D8
:1024200009D4FFF76BFE401BB8424FF00300F5D90B
:1024300002B0BDE8F0817068616820F44070084324
:10244000B8F1000F706003D0306820F08050306029
:102450002068810707D556F8181CA26821F440416E
:10246000114346F8181CC00603D4002002B0BDE892
:10247000F08156F8180C616920F48000084346F892
:10248000180C002002B0BDE8F08100002DE9F043F7
:1024900081B0002800F0AB8042F20008C4F20208CC
:1024A0000446D8F800000D4600F0070088420DD21F
:1024B000D8F8000020F007002843C8F80000D8F83A
:1024C000000000F00700A84240F09180206841F22F
:1024D00004098107C4F2020917D5410705D5D9F8C7
:1024E000001041F4E061C9F80010010705D5D9F8E2
:1024F000001041F46051C9F80010D9F80010A2682A
:1025000021F0F0011143C9F80010C0072DD0606818
:10251000012804D159F8041C890368D508E059F84A
:10252000041C022802D1890161D501E089075ED52A
:10253000D9F8001021F003010843C9F80000FFF7A3
:10254000DDFD064641F28837D9F80000616800F0E9
:102550000C00B0EB810F08D0FFF7D0FD801BB84214
:10256000F2D9032001B0BDE8F083D8F8000000F0F4
:102570000700A8420CD9D8F8000020F00700284333
:10258000C8F80000D8F8000000F00700A8422ED1DB
:102590002068410707D5D9F80010E26821F4E0610E
:1025A0001143C9F80010000708D5D9F800002169C7
:1025B00020F4605040EAC100C9F80000D9F80020BA
:1025C00002F00C00082841F20020C0F27A001ED16F
:1025D00044F2A633C2F38341C0F60003595CD20330
:1025E00009D440F60010C0F23D0048430FE001203E
:1025F00001B0BDE8F083D9F8002044F28C33C2F377
:102600004042C0F600039A5C4843B0FBF2F0D9F8B0
:10261000001044F28E32C1F30311C0F60002515C87
:1026200040F20C0220FA01F140F20800C2F2000070
:102630000068C2F200021160FFF788FD002001B0BF
:10264000BDE8F08340F20C0041F20401C2F2000048
:10265000C4F202010068096844F29E32C1F302210B
:10266000C0F60002515CC8407047000040F20C0008
:1026700041F20401C2F20000C4F2020100680968DC
:1026800044F29E32C1F3C221C0F60002515CC84040
:102690007047000041F2040CC4F2020CDCF8003078
:1026A00003F00C00082841F20020C0F27A0018BFA5
:1026B000704744F2A631C3F38342C0F600018A5C3E
:1026C000D90305D440F60010C0F23D0050437047D6
:1026D000DCF8001044F28C33C1F34041C0F6000333
:1026E000595C5043B0FBF1F0704700002DE9F04118
:1026F00082B0002800F0A5800446007841F2000670
:10270000C007C4F202064CD0706800F00C00042828
:1027100017D0706800F00C00082802D17068C00360
:102720000FD4606898B1B0F5803F06D03168B0F53D
:10273000A02F22D141F480203060306840F48030F6
:1027400021E0306880032CD5606850BB79E03068A8
:1027500020F480303060306820F480203060FFF753
:10276000CDFC0546306880031BD5FFF7C7FC401B36
:1027700064284FF00300F5D988E121F480303060FF
:10278000306820F480203060FFF7B8FC054600BFB9
:102790003068800305D4FFF7B1FC401B6428F7D9EB
:1027A00040E1207880072FD5706810F00C0F07D01B
:1027B000706800F00C00082809D17068C00306D4C6
:1027C0003068800719D5206901283AD115E02069C1
:1027D000002840F20000C4F2422000F0E380012112
:1027E0000160FFF78BFC05463068800705D4FFF7D2
:1027F00085FC401B0228F7D914E13068616920F09C
:10280000F80040EAC1003060207800071DD420782D
:1028100040072ED4E569002D00F03781706800F084
:102820000C00082871D1012D0BD07068216A00F4CA
:1028300080328A4205D1616A00F47010884200F04B
:102840002481012002B0BDE8F081A06900B300201E
:10285000C4F242200121C0F88014FFF74FFC054666
:10286000706A800774D4FFF749FC401B0228F7D92F
:10287000D8E0F069C0001ED4F0694FF0010840F0C4
:102880008050F061F06900F080500090009814E0F2
:102890000020C4F242200021C0F88014FFF72EFC73
:1028A000054600BF706A8007B1D5FFF727FC401BC3
:1028B0000228F7D9B6E04FF0000847F20007C4F24B
:1028C00000073868C00510D4386840F4807038605C
:1028D000FFF714FC054600BF3868C00505D4FFF7B4
:1028E0000DFC401B6428F7D99CE0E06800286BD001
:1028F000012806D0316A052840F07F8041F00400AD
:102900003062306A40F001007DE00027C4F24227C7
:1029100000203866FFF7F2FB022D05460CD100BF00
:102920003068800140F18F80FFF7E8FB401B0228F0
:102930004FF00300F4D9A9E03068800140F1A58090
:10294000FFF7DCFB401B02284FF00300F4D99DE0A9
:1029500040F20C00C2F20000006844F6D351C1F20C
:102960006201A0FB0101480A019000BF00BF01986D
:10297000411E002801913FF44AAF00BF0198411E5B
:10298000002801913FF443AF00BF0198411E002889
:1029900001913FF43CAF00BF0198411E0028019116
:1029A000E4D134E700210160FFF7A8FB054600BF32
:1029B000306880077FF528AFFFF7A0FB401B022897
:1029C0004FF00300F4D961E0306A20F0010030627A
:1029D000306A20F004003062FFF790FB054641F2B8
:1029E000883700BF306A800720D5FFF787FB401B80
:1029F000B8424FF00300F5D948E021F00100306201
:102A0000306A20F004003062FFF778FB054641F29F
:102A1000883700BF306A800708D4FFF76FFB401B80
:102A2000B842F7D9032002B0BDE8F081B8F1000F39
:102A30003FF4F0AEF06920F08050F061E569002DC0
:102A40007FF4ECAE21E0206AB0F5803F05D17168DB
:102A5000A26821F40031114371607168626A21F447
:102A6000741110430843706001203866FFF746FB7D
:102A7000044600BF3068800107D4FFF73FFB001B0E
:102A800002284FF00300F5D900E0002002B0BDE8B5
:102A9000F0810000411E0020B0EB116F1CBF01202F
:102AA00070474EF21002CEF2000251604EF62351F2
:102AB000CEF20001F0230B70072190601160704787
:102AC00010B590F83C20012A4FF0020241D00123BA
:102AD00080F83C3080F83D200268D2F804E0D2F85B
:102AE00008C00C682EF07003234340F6FF34C4F294
:102AF0000004A24253600FDCB2F1804F1ED040F2BE
:102B00000043C4F200039A4218D040F60003C4F216
:102B100000039A4212D016E040F60043C4F20003CC
:102B20009A420BD043F20043C4F201039A4205D00B
:102B300042F60043C4F201039A4204D149682CF0E2
:102B40008003194391600121002280F83D1080F834
:102B50003C20104610BD0000002804BF0120704733
:102B600010B5044690F83D0028B9002084F83C00D8
:102B7000204600F083F8022084F83D00206840F6EB
:102B8000FF330268C4F2000343F2004C9842C4F2DF
:102B9000010C20DCB0F1804F2BD040F20041C4F298
:102BA0000001884225D040F60001C4F200018842AD
:102BB0001FD0984223DCB0F1804F2ED040F200416C
:102BC000C4F20001884228D040F60001C4F200019E
:102BD000884222D025E040F60041C4F2000188423C
:102BE00007D0604505D042F60041C4F20101884299
:102BF000DFD1A16822F070020A439842DBDD40F683
:102C00000041C4F20001884207D0604505D042F679
:102C10000041C4F20101884203D1216922F44072CB
:102C20000A43A36922F08001D4F804E0E268194362
:102C300060450160C262C0F828E005D042F600415C
:102C4000C4F20101884201D161690163012141613E
:102C5000002084F8461084F83E1084F83F1084F871
:102C6000401084F8411084F8421084F8431084F82E
:102C7000441084F8451084F83D1010BD81B0006800
:102C8000B0F1804F01D001B0704741F21C00C4F296
:102C90000200016841F001010160006800F00100DC
:102CA0000090009801B0704780B590F83C20012A50
:102CB0004FF0020200F0C080012380F83C3080F821
:102CC0003D20D0F800C04FF67772DCF8083023EAD8
:102CD0000202CCF808200B683F2B1CDD5F2B20DDA7
:102CE000602B4FD0B3F5005F6CD0702B40F09E800E
:102CF000D1E901E3C968DCF8082043EA0E0322F4B5
:102D00007F4243EA01211143CCF80810DCF8081097
:102D100041F0770188E01F2B28DC5BB3102B29D012
:102D200084E0402B61D0502B40F08080D1F804E04B
:102D3000C968DCF82030DCF8202022F00102CCF851
:102D40002020DCF8182022F0F00242EA011123F0E2
:102D50000A0242EA0E02CCF81810CCF82020DCF867
:102D6000081041F0570121F020015DE0202B01D037
:102D7000302B5BD1DCF8081021F07001194341F0D1
:102D8000070151E0D1F804E0C968DCF8203023F0F5
:102D90001003CCF82030DCF81830DCF8202023F4C5
:102DA000704322F0A00243EA013142EA0E12CCF84D
:102DB0001810CCF82020DCF8081041F0670121F051
:102DC000100131E0D1E901E3C968DCF8082043EAE9
:102DD0000E0322F47F4243EA01211143CCF808108C
:102DE000DCF8081041F480411EE0D1F804E0C96825
:102DF000DCF82030DCF8202022F00102CCF8202082
:102E0000DCF8182022F0F00242EA011123F00A0255
:102E100042EA0E02CCF81810CCF82020DCF808109A
:102E200041F0470121F03001CCF8081001210022C7
:102E300080F83D1080F83C20104680BD80B586B0FB
:102E40000068B0F1804F4FF00000CDE90400CDE9FB
:102E5000020001D006B080BD41F21800C4F20200A9
:102E6000016841F008010160006802A900F0080053
:102E7000019001984FF47060029002200390059039
:102E800040F60040C4F20100FFF732F80420C4F21B
:102E9000010001684FF6FF42CFF6FF02114041F0FA
:102EA000E06141F40071016006B080BDF0B590F8BA
:102EB0003C30012B02D102210846F0BD4FEAB2029C
:102EC0000123032A80F83C3000F21881DFE802F089
:102ED000024993DD03681A6A22F001021A621A4657
:102EE0001E6AD3F804C052F8185F0C6825F0730509
:102EF0008F6845EA040E43F2004526F00204C4F24E
:102F00000105AB4244EA070405D042F60046C4F28C
:102F10000106B34205D1CE6824F00C0426F0040665
:102F20003443AB4205D042F60045C4F20105AB4242
:102F300006D1D1E905652CF44077374347EA050C03
:102F4000C3F804C0C3F818E04F6809695F631C62E6
:102F50009F6947F008079F619F6927F004079F61F9
:102F6000C9E003681A6A22F010021A621A461C6A43
:102F7000D3F804C052F8187F0E6827F4E6478D682E
:102F800047EA062E43F2004624F02004C4F201066C
:102F9000B34244EA051405D042F60045C4F20105E7
:102FA000AB4207D1CD686FF0400724F0C00407EAB8
:102FB00005152C43B34205D042F60045C4F2010585
:102FC000AB4207D1D1E905652CF4406747EA860793
:102FD00047EA850CC3F804C0C3F818E04F680969D4
:102FE0009F631C629F6947F400679F619F6927F494
:102FF00080679F617EE003681A6A22F480721A6219
:103000001A461C6AD3F804C052F81C7F0E6827F0D9
:1030100073078D6847EA060E43F2004624F40074F5
:10302000C4F20106B34244EA052405D042F6004545
:10303000C4F20105AB4207D1CD6840F2FF472D0233
:1030400024F44064BD432C43B34205D042F600450E
:10305000C4F20105AB4207D1D1E905652CF4405714
:1030600047EA061747EA051CC3F804C0C3F81CE08A
:103070004F680969DF631C62DF6947F00807DF6199
:10308000DF6927F00407DF6135E003681A6A22F47C
:1030900080521A621A46D3F820E05C6852F81C6F1E
:1030A0000D6826F4E6468F6846EA052C43F2004593
:1030B0002EF40056C4F20105AB4246EA073505D0AE
:1030C00042F60047C4F20107BB4204D14F6924F421
:1030D000804646EA87145C60C3F81CC04F680969E3
:1030E0001F641D62DF6947F40067DF61DF6927F451
:1030F0008067DF610902136819431160002180F8BD
:103100003C100846F0BD0000002804BF01207047B5
:1031100010B5044690F83D0028B9002084F83C0022
:10312000204600F083F8022084F83D00206840F635
:10313000FF330268C4F2000343F2004C9842C4F229
:10314000010C20DCB0F1804F2BD040F20041C4F2E2
:103150000001884225D040F60001C4F200018842F7
:103160001FD0984223DCB0F1804F2ED040F20041B6
:10317000C4F20001884228D040F60001C4F20001E8
:10318000884222D025E040F60041C4F20001884286
:1031900007D0604505D042F60041C4F201018842E3
:1031A000DFD1A16822F070020A439842DBDD40F6CD
:1031B0000041C4F20001884207D0604505D042F6C4
:1031C0000041C4F20101884203D1216922F4407216
:1031D0000A43A36922F08001D4F804E0E2681943AD
:1031E00060450160C262C0F828E005D042F60041A7
:1031F000C4F20101884201D1616901630121416189
:10320000002084F8461084F83E1084F83F1084F8BB
:10321000401084F8411084F8421084F8431084F878
:10322000441084F8451084F83D1010BD704700002C
:1032300041B1082909D0042914BF00F1410200F16D
:103240003F0204E000F13E0201E000F1400212788A
:10325000012A1CBF01207047022241B1082909D070
:10326000042914BF80F8412080F83F2004E080F852
:103270003E2001E080F84020006801F01F0101229B
:10328000036A02FA01F123EA01020262026A0A43B6
:1032900040F6FF31C4F200018842026217DD40F6B9
:1032A0000042C4F20002904220D043F2004CC4F22B
:1032B000010C604505D042F60043C4F20103984278
:1032C0001BD1436C884243F4004343641BDCB0F1E0
:1032D000804F0BD040F20041C4F20001884205D07B
:1032E00040F60001C4F20001884206D1816801F075
:1032F0000701062904BF00207047016841F0010161
:103300000160002070479042F0D06045EED042F658
:103310000041C4F201018842E8D0EEE770470000A6
:1033200070470000002804BF0120704710B5044614
:1033300090F83D0028B9002084F83C00204600F0B9
:103340005FF8242084F83D002068D4E90212C368A5
:1033500023F40053C360036923F440531A4302610A
:10336000D4E904231143C268194341F20C639A4320
:103370001143C1604169A26921F44071114343F6D0
:103380000002C4F201029042416102D0FFF75AF9F3
:1033900001E0FFF76BF96268192148439100B0FB27
:1033A000F1F048F21F51C5F2EB11A0FB01235A09BD
:1033B0006FF0630302FB0300322303EB0010A0FB5A
:1033C0000101F02303EA5113206803EB0212C1F359
:1033D000431111448160016921F490410161416907
:1033E00021F02A014161C16841F40051C16000200F
:1033F0002021206484F83D1084F83E1010BD0000A8
:103400002DE9F04186B0002740F600050597CDE98B
:1034100003770446C4F201050068A5F544418842DB
:10342000029702D006B0BDE8F08141F21400C4F268
:10343000020081684FF0020841F400318160816828
:1034400002AE01F4003101910199416841F004019B
:103450004160416801F0040101910199016841F066
:10346000010101600068314600F0010001900198FF
:10347000042002900320CDF80C8005902846FEF72A
:1034800037FD082002A981E8810128463146FEF770
:103490002FFD40F6A4256C20C2F20005C4F2020004
:1034A00080212022C5E900072846C5E90271C5E947
:1034B0000477C5E90627FEF7F3FBA5636C6206B047
:1034C000BDE8F08170B582B0054690F83E00202836
:1034D0000ED113460A4600294FF0010418BF002BF5
:1034E00002D1204602B070BD95F83C00012803D1FE
:1034F0000224204602B070BD012085F83C00002463
:1035000022202C63AA62AB852C6485F83E002968D2
:10351000A86B43F67D7C43F6C97E43F61176C0F670
:10352000000CC0F6000EC0F600060431C0E90ACE59
:10353000C0E90C64FEF7FCFB019428680168019166
:1035400041680191019985F83C40C16841F480715E
:10355000C160416941F001014161416941F04001AF
:103560004161204602B070BD704700007047000006
:103570002DE9F04381B0044690F83D0020280DD19C
:103580000F4600294FF0010000F0AE801646002AD9
:1035900000F0AA8094F83C00012803D1022001B079
:1035A000BDE8F083012084F83C004FF000092120A1
:1035B0001D46C4F8409084F83D00FEF79FFDA684A8
:1035C000E684A1688046B1F5805F07D120690028B4
:1035D0001CBF38464F463E46074600E0002684F8AA
:1035E0003C90E28C2068002A01685BD06A1C2BD0DA
:1035F000002D50D0090609D4FEF780FDA0EB08018C
:103600002068A94273D801680906F5D517B117F8E3
:10361000011B04E036F8021B00276FF35F214160B5
:10362000E18C0139E184E28C0168002AE2D139E0C1
:1036300036F8021B00276FF35F214160E18C0139EE
:10364000E184E28C01686AB309065FBF01685FEA42
:10365000016101685FEA01610CD40168090609D4BF
:10366000016809065FBF01685FEA016101685FEAFE
:103670000161F2D5002FDBD017F8011BDDE736F82A
:10368000021B00276FF35F214160E18C0139E18467
:10369000E28C016832B1090629D5002FEFD017F866
:1036A000011BF1E749061BD40DB3691C0ED101685B
:1036B000490615D4016849065CBF01685FEA4161AB
:1036C0000ED401684906F2D50AE000BFFEF716FDE8
:1036D000A0EB08012068A94209D800684006F5D58A
:1036E000202084F83D00002001B0BDE8F083C168CF
:1036F00021F4D071C160416921F0010141612020B4
:1037000084F83D0084F83E00002084F83C0003204B
:1037100001B0BDE8F0830000FEE7000040F22200A7
:10372000C2F2000000210170704700002DE9F04155
:1037300084B040F6302042F20041C2F20000C4F2F0
:1037400001014FF4807201254FF000084FF460230F
:103750000A27057380F81480C361C0E900188260ED
:103760000761FDF79FFE002818BFFDF7BFFB40F67D
:103770003024C2F200042046FDF74AFD05260396D8
:10378000CDE9017501AD20462946FDF7CBFD0B20A3
:1037900001900220029020462946FDF7C3FD0C202F
:1037A00001900320029020462946FDF7BBFD0D2025
:1037B00001900420029020462946FDF7B3FD0E201B
:1037C000CDE9010620462946FDF7ACFD0620CDE9EE
:1037D000010020462946FDF7A5FD0720CDE901009F
:1037E00020462946FDF79EFD0820CDE90100204630
:1037F0002946FDF797FD0920CDE90100204629461D
:10380000FDF790FD20462946CDE90187FDF78AFDA9
:1038100040F2F001C2F2000120460A22FDF78AFFC1
:1038200004B0BDE8F081000070B586B0002441F21C
:103830001800CDE90444C4F20200416847F2004692
:1038400041F0005141604168C4F2000601F00051AE
:1038500000910099016841F0040101600068694627
:1038600000F00400009000983020CDE90244009060
:103870000320019006F51440FEF73AFB40F2CC0518
:10388000C2F20005284640F8106FFEF705F8002840
:1038900018BFFDF72BFBCDE9044405F1100404A982
:1038A00020460022FDF7D2FF002818BFFDF71EFBBF
:1038B00004A920461022FDF7C9FF002818BFFDF714
:1038C00015FB20460021FEF73FF820461021FEF7A9
:1038D0003BF82046002100220023FEF721F8204675
:1038E000102100220023FEF71BF806B070BD000077
:1038F00010B58EB040F6E8200021C2F200004FF073
:10390000804201234FF47A740D91CDE90B11CDE97A
:103910000911CDE90711CDE90511CDE90311CDE973
:103920000111C0E90023C0E9021401618021816115
:10393000FFF712F9002818BFFDF7D8FA4FF48050AE
:103940000A9040F6E820C2F200000AA9FFF7ACF99D
:10395000002818BFFDF7CAFA40F6E820C2F20000BE
:10396000FFF7D2FB002818BFFDF7C0FA40F6E820A9
:103970000024C2F2000008A9CDE90844FFF7A0F82E
:10398000002818BFFDF7B2FA6020CDE9010440F627
:10399000E820C2F2000001A9002203940594FFF779
:1039A00085FA002818BFFDF7A1FA40F6E820C2F218
:1039B000000001A90422FFF779FA002818BFFDF7DB
:1039C00095FA40F6E820C2F2000001A90822FFF7AC
:1039D0006DFA002818BFFDF789FA40F6E820C2F218
:1039E000000001A90C22FFF761FA002818BFFDF7BB
:1039F0007DFA40F6E824C2F200042046FFF71EFAE2
:103A000020460021FFF714FC20460421FFF710FC9C
:103A100020460821FFF70CFC20460C21FFF708FC8C
:103A20000EB010BD80B540F6303044F20041C2F215
:103A30000000C4F2000100234FF00C0C4FF461327F
:103A400080E80E00C0E90333C0E905C3C361FFF796
:103A500069FC002818BFFDF749FA40F6303040F203
:103A60006811C2F20000C2F200016422FFF72AFDD1
:103A7000002808BF80BDBDE88040FDF737BA0000D0
:103A8000FEE700007047000080B540F60000C4F279
:103A900001000221FEF72CFB0138B0FA80F04FEA5A
:103AA000501140F2CC00C2F2000007D142880378E6
:103AB0000132428013B9828801328280C28801704B
:103AC000511C8AB242F210739A42C18038BF80BD45
:103AD000B0F802C048F21F52C5F2EB12ACFB022E46
:103AE00082884CF6CD41CCF6CC41A2FB01134FEAC3
:103AF0005E114170D908B2F5FA7F018103D8002325
:103B000043814AB913E0A2F5FA7140F2DB539A42BD
:103B100088BF4FF47A71418142F21071A1EB0C0120
:103B200040F29F135943B1FBF2F1A1F22D33002172
:103B30008381C0F80210C18080BD00007047000082
:103B400070B540F22E04C2F20004E08D002844D08B
:103B500040F27006C2F20006002006F10C05E08576
:103B6000204629464022FCF742FB58B1204640211E
:103B7000FDF7AEFA608BF18C884241D12846402196
:103B8000FDF772FAFDF7ACFA4FF20C41884218DDEE
:103B90004FF20D41884221D04FF61101884223D0C7
:103BA0004FF61211884218BF70BD0220307040F6E7
:103BB000FF7000F06FF940F6FF70BDE8704000F054
:103BC00077B94FF20A11884203D04FF20B21884295
:103BD00003D1BDE87040FDF74DB870BD03203070D3
:103BE000BDE87040FCF748BF00203070002000F0B6
:103BF00051F9002000F05CF9BDE87040FDF73AB8DB
:103C00004FF4FA70FEF7E2F8012080F3138800F019
:103C1000E9F900002DE9F04F87B006466FF3110077
:103C2000B0F1006F1CBF07B0BDE8F08F14460591DE
:103C30004FF6FF75FEF744F906F1784003964FEA18
:103C4000D02CC0F3490E40F2CC1BCEF58060A146CB
:103C50004FEACC284FF0006AC2F2000BA04238BFF6
:103C6000044600BF0221C0F600010AEBCC2041440B
:103C7000002200BF08EB020333F80A302BF80230B1
:103C80008F5A0BEB02035F808F187E8820329E8054
:103C9000BE88B2F5006FDE80FE881E813E895E819F
:103CA0007E899E81BE89DE81FE891E823E8A5E8279
:103CB0007E8A9E82BE8ADE82FE8A1E833E8B5E8361
:103CC0007E8B9E83BF8BDF83D4D1A1B20029CDF838
:103CD00008C00494069143D00BEB4E07CDF8049036
:103CE000C1F1000CBA1DA1F10109002332F8066CE4
:103CF000AE4241D1994516D007EB43067488AC42D9
:103D00003AD10CEB0304A11C0DD0B188A94233D1E8
:103D1000E11C08D01188A9422ED10699043399429A
:103D200002F10802E2D14CF25030FDF7F5F80498A8
:103D3000019C039E000400F087800598DDF8189030
:103D4000851E374635F8022F012039460023FEF73D
:103D50005BF8B9F1010907F10207F3D174E000BF84
:103D60004CF25030FDF7D8F8039E4C460699A0B2AD
:103D700088426DD187E000BFCDF800E0FDF7B8F8CC
:103D80004CF25030FDF7C8F842F21000C4F20200C5
:103D900001460068B9F1030F20F0020008600698A0
:103DA00000F0030C07D2DDF814900021009BBCF159
:103DB000000F1FD136E0DDF81490A0EB0C0E0021AF
:103DC0006FF0010309EB03067588FC18658009EBA9
:103DD0004105688807EB41025080A8880431908033
:103DE00030898E4503F108032081EBD1009BBCF1A3
:103DF000000F17D039F81100CA18BCF1010F2BF8C9
:103E000012000FD0481C39F810201844BCF1020FE2
:103E10002BF8102006D0881C39F8101018442BF805
:103E2000101000BF019C039EABF102054FF000672C
:103E300035F8022F08EB070101200023FDF7E4FF0E
:103E40000237B7F1082FF3D10699A0B288421AD0F1
:103E5000059806EB410600EB4100DDF808C005902F
:103E6000039604980CF1010C241AA0B2B0F5806FEF
:103E7000A14628BF4FF4806408F500684FF0000E9B
:103E80004FF6FF75EEE607B0BDE8F04FFDF7B2BFA5
:103E90007047000040F6FF73984238BF034640F277
:103EA000CC00C2F20000103000210022FDF738BD26
:103EB00040F6FF73984238BF034640F2CC00C2F28E
:103EC0000000103010210022FDF72ABD80B5FEF75A
:103ED0001BF940F21800C2F2000001884A1C332985
:103EE00002800ED3418842F2CD52514344F6D35260
:103EF000C1F26202A1FB02120021920901808280BC
:103F00004180BDE88040FFF7BFBD00007047000062
:103F1000406A01684A6990F83D30212B0BD112F0BC
:103F2000800208D00022C284CA6822F0C002CA609F
:103F3000202280F83D204A6990F83E30222B17D18C
:103F400012F0400214D00022C285CB6823F4907393
:103F5000CB604B6923F001034B61036B012B03D151
:103F6000CB6823F01003CB60202180F83E10026361
:103F7000016C41F010010164FFF7D2B90168406A99
:103F80000968890618D40021C1850168CA6822F42D
:103F90008072CA604A6922F001024A614A6922F0CD
:103FA00040024A61202280F83E20026B012A03D1A0
:103FB000CA6822F01002CA60016B012918BFFFF71E
:103FC000D3BA818DFFF7AAB9406A016B012918BFE6
:103FD000FFF7CCBA818D4908FFF7A0B97047000000
:103FE000FEE700004EF60C50BFF34F8FCEF20000FC
:103FF0000168042201F4E061C0F2FA521143016049
:10400000BFF34F8F00BFFDE710B582B004468DF8B7
:10401000070040F63030C2F200000DF10701012226
:104020004FF0FF33FFF7A4FA204602B010BD0000A6
:1040300096B0FEF777F8002602270120CDE9116639
:10404000CDE90F66CDE90C760E96109010201190F8
:104050004FF46010CDE9137615900CA80696CDE9C3
:104060000466CDE90266FEF741FB0F20CDE90707A4
:104070004FF480600996CDE90A0607A80221FEF7F1
:1040800005FA4FF400400197039001A8FEF774F978
:1040900041F218000F96C4F20200016840F60004D5
:1040A00041F0200101600168C4F2010401F0200127
:1040B0000191019901680CAD41F0100101600168A6
:1040C00001F0100101910199016841F004010160C2
:1040D000016801F0040101910199016841F00801B2
:1040E00001600068294600F0080001900198202036
:1040F0000C900020C1F23100CDE90D0604F50060FE
:10410000FDF7F6FE20462946CDE90C760E96FDF722
:10411000EFFE172000210022FEF76EF81720FEF7B1
:104120005BF8FFF703FBFFF7E3FBFFF77BFCFFF711
:104130007BFBFCF75DFFFFF7F1FAFCF79BFD48F214
:104140001F55C5F2EB1564260CE0FCF767F9FCF788
:10415000B1F9FCF769FE00BFFCF7C0FBFFF7F0FC0C
:10416000FCF7F6F9FDF736F80446FDF7C7FF022C19
:104170000CD2A0FB0512510901FB16001428E4D053
:104180000028E9D1FCF7B2FFE6E700BFE4D1FCF775
:10419000C9FBE1E70FB4054B10B503A9044A029827
:1041A00000F018F810BC5DF814FB0000094000088E
:1041B0000000002002E008C8121F08C1002AFAD13E
:1041C00070477047002001E001C1121F002AFBD197
:1041D000704700002DE9FF4F8BB09A460F46054609
:1041E000002606E025280BD052460D9990476D1CFD
:1041F000761C28780028F5D10FB03046BDE8F08F46
:104200000024A0460122604900E0044315F8013F64
:10421000203B02FA03F00842F7D128782E2817D164
:1042200015F8010F44F004042A280ED06FF02F0275
:104230002878A0F1300109290AD808EB880102EB9F
:10424000410100EB01086D1CF2E757F8048B6D1C6F
:10425000287869283ED006DC0028CDD063280BD012
:10426000642804D136E0732810D075284BD052460C
:104270000D999047761C85E017F8040B8DF8000027
:1042800000208DF80100E946012003E057F8049B67
:104290004FF0FF3061074FF0000401D40AE0641CC6
:1042A00044450DDA8442FADB19F804100029F6D1EE
:1042B00006E0641C8442FCDB19F804100029F8D1E4
:1042C000264404E019F8010B52460D999047641EEC
:1042D000F8D257E001CF4FF00A0B002802DA404233
:1042E0002D2102E0210504D52B218DF82410012178
:1042F00003E0E10705D02021F7E70DF1200908913F
:104300000CE00021F9E701CF4FF00A0BF9E759461D
:10431000FBF77AFF01F1300209F8012D0028F6D1F0
:10432000ADEB090000F1200B600701D44FF001084C
:10433000D84502DDA8EB0B0000E0002080460024F9
:1043400006E009A85246005D0D999047641C761C52
:1043500008988442F5DB04E0302052460D999047DE
:10436000761CB8F10001A8F10108F5DC05E019F8A8
:10437000010B52460D999047761CBBF10001ABF141
:10438000010BF4DC6D1C34E7092801000102000078
:1043900000000000000001020304060708090000F5
:1043A00000000102030402030405060708090A0BC2
:1043B0000C0D0E0F1010737461727456616C75657C
:1043C0005368322E7478743D22256422FFFFFF006B
:1043D00066756C6C56616C756553686F77322E74B8
:1043E00078743D22256422FFFFFF007370726179AB
:1043F00049646C652E7478743D22256422FFFFFFAA
:104400000073707261794F702E7478743D22256448
:1044100022FFFFFF0066756C6C56616C7565536812
:104420006F772E7478743D22256422FFFFFF00739E
:104430007461727456616C756553686F772E747809
:10444000743D22256422FFFFFF0076697320466CCD
:1044500075696449636F2C30FFFFFF007669732034
:10446000686949636F2C30FFFFFF00766973206C29
:104470006F7749636F2C30FFFFFF00706167652025
:104480007061676530FFFFFF0076697320746573A4
:104490007449636F2C31FFFFFF0070616765207006
:1044A00061676531FFFFFF00666C65783130302E43
:1044B00076616C3D2564FFFFFF00666C6578302EE9
:1044C00076616C3D2564FFFFFF00535441312E7629
:1044D000616C3D2564FFFFFF0046554C4C312E7644
:1044E000616C3D2564FFFFFF0070756D70456E6166
:1044F000626C65312E76616C3D2564FFFFFF0053D1
:104500005441322E76616C3D2564FFFFFF00465515
:104510004C4C322E76616C3D2564FFFFFF007075B8
:104520006D70456E61626C65322E76616C3D2564FE
:10453000FFFFFF0045585F5345542E76616C3D25C3
:1045400064FFFFFF006E616D652E76616C3D256432
:10455000FFFFFF007261696E4F666654696D652EDC
:1045600076616C3D2564FFFFFF007261696E4F6EDE
:1045700054696D652E76616C3D2564FFFFFF006C0C
:104580006967687453656E2E76616C3D2564FFFF24
:10459000FF0073707261794D61696E2E76616C3DBA
:1045A0002564FFFFFF0073657445784175746F2EB5
:1045B00076616C3D2564FFFFFF006D616654797084
:1045C0006553656C6563742E76616C3D2564FFFFF1
:1045D000FF006272696768742E76616C3D2564FF26
:1045E000FFFF00657844656C61792E76616C3D252E
:1045F00064FFFFFF0070756D7053746444757479C7
:104600002E76616C3D2564FFFFFF0025732E7661D9
:104610006C3D2564FFFFFF003846000800000020C5
:1046200018000000B441000850460008180000209F
:10463000880F0000C44100080000000001000000D5
:10464000100000000024F400FF0000000000000043
:0400000508000131BD
:00000001FF
