:020000040800F2
:10000000080F00204501000835390008193600089E
:10001000313900084D0500088D3E00080000000041
:100020000000000000000000000000003D3D00084E
:10003000A508000800000000ED390008793D00081F
:100040005F0100085F0100085F0100085F01000810
:100050005F0100085F0100085F0100085F01000800
:100060005F0100085F0100085F01000899080008AF
:100070005F0100085F0100085F0100085F010008E0
:100080005F0100085F0100085F0100085F010008D0
:100090005F0100085F0100085F010008150E0008FD
:1000A0005F0100085F0100085F0100085F010008B0
:1000B0005F0100085F0100085F0100085F010008A0
:1000C0005F0100085F0100085F0100085F01000890
:1000D0005F0100085F010008893E00085F01000819
:1000E0005F0100085F0100085F0100085F01000870
:1000F0005F0100085F0100085F0100085F01000860
:100100005F0100085F0100085F0100085F0100084F
:100110005F0100085F0100085F0100085F0100083F
:100120005F0100085F0100085F0100085F0100082F
:10013000DFF80CD000F09EF800480047DD3E0008D4
:10014000080F00200648804706480047FEE7FEE704
:10015000FEE7FEE7FEE7FEE7FEE7FEE7FEE7FEE777
:10016000B93D0008310100082DE9F05F0546002087
:1001700092469B4688460646814640241BE0284618
:1001800041464746224600F064F853465A46C01A94
:10019000914110D311461846224600F04BF82D1A13
:1001A00067EB01084F4622460120002100F042F88B
:1001B00017EB00094E41201EA4F10104DFDC484684
:1001C00031462A464346BDE8F09F40EA01039B07BB
:1001D00003D009E008C9121F08C0042AFAD203E0BC
:1001E00011F8013B00F8013B521EF9D2704730B5BF
:1001F00004460020034600E05B1C934203D2E05C0F
:10020000CD5C401BF8D030BD30B50B460146002018
:100210002022012409E021FA02F59D4205D303FAC8
:1002200002F5491B04FA02F52844151EA2F1010249
:10023000F1DC30BD202A04DB203A00FA02F1002074
:1002400070479140C2F1200320FA03F31943904014
:100250007047202A04DB203A21FA02F0002170477F
:1002600021FA02F3D040C2F120029140084319461E
:10027000704700001CB509480090094801900546E8
:10028000009C06E0E06840F0010394E8070098470E
:100290001034AC42F6D3FFF74FFF0000D042000805
:1002A000F0420008B0B5044600688168C90721D053
:1002B000816821F00101816001F0A0FE2168896858
:1002C000C90717D0054602E08068C00712D001F0C8
:1002D00095FE411B20680329F6D38168C907F3D036
:1002E000A06A40F01000A062E06A40F00100E06205
:1002F0000120B0BD0020B0BD0146406A826A12F004
:10030000500F03D0006A026B084610470168826AEA
:1003100042F400728262896801F46021B1F5602FB5
:1003200001D1017B09B101F071B8816A21F48071BA
:100330008162816AC90448BF01F068B8816A41F0EE
:100340000101816201F062B8406A816A41F04001B6
:100350008162C16A41F00401C16201F05BB8000032
:10036000406A01F055B80000B0B582B004460020E4
:10037000019021688A68D2074ED1886840F0010058
:10038000886040F20C00C2F2000000684DF6836104
:10039000C4F21B31A0FB0101880C01900198A0B1AF
:1003A000019801380190019878B1019801380190C5
:1003B000019850B1019801380190019828B1019835
:1003C0000138019001980028EAD101F017FE216858
:1003D0008968C9071CD1054603E000BF8068C007D3
:1003E00019D101F00BFE411B20680329F6D3816867
:1003F000C907F3D1A06A40F01000A062E06A40F0A3
:100400000100E062002084F82400012002B0B0BDA9
:10041000002002B0B0BD002002B0B0BDB0B500F009
:100420009FFE00B340F2E005C2F2000504462878C2
:10043000012808D101F0E2FDA968401A642802D21F
:1004400040F2B63019E040F28A2048F21F51604372
:10045000C5F2EB11A0FB0101002028704FF496704B
:1004600000EB511009E040F2E004C2F20004012068
:10047000207001F0C3FDA06000203C21C4F2000107
:100480000860486008684968084443F63521C4F2AA
:10049000FC41A0FB010144F2C1204A0AC0F6000061
:1004A00002A1BDE8B04003F0CDBD00BF70756D7016
:1004B00031000000B0B500F059FE00B340F2E00595
:1004C000C2F2000504462879012808D101F096FD02
:1004D000E968401A642802D240F2B63019E040F2CE
:1004E0008A2048F21F516043C5F2EB11A0FB0101C5
:1004F000002028714FF4967000EB511009E040F293
:10050000E004C2F200040120207101F077FDE060F8
:1005100000203421C4F2000108604860086849687E
:10052000084443F63521C4F2FC41A0FB010144F22A
:10053000C1204A0AC0F6000002A1BDE8B04003F0A5
:1005400081BD00BF70756D7032000000FEE70000D5
:100550002DE9F04F81B040F61020C2F20000006893
:1005600040F268134068C2F20003C0F1320140F269
:100570002200C2F2000002789D5CCBB293420B468F
:1005800005733CBF322300219A1A1306017000F054
:10059000808140F228184AF20101D2B24FF0000CDB
:1005A0004FF0010EC2F200084FF20E694FF20A1B23
:1005B00000268479AA2D08BFAA2C1BD00779012F09
:1005C00012D1552D08BF552C24D083785F1CFCB266
:1005D0000344322C877083F83E5005D3438980F85A
:1005E00004C00133438100BF85710136964209D1B1
:1005F0004FE100BF80F802C080F804E00136964267
:1006000000F0478183191D7B8479AA2D08BFAA2C8D
:10061000D4D1EFE7857880F804C0022D06D844894C
:100620000134448101369642ECD132E1EC1E4FF6A2
:10063000FF7A00F0B080012C04F0010305D1002402
:100640004FF6FF7A002B78D1A5E0A4B2A3EB040902
:100650006FF001084FF6FF7A009300BF00EB08042B
:1006600094F840E094F841B08AEA0E0481EA540715
:10067000E30708BF670881EA5703FC0708BF7B0848
:1006800081EA5307DC0708BF5F0881EA5703FC07CC
:1006900008BF7B0881EA5307DC0708BF5F0881EACF
:1006A0005703FC0708BF7B0881EA5307DC0708BF34
:1006B0005F0881EA5703FC0708BF7B0883EA0B0346
:1006C00081EA5307DC0708BF5F0881EA5703FC078C
:1006D00008BF7B0881EA5307DC0708BF5F0881EA8F
:1006E0005703FC0708BF7B0881EA5307DC0708BFF4
:1006F0005F0881EA5703FC0708BF7B0881EA5307BC
:10070000DC0708BF5F08FB0708F1020881EA570A07
:1007100009EB080308BF4FEA570A02339ED108F1DC
:10072000020440F22818009B4FF0010EC2F20008AC
:100730004FF20E694FF20A1B6BB3031993F83E3068
:1007400083EA0A0381EA5307DC0708BF5F0881EAEE
:100750005703FC0708BF7B0881EA5307DC0708BF83
:100760005F0881EA5703FC0708BF7B0881EA53074B
:10077000DC0708BF5F0881EA5703FC0708BF7B0856
:1007800081EA5307DC0708BF5F0881EA570AFB07C5
:1007900008BF4FEA570A431993F83B7093F83C306F
:1007A00047EA0323534517D1C38FA8F82EE01BBA9D
:1007B0001C0C4C45048117DC5C452FD04FF20C33E8
:1007C0009C427FF41BAFB0F84030A8F82A300136C5
:1007D00096427FF417AF5CE04389013343810136D1
:1007E00096427FF40FAF54E04FF20F639C4248D023
:1007F0004FF611039C427FF401AF036C476C856C8C
:10080000C46CC8F83030C8F83470C8F83850C8F82C
:100810003C40013696427FF4F5AE3AE0B0F8403005
:10082000876CA8F80030D0F84230C56CC8F80230A8
:10083000B0F84630046DA8F80830B0F85830C8F861
:100840000A70C8F80E50A8F81A30B0F85A30C8F834
:100850001240A8F81C30B0F85C30476DA8F81E3084
:10086000B0F85E30C8F81670A8F82030036E476EF6
:10087000C8F82230C8F82670013696427FF4C2AE1E
:1008800007E0B0F84030A8F82C30013696427FF4EB
:10089000B9AE01B0BDE8F08F40F6CC10C2F2000056
:1008A00001F002B87047000040F29400C2F200006C
:1008B000018DB1B140F21411C2F200010988642225
:1008C000514340F20112C0F21002A1FB0223C91AE7
:1008D00003EB5101C1F3C7214278914218BF417027
:1008E000704790F82A104278914218BF41707047C3
:1008F00070B540F29405C2F2000544F2A524A98F18
:10090000C0F60004204603F09DFB0A2001F0DEF94A
:10091000E98F204603F096FB0A2001F0D7F9B5F8DD
:100920004010204603F08EFB0A2001F0CFF9B5F805
:100930004210204603F086FB0A2001F0C7F9B5F803
:100940004410204603F07EFB0A2001F0BFF9B5F801
:100950004610204603F076FB0A2001F0B7F9B5F8FF
:100960004810204603F06EFB0A2001F0AFF9B5F8FD
:100970004A10204603F066FB0A2001F0A7F9204642
:10098000422103F05FFB0A2001F0A0F940F21416A7
:10099000C2F200063188204603F054FB0A2001F021
:1009A00095F901F02BFB6968411AB1F57A7F38BFE0
:1009B00070BD318A48F2C074CDF20664686049B1F6
:1009C00040F6E440A1FB002320461721FFF7CCFBB3
:1009D00081B200E0002144F2A520C0F6000003F03F
:1009E00031FB0A2001F072F9F08948B140F6E44188
:1009F000A0FB012320461721FFF7B6FB81B200E0E0
:100A0000002144F2A520C0F6000003F01BFB0A20E1
:100A100001F05CF9708A48B140F6E441A0FB012383
:100A200020461721FFF7A0FB81B200E0002144F22D
:100A3000A520C0F6000003F005FB0A20BDE87040C9
:100A400001F044B9B0B544F2B420C0F6000003F0A0
:100A5000F9FA642001F03AF940F29405C2F2000577
:100A600044F2A524E989C0F60004204603F0EAFA1E
:100A70000A2001F02BF9298A204603F0E3FA0A2024
:100A800001F024F9A9892046002918BF012103F0AB
:100A9000D9FA0A2001F01AF9A98A204603F0D2FAFD
:100AA0000A2001F013F9E98A204603F0CBFA0A2064
:100AB00001F00CF9698A2046002918BF012103F0D2
:100AC000C1FA0A2001F002F9298B2046002918BF3B
:100AD000012103F0B7FA0A2001F0F8F8698B2046EB
:100AE00003F0B0FA0A2001F0F1F8A98B204603F0D8
:100AF000A9FA0A2001F0EAF8E98B2046002918BF7C
:100B0000012103F09FFA0A2001F0E0F8298C204629
:100B100003F098FA0A2001F0D9F8698C204603F016
:100B200091FA0A2001F0D2F8A98C204603F08AFA43
:100B30000A2001F0CBF8E88C0138B0FA80F04109C6
:100B4000204603F07FFA0A2001F0C0F8298D2046E4
:100B500003F078FA0A2001F0B9F8698D204603F015
:100B600071FA0A2001F0B2F8A98D204603F06AFA62
:100B70000A2001F0ABF8E98D204603F063FA0A2061
:100B800001F0A4F8298E204603F05CFA0A2001F057
:100B90009DF8698E204603F055FA0A2001F096F878
:100BA000A98E204603F04EFA0A2001F08FF8E98E54
:100BB000204603F047FA0A2001F088F82046002179
:100BC00003F040FA0A2001F081F82046002103F0EA
:100BD00039FA0A2001F07AF82046002103F032FAAF
:100BE0000A20BDE8B04001F071B8000070B544F2D1
:100BF000B420C0F6000003F025FA4FF4FA7001F0BB
:100C000065F840F29406C2F2000644F26624F189C7
:100C1000C0F60004204603F015FA0A2001F056F849
:100C2000318A204603F00EFA0A2001F04FF8B18A0B
:100C3000204603F007FA0A2001F048F8F18A20461E
:100C400003F000FA0A2001F041F8718B204603F00E
:100C5000F9F90A2001F03AF8B18B204603F0F2F9D5
:100C60000A2001F033F8B08944F29625C0F6000559
:100C700000284FF0090128464FF0090408BF082159
:100C800003F0E0F90A2001F021F8708A0921002818
:100C9000284608BF082103F0D5F90A2001F016F80C
:100CA000308B09210028284608BF082103F0CAF923
:100CB0000A2001F00BF8308F002808BF08242846CE
:100CC000214603F0BFF90A2001F000F8F08B44F24E
:100CD0007724C0F6000422A1002820461FA208BFE6
:100CE000114603F0AFF90A2000F0F0FFF08C1EA1CE
:100CF000002820461BA208BF114603F0A3F90A20D2
:100D000000F0E4FF307818B101280BD1012100E098
:100D1000002144F28820C0F6000003F093F90A2075
:100D200000F0D4FF44F28824C0F6000420460021DD
:100D300003F088F90A2000F0C9FF2046002103F0E3
:100D400081F90A2000F0C2FF2046002103F07AF961
:100D50000A20BDE8704000F0B9BF00BF4D5400004C
:100D600041540000485A00006D56000070B582B032
:100D700001F044F940F29404C2F20004A168411A5F
:100D8000B1F57A7F43D3218EA06040F21410C2F2F5
:100D9000000079B14189B4F84220002591423CBF5E
:100DA0008DF805500125808840F6AC51884207D95E
:100DB000012009E00025808840F6AC518842F7D830
:100DC00040094A2804D802200DF105014855013593
:100DD00040F21006C2F200063078022802D80A203B
:100DE00000F074FF7DB1A0780DF10502B0FBF5F1C4
:100DF00001FB1500411C105CA17030700A2000F04E
:100E000065FF02B070BDFF2030700020A07002B0FE
:100E100070BD000040F21440C4F201000168890670
:100E200058BF70472021016040F21800C2F2000054
:100E300041880131418070477047000040F6E02151
:100E4000C2F200010022CA6142F21001C4F20201A2
:100E50000A6842F002020A604860086840F04000F8
:100E60000860704770B542F20C060446C4F20206F0
:100E700001F0C4F83168C9071AD0002C5BD00546D0
:100E8000601C0DD13068C00712D03068C0071CBF8D
:100E900030685FEAC0700BD03068C007F2D107E05D
:100EA00001F0ACF8401BA04245D83068C007F7D12C
:100EB0003068800644BF202030603068C00607D408
:100EC0003069C00704D1306840075CBF002070BDA6
:100ED0003068C00604D40020316849070CD415E0FE
:100EE00040F6E020C2F20000C16941F00201C16198
:100EF00010203168490709D540F6E021C2F200010F
:100F0000CA6940F0040042F00102CA613169C907B0
:100F100002D13060012070BD40F6E021C2F2000134
:100F2000CA6942F00402CA61316921F001013161EC
:100F30003060012070BD032070BD000010B540F28C
:100F40009400C2F2000000F10C042046402100F0A1
:100F50000BF840F22810C2F2000021464022BDE802
:100F60001040FFF732B9000010B581B300224B1ECC
:100F7000C0F60102032B01F0030C01D2002113E0A3
:100F8000A0F10803A1EB0C0E002100BF148804316E
:100F900023F8084F54888E455C8094889C80D488C0
:100FA00002F10802DC80F1D1BCF1000F08BF10BDD6
:100FB0001388BCF1010F20F8113008D0538800EBE2
:100FC00041004380BCF1020F1CBF9188818010BD9D
:100FD0000A4601460020C0F6010002F071BD000083
:100FE00070B540F2A00140F2F000C2F20001C2F27E
:100FF00000000A8C4B8C45899B1A6B4344F6D355F1
:10100000C1F2620583FB0535AB1103EBD5738D8F00
:101010001A44C98F02FB05F348F6AD35C6F6DB0569
:10102000514383FB053481FB0512211301EBD4717D
:1010300021EAE173111301EBD27100F1100521EAED
:10104000E17640F6FF74284600210022A342A8BFA3
:10105000234600F0E5FBA642B8BF344628461021DF
:1010600000222346BDE8704000F0DABB40F22200C7
:10107000C2F2000000897047B0B500F065F840F298
:101080001E0440F2A005C2F20004C2F2000530B115
:1010900000F05AF801281AD100F05CF816E0688BCD
:1010A00090B140F21411C2F20001288E098A4DF667
:1010B000F002484340F6E441A0FB0101C0F2702277
:1010C0000023FFF751F801E000F056F8608028880F
:1010D00068B1628869888A4209D9AB8864209A42DB
:1010E00006D2521A5043591A90FBF1F000E000204A
:1010F000EA88618820708AB1288981420ED96B897B
:101100006422994204D20D1A6A43181A92FBF0F233
:1011100006A06270BDE8B04002F094BF002203A0B8
:101120006270BDE8B04002F08DBF00BF6D616656D1
:10113000616C756553686F772E7478743D222564F1
:1011400022FFFFFF0000000040F29400C2F2000006
:101150000078704740F29400C2F20000C08E7047E1
:1011600040F21E00C2F200000078704740F21E00FC
:10117000C2F200004078704740F21800C2F200004E
:101180008088704770B582B004460020019094F8C2
:101190002400012803D10225284602B070BD012099
:1011A00084F824002046FFF77DF8054600286DD11D
:1011B000A06A41F2021188430230A06240F20C00A2
:1011C000C2F200000668022000F0D2FFB6FBF0F089
:1011D000400001900198A0B1019801380190019858
:1011E00078B1019801380190019850B10198013807
:1011F0000190019828B101980138019001980028C8
:10120000EAD12046FFF7B0F82068816841F0080174
:10121000816000F0F3FE216851F8082F120710D505
:10122000064602E08168090709D500F0E7FE811B48
:1012300020680B29F6D381680907F3D51AE000F17D
:101240000801086840F00400086000F0D7FE21683B
:101250008968490713D5064603E000BF8068400748
:101260000DD500F0CBFE811B20680B29F6D38168D9
:101270004907F3D5012510206FF0120102E001208B
:101280006FF00301A26A11400843A062002084F8B5
:101290002400284602B070BDB0B581B00022009293
:1012A00090F82420012A03D10221084601B0B0BDE4
:1012B0004B680122062B80F8242022D8D0F800C0E9
:1012C00003EB830362465D1F1F2352F834EF03FADA
:1012D00005F40B682EEA040E03FA05F444EA0E0541
:1012E000092B15602CD8DCF8102003EB43030725ED
:1012F00089689D40AA4399401143CCF81010002101
:101300003EE0D0F800C00C2B624606D852F830EF11
:1013100003EB8303A3F1230405E052F82CEF03EB66
:101320008303A3F141041F2303FA04F50B682EEA9B
:10133000050E03FA04F444EA0E05092B1560D2D910
:1013400003EB4305DCF80C201E3D07248968AC4004
:10135000A243A940114323F00102102ACCF80C103B
:101360000DD142F20841C4F20101A1F108029445F5
:101370000CD0816A41F020018162012100E000214E
:10138000002280F82420084601B0B0BD0A6812028D
:101390002FD40A68102B42F400020A602BD140F2CD
:1013A0000C01C2F2000109684DF68362C4F21B32DF
:1013B000A1FB0212910C01EB8101490000910099FF
:1013C000D9B10099013900910099C1B10099013951
:1013D00000910099A9B1009901390091009991B14A
:1013E000009901390091009900294FF00001E8D1DE
:1013F000C6E70021C4E70021C2E70021C0E70021C1
:10140000BEE70021BCE70021BAE7000070470000FA
:101410007047000070470000002804BF012070479B
:1014200070B50646044656F8280F20B12168886832
:10143000C0070BD131E00020E06284F82400204690
:1014400000F0ACF821688868C00726D0886820F0D2
:101450000100886000F0D2FD21688A68D2071CD0A4
:10146000054602E08868C00717D000F0C7FD401BA2
:1014700021680328F6D38868C007F3D0A06A40F03B
:101480001000A062E06A40F00100E062A06AA06A79
:1014900040F010010120316070BD32683068D20622
:1014A0002CD441F2021290430230A062E36981F031
:1014B000804080F49E3083F44022104308BF4FF4F4
:1014C0000023D4E9010243EA000C531EB3FA83F36C
:1014D0005D091346B2F5807F18BF2B02207D257B66
:1014E00001284CEA450019D16DB1A56A45F02005E7
:1014F000A562E56A45F00105E5620FE040F01001E4
:101500000120316070BDD4F818C04EF20005CFF64E
:10151000FF7505EB4C352B4343F400634D68B2F582
:10152000807F25F4694543EA05034B608B684FF2E1
:10153000FD75CFF6E17503EA050343EA00038B600E
:1015400001D0012A06D122690023CFF6F07303EB04
:10155000025200E00022CB6A23F470031A43CA62ED
:10156000896840F6FE62CFF61F721140814207D1B2
:101570000020E062A16A012262F30101316070BDC6
:10158000A06A40F0100020F00200A06254F82C0F76
:1015900040F0010101202646316070BD2DE9F04187
:1015A00086B0002740F600050597CDE9037704468D
:1015B000C4F20105006805F5E0518842029702D0A7
:1015C00006B0BDE8F08141F21800C4F202000168E3
:1015D0004FF0030841F400710160016802AE01F4AC
:1015E000007101910199016841F0100101600168E9
:1015F00001F0100101910199016841F004010160BD
:10160000016801F0040101910199016841F00801AC
:1016100001600068314600F00800019001981F2029
:10162000CDF80C80029005F5006000F0E1FBC120D0
:1016300002902846314600F0DBFB05F5806031461C
:10164000CDF8088000F0D4FB40F6CC150820C2F29B
:101650000005C4F2020080214FF48072C5E9000742
:1016600005F110004FF4806320264FF4005CC5E9BB
:10167000027180E84C10284600F092FA002818BF4A
:10168000FFF7DAFB25626C6206B0BDE8F08100006E
:1016900070B515460446006842F60002C4F2010225
:1016A00090420E4605D042F20041C4F20101884248
:1016B00009D142F20440C4F20100006810F4702F16
:1016C0001CBF012070BD94F82400012804BF022033
:1016D00070BD012084F824002046FEF745FE18B1B5
:1016E000002184F8241070BD42F204402168A26AEF
:1016F000C4F2010040F601739A4300F57F7302F5CE
:1017000080729942A26243D0A06A20F48010A06245
:101710004868400504D5A06A012262F30D30A0623A
:10172000A26A0020D2044FF0000244BFE26A22F015
:101730000602E26284F82400206A40F2F922C0F630
:10174000000240F2613340F2493C00F1280EC0F63D
:101750000003C0F6000C8EE80C106FF002020A6065
:101760008A682B4642F480728A604C31324600F01F
:101770005FFA2068816801F460228168B2F5602F09
:101780000CBF41F4A00141F480118160002070BDC4
:10179000026812F4702FB7D0A26A42F48012A262DB
:1017A00000684005BCD5B6E710B54379012B4FF072
:1017B00002031DD00371036802F0100ED3F800C0BD
:1017C000D1E9004140F6FE7202FA0EF221432CEA02
:1017D000020201FA0EF111431960C0211A6801FAE0
:1017E0000EF122EA01011960012100230171437108
:1017F000184610BD002804BF0120704710B50446EC
:10180000007920B900206071204600F007F802201E
:101810002071002001212061217110BD704700005E
:1018200081B04FF0000CCDF800C000680029009096
:101830000098104414BF1430083000900099002024
:101840000B6001B07047000010B54279012A4FF0DB
:10185000020226D04FF0010C80F805C00271026828
:1018600001F0100E14680CFA0EF323431360D2F843
:1018700000C051B13C230CF4701103FA0EF39942ED
:101880000BD1516841F0020106E00CF03C013C290B
:1018900003D1516841F00101516001210022017121
:1018A0004271104610BD000010B5D0F800E0D0E93C
:1018B0000FC3DCF80020DEF800104C0734D50424F8
:1018C0009C40144030D0DEF80010890605D4DEF8C4
:1018D000001021F00401CEF800100422C4F202022C
:1018E00002F17C018E4553D940F20841C4F2020155
:1018F0008E4500F0C88040F21C41C4F202018E45C2
:1019000000F0C98040F23041C4F202018E4540F03F
:10191000CA804FF48061C2F80014C16A002900F047
:101920003E81BDE8104008478C074ED502249C40FC
:1019300014404AD0DEF80010890608D4DEF8001002
:1019400021F00A01CEF80010012180F821100422B4
:10195000C4F2020202F17C018E4554D940F20841E2
:10196000C4F202018E4500F0CC8040F21C41C4F26A
:1019700002018E4500F0C98040F23041C4F20201FC
:101980008E4540F0C6804FF40071C2F80014FEE0AE
:101990004321C4F202018E454ADD6B21C4F20201EB
:1019A0008E455EDC4421C4F202018E4500F0BC800D
:1019B0005821C4F202018E4540F0CD804FF48021C1
:1019C0001160C16A0029ACD1E9E0090740F1E78064
:1019D00008219940114008BF10BDDEF8001021F029
:1019E0000E01CEF80010012101FA03F2CCF8042018
:1019F0008163016B4FF480720029028400F0CF8074
:101A0000BDE8104008474321C4F202018E4559DD6C
:101A10006B21C4F202018E4566DC4421C4F202014E
:101A20008E4500F0AA805821C4F202018E459AE04A
:101A30000821C4F202018E457ED01C21C4F20201AD
:101A40008E4500F093803021C4F202018E4540F0B3
:101A500082804FF480611160C16A00297FF461AF18
:101A60009DE06C21C4F202018E456CD08021C4F24D
:101A700002018E456FD14FF080611160C16A00296B
:101A80007FF44FAF8BE00421C2F80014C16A002933
:101A90007FF447AF83E04021C2F80014C16A0029F7
:101AA0007FF43FAF7BE002F588634FF480219E45D1
:101AB00008BF4FF48041C2F80014C16A00297FF4C6
:101AC00030AF6CE00821C4F202018E4558D01C21D1
:101AD000C4F202018E4558D03021C4F202018E4575
:101AE00041D14FF4007151E06C21C4F202018E45E6
:101AF00048D08021C4F202018E4534D14FF00071EC
:101B000044E00221C2F8001441E02021C2F8001490
:101B10003DE002F588634FF400319E4508BF4FF465
:101B20000051C2F8001432E04FF480411160C16AE4
:101B300000297FF4F6AE32E004211160C16A002969
:101B40007FF4EFAE2BE04FF480011160C16A0029F1
:101B50007FF4E7AE23E04FF480211160C16A0029D1
:101B60007FF4DFAE1BE04FF400310FE04021116045
:101B7000C16A00297FF4D5AE11E04FF4005105E0B1
:101B8000022103E04FF4001100E020211160816A7E
:101B9000002280F8202011B1BDE81040084710BD98
:101BA000002842D02DE9F04140F2000CC4F2020CB2
:101BB00001684FF6F8320CF58163CBF6FD7299425D
:101BC00038BF02F580624CF6CD430A44CCF6CC43D4
:101BD000A2FB03236FF003050CF5806405EA930371
:101BE000D0E9012ED0F80C803CBF0024C4F20204DE
:101BF000C0E90F430B6843F6F075AB431A43D0E9D5
:101C0000045442EA0E0242EA0802D0E906672A4377
:101C1000224332433A430A6000214FF480728163C9
:101C20000284BDE8F041084670470121084670472C
:101C3000F0B590F820C0BCF1010F32D090F821C06F
:101C40004FF0010EBCF1010F80F820E026D14FF0DB
:101C5000020C80F821C04FF0000CC0F838C0D0E969
:101C600000C4C56AC66BDCF80070102C27F00107B1
:101C7000CCF80070006C0EFA00F070600846CCF8EA
:101C8000043004BF10460A46CCF80800CCF80C20FB
:101C9000DCF800003DB140F00E000CE0002180F8BF
:101CA00020100220F0BD20F00400CCF80000DCF889
:101CB000000040F00A00CCF80000DCF8000040F022
:101CC0000100CCF800000020F0BD0000B0B50446D3
:101CD00000F094F9054640F20400C2F200000078DA
:101CE000611C18BF044400BF00F088F9401BA042EB
:101CF000FAD3B0BD42F21001C4F20201086840F00C
:101D0000800200200A6070472DE9F04F81B040F654
:101D1000E028C2F20008924698F81820012A03D160
:101D2000022001B0BDE8F08F8146012088F818003C
:101D30004CF250301C460E46FFF794F8D0BB4D468F
:101D400042F21007B9F1020F18BF0425C4F20207CE
:101D5000B9F1010F08BF4D466FF01F0900204FF089
:101D6000000B00BF202200230101A2EB0012C8F8E3
:101D70001C3004FA02F22AFA01F13B68114309EB24
:101D80000012002A58BF24FA02F143F001023A601F
:101D900026F810104CF25030FFF764F8396821F043
:101DA0000101396030B90BF1010B5FFA8BF085420C
:101DB000D8D80020002188F8181001B0BDE8F08FB5
:101DC00042F20400C4F20200C16809065CBF0020B0
:101DD000704740F22311C4F26751016048F6AB111D
:101DE000CCF6EF510160C068C0F3C010704700002E
:101DF0002DE9F04F82B0D1F800C0BCF1000F00F027
:101E0000F380A0F1804241F60045A2F58432C4F28D
:101E1000010540F2004E4FEAB2240627A842C4F260
:101E2000010E08BF0527052C4FF000044FF00108F4
:101E30004FF00F034FF0000A4FF0000B38BF4FEA8E
:101E4000B227009708FA0AF91CEA090F0FD100BF60
:101E5000D1F800C00AF1010A3CFA0AF204F10404C4
:101E600000F0C28008FA0AF91CEA090FF0D04E68A7
:101E70004FF6FF72C1F21002964211DC122E51D8B9
:101E8000DFE806F0340A424650505050505050504F
:101E90005050505050494D00D1F80CB042E000BFB6
:101EA0004FF6FF72C1F2210296420FDC0022C1F20E
:101EB000110296421AD00022C1F21202964215D0A7
:101EC0000022C1F22102964210D02BE00022C1F282
:101ED000220296420AD00022C1F23102964205D077
:101EE0000022C1F2320296421CD100BF8A6842B180
:101EF000012A14BFC0F81490C0F810904FF0080BDE
:101F000010E04FF0040B0DE0CA6802F1080B09E085
:101F10004FF0000B06E0CA6802F1040B02E0CA6849
:101F200002F10C0B22460646BAF1080F24BF203AF4
:101F30000436376803FA02F5AF430BFA02F23A436C
:101F40003260CA79D2067FF583AF41F21802C4F23B
:101F50000202174612680F2542F001023A603A6801
:101F60004FF6084702F001020192019A2AF003029B
:101F70007244CFF6FF773B46D75904F00C06B540C4
:101F8000AF43009D05FA06F63743D7504E680F233E
:101F9000F203DEF8002054BF22EA090242EA0902F5
:101FA000CEF80020DEF80420B70354BF22EA09026D
:101FB00042EA0902CEF80420DEF80820F70254BFF6
:101FC00022EA090242EA0902CEF8082040F20C4255
:101FD000B702C4F201021746126854BF22EA09028E
:101FE00042EA09023A6033E702B0BDE8F08F000030
:101FF0008068084018BF01207047000040F600309C
:10200000C2F200000068704740F2040040F6003160
:10201000C2F20000C2F2000100780A6810440860B1
:102020007047000080B542F20000C4F2020001686F
:1020300041F010010160032000F08AF8002000F058
:1020400005F800F027F8002080BD000070B540F2D0
:102050000406C2F2000640F20C013278C2F200011E
:102060004FF47A730968B3FBF2F20446B1FBF2F164
:10207000084600F08FFC0F2C4FF0010508D838B946
:102080004FF0FF3021460022002500F035F8746043
:10209000284670BD82B041F21800C4F20200016807
:1020A000022241F001010160016801F0010101918A
:1020B0000199416841F080514160406800F08050D2
:1020C000009000980420C4F20100016862F31A61D4
:1020D000016002B070470000002848BF704700F060
:1020E0001F01012202FA01F14EF200124009CEF264
:1020F000000242F82010704710B54EF60C5CCEF28C
:10210000000CDCF80030C3F3022E8EF00704042C20
:1021100028BF0424BEF103034FF0FF3E0EFA04F47F
:1021200038BF0023A14399400EFA03F39A4300F00D
:102130000F03043B1143634409010C3300F1604277
:10214000B0F1FF3FC8BF02F56443197010BD000035
:102150004EF60C51CEF200010A684FF6FF031A400A
:1021600060F30A2242F0806040F0FD700860704722
:1021700080B5411E0F294FF0000038D8DFE801F08C
:102180000C29370837373708373737373737373875
:10219000BDE8804000F0FEB941F20400C4F2020044
:1021A000C16940F202320A40B2F5817F04BF4FF4A8
:1021B000004080BD01F44071B1F5407F48D0B1F5D9
:1021C000007F4DD1006A49F64041800701EAE07086
:1021D00080BD00F0CBF941F20401C4F202010968AC
:1021E0000222C1F3813102EB4101B0FBF1F080BD6D
:1021F00041F20401C4F202010A6851F8040CC00162
:102200005CBF002080BDC2F3834016A3185CD203DC
:1022100005D440F60012C0F23D0250430BE00A68BC
:1022200014A3C2F340429A5C41F20023C0F27A0345
:10223000B3FBF2F250430968490248BF80BD4AF639
:10224000AB214000CAF6AA21A0FB0101480880BDCD
:1022500050F8040C4FF22441800301EAE07080BD85
:10226000002080BD02030405060708090A0B0C0DB7
:102270000E0F1010010200002DE9F04182B004465B
:10228000007841F21C06C007C4F2020660D0306834
:10229000C0000BD430684FF0010840F0805030602F
:1022A000306800F080500190019801E04FF0000884
:1022B00047F20007C4F200073868C00512D4386836
:1022C00040F480703860FFF799FE05463868C00515
:1022D00008D4FFF793FE401B6428F7D9032002B00F
:1022E000BDE8F081706810F4407024D0616801F49A
:1022F000407188421FD0706840F24042C4F24222CE
:10230000012320F4407113600023C0071360716043
:1023100011D0FFF773FE054641F2883770688007D9
:1023200009D4FFF76BFE401BB8424FF00300F5D90C
:1023300002B0BDE8F0817068616820F44070084325
:10234000B8F1000F706003D0306820F0805030602A
:102350002068810707D556F8181CA26821F440416F
:10236000114346F8181CC00603D4002002B0BDE893
:10237000F08156F8180C616920F48000084346F893
:10238000180C002002B0BDE8F08100002DE9F043F8
:1023900081B0002800F0AB8042F20008C4F20208CD
:1023A0000446D8F800000D4600F0070088420DD220
:1023B000D8F8000020F007002843C8F80000D8F83B
:1023C000000000F00700A84240F09180206841F230
:1023D00004098107C4F2020917D5410705D5D9F8C8
:1023E000001041F4E061C9F80010010705D5D9F8E3
:1023F000001041F46051C9F80010D9F80010A2682B
:1024000021F0F0011143C9F80010C0072DD0606819
:10241000012804D159F8041C890368D508E059F84B
:10242000041C022802D1890161D501E089075ED52B
:10243000D9F8001021F003010843C9F80000FFF7A4
:10244000DDFD064641F28837D9F80000616800F0EA
:102450000C00B0EB810F08D0FFF7D0FD801BB84215
:10246000F2D9032001B0BDE8F083D8F8000000F0F5
:102470000700A8420CD9D8F8000020F00700284334
:10248000C8F80000D8F8000000F00700A8422ED1DC
:102490002068410707D5D9F80010E26821F4E0610F
:1024A0001143C9F80010000708D5D9F800002169C8
:1024B00020F4605040EAC100C9F80000D9F80020BB
:1024C00002F00C00082841F20020C0F27A001ED170
:1024D00044F25623C2F38341C0F60003595CD20391
:1024E00009D440F60010C0F23D0048430FE001203F
:1024F00001B0BDE8F083D9F8002044F23C23C2F3D8
:102500004042C0F600039A5C4843B0FBF2F0D9F8B1
:10251000001044F23E22C1F30311C0F60002515CE8
:1025200040F20C0220FA01F140F20800C2F2000071
:102530000068C2F200021160FFF788FD002001B0C0
:10254000BDE8F08340F20C0041F20401C2F2000049
:10255000C4F202010068096844F24E22C1F302216C
:10256000C0F60002515CC8407047000040F20C0009
:1025700041F20401C2F20000C4F2020100680968DD
:1025800044F24E22C1F3C221C0F60002515CC840A1
:102590007047000041F2040CC4F2020CDCF8003079
:1025A00003F00C00082841F20020C0F27A0018BFA6
:1025B000704744F25621C3F38342C0F600018A5C9F
:1025C000D90305D440F60010C0F23D0050437047D7
:1025D000DCF8001044F23C23C1F34041C0F6000394
:1025E000595C5043B0FBF1F0704700002DE9F04119
:1025F00082B0002800F0A5800446007841F2000671
:10260000C007C4F202064CD0706800F00C00042829
:1026100017D0706800F00C00082802D17068C00361
:102620000FD4606898B1B0F5803F06D03168B0F53E
:10263000A02F22D141F480203060306840F48030F7
:1026400021E0306880032CD5606850BB79E03068A9
:1026500020F480303060306820F480203060FFF754
:10266000CDFC0546306880031BD5FFF7C7FC401B37
:1026700064284FF00300F5D988E121F48030306000
:10268000306820F480203060FFF7B8FC054600BFBA
:102690003068800305D4FFF7B1FC401B6428F7D9EC
:1026A00040E1207880072FD5706810F00C0F07D01C
:1026B000706800F00C00082809D17068C00306D4C7
:1026C0003068800719D5206901283AD115E02069C2
:1026D000002840F20000C4F2422000F0E380012113
:1026E0000160FFF78BFC05463068800705D4FFF7D3
:1026F00085FC401B0228F7D914E13068616920F09D
:10270000F80040EAC1003060207800071DD420782E
:1027100040072ED4E569002D00F03781706800F085
:102720000C00082871D1012D0BD07068216A00F4CB
:1027300080328A4205D1616A00F47010884200F04C
:102740002481012002B0BDE8F081A06900B300201F
:10275000C4F242200121C0F88014FFF74FFC054667
:10276000706A800774D4FFF749FC401B0228F7D930
:10277000D8E0F069C0001ED4F0694FF0010840F0C5
:102780008050F061F06900F080500090009814E0F3
:102790000020C4F242200021C0F88014FFF72EFC74
:1027A000054600BF706A8007B1D5FFF727FC401BC4
:1027B0000228F7D9B6E04FF0000847F20007C4F24C
:1027C00000073868C00510D4386840F4807038605D
:1027D000FFF714FC054600BF3868C00505D4FFF7B5
:1027E0000DFC401B6428F7D99CE0E06800286BD002
:1027F000012806D0316A052840F07F8041F00400AE
:102800003062306A40F001007DE00027C4F24227C8
:1028100000203866FFF7F2FB022D05460CD100BF01
:102820003068800140F18F80FFF7E8FB401B0228F1
:102830004FF00300F4D9A9E03068800140F1A58091
:10284000FFF7DCFB401B02284FF00300F4D99DE0AA
:1028500040F20C00C2F20000006844F6D351C1F20D
:102860006201A0FB0101480A019000BF00BF01986E
:10287000411E002801913FF44AAF00BF0198411E5C
:10288000002801913FF443AF00BF0198411E00288A
:1028900001913FF43CAF00BF0198411E0028019117
:1028A000E4D134E700210160FFF7A8FB054600BF33
:1028B000306880077FF528AFFFF7A0FB401B022898
:1028C0004FF00300F4D961E0306A20F0010030627B
:1028D000306A20F004003062FFF790FB054641F2B9
:1028E000883700BF306A800720D5FFF787FB401B81
:1028F000B8424FF00300F5D948E021F00100306202
:10290000306A20F004003062FFF778FB054641F2A0
:10291000883700BF306A800708D4FFF76FFB401B81
:10292000B842F7D9032002B0BDE8F081B8F1000F3A
:102930003FF4F0AEF06920F08050F061E569002DC1
:102940007FF4ECAE21E0206AB0F5803F05D17168DC
:10295000A26821F40031114371607168626A21F448
:10296000741110430843706001203866FFF746FB7E
:10297000044600BF3068800107D4FFF73FFB001B0F
:1029800002284FF00300F5D900E0002002B0BDE8B6
:10299000F0810000411E0020B0EB116F1CBF012030
:1029A00070474EF21002CEF2000251604EF62351F3
:1029B000CEF20001F0230B70072190601160704788
:1029C00010B590F83C20012A4FF0020241D00123BB
:1029D00080F83C3080F83D200268D2F804E0D2F85C
:1029E00008C00C682EF07003234340F6FF34C4F295
:1029F0000004A24253600FDCB2F1804F1ED040F2BF
:102A00000043C4F200039A4218D040F60003C4F217
:102A100000039A4212D016E040F60043C4F20003CD
:102A20009A420BD043F20043C4F201039A4205D00C
:102A300042F60043C4F201039A4204D149682CF0E3
:102A40008003194391600121002280F83D1080F835
:102A50003C20104610BD0000002804BF0120704734
:102A600010B5044690F83D0028B9002084F83C00D9
:102A7000204600F083F8022084F83D00206840F6EC
:102A8000FF330268C4F2000343F2004C9842C4F2E0
:102A9000010C20DCB0F1804F2BD040F20041C4F299
:102AA0000001884225D040F60001C4F200018842AE
:102AB0001FD0984223DCB0F1804F2ED040F200416D
:102AC000C4F20001884228D040F60001C4F200019F
:102AD000884222D025E040F60041C4F2000188423D
:102AE00007D0604505D042F60041C4F2010188429A
:102AF000DFD1A16822F070020A439842DBDD40F684
:102B00000041C4F20001884207D0604505D042F67A
:102B10000041C4F20101884203D1216922F44072CC
:102B20000A43A36922F08001D4F804E0E268194363
:102B300060450160C262C0F828E005D042F600415D
:102B4000C4F20101884201D161690163012141613F
:102B5000002084F8461084F83E1084F83F1084F872
:102B6000401084F8411084F8421084F8431084F82F
:102B7000441084F8451084F83D1010BD81B0006801
:102B8000B0F1804F01D001B0704741F21C00C4F297
:102B90000200016841F001010160006800F00100DD
:102BA0000090009801B0704780B590F83C20012A51
:102BB0004FF0020200F0C080012380F83C3080F822
:102BC0003D20D0F800C04FF67772DCF8083023EAD9
:102BD0000202CCF808200B683F2B1CDD5F2B20DDA8
:102BE000602B4FD0B3F5005F6CD0702B40F09E800F
:102BF000D1E901E3C968DCF8082043EA0E0322F4B6
:102C00007F4243EA01211143CCF80810DCF8081098
:102C100041F0770188E01F2B28DC5BB3102B29D013
:102C200084E0402B61D0502B40F08080D1F804E04C
:102C3000C968DCF82030DCF8202022F00102CCF852
:102C40002020DCF8182022F0F00242EA011123F0E3
:102C50000A0242EA0E02CCF81810CCF82020DCF868
:102C6000081041F0570121F020015DE0202B01D038
:102C7000302B5BD1DCF8081021F07001194341F0D2
:102C8000070151E0D1F804E0C968DCF8203023F0F6
:102C90001003CCF82030DCF81830DCF8202023F4C6
:102CA000704322F0A00243EA013142EA0E12CCF84E
:102CB0001810CCF82020DCF8081041F0670121F052
:102CC000100131E0D1E901E3C968DCF8082043EAEA
:102CD0000E0322F47F4243EA01211143CCF808108D
:102CE000DCF8081041F480411EE0D1F804E0C96826
:102CF000DCF82030DCF8202022F00102CCF8202083
:102D0000DCF8182022F0F00242EA011123F00A0256
:102D100042EA0E02CCF81810CCF82020DCF808109B
:102D200041F0470121F03001CCF8081001210022C8
:102D300080F83D1080F83C20104680BD80B586B0FC
:102D40000068B0F1804F4FF00000CDE90400CDE9FC
:102D5000020001D006B080BD41F21800C4F20200AA
:102D6000016841F008010160006802A900F0080054
:102D7000019001984FF4706002900220039005903A
:102D800040F60040C4F20100FFF732F80420C4F21C
:102D9000010001684FF6FF42CFF6FF02114041F0FB
:102DA000E06141F40071016006B080BDF0B590F8BB
:102DB0003C30012B02D102210846F0BD4FEAB2029D
:102DC0000123032A80F83C3000F21881DFE802F08A
:102DD000024993DD03681A6A22F001021A621A4658
:102DE0001E6AD3F804C052F8185F0C6825F073050A
:102DF0008F6845EA040E43F2004526F00204C4F24F
:102E00000105AB4244EA070405D042F60046C4F28D
:102E10000106B34205D1CE6824F00C0426F0040666
:102E20003443AB4205D042F60045C4F20105AB4243
:102E300006D1D1E905652CF44077374347EA050C04
:102E4000C3F804C0C3F818E04F6809695F631C62E7
:102E50009F6947F008079F619F6927F004079F61FA
:102E6000C9E003681A6A22F010021A621A461C6A44
:102E7000D3F804C052F8187F0E6827F4E6478D682F
:102E800047EA062E43F2004624F02004C4F201066D
:102E9000B34244EA051405D042F60045C4F20105E8
:102EA000AB4207D1CD686FF0400724F0C00407EAB9
:102EB00005152C43B34205D042F60045C4F2010586
:102EC000AB4207D1D1E905652CF4406747EA860794
:102ED00047EA850CC3F804C0C3F818E04F680969D5
:102EE0009F631C629F6947F400679F619F6927F495
:102EF00080679F617EE003681A6A22F480721A621A
:102F00001A461C6AD3F804C052F81C7F0E6827F0DA
:102F100073078D6847EA060E43F2004624F40074F6
:102F2000C4F20106B34244EA052405D042F6004546
:102F3000C4F20105AB4207D1CD6840F2FF472D0234
:102F400024F44064BD432C43B34205D042F600450F
:102F5000C4F20105AB4207D1D1E905652CF4405715
:102F600047EA061747EA051CC3F804C0C3F81CE08B
:102F70004F680969DF631C62DF6947F00807DF619A
:102F8000DF6927F00407DF6135E003681A6A22F47D
:102F900080521A621A46D3F820E05C6852F81C6F1F
:102FA0000D6826F4E6468F6846EA052C43F2004594
:102FB0002EF40056C4F20105AB4246EA073505D0AF
:102FC00042F60047C4F20107BB4204D14F6924F422
:102FD000804646EA87145C60C3F81CC04F680969E4
:102FE0001F641D62DF6947F40067DF61DF6927F452
:102FF0008067DF610902136819431160002180F8BE
:103000003C100846F0BD0000002804BF01207047B6
:1030100010B5044690F83D0028B9002084F83C0023
:10302000204600F083F8022084F83D00206840F636
:10303000FF330268C4F2000343F2004C9842C4F22A
:10304000010C20DCB0F1804F2BD040F20041C4F2E3
:103050000001884225D040F60001C4F200018842F8
:103060001FD0984223DCB0F1804F2ED040F20041B7
:10307000C4F20001884228D040F60001C4F20001E9
:10308000884222D025E040F60041C4F20001884287
:1030900007D0604505D042F60041C4F201018842E4
:1030A000DFD1A16822F070020A439842DBDD40F6CE
:1030B0000041C4F20001884207D0604505D042F6C5
:1030C0000041C4F20101884203D1216922F4407217
:1030D0000A43A36922F08001D4F804E0E2681943AE
:1030E00060450160C262C0F828E005D042F60041A8
:1030F000C4F20101884201D161690163012141618A
:10310000002084F8461084F83E1084F83F1084F8BC
:10311000401084F8411084F8421084F8431084F879
:10312000441084F8451084F83D1010BD704700002D
:1031300041B1082909D0042914BF00F1410200F16E
:103140003F0204E000F13E0201E000F1400212788B
:10315000012A1CBF01207047022241B1082909D071
:10316000042914BF80F8412080F83F2004E080F853
:103170003E2001E080F84020006801F01F0101229C
:10318000036A02FA01F123EA01020262026A0A43B7
:1031900040F6FF31C4F200018842026217DD40F6BA
:1031A0000042C4F20002904220D043F2004CC4F22C
:1031B000010C604505D042F60043C4F20103984279
:1031C0001BD1436C884243F4004343641BDCB0F1E1
:1031D000804F0BD040F20041C4F20001884205D07C
:1031E00040F60001C4F20001884206D1816801F076
:1031F0000701062904BF00207047016841F0010162
:103200000160002070479042F0D06045EED042F659
:103210000041C4F201018842E8D0EEE770470000A7
:1032200070470000002804BF0120704710B5044615
:1032300090F83D0028B9002084F83C00204600F0BA
:103240005FF8242084F83D002068D4E90212C368A6
:1032500023F40053C360036923F440531A4302610B
:10326000D4E904231143C268194341F20C639A4321
:103270001143C1604169A26921F44071114343F6D1
:103280000002C4F201029042416102D0FFF75AF9F4
:1032900001E0FFF76BF96268192148439100B0FB28
:1032A000F1F048F21F51C5F2EB11A0FB01235A09BE
:1032B0006FF0630302FB0300322303EB0010A0FB5B
:1032C0000101F02303EA5113206803EB0212C1F35A
:1032D000431111448160016921F490410161416908
:1032E00021F02A014161C16841F40051C160002010
:1032F0002021206484F83D1084F83E1010BD0000A9
:103300002DE9F04186B0002740F600050597CDE98C
:1033100003770446C4F201050068A5F544418842DC
:10332000029702D006B0BDE8F08141F21400C4F269
:10333000020081684FF0020841F400318160816829
:1033400002AE01F4003101910199416841F004019C
:103350004160416801F0040101910199016841F067
:10336000010101600068314600F001000190019800
:10337000042002900320CDF80C8005902846FEF72B
:1033800037FD082002A981E8810128463146FEF771
:103390002FFD40F610256C20C2F20005C4F2020099
:1033A00080212022C5E900072846C5E90271C5E948
:1033B0000477C5E90627FEF7F3FBA5636C6206B048
:1033C000BDE8F08170B582B0054690F83E00202837
:1033D0000ED113460A4600294FF0010418BF002BF6
:1033E00002D1204602B070BD95F83C00012803D1FF
:1033F0000224204602B070BD012085F83C00002464
:1034000022202C63AA62AB852C6485F83E002968D3
:10341000A86B43F6296C43F6756E43F6BD56C0F6AD
:10342000000CC0F6000EC0F600060431C0E90ACE5A
:10343000C0E90C64FEF7FCFB019428680168019167
:1034400041680191019985F83C40C16841F480715F
:10345000C160416941F001014161416941F04001B0
:103460004161204602B070BD704700007047000007
:103470002DE9F04381B0044690F83D0020280DD19D
:103480000F4600294FF0010000F0AE801646002ADA
:1034900000F0AA8094F83C00012803D1022001B07A
:1034A000BDE8F083012084F83C004FF000092120A2
:1034B0001D46C4F8409084F83D00FEF79FFDA684A9
:1034C000E684A1688046B1F5805F07D120690028B5
:1034D0001CBF38464F463E46074600E0002684F8AB
:1034E0003C90E28C2068002A01685BD06A1C2BD0DB
:1034F000002D50D0090609D4FEF780FDA0EB08018D
:103500002068A94273D801680906F5D517B117F8E4
:10351000011B04E036F8021B00276FF35F214160B6
:10352000E18C0139E184E28C0168002AE2D139E0C2
:1035300036F8021B00276FF35F214160E18C0139EF
:10354000E184E28C01686AB309065FBF01685FEA43
:10355000016101685FEA01610CD40168090609D4C0
:10356000016809065FBF01685FEA016101685FEAFF
:103570000161F2D5002FDBD017F8011BDDE736F82B
:10358000021B00276FF35F214160E18C0139E18468
:10359000E28C016832B1090629D5002FEFD017F867
:1035A000011BF1E749061BD40DB3691C0ED101685C
:1035B000490615D4016849065CBF01685FEA4161AC
:1035C0000ED401684906F2D50AE000BFFEF716FDE9
:1035D000A0EB08012068A94209D800684006F5D58B
:1035E000202084F83D00002001B0BDE8F083C168D0
:1035F00021F4D071C160416921F0010141612020B5
:1036000084F83D0084F83E00002084F83C0003204C
:1036100001B0BDE8F0830000FEE7000040F22200A8
:10362000C2F2000000210170704700002DE9F04156
:1036300084B040F69C1042F20041C2F20000C4F295
:1036400001014FF4807201254FF000084FF4602310
:103650000A27057380F81480C361C0E900188260EE
:103660000761FDF7D9FE002818BFFDF7E5FB40F61E
:103670009C14C2F200042046FDF784FD0526039643
:10368000CDE9017501AD20462946FDF705FE0B2069
:1036900001900220029020462946FDF7FDFD0C20F6
:1036A00001900320029020462946FDF7F5FD0D20EC
:1036B00001900420029020462946FDF7EDFD0E20E2
:1036C000CDE9010620462946FDF7E6FD0620CDE9B5
:1036D000010020462946FDF7DFFD0720CDE9010066
:1036E00020462946FDF7D8FD0820CDE901002046F7
:1036F0002946FDF7D1FD0920CDE9010020462946E4
:10370000FDF7CAFD20462946CDE90187FDF7C4FD36
:1037100040F21411C2F2000120460A22FDF7B8FF60
:1037200004B0BDE8F0810000B0B582B040F2F00511
:10373000C2F2000547F20041C4F20001284600240D
:1037400040F8101FCDE90044FEF754F8002818BFD8
:10375000FDF772FBCDE9004405F1100469462046EF
:103760000022FEF721F8002818BFFDF765FB694627
:1037700020461022FEF718F8002818BFFDF75CFB62
:1037800020460021FEF760F820461021FEF75CF885
:103790002046002100220023FEF742F82046102197
:1037A00000220023FEF73CF802B0B0BD10B58EB089
:1037B00040F654200021C2F200004FF08042012365
:1037C0004FF47A740D91CDE90B11CDE90911CDE9D2
:1037D0000711CDE90511CDE90311CDE90111C0E9CA
:1037E0000023C0E90214016180218161FFF734F9EF
:1037F000002818BFFDF720FB4FF480500A9040F6D8
:103800005420C2F200000AA9FFF7CEF9002818BF21
:10381000FDF712FB40F65420C2F20000FFF7F4FB64
:10382000002818BFFDF708FB40F654200024C2F220
:10383000000008A9CDE90844FFF7C2F8002818BF26
:10384000FDF7FAFA6020CDE9010440F65420C2F2F7
:10385000000001A9002203940594FFF7A7FA0028AD
:1038600018BFFDF7E9FA40F65420C2F2000001A9A2
:103870000422FFF79BFA002818BFFDF7DDFA40F697
:103880005420C2F2000001A90822FFF78FFA002895
:1038900018BFFDF7D1FA40F65420C2F2000001A98A
:1038A0000C22FFF783FA002818BFFDF7C5FA40F68F
:1038B0005424C2F200042046FFF740FA20460021BB
:1038C000FFF736FC20460421FFF732FC2046082192
:1038D000FFF72EFC20460C21FFF72AFC0EB010BD8E
:1038E00080B540F69C2044F20041C2F20000C4F2D0
:1038F000000100234FF00C0C4FF4613280E80E0001
:10390000C0E90333C0E905C3C361FFF78BFC00289E
:1039100018BFFDF791FA40F69C2040F26811C2F200
:103920000000C2F200013222BDE88040FFF74ABD2C
:10393000FEE700007047000080B540F60000C4F2CA
:1039400001000221FEF754FB0138B0FA80F04FEA83
:10395000501140F2F000C2F2000007D14288037813
:103960000132428013B9828801328280C28801709C
:10397000511C8AB242F210739A42C18038BF80BD96
:10398000B0F802C048F21F52C5F2EB12ACFB022E97
:1039900082884CF6CD41CCF6CC41A2FB01134FEA14
:1039A0005E114170D908B2F5FA7F018103D8002376
:1039B00043814AB913E0A2F5FA7140F2DB539A420F
:1039C00088BF4FF47A71418142F21071A1EB0C0172
:1039D00040F29F135943B1FBF2F1A1F22D330021C4
:1039E0008381C0F80210C18080BD000070470000D4
:1039F00070B540F22814C2F20004E08D002844D0D3
:103A000040F29406C2F20006002006F10C05E085A3
:103A1000204629464022FCF7EAFB58B120464021C7
:103A2000FDF7D6FA608BF18C88423FD128464021C1
:103A3000FDF79AFAFDF71AFB4FF20C41884218DDA8
:103A40004FF20D41884221D04FF61101884221D01A
:103A50004FF61211884218BF70BD0220307040F638
:103A6000FF7000F06DF940F6FF70BDE8704000F0A7
:103A700075B94FF20A11884203D04FF20B218842E8
:103A800003D1BDE87040FDF7B1B870BDBDE870402E
:103A9000FCF7D8BF00203070002000F051F9002062
:103AA00000F05CF9BDE87040FDF7A0B84FF4FA7083
:103AB000FEF70CF9012080F3138800F0E9F900000B
:103AC0002DE9F04F87B006466FF31100B0F1006F9B
:103AD0001CBF07B0BDE8F08F144605914FF6FF7587
:103AE000FEF76EF906F1784003964FEAD02CC0F34A
:103AF000490E40F29A1BCEF58060A1464FEACC28D1
:103B00004FF0006AC2F2000BA04238BF044600BF6B
:103B10000221C0F600010AEBCC204144002200BF84
:103B200008EB020333F80A302BF802308F5A0BEB04
:103B300002035F808F187E8820329E80BE88B2F597
:103B4000006FDE80FE881E813E895E817E899E81B7
:103B5000BE89DE81FE891E823E8A5E827E8A9E82C8
:103B6000BE8ADE82FE8A1E833E8B5E837E8B9E83B0
:103B7000BF8BDF83D4D1A1B20029CDF808C0049453
:103B8000069143D00BEB4E07CDF80490C1F1000C29
:103B9000BA1DA1F10109002332F8066CAE4241D1F1
:103BA000994516D007EB43067488AC423AD10CEB2A
:103BB0000304A11C0DD0B188A94233D1E11C08D067
:103BC0001188A9422ED106990433994202F10802C4
:103BD000E2D14CF25030FDF745F90498019C039E68
:103BE000000400F087800598DDF81890851E3746A0
:103BF00035F8022F012039460023FEF785F8B9F188
:103C0000010907F10207F3D174E000BF4CF2503014
:103C1000FDF728F9039E4C460699A0B288426DD163
:103C200087E000BFCDF800E0FDF708F94CF2503016
:103C3000FDF718F942F21000C4F2020001460068D4
:103C4000B9F1030F20F002000860069800F0030CA1
:103C500007D2DDF814900021009BBCF1000F1FD1AA
:103C600036E0DDF81490A0EB0C0E00216FF001039C
:103C700009EB03067588FC18658009EB4105688827
:103C800007EB41025080A8880431908030898E452E
:103C900003F108032081EBD1009BBCF1000F17D08A
:103CA00039F81100CA18BCF1010F2BF812000FD01F
:103CB000481C39F810201844BCF1020F2BF81020D2
:103CC00006D0881C39F8101018442BF8101000BFCB
:103CD000019C039EABF102054FF0006735F8022FFF
:103CE00008EB070101200023FEF70EF80237B7F1B9
:103CF000082FF3D10699A0B288421AD0059806EB96
:103D0000410600EB4100DDF808C0059003960498D9
:103D10000CF1010C241AA0B2B0F5806FA14628BFA7
:103D20004FF4806408F500684FF0000E4FF6FF7501
:103D3000EEE607B0BDE8F04FFDF7DCBF70470000CE
:103D400040F6FF73984238BF034640F2F000C2F2DB
:103D50000000103000210022FDF762BD40F6FF7325
:103D6000984238BF034640F2F000C2F20000103023
:103D700010210022FDF754BD80B5FEF745F940F251
:103D80001800C2F2000001884A1C332902800ED3B9
:103D9000418842F2CD52514344F6D352C1F26202FD
:103DA000A1FB021200219209018082804180BDE8BE
:103DB0008040FFF7C1BD000070470000406A016805
:103DC0004A6990F83D30212B0BD112F0800208D0C7
:103DD0000022C284CA6822F0C002CA60202280F891
:103DE0003D204A6990F83E30222B17D112F0400254
:103DF00014D00022C285CB6823F49073CB604B694A
:103E000023F001034B61036B012B03D1CB6823F03B
:103E10001003CB60202180F83E100263016C41F05A
:103E200010010164FFF7FCB90168406A096889065E
:103E300018D40021C1850168CA6822F48072CA6062
:103E40004A6922F001024A614A6922F040024A614D
:103E5000202280F83E20026B012A03D1CA6822F09A
:103E60001002CA60016B012918BFFFF7FDBA818DEE
:103E7000FFF7D4B9406A016B012918BFFFF7F6BA02
:103E8000818D4908FFF7CAB970470000FEE70000BE
:103E90004EF60C50BFF34F8FCEF2000001680422A3
:103EA00001F4E061C0F2FA5211430160BFF34F8F99
:103EB00000BFFDE710B582B004468DF8070040F65C
:103EC0009C20C2F200000DF1070101224FF0FF33E8
:103ED000FFF7CEFA204602B010BD000096B0FEF704
:103EE000A1F8002602270120CDE91166CDE90F6671
:103EF000CDE90C760E961090102011904FF46010C2
:103F0000CDE9137615900CA80696CDE90466CDE9A7
:103F10000266FEF76BFB0F20CDE907074FF48060C8
:103F20000996CDE90A0607A80221FEF72FFA4FF4F9
:103F300000400197039001A8FEF79EF941F2180096
:103F40000F96C4F20200016840F6000441F020011F
:103F500001600168C4F2010401F02001019101999E
:103F600001680CAD41F010010160016801F0100121
:103F700001910199016841F004010160016801F0BB
:103F8000040101910199016841F008010160006894
:103F9000294600F008000190019820200C90002094
:103FA000C1F23100CDE90D0604F50060FDF720FFF8
:103FB00020462946CDE90C760E96FDF719FF17200D
:103FC00000210022FEF798F81720FEF785F8FFF78A
:103FD0002DFBFFF7EBFBFFF783FCFFF7A5FBFCF7DF
:103FE000ADFFFFF71BFBFCF701FE48F21F55C5F2C2
:103FF000EB1564260CE0FCF711FAFCF75BFA00BF46
:10400000FCF752FCFCF7B2FEFFF7F2FCFCF7A0FA5B
:10401000FDF79AF80446FDF7F1FF022C0ED2A0FB43
:104020000512510901FB16001428E4D00028E7D13D
:10403000FDF722F8FCF7D4FFE2E700BFE0D1FCF780
:1040400057FCDDE70FB4054B10B503A9044A0298ED
:1040500000F018F810BC5DF814FB0000B53E000835
:104060000000002002E008C8121F08C1002AFAD18F
:1040700070477047002001E001C1121F002AFBD1E8
:10408000704700002DE9FF4F8BB09A460F4605465A
:10409000002606E025280BD052460D9990476D1C4E
:1040A000761C28780028F5D10FB03046BDE8F08F97
:1040B0000024A0460122604900E0044315F8013FB6
:1040C000203B02FA03F00842F7D128782E2817D1B6
:1040D00015F8010F44F004042A280ED06FF02F02C7
:1040E0002878A0F1300109290AD808EB880102EBF1
:1040F000410100EB01086D1CF2E757F8048B6D1CC1
:10410000287869283ED006DC0028CDD063280BD063
:10411000642804D136E0732810D075284BD052465D
:104120000D999047761C85E017F8040B8DF8000078
:1041300000208DF80100E946012003E057F8049BB8
:104140004FF0FF3061074FF0000401D40AE0641C17
:1041500044450DDA8442FADB19F804100029F6D13F
:1041600006E0641C8442FCDB19F804100029F8D135
:10417000264404E019F8010B52460D999047641E3D
:10418000F8D257E001CF4FF00A0B002802DA404284
:104190002D2102E0210504D52B218DF824100121C9
:1041A00003E0E10705D02021F7E70DF12009089190
:1041B0000CE00021F9E701CF4FF00A0BF9E759466F
:1041C000FCF722F801F1300209F8012D0028F6D1A0
:1041D000ADEB090000F1200B600701D44FF001089E
:1041E000D84502DDA8EB0B0000E00020804600244B
:1041F00006E009A85246005D0D999047641C761CA4
:1042000008988442F5DB04E0302052460D9990472F
:10421000761CB8F10001A8F10108F5DC05E019F8F9
:10422000010B52460D999047761CBBF10001ABF192
:10423000010BF4DC6D1C34E70928010001020000C9
:104240000000000000000102030406070809000046
:1042500000000102030402030405060708090A0B13
:104260000C0D0E0F10106E616D652E7478743D226A
:10427000256422FFFFFF006E616D652E7478743D2A
:1042800022257322FFFFFF00766973206F626A2C7C
:104290002564FFFFFF006E616D652E7069633D252B
:1042A00064FFFFFF006E616D652E76616C3D2564D5
:1042B000FFFFFF0070616765206E616D65FFFFFFA6
:1042C0000025732E76616C3D2564FFFFFF00000022
:1042D000F0420008000000201800000064400008C0
:1042E0000843000818000020F00E00007440000889
:1042F0000000000001000000100000000024F40095
:08430000FF00000000000000B6
:0400000508000131BD
:00000001FF
