:020000040800F2
:10000000C8150020450100083D630008395A000862
:1000100065610008F10900089D7A000800000000F1
:10002000000000000000000000000000E16A00087D
:10003000E10D000800000000E1660008CD6D000839
:100040005F0100085F0100085F0100085F01000810
:100050005F0100085F0100085F0100085F01000800
:100060005F0100085F0100085F010008790D0008CA
:100070005F0100085F0100085F0100085F010008E0
:10008000890D00085F0100085F0100085F0100089A
:100090005F0100085F0100085F0100086D1900089A
:1000A0005F0100085F0100085F0100085F010008B0
:1000B0005F0100085F0100085F0100085F010008A0
:1000C0005F0100085F0100085F0100085F01000890
:1000D0005F0100085F010008397A00085F0100082D
:1000E0005F0100085F0100085F0100085F01000870
:1000F0005F0100085F0100085F0100085F01000860
:100100005F0100085F0100085F0100085F0100084F
:100110005F0100085F0100085F0100085F0100083F
:100120005F0100085F0100085F0100085F0100082F
:10013000DFF80CD000F068FA004800475D7C00084A
:10014000C81500200648804706480047FEE7FEE73E
:10015000FEE7FEE7FEE7FEE7FEE7FEE7FEE7FEE777
:10016000C96E0008310100082DE9F05F0546002046
:1001700092469B4688460646814640241BE0284618
:1001800041464746224600F076F853465A46C01A82
:10019000914110D311461846224600F05DF82D1A01
:1001A00067EB01084F4622460120002100F054F879
:1001B00017EB00094E41201EA4F10104DFDC484684
:1001C00031462A464346BDE8F09F40EA01039B07BB
:1001D00003D009E008C9121F08C0042AFAD203E0BC
:1001E00011F8013B00F8013B521EF9D27047D2B220
:1001F00001E000F8012B491EFBD270470022F6E710
:1002000010B513460A4604461946FFF7F0FF20468C
:1002100010BD30B504460020034600E05B1C93424D
:1002200003D2E05CCD5C401BF8D030BD30B50B464E
:10023000014600202022012409E021FA02F59D4216
:1002400005D303FA02F5491B04FA02F52844151EEA
:10025000A2F10102F1DC30BD202A04DB203A00FAD1
:1002600002F1002070479140C2F1200320FA03F30D
:10027000194390407047202A04DB203A21FA02F00B
:100280000021704721FA02F3D040C2F120029140D0
:100290000843194670472DE9FE4F804681EA030066
:1002A000C00F0C46009021F0004123F00045B8EB50
:1002B0000200A94105D24046214690461C460B4605
:1002C000024623F00040104347D0270DC7F30A0031
:1002D000C3F30A510290401A019040286BDAC3F32D
:1002E000130040F4801B0098924620B10023D2EB0B
:1002F000030A63EB0B0B01985946C0F140025046CC
:10030000FFF7AAFF06460D4650465946019A00F0EF
:1003100093F910EB08006141002487EA115284EA46
:10032000E7731A4340D0009A62B3019A012A4FEA58
:10033000075215DC001B61EB02014FF0004202EA9C
:100340000752CDE90042001C41F5801132462B4690
:1003500000F093F903B0BDE8F08F40462146F9E77D
:10036000001B61EB0201001C41F5801300185B418A
:100370002018A2F5001747EB030140EAD570B61923
:100380006D4111E06D084FEA360645EAC0754FEA47
:100390000752001B61EB0201001C41F58011490866
:1003A0004FEA30000019514132462B4603B0BDE8F8
:1003B000F04F00F053B90098012240000023D0EB29
:1003C000020263EBE073009821464FEAE074B8EB59
:1003D000000061EB0401E9E783F000435BE781F093
:1003E000004158E72DE9FE4F81EA030404F0004480
:1003F00021F0004100944FF0000B23F0004350EA3D
:1004000001045ED052EA03045BD0C3F30A54C1F383
:100410000A552C44A4F2F3340194A0FB0254C1F316
:10042000130141F48011C3F3130343F4801301FB60
:10043000024400FB034E840A970A44EA815447EAC7
:100440008357A4FB076802958D0A05FB07854FEAD1
:10045000932C04FB0C542705029D4FEA065847EAEB
:100460001637B5EB08056EEB070C870E920E47EAC0
:10047000811742EA8312A7FB0201B6EB0B0164EB82
:1004800000042B0D43EA0C335E1844EB1C50DA4693
:100490005146E7FB0201C5F313044FEA0B3343EA6D
:1004A00014534FEA0432019C43EA0603A4F10C04FE
:1004B0000294009CCDE900B400F0DFF803B0BDE881
:1004C000F08F00200146F9E72DE9F04D81EA0304A1
:1004D00004F0004B21F0004514464FF0000A23F0D1
:1004E000004150EA050220D054EA01021DD0C5F3B4
:1004F0000A570246C5F31303C1F31300C1F30A56AA
:1005000040F4801543F48013A7EB0608101BD64671
:1005100008F2FD3873EB050002D308F1010801E091
:1005200092185B41B8F1000F03DA00200146BDE8E4
:10053000F08D00204FF48011064684460EE0171B14
:1005400073EB050705D3121B63EB050306434CEA67
:10055000010C49084FEA300092185B4150EA01074C
:10056000EDD152EA030012D082EA040083EA0501C9
:10057000084305D0101BAB4106D20122002306E040
:1005800000224FF0004302E06FF0010253101AEB1B
:1005900006004CEB085110EB0A0041EB0B01BDE8E3
:1005A000F04D00F05BB8C1F30A52C1F3130140F201
:1005B000FF3341F480119A4202DA0020014670476D
:1005C00040F233439A42A2F2334202DC5242FFF736
:1005D00052BEFFF741BE000030B5041E71F10004A9
:1005E00004DB4FF00044404264EB0101141E73F140
:1005F000000405DB1C464FF00043524263EB04034A
:10060000994208BF904230BD1CB509480090094886
:1006100001900546009C06E0E06840F0010394E884
:10062000070098471034AC42F6D3FFF785FD000071
:10063000208C0008408C0008202A06DBCB17203ACB
:1006400041FA02F043EAE07306E041FA02F3D040D7
:10065000C2F12002914008431946704710B5141E9C
:1006600073F1000408DA401C41F1000192185B416B
:100670001A4301D120F0010010BD2DE9F04D924642
:100680009B4611B1B1FA81F202E0B0FA80F2203259
:100690009046FFF7E1FD04460F4640EA0A0041EAB2
:1006A0000B0153465A46084313D0114653EA010042
:1006B00019D0C8F140025046FFF7DDFD05460E4651
:1006C000504659464246FFF7C7FD084305D0012072
:1006D00004E020463946BDE8F08D0020054346EA97
:1006E000E0762C4337430A986305E40AA0EB080040
:1006F0000022FD0A44EA47540A3002D50020014690
:10070000E9E7010510196941DDE90845001969416A
:10071000BDE8F04DA2E7000080B584B00290002053
:100720000190029800688068C007002830D0FFE779
:1007300002980068816821F00101816003F0DAFC11
:100740000190FFE7029800688068C00700281ED06B
:10075000FFE703F0CFFC0199401A032816D3FFE707
:10076000029800688068C00700280ED0FFE7029852
:10077000816A41F0100181620298C16A41F0010171
:10078000C16201208DF80F0006E0FFE7DAE7FFE71E
:1007900000208DF80F00FFE79DF80F0004B080BD2A
:1007A00080B584B003900398406A02900298806AF2
:1007B00010F0500F29D1FFE70298816A41F40071CF
:1007C000816202980068806800F46020B0F5602FB4
:1007D00017D1FFE70298007B002812D1FFE70298AB
:1007E000816A21F4807181620298806AC0040028C5
:1007F00006D4FFE70298816A41F001018162FFE7B8
:10080000FFE7029802F004F808E00298006A006B23
:1008100003990190084601998847FFE704B080BD1D
:1008200080B582B001900198406A00900098816A7A
:1008300041F0400181620098C16A41F00401C16247
:10084000009801F0EDFF02B080BD000080B582B0DD
:1008500001900198406A0090009801F0DDFF02B01D
:1008600080BD000080B584B002900020019000900F
:10087000029800688068C00700284CD1FFE7029802
:100880000068816841F00101816040F20400C2F219
:10089000000000684DF68361C4F21B31A0FB01012A
:1008A000890C0091FFE70098002804D0FFE700982A
:1008B00001380090F7E703F01DFC0190FFE7029874
:1008C00000688068C007002824D1FFE703F012FC0D
:1008D0000199401A03281CD3FFE70298006880683A
:1008E000C007002814D1FFE70298816A41F0100187
:1008F00081620298C16A41F00101C162FFE702987A
:10090000002180F82410FFE701208DF80F0006E099
:10091000FFE7D4E7FFE700208DF80F00FFE79DF821
:100920000F0004B080BD000080B584B040F65810C0
:10093000C2F20000008800280FD0FFE701F086FD1A
:1009400040F65811C2F200014A8889880291114686
:10095000029A00F071F8019002E000200190FFE798
:1009600001988DF80F0040F65810C2F2000001788F
:100970009DF80F2040F20800C2F2000048F6B333A1
:10098000C0F6000305F042FC04B080BD80B584B021
:1009900040F65810C2F20000C08800280FD0FFE7D0
:1009A00001F054FD40F65811C2F200010A8949894C
:1009B00002911146029A00F03FF8019002E00020F7
:1009C0000190FFE701988DF80F0040F65810C2F231
:1009D000000081799DF80F2040F21800C2F200005B
:1009E00048F6B933C0F6000305F010FC04B080BD32
:1009F000FFE7FEE780B582B00146ADF80400BDF820
:100A00000400002804D1FFE70020ADF806000FE045
:100A1000BDF8040040F6E441A0FB012348F2C07099
:100A2000CDF206601721FFF79FFBADF80600FFE748
:100A3000BDF8060002B080BD80B584B013468C4678
:100A40008646ADF80C00ADF80A10ADF80820BDF8E8
:100A50000C00BDF80A10884204DCFFE700208DF886
:100A60000F0028E0BDF80C00BDF80810884204DB38
:100A7000FFE764208DF80F001DE0BDF80C00BDF805
:100A80000A10401A64225043BDF80820511A90FB06
:100A9000F1F08DF807009DF80700002803D1FFE76B
:100AA0000120009003E09DF807000090FFE7009808
:100AB0008DF80F00FFE79DF80F0004B080BD000027
:100AC00080B588B00690059140F6A020C2F20000E3
:100AD00000684068C0F164008DF813009DF81300B1
:100AE00041F2B011C2F200010978884206D1FFE755
:100AF0000598002101708DF81F105AE09DF8130031
:100B000041F2B011C2F200010978884216DDFFE718
:100B10009DF8130041F2B011C2F200010A78801A68
:100B2000059A10700698097840F2F302C2F20002AA
:100B30001144059A1278FFF748FB2FE041F2B010FC
:100B4000C2F200000178C1F164018DF812109DF825
:100B500013108DF811100699007840F2F302C2F2DA
:100B6000000210449DF81230039008460399029247
:100B70001A46FFF72AFB06999DF8122011449DF8AA
:100B80001120019008460299FFF71FFB9DF81210F3
:100B90009DF811201144059A1170FFE79DF813008C
:100BA00041F2B011C2F20001087001208DF81F005F
:100BB000FFE79DF81F0008B080BD000080B582B03F
:100BC00040F24D00C2F2000040F24C01C2F20001BE
:100BD000FFF776FF002801D1FFE7CAE000208DF87B
:100BE0000700FFE79DF8070040F24C01C2F2000148
:100BF0000978884280F2BD80FFE79DF8070040F247
:100C00004D01C2F200010B5C40F69810C2F20000E8
:100C100040F6A811C2F20001642206F0EDFC0028A3
:100C200001D1FFE79FE040F6A810C2F20000017872
:100C3000407840EA012040F60C21C2F20001088011
:100C400040F2B200C2F200000122C28508880146CB
:100C50004FF20A129042009136D0FFE74FF20B207C
:100C6000009981427CD0FFE74FF20C30009981421D
:100C700031D0FFE74FF20D400099814270D0FFE77D
:100C80004FF20F600099814239D0FFE74FF21070A8
:100C90000099814241D0FFE74FF61100009981424F
:100CA00049D0FFE74FF612100099814258D0FFE774
:100CB0004FF613200099814244D0FFE74FF61430DD
:100CC0000099814245D04CE040F6A810C2F20000E5
:100CD00005F07EFC46E040F6A810C2F200008178E4
:100CE000C27841EA022140F2B202C2F2000251850A
:100CF000007941F2B811C2F20001087032E040F60A
:100D0000A810C2F200008078002818BF012040F22D
:100D1000B201C2F20001888524E040F6A810C2F2B8
:100D200000008078002818BF012040F2B201C2F212
:100D30000001888116E040F6A810C2F2000005F01C
:100D40000DFC0FE041F26710C2F2000001210170BA
:100D500008E041F26710C2F200000021017001E0DA
:100D6000FFE7FFE7FFE79DF8070001308DF8070078
:100D700038E702B080BD000080B540F65C20C2F2CA
:100D8000000002F073F980BD7047000084B003904A
:100D90000291019200930398C16B006C012202FA48
:100DA00000F048600098039909684860039840681B
:100DB000102809D1FFE70198039909688860029813
:100DC00003990968C86008E0029803990968886077
:100DD000019803990968C860FFE704B070470000F4
:100DE0007047000080B582B040F65810C2F2000093
:100DF000808B002814D0FFE740F23800C2F20000D8
:100E000000886421484340F20111C0F21001A0FBA8
:100E10000112801A02EB5000C00A8DF8070007E0AB
:100E200040F65810C2F20000807F8DF80700FFE7FF
:100E30009DF80700052804DCFFE705208DF8070072
:100E4000FFE79DF8070040F67031C2F20001097813
:100E5000884215D0FFE79DF8070040F67031C2F2D6
:100E6000000108709DF8071048F6A930C0F6000090
:100E700006F088FF0A210090084602F01FFDFFE7F8
:100E800002B080BD80B592B0FFE740F65810C2F2C4
:100E90000000018E48F66C20C0F6000006F072FFDC
:100EA0000A211090084602F009FDFFE7FFE740F62F
:100EB0005810C2F20000418E48F67E20C0F60000B5
:100EC00006F060FF0A210F90084602F0F7FCFFE7EA
:100ED000FFE740F65810C2F20000818E48F69020DD
:100EE000C0F6000006F04EFF0A210E90084602F000
:100EF000E5FCFFE7FFE740F65810C2F20000C18EA4
:100F000048F65E10C0F6000006F03CFF0A210D9086
:100F1000084602F0D3FCFFE7FFE740F65810C2F2A4
:100F20000000018F48F6B410C0F6000006F02AFF5A
:100F30000A210C90084602F0C1FCFFE7FFE740F6EB
:100F40005810C2F20000418F48F6D510C0F60000DC
:100F500006F018FF0A210B90084602F0AFFCFFE7ED
:100F6000FFE740F65810C2F20000818F48F6462095
:100F7000C0F6000006F006FF0A210A90084602F0BB
:100F80009DFCFFE7FFE740F65810C2F20000C18F5A
:100F900048F65920C0F6000006F0F4FE0A21099038
:100FA000084602F08BFCFFE7FFE748F6DD20C0F6BD
:100FB0000000422106F0E6FE0A210890084602F0F1
:100FC0007DFCFFE7FFE740F23800C2F20000018835
:100FD00048F60330C0F6000006F0D4FE0A21079060
:100FE000084602F06BFCFFE703F084F811901198BB
:100FF00040F61021C2F200010968401AB0F57A7F6C
:101000004CD3FFE7119840F61021C2F200010860AE
:10101000FFE740F23800C2F20000008AFFF7EAFC66
:1010200048F66C21C0F6000106900846069906F0C5
:10103000A9FE0A210590084602F040FCFFE7FFE701
:1010400040F23800C2F20000C089FFF7D3FC48F636
:101050007E21C0F6000104900846049906F092FE35
:101060000A210390084602F029FCFFE7FFE740F25F
:101070003800C2F20000408AFFF7BCFC48F690211D
:10108000C0F6000102900846029906F07BFE0A2194
:101090000190084602F012FCFFE7FFE712B080BDA6
:1010A00080B59EB0FFE748F66700C0F6000006F086
:1010B00069FE32211D90084602F000FCFFE7FFE7C1
:1010C00040F65810C2F20000418848F62910C0F6D8
:1010D000000006F057FE0A211C90084602F0EEFBC5
:1010E000FFE7FFE740F65810C2F20000818848F69B
:1010F0003810C0F6000006F045FE0A211B90084695
:1011000002F0DCFBFFE7FFE740F65810C2F20000F8
:101110000088002818BF012048F64811C0F60001D9
:101120001A9008461A9906F02DFE4FF00A01199000
:10113000084602F0C3FBFFE7FFE740F65810C2F293
:101140000000018948F67F10C0F6000006F01AFE84
:101150000A211890084602F0B1FBFFE7FFE740F6CE
:101160005810C2F20000418948F68E10C0F6000007
:1011700006F008FE0A211790084602F09FFBFFE7E1
:10118000FFE740F65810C2F20000C088002818BFE0
:10119000012048F69E11C0F60001169008461699E7
:1011A00006F0F0FD4FF00A011590084602F086FBAC
:1011B000FFE7FFE740F65810C2F2000080890028E0
:1011C00018BF012048F6C921C0F600011490084656
:1011D000149906F0D7FD4FF00A011390084602F06B
:1011E0006DFBFFE7FFE740F65810C2F20000C1892F
:1011F00048F60D20C0F6000006F0C4FD0A2112904A
:10120000084602F05BFBFFE7FFE740F65810C2F22A
:101210000000018A48F6F710C0F6000006F0B2FDA3
:101220000A211190084602F049FBFFE7FFE740F66C
:101230005810C2F20000408A002818BF012048F66A
:10124000EF21C0F6000110900846109906F09AFDB3
:101250004FF00A010F90084602F030FBFFE7FFE76E
:1012600040F65810C2F20000818A48F6E610C0F637
:10127000000006F087FD0A210E90084602F01EFBD2
:10128000FFE7FFE740F65810C2F20000C18A48F6B7
:101290008130C0F6000006F075FD0A210D90084669
:1012A00002F00CFBFFE7FFE740F65810C2F2000027
:1012B000018B48F69330C0F6000006F063FD0A216A
:1012C0000C90084602F0FAFAFFE7FFE740F65810E4
:1012D000C2F20000408B0138B0FA80F0410948F6B4
:1012E0002F30C0F6000006F04DFD0A210B90084695
:1012F00002F0E4FAFFE7FFE740F65810C2F2000000
:10130000818B48F6A220C0F6000006F03BFD0A21C2
:101310000A90084602F0D2FAFFE7FFE740F65810BD
:10132000C2F20000C18B48F64730C0F6000006F05C
:1013300029FD0A210990084602F0C0FAFFE7FFE7FD
:1013400040F65810C2F20000018C48F61910C0F6A1
:10135000000006F017FD0A210890084602F0AEFAD8
:10136000FFE7FFE740F65810C2F20000418C48F654
:101370000710C0F6000006F005FD0A210790084698
:1013800002F09CFAFFE7FFE740F65810C2F20000B7
:10139000818C48F6B520C0F6000006F0F3FC0A2167
:1013A0000690084602F08AFAFFE7FFE740F6581079
:1013B000C2F20000C18C48F67030C0F6000006F0A2
:1013C000E1FC0A210590084602F078FAFFE7FFE702
:1013D00040F65810C2F20000018D48F61930C0F6F0
:1013E000000006F0CFFC0A210490084602F066FADD
:1013F000FFE7FFE740F65810C2F20000418D48F6C3
:101400005830C0F6000006F0BDFC0A2103900846E3
:1014100002F054FAFFE7FFE748F62220C0F600008A
:10142000002106F0AFFC0A210290084602F046FABD
:10143000FFE741F2B810C2F200000078002807D0A0
:10144000FFE748F65600C0F6000006F09BFC06E0F9
:1014500048F62B00C0F6000006F094FCFFE70A20D7
:1014600002F02CFAFFE748F63420C0F60000002115
:1014700006F088FC0A210190084602F01FFAFFE7F7
:101480001EB080BD80B598B0FFE748F63C00C0F6BE
:10149000000006F077FC32211790084602F00EFAA1
:1014A000FFE7FFE740F65810C2F20000418848F21B
:1014B000DC70C0F6000006F065FC0A2116900846B4
:1014C00002F0FCF9FFE7FFE740F65810C2F2000017
:1014D000818848F2C270C0F6000006F053FC0A2171
:1014E0001590084602F0EAF9FFE7FFE740F65810CA
:1014F000C2F20000018948F26370C0F6000006F0F5
:1015000041FC0A211490084602F0D8F9FFE7FFE7F2
:1015100040F65810C2F20000418948F27D70C0F6D2
:10152000000006F02FFC0A211390084602F0C6F9CD
:10153000FFE7FFE740F65810C2F20000C18948F209
:10154000AE70C0F6000006F01DFC0A21129008469D
:1015500002F0B4F9FFE7FFE740F65810C2F20000CE
:10156000018A48F29870C0F6000006F00BFC0A21D0
:101570001190084602F0A2F9FFE7FFE740F6581085
:10158000C2F2000000880821002818BF092148F68F
:10159000BB00C0F6000006F0F5FB4FF00A0110900A
:1015A000084602F08BF9FFE7FFE740F65810C2F259
:1015B0000000C0880821002818BF092148F6CF0084
:1015C000C0F6000006F0DEFB4FF00A010F9008465F
:1015D00002F074F9FFE7FFE740F65810C2F200008E
:1015E00080890821002818BF092148F6E300C0F6C9
:1015F000000006F0C7FB4FF00A010E90084602F00B
:101600005DF9FFE7FFE740F65810C2F20000808D59
:101610000821002818BF092148F6F600C0F600008E
:1016200006F0B0FB4FF00A010D90084602F046F9B3
:10163000FFE7FFE740F65810C2F20000408A48F288
:101640004171C0F6000148F24472C0F60002002861
:1016500018BF0A4648F2F770C0F60000114606F0BF
:1016600091FB4FF00A010C90084602F027F9FFE7C2
:10167000FFE740F65810C2F20000408B48F2477175
:10168000C0F6000148F26072C0F60002002818BFE0
:101690000A4648F60E00C0F60000114606F072FB3E
:1016A0004FF00A010B90084602F008F9FFE7FFE748
:1016B0003C20C4F2000000684021C4F20001096827
:1016C000084446F6CB31CAF62871A0FB0112801AF5
:1016D00002EB5000000948F66F12C0F600020A90B3
:1016E00010460A9A0991114606F04CFB0A2108900F
:1016F000084602F0E3F8FFE7FFE73420C4F20000F9
:1017000000683821C4F200010968084446F6CB316C
:10171000CAF62871A0FB0112801A02EB50000009E2
:1017200048F6C512C0F6000207901046079A0691C7
:10173000114606F027FB0A210590084602F0BEF884
:10174000FFE7FFE700F088FE0138B0FA80F04109BA
:1017500048F69800C0F6000006F014FB0A21049039
:10176000084602F0ABF8FFE700F076FE01280CD146
:10177000FFE700F077FE48F22871C0F60001039001
:101780000846039906F0FEFAFFE7FFE748F6750002
:10179000C0F60000002106F0F5FA0A210290084682
:1017A00002F08CF8FFE7FFE748F68800C0F600007B
:1017B000002106F0E7FA0A210190084602F07EF8BF
:1017C000FFE7FFE748F6AA00C0F60000002106F098
:1017D000D9FA0A210090084602F070F8FFE718B025
:1017E00080BD000080B584B041F26710C2F20000F5
:1017F0000078002801D0FFE7B5E002F07BFC039001
:10180000039841F2C411C2F200010968401AC008ED
:101810007C2801D8FFE7A6E0039841F2C411C2F288
:101820000001086000208DF8080040F65810C2F250
:101830000000808C002814D0FFE740F23800C2F28C
:101840000000408940F6272188420ADCFFE79DF826
:101850000800411C8DF808100DF1090100220A54FE
:10186000FFE740F23800C2F20000808840F6AD5138
:1018700088420ADBFFE79DF80800411C8DF808103C
:101880000DF1090101220A54FFE740F23800C2F2CB
:1018900000008088B0F5166F0ADAFFE79DF80800AF
:1018A000411C8DF808100DF1090102220A54FFE7CE
:1018B00040F23000C2F200000078022817DCFFE797
:1018C00040F23000C2F20000007848F61441C0F641
:1018D000000151F8201048F61F00C0F6000006F085
:1018E00051FA0A210190084601F0E8FFFFE79DF850
:1018F000080001282ADBFFE79DF8080041F2C1112A
:10190000C2F200010A78B2FBF0F303FB102008706A
:101910000878421C0A700DF10901085C40F23001A0
:10192000C2F200010870087848F61441C0F60001C0
:1019300051F8201048F64A00C0F6000006F022FADE
:101940000A210090084601F0B9FF0CE040F2300097
:10195000C2F20000FF21017041F2C110C2F200008A
:1019600000210170FFE704B080BD000040F2144088
:10197000C4F201000068800600280ED5FFE740F29F
:101980001440C4F201002021016040F60E20C2F292
:101990000000018801310180FFE7704770470000B7
:1019A00080B582B001468DF807009DF80700002839
:1019B0000AD0FFE740F65810C2F20000C08CB0FA1F
:1019C00080F04009009009E040F65810C2F2000093
:1019D000C08C002818BF01200090FFE700988DF808
:1019E00006009DF8062040F60040C4F201004FF4C6
:1019F000804102F065FB02B080BD000080B582B07E
:101A000000208DF8070040F65810C2F20000408A0E
:101A1000002818D0FFE740F65810C2F20000808D71
:101A200000280FD0FFE700F011FD40F65811C2F278
:101A30000001898A884204DDFFE701208DF8070054
:101A4000FFE7FFE70CE040F65810C2F20000808D7F
:101A5000002804D0FFE701208DF80700FFE7FFE72B
:101A60009DF8070000280DD0FFE741F2C010C2F238
:101A700000000121017040F6A210C2F20000002116
:101A800001703CE041F2C010C2F200000078002872
:101A900034D0FFE740F6A210C2F200000078002820
:101AA0000ED1FFE740F6A210C2F200000121017042
:101AB00002F020FB40F6A411C2F2000108601CE015
:101AC00002F018FB40F6A411C2F200010968401AA6
:101AD00040F65811C2F20001C98A88420CD3FFE7D0
:101AE00041F2C010C2F200000021017040F6A210C5
:101AF000C2F200000170FFE7FFE7FFE7FFE741F2F6
:101B0000C010C2F200000078FFF74AFF41F26710F0
:101B1000C2F200000078002818D1FFE7FFE740F686
:101B20005810C2F20000808D0821002818BF09213A
:101B300048F6F600C0F6000006F024F94FF00A015E
:101B40000090084601F0BAFEFFE7FFE702B080BD53
:101B500080B586B0002005900490039002904FF469
:101B6000804102910121039104900221059140F6E8
:101B70000041C4F2010102AA01900846114602F098
:101B8000D3F841F2C010C2F200000199017040F692
:101B9000A210C2F2000001700846FFF701FF06B074
:101BA00080BD000080B584B0039000208DF80B004C
:101BB0004FF6FF70ADF80800ADF80600ADF8040070
:101BC000ADF8020000F086F90399084303909DF8F0
:101BD0000C00ADF808009DF80D00ADF806009DF86A
:101BE0000E00ADF804009DF80F00ADF802004CF2B5
:101BF000503000F00BFB8DF80B009DF80B00002817
:101C000040F08580FFE741F28010C2F20000002121
:101C1000C16101F075FE8DF80B009DF80B000028E6
:101C200074D1FFE742F21000C4F20200016841F0F3
:101C300010010160BDF80800FF2810D0FFE7BDF8D3
:101C400008004FF60801C1F6FF710A8810430880AA
:101C50004CF2503000F0DAFA8DF80B00FFE79DF8F7
:101C60000B00002815D1FFE7BDF80600FF2810D0B3
:101C7000FFE7BDF806004FF60A01C1F6FF710A88BA
:101C8000104308804CF2503000F0C0FA8DF80B0081
:101C9000FFE79DF80B00002815D1FFE7BDF8040011
:101CA000FF2810D0FFE7BDF804004FF60C01C1F685
:101CB000FF710A88104308804CF2503000F0A6FAF9
:101CC0008DF80B00FFE79DF80B00002815D1FFE70A
:101CD000BDF80200FF2810D0FFE7BDF802004FF664
:101CE0000E01C1F6FF710A88104308804CF2503093
:101CF00000F08CFA8DF80B00FFE742F21000C4F2FE
:101D00000200016821F010010160FFE7FFE79DF884
:101D10000B0004B080BD000080B584B003900020AB
:101D20008DF80B004FF6FF70ADF80800ADF8060017
:101D3000ADF80400ADF8020000F0CCF8039961EAB8
:101D40000000C04303909DF80C00ADF808009DF81A
:101D50000D00ADF806009DF80E00ADF804009DF8EA
:101D60000F00ADF802004CF2503000F04FFA8DF841
:101D70000B009DF80B00002840F08580FFE741F242
:101D80008010C2F200000021C16101F0B9FD8DF8A0
:101D90000B009DF80B00002874D1FFE742F2100001
:101DA000C4F20200016841F010010160BDF80800B2
:101DB000FF2810D0FFE7BDF808004FF60801C1F674
:101DC000FF710A88104008804CF2503000F01EFA73
:101DD0008DF80B00FFE79DF80B00002815D1FFE7F9
:101DE000BDF80600FF2810D0FFE7BDF806004FF64B
:101DF0000A01C1F6FF710A88104008804CF2503089
:101E000000F004FA8DF80B00FFE79DF80B000028A6
:101E100015D1FFE7BDF80400FF2810D0FFE7BDF89B
:101E200004004FF60C01C1F6FF710A8810400880CB
:101E30004CF2503000F0EAF98DF80B00FFE79DF806
:101E40000B00002815D1FFE7BDF80200FF2810D0D5
:101E5000FFE7BDF802004FF60E01C1F6FF710A88D8
:101E6000104008804CF2503000F0D0F98DF80B0093
:101E7000FFE742F21000C4F20200016821F01001F5
:101E80000160FFE7FFE79DF80B0004B080BD000094
:101E900082B0A52001900020009042F21C00C4F204
:101EA0000200006800F0020000900098022803D1B0
:101EB000FFE70020019002E0A5200190FFE70198D4
:101EC00002B0704742F21C00C4F202000068C0F386
:101ED0008200704742F22000C4F20200006870479E
:101EE00080B584B00A4603908DF80B1001208DF860
:101EF0000A004CF25030019200F088F98DF80A0087
:101F00009DF80A00002820D1FFE741F28010C2F2BC
:101F100000000021C16142F21000C4F20200016819
:101F200041F0100101609DF80B10039A11804CF2F2
:101F300050310090084600F069F98DF80A000098C9
:101F4000016821F010010160FFE79DF80A0004B06C
:101F500080BD000080B584B001468DF80F000020E0
:101F60008DF80E004CF25030029100F04FF98DF8D0
:101F70000E009DF80E00002842D1FFE741F28010CC
:101F8000C2F200000021C16142F21000C4F202005E
:101F9000016841F020010160016841F040010160E9
:101FA0004CF250310190084600F030F98DF80E00E7
:101FB0000198016821F0200101609DF80E100029B0
:101FC0001DD1FFE742F21000C4F20200016841F0A7
:101FD000100101609DF80F104FF60002C1F6FF726C
:101FE00011804CF250310090084600F00FF98DF846
:101FF0000E000098016821F010010160FFE7FFE783
:102000009DF80E0004B080BD80B584B001468DF807
:102010000F0000208DF80E004CF25030029100F0BD
:10202000F5F88DF80E009DF80E00002825D1FFE789
:1020300041F28010C2F200000021C16142F21000A2
:10204000C4F20200016841F0100101609DF80F1018
:1020500041F088014FF60202C1F6FF7211804CF286
:1020600050310190084600F0D1F88DF80E0001982B
:10207000016821F010010160FFE79DF80E0004B037
:1020800080BD000081B0009041F28010C2F20000DB
:102090000021C16142F21000C4F20200016841F067
:1020A00002010160009942F21402C4F202021160BE
:1020B000016841F04001016001B0704782B00A46FA
:1020C0000190ADF8021041F28010C2F20000002130
:1020D000C16142F21000C4F20200016841F0010146
:1020E0000160BDF802000199088002B0704700004D
:1020F00081B0002000900120002809D1FFE742F2C2
:102100001C00C4F202000068C007002809D115E0D5
:1021100042F20C00C4F202000068C00600280DD58F
:10212000FFE741F28010C2F20000C16941F00201F4
:10213000C161009840F010000090FFE701200028E6
:1021400009D1FFE742F21C00C4F202000068C00798
:10215000002809D115E042F20C00C4F20200006828
:10216000400700280DD5FFE741F28010C2F20000C1
:10217000C16941F00101C161009840F00400009084
:10218000FFE70020002809D1FFE742F21C00C4F25B
:1021900002000068C00700280AD11CE042F20C00CF
:1021A000C4F20200006840F20111084213D0FFE7B8
:1021B00041F28010C2F20000C16941F00401C16126
:1021C000FFE742F21C00C4F20200016821F00101A5
:1021D0000160FFE7FFE7FFE7009840F20111884246
:1021E00009D1FFE742F21C00C4F20200016821F0AD
:1021F0000101016006E0009842F20C01C4F2020104
:102200000860FFE7FFE701B07047000080B584B0C9
:10221000029001F06FFF0190FFE742F20C00C4F260
:1022200002000068C007002817D0FFE702980130BD
:10223000002811D0FFE70298002808D0FFE701F03E
:1022400059FF0199401A0299884204D9FFE70320F7
:102250008DF80F006DE0FFE7DFE70120002809D1CE
:10226000FFE742F21C00C4F202000068C007002829
:1022700009D111E042F20C00C4F2020000688006AD
:10228000002809D5FFE7FFE742F20C00C4F2020084
:1022900020210160FFE7FFE70120002809D1FFE7C7
:1022A00042F21C00C4F202000068C007002836D1C8
:1022B00008E042F20C00C4F202000068C0060028E8
:1022C0002DD4FFE70020002809D1FFE742F21C00CF
:1022D000C4F202000068C007002820D109E042F2E1
:1022E0000C00C4F20200006840F20111084216D14D
:1022F000FFE70120002809D1FFE742F21C00C4F2E9
:1023000002000068C007002809D10EE042F20C006C
:10231000C4F2020000684007002806D5FFE7FFF777
:10232000E7FE01208DF80F0003E000208DF80F007C
:10233000FFE79DF80F0004B080BD000080B582B0BB
:1023400040F65810C2F2000040210190009100F0C8
:102350000DF8019805F01AFC40F2B200C2F200003C
:102360000199009AFDF731FF02B080BD80B584B0BD
:102370000A460390ADF80A100399BDF80A004FF61B
:102380000003C0F6030301901846019B00921A4611
:1023900004F05EFA04B080BD80B584B00A460390B4
:1023A000ADF80A100399BDF80A004FF60003C0F615
:1023B000030301901846019B00921A4604F074FA38
:1023C00004B080BD40F60C20C2F2000000887047C7
:1023D00080B582B000F040F8002817D1FFE740F642
:1023E0005810C2F20000408B002804D1FFE700F033
:1023F0003FF8019003E000F04BF80190FFE70198EF
:1024000040F61621C2F2000108800DE000F024F829
:10241000012808D1FFE700F025F840F61621C2F2A6
:1024200000010880FFE7FFE740F61620C2F2000037
:10243000018848F22870C0F6000005F0A3FC0A21CC
:102440000090084601F03AFA02B080BD40F616202E
:10245000C2F200000088704740F2F200C2F20000B1
:102460000078704740F65810C2F20000408D704767
:1024700080B501F03FFE41F25971CDF2B711A0FBDA
:102480000112520B42F2107302FB130080BD0000D8
:1024900080B540F65810C2F20000008E40F23801BC
:1024A000C2F20001098A48434DF6F021C0F207014B
:1024B000A0FB01014BF6C052CFF214420023FDF7FE
:1024C00053FE80B280BD000080B588B00690002029
:1024D0008DF817000390FFE7069890F82400012874
:1024E00004D1FFE702208DF81F00AEE0069801211D
:1024F00080F82410FFE7FFE70698FEF70DF98DF846
:1025000017009DF81700002840F09480FFE7069818
:10251000806A40F0020020F488500699886240F2F8
:102520000400C2F20000006802210290084601F097
:10253000AFFE0299B1FBF0F040000390FFE7039873
:10254000002804D0FFE7039801380390F7E70698C6
:10255000FEF788F9069909688A6842F008028A60DD
:10256000019001F0C7FD0490FFE7069800688068BD
:102570000007002822D5FFE701F0BCFD0499401AAE
:102580000B281AD3FFE70698006880680007002828
:1025900012D5FFE70698806A40F0100020F0020094
:1025A00006998862FFE70698002180F82410FFE76B
:1025B00001208DF81F0048E0FFE7D6E70698006885
:1025C000816841F00401816001F094FD0490FFE70F
:1025D0000698006880684007002822D5FFE701F0D0
:1025E00089FD0499401A0B281AD3FFE70698006862
:1025F00080684007002812D5FFE70698806A40F0FF
:10260000100020F0020006998862FFE7069800217A
:1026100080F82410FFE701208DF81F0015E0FFE788
:10262000D6E70698806A40F0010020F00200069983
:102630008862FFE7FFE70698002180F82410FFE793
:102640009DF817008DF81F00FFE79DF81F0008B0E8
:1026500080BD000085B00390029100208DF8070036
:102660000090FFE7039890F82400012804D1FFE7C9
:1026700002208DF81300C7E00398012180F8241090
:10268000FFE7FFE702984068062813D8FFE70398A2
:102690000068406B02990A68496801EB81010539BD
:1026A0001F238B40984302FA01F1084303990968FC
:1026B00048632BE0029840680C2813D8FFE7039882
:1026C0000068006B02990A68496801EB81012339AF
:1026D0001F238B40984302FA01F1084303990968CC
:1026E000086312E003980068C06A02990A684968A2
:1026F00001EB810141391F238B40984302FA01F11C
:10270000084303990968C862FFE7FFE70298006879
:102710000A2812D3FFE703980068C06802990A6884
:10272000896802EB42021E3A072393409843914086
:10273000084303990968C86010E0039800680069BD
:1027400002990A68896802EB420207239340984382
:1027500091400843039909680861FFE702980068FF
:10276000102805D0FFE702980068112841D1FFE743
:102770000398006842F20041C4F2010188422ED160
:10278000FFE70398006880680002002826D4FFE76E
:1027900003980068816841F4000181600298006834
:1027A00010281AD1FFE740F20400C2F200000068CE
:1027B0004DF68361C4F21B31A0FB0101890C01EBD2
:1027C000810149000091FFE70098002804D0FFE74D
:1027D000009801380090F7E7FFE7FFE708E003986B
:1027E000816A41F02001816201208DF80700FFE736
:1027F000FFE7FFE70398002180F82410FFE79DF82A
:1028000007008DF81300FFE79DF8130005B070472F
:1028100081B0009001B0704781B0009001B0704766
:1028200081B0009001B0704780B58CB00A90002054
:102830008DF827000890079006900A98002804D188
:10284000FFE701208DF82F0018E10A988068002822
:1028500007D0FFE70A98007D002801D0FFE7FFE7D7
:10286000FFE70A98806A00280AD1FFE70A9800214A
:10287000C1620A9880F824100A9800F003F9FFE773
:102880000A98FDF749FF8DF827000A98806AC0066C
:10289000002800F1E580FFE79DF82700002840F0C0
:1028A000DF80FFE70A98806A40F0020020F4885039
:1028B0000A9988620A980168406843F60042C4F2A7
:1028C00001029142059011D1FFE70A98C069B0F565
:1028D000402F04D1FFE74FF40020049003E00A9852
:1028E000C0690490FFE70498039003E00A98C06968
:1028F0000390FFE70398059908430A9A127B40EA80
:102900004200079A104307900A9880680122B0F5A8
:10291000807F029208D0FFE70A9880680138B0FAF9
:1029200080F040090290FFE702980899C00741F43F
:102930008072002818BF114608910A98007D01286E
:102940001FD1FFE70A98007B00280ED1FFE70A9805
:1029500080694EF20001CFF6FF7101EB403008991B
:10296000084340F4006008900AE00A98816A41F048
:10297000200181620A98C16A41F00101C162FFE74A
:10298000FFE70A980068406820F469400899084306
:102990000A99096848600A98006880684FF2FD71DA
:1029A000CFF6E1710840079908430A9909688860E1
:1029B0000A9880680121B0F5807F019108D0FFE777
:1029C0000A9880680138B0FA80F040090190FFE76A
:1029D000019800F00100002818BF4FF48070B0F596
:1029E000807F09D1FFE70A9800690021CFF6F071D6
:1029F00001EB00500690FFE70A980068C06A20F4D7
:102A00007000069908430A990968C8620A98006824
:102A1000806840F6FE61CFF61F7108400799884232
:102A20000CD1FFE70A980021C1620A98806A40F041
:102A3000010020F002000A99886210E00A98806A7A
:102A400040F0100020F002000A9988620A98C16ADA
:102A500041F00101C16201208DF82700FFE708E085
:102A60000A98816A41F01001816201208DF82700E7
:102A7000FFE79DF827008DF82F00FFE79DF82F0056
:102A80000CB080BD80B58CB00B9000200A900990EE
:102A9000089007900B98006842F20041C4F20101CF
:102AA000884240F09880FFE7FFE741F21800C4F247
:102AB0000200016841F400710160006800F40070D8
:102AC00006900698FFE7FFE741F21800C4F2020003
:102AD000016841F010010160006800F010000590ED
:102AE0000598FFE7FFE741F21800C4F20200016811
:102AF00041F004010160006800F0040004900498B3
:102B0000FFE7FFE741F21800C4F20200016841F05C
:102B100008010160006800F0080003900398FFE7D7
:102B2000032008901F21079141F20001C4F2010126
:102B300007AA019008461146009201F0F5F8C1205D
:102B4000079040F60000C4F20100009901F0ECF893
:102B50000198079040F60040C4F20100009901F08E
:102B6000E3F8FFE741F21400C4F20200016841F00B
:102B700001010160006800F0010002900298FFE787
:102B800040F65C20C2F200000821C4F2020101609C
:102B90000021416081608021C1604FF4807101613A
:102BA0004FF480614161202181614FF40051C16186
:102BB00000F0A2FD002803D0FFE7FEF7EFFEFFE7DD
:102BC000FFE70B9840F65C21C2F2000101620B980E
:102BD0004862FFE7FFE70CB080BD000080B586B01B
:102BE00004900391029200208DF807000498006879
:102BF00042F20041C4F20101884209D0FFE7049883
:102C0000006842F60001C4F20101884209D1FFE7E1
:102C100042F20440C4F20100006800F47020009009
:102C200002E000200090FFE70098002840F0DE80DE
:102C3000FFE7FFE7049890F82400012804D1FFE79C
:102C400002208DF81700DAE00498012180F82410A2
:102C5000FFE7FFE70498FDF705FE8DF807009DF8F4
:102C60000700002840F0BA80FFE70498806A40F42B
:102C7000807040F601618843049988620498006876
:102C800042F60001C4F20101884209D1FFE742F295
:102C90000440C4F20100006810F4702F04D019E061
:102CA0000020002816D1FFE70498816A21F48011E2
:102CB00081620498006840684005002809D5FFE754
:102CC0000498806A40F4805020F40050049988628F
:102CD000FFE72DE00498816A41F480118162049835
:102CE000006842F20041C4F20101884209D0FFE7C6
:102CF0000498006842F60001C4F20101884209D13B
:102D0000FFE742F20440C4F20100006840050028D9
:102D100004D40CE00120002809D1FFE70498806A60
:102D200040F4805020F4005004998862FFE7FFE7E8
:102D30000498806AC004002806D5FFE70498C16A99
:102D400021F00601C16203E004980021C162FFE79F
:102D5000FFE70498002180F82410FFE70498006A38
:102D600040F2A171C0F6000181620498006A40F649
:102D70004D01C0F60001C1620498006A40F62101CD
:102D8000C0F600010163049800686FF00201016061
:102D900004980068816841F480718160049801683A
:102DA000006A4C31039A029B00F022FD04990968E5
:102DB000896801F46021B1F5602F07D1FFE704981D
:102DC0000068816841F4A001816006E00498006811
:102DD000816841F480118160FFE706E0FFE7049815
:102DE000002180F82410FFE7FFE703E001208DF8C1
:102DF0000700FFE79DF807008DF81700FFE79DF833
:102E0000170006B080BD000086B0049003910292C6
:102E1000FFE704984079012804D1FFE702208DF8EC
:102E200017003FE0049801214171FFE7FFE7049894
:102E3000022101710498006800680190029800F076
:102E4000100040F6FE7101FA00F0019921EA00003D
:102E50000190039801684068084300900098029927
:102E600001F01001884001990843019001980499EC
:102E700009680860029800F01000C02101FA00F013
:102E8000049909680A6822EA000008600498012190
:102E90000171FFE7049800214171FFE700208DF8E0
:102EA0001700FFE79DF8170006B0704780B582B0A5
:102EB00000900098002804D1FFE701208DF807005A
:102EC00017E000980079002807D1FFE7009800215B
:102ED0004171009800F012F8FFE70098022101719B
:102EE0000098002101610098012202718DF80710FD
:102EF000FFE79DF8070002B080BD000080B588B0F4
:102F000007900798006847F20041C4F20001884228
:102F10002FD1FFE700200690059004900390FFE773
:102F200041F21C00C4F20200016841F0005101604E
:102F3000006800F0005002900298FFE7FFE741F2BE
:102F40001800C4F20200016841F004010160006849
:102F500000F0040001900198FFE730200390032067
:102F6000049040F60000C4F2010003A900F0DCFE6A
:102F7000FFE708B080BD000085B004900391029285
:102F800001930020009004980068009003980028A6
:102F900006D1FFE70298009908440830009005E048
:102FA00002980099084414300090FFE701980099B6
:102FB0000860002005B0704783B001900091FFE7E2
:102FC00001984079012804D1FFE702208DF80B0019
:102FD00048E0019801214171FFE7FFE701980221D4
:102FE0000171009800F01000012101FA00F0019930
:102FF00009680A68104308600098002810D1FFE7AC
:1030000001980068006800F03C003C2807D1FFE709
:1030100001980068416841F001014160FFE715E057
:1030200001980068006800F47010009901F0100128
:103030003C2202FA01F1884207D1FFE701980068BB
:10304000416841F002014160FFE7FFE7019801217B
:103050000171FFE7019800214171FFE700208DF821
:103060000B00FFE79DF80B0003B0704780B5ACB0D4
:103070002B902B98C06B00682A902B9800680068F2
:1030800029902A982B99096CC8404007002840F1E4
:103090007681FFE79DF8A4004007002840F16F818A
:1030A000FFE72B98006800688006002807D4FFE738
:1030B0002B980068016821F004010160FFE72B985C
:1030C00000688121C4F202018842C0F0A880FFE7B5
:1030D0002B9800680821C4F20201884203D1FFE75F
:1030E0000420289094E02B9800681C21C4F202016F
:1030F000884203D1FFE74020279086E02B980068A4
:103100003021C4F20201884204D1FFE74FF480600D
:10311000269077E02B9800684421C4F2020188428F
:1031200004D1FFE74FF48040259068E02B980068B9
:103130005821C4F20201884204D1FFE74FF48020F5
:10314000249059E02B9800686C21C4F20201884257
:1031500004D1FFE74FF4800023904AE02B980068E9
:103160008021C4F20201884204D1FFE74FF0806061
:1031700022903BE02B98006840F20841C4F2020123
:10318000884203D1FFE7042021902CE02B980068AF
:1031900040F21C41C4F20201884203D1FFE7402003
:1031A00020901DE02B98006840F23041C4F20201EB
:1031B000884204D1FFE74FF480601F900DE02B9808
:1031C000006840F24441C4F202014FF48022884278
:1031D00008BF4FF480421F92FFE71F982090FFE73F
:1031E00020982190FFE721982290FFE722982390D2
:1031F000FFE723982490FFE724982590FFE7259880
:103200002690FFE726982790FFE727982890FFE76A
:10321000289840F20441C4F202010860A5E02B980E
:1032200000680821C4F20201884203D1FFE70420AC
:103230001E9094E02B9800681C21C4F20201884281
:1032400003D1FFE740201D9086E02B9800683021D5
:10325000C4F20201884204D1FFE74FF480601C9061
:1032600077E02B9800684421C4F20201884204D11F
:10327000FFE74FF480401B9068E02B9800685821CE
:10328000C4F20201884204D1FFE74FF480201A9073
:1032900059E02B9800686C21C4F20201884204D1E5
:1032A000FFE74FF4800019904AE02B9800688021D6
:1032B000C4F20201884204D1FFE74FF08060189009
:1032C0003BE02B98006840F20841C4F202018842BA
:1032D00003D1FFE7042017902CE02B98006840F200
:1032E0001C41C4F20201884203D1FFE7402016903E
:1032F0001DE02B98006840F23041C4F20201884280
:1033000004D1FFE74FF4806015900DE02B98006822
:1033100040F24441C4F202014FF48022884208BFC7
:103320004FF480421592FFE715981690FFE7169824
:103330001790FFE717981890FFE718981990FFE784
:1033400019981A90FFE71A981B90FFE71B981C909A
:10335000FFE71C981D90FFE71D981E90FFE71E9841
:103360000421C4F202010860FFE72B98C06A00281C
:1033700004D0FFE72B98C16A8847FFE7B9E12A9894
:103380002B99096CC8408007002840F18081FFE735
:103390009DF8A4008007002840F17981FFE72B9871
:1033A00000680068800600280BD4FFE72B980068AF
:1033B000016821F00A0101602B98012180F8211099
:1033C000FFE72B9800688121C4F202018842C0F017
:1033D000A880FFE72B9800680821C4F20201884208
:1033E00003D1FFE70220149094E02B9800681C2181
:1033F000C4F20201884203D1FFE72020139086E047
:103400002B9800683021C4F20201884204D1FFE702
:103410004FF40070129077E02B9800684421C4F2BA
:103420000201884204D1FFE74FF40050119068E098
:103430002B9800685821C4F20201884204D1FFE7AA
:103440004FF40030109059E02B9800686C21C4F2C2
:103450000201884204D1FFE74FF400100F904AE0C8
:103460002B9800688021C4F20201884204D1FFE752
:103470004FF000700E903BE02B98006840F208413E
:10348000C4F20201884203D1FFE702200D902CE034
:103490002B98006840F21C41C4F20201884203D11B
:1034A000FFE720200C901DE02B98006840F230418F
:1034B000C4F20201884204D1FFE74FF400700B9080
:1034C0000DE02B98006840F24441C4F202014FF431
:1034D0000032884208BF4FF400520B92FFE70B986E
:1034E0000C90FFE70C980D90FFE70D980E90FFE70A
:1034F0000E980F90FFE70F981090FFE7109811902B
:10350000FFE711981290FFE712981390FFE71398C6
:103510001490FFE7149840F20441C4F202010860DD
:10352000A5E02B9800680821C4F20201884203D16B
:10353000FFE702200A9094E02B9800681C21C4F257
:103540000201884203D1FFE72020099086E02B98F2
:1035500000683021C4F20201884204D1FFE74FF431
:103560000070089077E02B9800684421C4F20201B3
:10357000884204D1FFE74FF40050079068E02B9891
:1035800000685821C4F20201884204D1FFE74FF4D9
:103590000030069059E02B9800686C21C4F20201BB
:1035A000884204D1FFE74FF4001005904AE02B98C1
:1035B00000688021C4F20201884204D1FFE74FF085
:1035C000007004903BE02B98006840F20841C4F280
:1035D0000201884203D1FFE7022003902CE02B98E0
:1035E000006840F21C41C4F20201884203D1FFE7A7
:1035F000202002901DE02B98006840F23041C4F278
:103600000201884204D1FFE74FF4007001900DE001
:103610002B98006840F24441C4F202014FF400329A
:10362000884208BF4FF400520192FFE701980290D0
:10363000FFE702980390FFE703980490FFE70498E0
:103640000590FFE705980690FFE706980790FFE7CB
:1036500007980890FFE708980990FFE709980A90F3
:10366000FFE70A980421C4F202010860FFE7FFE7C0
:103670002B98002180F82010FFE72B98806A002803
:1036800004D0FFE72B98816A8847FFE730E02A984B
:103690002B99096CC8400007002828D5FFE79DF842
:1036A000A4000007002822D5FFE72B9800680168D6
:1036B00021F00E0101602B98C16B006C012202FA0F
:1036C00000F048602B9882632B9880F82120FFE758
:1036D0002B98002180F82010FFE72B98006B002822
:1036E00004D0FFE72B98016B8847FFE7FFE7FFE770
:1036F000FFE72CB080BD000083B001900020009057
:103700000198002804D1FFE701208DF80B006AE042
:103710000198006840F20741C4F20201884218D8BB
:10372000FFE7019801684FF6F872CBF6FD7211447D
:103730004CF6CD42CCF6CC42A1FB02126FF0030353
:1037400003EA9202026401980022C4F20202C263F8
:1037500018E0019801684FF6F832CBF6FD7211447B
:103760004CF6CD42CCF6CC42A1FB02126FF0030323
:1037700003EA92020264019840F20042C4F202029B
:10378000C263FFE70198022180F8211001980068C8
:1037900000680090009843F6F0718843009001980B
:1037A00041688268C368D0F810C01143194341EAE8
:1037B0000C014269114382691143C06908430099B1
:1037C0000843009000980199096808600198002159
:1037D00081630198012280F82120019880F820104F
:1037E0008DF80B10FFE79DF80B0003B07047000049
:1037F00080B586B0049003910292019300208DF869
:103800000300FFE7049890F82000012804D1FFE7A7
:1038100002208DF817004DE00498012180F8201057
:10382000FFE7FFE7049890F82100012833D1FFE774
:103830000498022180F821100498002181630498E3
:103840000068016821F00101016004980399029A5F
:10385000019BFDF79BFA0498C06A002807D0FFE798
:1038600004980068016841F00E0101600CE00498C2
:103870000068016821F00401016004980068016893
:1038800041F00A010160FFE704980068016841F017
:103890000101016009E0FFE70498002180F8201091
:1038A000FFE702208DF80300FFE79DF803008DF885
:1038B0001700FFE79DF8170006B080BD80B584B003
:1038C000039000F017FC02900398019001980130DA
:1038D000002809D0FFE740F22800C2F2000000787B
:1038E000019908440190FFE7FFE700F003FC02990B
:1038F000401A0199884201D2FFE7F6E704B080BD83
:1039000080B582B0A5208DF8070001208DF8060053
:10391000FEF7BEFA8DF807004CF25030FEF776FC49
:103920008DF806009DF8060000282CD1FFE741F233
:103930008010C2F200000021C16142F21000C4F206
:103940000200016841F020010160016841F040017E
:1039500001604CF2503100900846FEF757FC8DF89C
:1039600006000098016821F0200101609DF8061012
:10397000002907D1FFE79DF80700FEF7EBFA8DF865
:103980000600FFE7FFE79DF8060002B080BD0000DB
:1039900080B582B00190019807210160FEF79AFA84
:1039A00001998860FEF774FA01990874FEF78AFAA3
:1039B0000199487402B080BD80B584B002900120A6
:1039C0008DF80700FFE741F28010C2F20000007E90
:1039D000012804D1FFE702208DF80F00A1E041F299
:1039E0008010C2F2000001210176FFE7FFE7029894
:1039F0000078C007002826D0FFE702984068012819
:103A000007D1FFE702988068FEF786F98DF8070076
:103A100006E002988068FEF7C5F88DF80700FFE71A
:103A20009DF8070000280DD0FFE7FFE741F2801066
:103A3000C2F2000000210176FFE79DF807008DF833
:103A40000F006EE0FFE7029800788007002819D584
:103A5000FFE70298007CFEF77DFA8DF807009DF8DD
:103A6000070000280DD0FFE7FFE741F28010C2F207
:103A7000000000210176FFE79DF807008DF80F0098
:103A80004FE0FFE7029800784007002819D5FFE7CC
:103A90000298407CFEF7B8FA8DF807009DF8070001
:103AA00000280DD0FFE7FFE741F28010C2F20000CE
:103AB00000210176FFE79DF807008DF80F0030E048
:103AC000FFE702980078000700281DD5FFE702985D
:103AD0004169007E009008460099FEF701FA8DF8D2
:103AE00007009DF8070000280DD0FFE7FFE741F22F
:103AF0008010C2F2000000210176FFE79DF8070068
:103B00008DF80F000DE0FFE7FFE741F28010C2F2F1
:103B1000000000210176FFE79DF807008DF80F00F7
:103B2000FFE79DF80F0004B080BD000042F21000D6
:103B3000C4F20200016841F080010160002070477A
:103B400080B500F0A3FB80BD81B042F21000C4F24A
:103B500002000068800500280FD4FFE742F2080049
:103B6000C4F2020040F22311C4F26751016048F62A
:103B7000AB11CCF6EF51016003E001208DF803009A
:103B800003E000208DF80300FFE79DF8030001B07B
:103B90007047000080B588B09C4696460690059117
:103BA0000393029201208DF8070000208DF8060093
:103BB0008DF80500FFE741F28010C2F20000007EA0
:103BC000012804D1FFE702208DF81F0079E041F2BF
:103BD0008010C2F2000001210176FFE7FFE74CF2FE
:103BE0005030FEF713FB8DF807009DF80700002802
:103BF0005AD1FFE70698012804D1FFE701208DF88C
:103C000005000CE00698022804D1FFE702208DF899
:103C1000050003E004208DF80500FFE7FFE7002022
:103C20008DF80600FFE79DF806009DF80510884214
:103C300039DAFFE705989DF8061000EB4100029A7B
:103C4000039B4FEA011C4FF0200EAEEB011E03FA5E
:103C50000EFE22FA0CF242EA0E026FF01F0C0CEB81
:103C60000111CB40002958BF1A4691B2FEF726FA3F
:103C70004CF25030FEF7CAFA8DF8070042F21000FD
:103C8000C4F20200016821F0010101609DF8070003
:103C9000002801D0FFE706E0FFE79DF806000130AD
:103CA0008DF80600BFE7FFE7FFE741F28010C2F2A0
:103CB000000000210176FFE79DF807008DF81F0046
:103CC000FFE79DF81F0008B080BD000081B0002014
:103CD0008DF8030042F21000C4F2020000680006F2
:103CE00000281CD5FFE742F20400C4F2020040F2B3
:103CF0002311C4F26751016048F6AB11CCF6EF51C5
:103D0000016042F21000C4F20200006800060028C0
:103D100004D5FFE701208DF80300FFE7FFE79DF8DA
:103D2000030001B07047000092B011901091002084
:103D30000F900B90FFE7109800680F99C84000287B
:103D400000F0A381FFE70F98012101FA00F00E9027
:103D5000109800680E9908400D900D980E998842B1
:103D600040F08F81FFE7109840680028079051D0FD
:103D7000FFE7079801283AD0FFE7079802283FD0CD
:103D8000FFE70798032860D0FFE70798112832D093
:103D9000FFE70798122838D0FFE70020C1F2110092
:103DA0000799814236D0FFE70020C1F2120007993F
:103DB00081422FD0FFE70020C1F221000799814204
:103DC00028D0FFE70020C1F222000799814221D0CC
:103DD000FFE70020C1F23100079981421AD0FFE7C6
:103DE0000020C1F232000799814213D030E01098D0
:103DF000C0680B902DE01098C06804300B9028E04C
:103E00001098C06808300B9023E01098C0680C3000
:103E10000B901EE010988068002803D1FFE7042073
:103E20000B9011E010988068012806D1FFE7082068
:103E30000B900E981199086105E008200B900E98E0
:103E400011994861FFE7FFE703E000200B9000E0D5
:103E5000FFE70D98FF2803D8FFE71198069003E0CD
:103E6000119804300690FFE706980A900D98FF28F5
:103E700004D8FFE70F988000059006E00F986FF0D8
:103E80001F0101EB80000590FFE7059809900A9853
:103E9000006809990F228A4090430B9A02FA01F1B7
:103EA00008430A9908601098C079C006002840F1BC
:103EB000E780FFE7FFE741F21800C4F20200016863
:103EC00041F001010160006800F0010008900898CD
:103ED000FFE70F9820F003000821C4F201014058C9
:103EE0000C900F9800F0030080000F2101FA00F001
:103EF0000C9921EA00000C90119840F60001C4F2E0
:103F00000101884203D1FFE70020049042E01198AC
:103F100040F60041C4F20101884203D1FFE70120CD
:103F2000039034E0119841F20001C4F2010188428B
:103F300003D1FFE70220029026E0119841F20041F0
:103F4000C4F20101884203D1FFE70320019018E089
:103F5000119841F60001C4F20101884203D1FFE744
:103F6000042000900AE0119841F60041C4F20101DA
:103F70000622884208BF05220092FFE700980190C0
:103F8000FFE701980290FFE702980390FFE703988C
:103F90000490FFE704980F9901F00301890088401D
:103FA0000C9908430C900C980F9921F003010822FA
:103FB000C4F20102885010988079C007002809D007
:103FC000FFE70D9840F20041C4F201010A68104376
:103FD000086009E00D9840F20041C4F201010A684E
:103FE00022EA00000860FFE7109880798007002827
:103FF00009D5FFE70D9840F20441C4F201010A68B7
:104000001043086009E00D9840F20441C4F2010138
:104010000A6822EA00000860FFE710988079C0066D
:10402000002809D5FFE70D9840F20841C4F20101CC
:104030000A681043086009E00D9840F20841C4F294
:1040400001010A6822EA00000860FFE71098807901
:104050008006002809D5FFE70D9840F20C41C4F214
:1040600001010A681043086009E00D9840F20C4114
:10407000C4F201010A6822EA00000860FFE7FFE7D6
:10408000FFE70F9801300F9055E612B0704700001F
:1040900082B00A460190ADF8021001988068BDF820
:1040A0000210084204D0FFE701208DF8010003E070
:1040B00000208DF80100FFE79DF8010002B0704775
:1040C00082B013468C460190ADF802108DF80120A5
:1040D0009DF80100002805D0FFE7BDF80200019916
:1040E000086105E0BDF80200000401990861FFE7DE
:1040F00002B0704741F2BC10C2F200000068704785
:1041000040F22800C2F20000007841F2BC11C2F275
:1041100000010A68104408607047000080B582B052
:1041200042F20000C4F20200016841F01001016097
:10413000032000F0A3F80020019000F007F80090A1
:1041400000F03EF8019802B080BD000080B582B05A
:10415000009040F20400C2F20000006840F2280122
:10416000C2F2000109784FF47A72B2FBF1F1B0FBB0
:10417000F1F000F071FF002804D0FFE701208DF876
:10418000070018E000980F280DD8FFE700994FF0BE
:10419000FF30002200F052F8009840F22C01C2F2E9
:1041A0000001086003E001208DF8070003E0002013
:1041B0008DF80700FFE79DF8070002B080BD000002
:1041C00083B0FFE741F21800C4F20200016841F039
:1041D00001010160006800F0010002900298FFE711
:1041E000FFE741F21C00C4F20200016841F0805177
:1041F0000160006800F0805001900198FFE7FFE740
:104200000420C4F2010001680091009921F0E061EE
:104210000091009941F00071009100990160FFE761
:1042200003B0704780B582B001468DF807009DF954
:104230000700009103F034FC02B080BD80B588B067
:1042400003468DF81F000691059200200490039309
:1042500003F040FC04909DF91F000499069A059B09
:104260000290084611461A4602F06AF80299019037
:104270000846019903F036FC08B080BD80B582B0D5
:104280000190019803F050FC02B080BD03F06AFC7D
:1042900080B58CB00B9040F60E70C1F210000A9001
:1042A00040F60A30C0F60C50099040F20670C0F695
:1042B0000810089040F20230C0F20450079040F21B
:1042C0000120ADF81A0000200590049003900290A0
:1042D00001900B98013801460F28009100F2C1802F
:1042E0000099DFE801F06BAEBE63BEBEBE67BEBE26
:1042F000BEBEBEBEBE0841F20400C4F202000068A9
:10430000029041F20000C4F202000068C0010028DF
:104310004BD5FFE70298C0F3834007A9085C0390E0
:104320009DF80A00C00700281FD0FFE741F20400F3
:10433000C4F20200006800F400300DF11A0141EAF5
:104340005040007805909DF80A00C00700280BD067
:10435000FFE7059841F20021C0F27A01B1FBF0F0CD
:10436000039948430490FFE707E0039840F60011E3
:10437000C0F23D0148430490FFE741F20400C4F25B
:10438000020000684002002803D5FFE7049801906E
:104390000AE0049840004AF6AB21CAF6AA21A0FB25
:1043A000010149080191FFE7FFE75BE000F09AFA9D
:1043B000019057E000F096FA019053E041F220009E
:1043C000C4F2020000680290029800F44070B0F558
:1043D000807F0AD1FFE79DF808008007002804D5F8
:1043E000FFE74FF4004001902AE0029800F440708B
:1043F000B0F5007F0DD1FFE741F22400C4F20200C6
:1044000000688007002804D5FFE749F64040019086
:1044100015E0029800F44070B0F5407F0DD1FFE741
:1044200041F20000C4F2020000688003002804D5B5
:10443000FFE74FF22440019000E0FFE7FFE7FFE7CE
:1044400010E000F03DFA41F20401C4F202010968F3
:1044500001F44041022202EB5131B0FBF1F0019036
:1044600000E0FFE701980CB080BD000080B586B089
:10447000049000200390029004980078C007002860
:1044800000F0AE80FFE700208DF8070041F21C002D
:10449000C4F202000068C000002813D4FFE7FFE761
:1044A00041F21C00C4F20200016841F08051016039
:1044B000006800F0805000900098FFE701208DF820
:1044C0000700FFE747F20000C4F200000068C005E3
:1044D000002822D4FFE747F20000C4F20000016880
:1044E00041F480710160FFF705FE0390FFE747F29A
:1044F0000000C4F200000068C00500280CD4FFE7EB
:10450000FFF7F8FD0399401A652804D3FFE703205D
:104510008DF817008CE0EAE7FFE741F22000C4F2D3
:104520000200006800F440700290029800283DD01C
:10453000FFE702980499496801F44071884235D038
:10454000FFE741F22000C4F20200016821F440714B
:10455000029140F24041C4F2422101220A6000224D
:104560000A60029901609DF80800C00700281CD06D
:10457000FFE7FFF7BFFD0390FFE741F22000C4F221
:1045800002000068800700280ED4FFE7FFF7B2FDA5
:104590000399401A41F28931884204D3FFE703208E
:1045A0008DF8170044E0E8E7FFE7FFE741F220005D
:1045B000C4F20200016821F44071049A5268114368
:1045C00001609DF80700012809D1FFE741F21C00B6
:1045D000C4F20200016821F080510160FFE7FFE7AB
:1045E00004980078800700280CD5FFE741F204000A
:1045F000C4F20200016821F44041049A9268114318
:104600000160FFE704980078C00600280CD5FFE79A
:1046100041F20400C4F20200016821F48001049A0E
:10462000526911430160FFE700208DF81700FFE792
:104630009DF8170006B080BD80B584B0029001914E
:104640000298002804D1FFE701208DF80F001BE13C
:10465000019842F20001C4F20201096801F0070169
:10466000884216D9FFE742F20000C4F20200016856
:1046700021F00701019A11430160006800F0070072
:104680000199884204D0FFE701208DF80F00FBE07C
:10469000FFE702980078800700282AD5FFE70298F4
:1046A00000784007002809D5FFE741F20400C4F272
:1046B0000200016841F4E0610160FFE702980078C0
:1046C0000007002809D5FFE741F20400C4F2020008
:1046D000016841F460510160FFE741F20400C4F257
:1046E0000200016821F0F001029A92681143016012
:1046F000FFE702980078C007002860D0FFE7029823
:10470000406801280ED1FFE741F20000C4F2020028
:1047100000688003002804D4FFE701208DF80F0013
:10472000B2E021E00298406802280ED1FFE741F292
:104730000000C4F2020000688001002804D4FFE7F2
:1047400001208DF80F009FE00DE041F20000C4F25F
:10475000020000688007002804D4FFE701208DF8DC
:104760000F0091E0FFE7FFE741F20400C4F202000E
:10477000016821F00301029A526811430160FFF7BA
:10478000B9FC0090FFE741F20400C4F202000068A7
:1047900000F00C0002994968B0EB810F0ED0FFE7E2
:1047A000FFF7A8FC0099401A41F28931884204D3EE
:1047B000FFE703208DF80F0066E0E4E7FFE70198CC
:1047C00042F20001C4F20201096801F007018842C7
:1047D00016D2FFE742F20000C4F20200016821F0A5
:1047E0000701019A11430160006800F00700019978
:1047F000884204D0FFE701208DF80F0044E0FFE776
:1048000002980078400700280CD5FFE741F2040029
:10481000C4F20200016821F4E061029AD2681143F7
:104820000160FFE702980078000700280DD5FFE738
:1048300041F20400C4F20200016821F46051029ABE
:10484000126941EAC2010160FFE700F04BF841F252
:104850000401C4F202010968C9B2090948F2C06240
:10486000C0F60002515CC84040F20401C2F20001EF
:10487000086040F22C00C2F200000068FFF766FCFE
:1048800000218DF80F10FFE79DF80F0004B080BDE8
:1048900040F20400C2F200000068704780B5FFF7E4
:1048A000F7FF41F20401C4F202010968C1F30221D9
:1048B00048F2D062C0F60002515CC84080BD0000E2
:1048C00080B5FFF7E5FF41F20401C4F20201096877
:1048D000C1F3C22148F2D062C0F60002515CC84068
:1048E00080BD00008BB040F60E70C1F210000A903F
:1048F00040F60A30C0F60C50099040F20670C0F63F
:104900000810089040F20230C0F20450079040F2C4
:104910000120ADF81A000020059004900390029049
:10492000019041F20400C4F202000068059005986D
:1049300000F00C000146002800913DD0FFE70098F0
:10494000042804D0FFE70098082806D035E041F29B
:104950000020C0F27A00019035E00598C0F3834052
:1049600007A9085C02909DF81600C007002818D01F
:10497000FFE741F20400C4F20200006800F40030D6
:104980000DF11A0141EA504000780490029841F27A
:104990000021C0F27A0148430499B0FBF1F0039082
:1049A00007E0029840F60011C0F23D014843039031
:1049B000FFE70398019006E0FFE741F20020C0F214
:1049C0007A000190FFE701980BB0704780B586B080
:1049D00004900498002804D1FFE701208DF8170007
:1049E00035E304980078C007002800F0B180FFE7A5
:1049F00041F20400C4F20200006800F00C00042838
:104A000013D0FFE741F20400C4F20200006800F096
:104A10000C0008281CD1FFE741F20400C4F2020098
:104A20000068C003002813D5FFE741F20000C4F27C
:104A3000020000688003002809D5FFE70498406859
:104A4000002804D1FFE701208DF81700FFE27EE087
:104A5000FFE704984068B0F5803F09D1FFE741F2D5
:104A60000000C4F20200016841F48031016033E0CB
:104A70000498406800280DD1FFE741F20000C4F21D
:104A80000200016821F480310160016821F4802175
:104A9000016020E004984068B0F5A02F0DD1FFE739
:104AA00041F20000C4F20200016841F4802101607B
:104AB000016841F4803101600CE041F20000C4F271
:104AC0000200016821F480310160016821F4802135
:104AD0000160FFE7FFE7FFE7FFE704984068002871
:104AE0001AD0FFE7FFF706FB0390FFE741F2000053
:104AF000C4F202000068800300280CD4FFE7FFF72F
:104B0000F9FA0399401A652804D3FFE703208DF8CA
:104B100017009CE2EAE719E0FFF7ECFA0390FFE7E1
:104B200041F20000C4F202000068800300280CD5A6
:104B3000FFE7FFF7DFFA0399401A652804D3FFE780
:104B400003208DF8170082E2EAE7FFE7FFE7FFE7BF
:104B5000049800788007002840F18E80FFE741F23A
:104B60000400C4F20200006810F00C0F13D0FFE73D
:104B700041F20400C4F20200006800F00C000828B2
:104B800029D1FFE741F20400C4F202000068C0032B
:104B9000002820D4FFE741F20000C4F202000068C0
:104BA0008007002809D5FFE704980069012804D090
:104BB000FFE701208DF8170049E241F20000C4F23E
:104BC0000200016821F0F801049A526941EAC20129
:104BD0000160FFE74FE00498006900282BD0FFE751
:104BE0000020C4F2422001210160FFF783FA039004
:104BF000FFE741F20000C4F20200006880070028CD
:104C00000CD4FFE7FFF776FA0399401A032804D380
:104C1000FFE703208DF8170019E2EAE741F20000F0
:104C2000C4F20200016821F0F801049A526941EAD5
:104C3000C20101601EE00020C4F242200021016098
:104C4000FFF758FA0390FFE741F20000C4F20200B8
:104C50000068800700280CD5FFE7FFF74BFA03999F
:104C6000401A032804D3FFE703208DF81700EEE174
:104C7000EAE7FFE7FFE7FFE704980078000700286E
:104C800049D5FFE704988069002823D0FFE740F268
:104C90008040C4F2422001210160FFF72BFA03900B
:104CA000FFE741F22400C4F20200006880070028F8
:104CB0000CD4FFE7FFF71EFA0399401A032804D328
:104CC000FFE703208DF81700C1E1EAE7012001F0BA
:104CD00009FD1FE040F28040C4F242200021016043
:104CE000FFF708FA0390FFE741F22400C4F2020044
:104CF0000068800700280CD5FFE7FFF7FBF9039950
:104D0000401A032804D3FFE703208DF817009EE123
:104D1000EAE7FFE7FFE7049800784007002840F142
:104D2000DA80FFE700208DF8070041F21C00C4F292
:104D300002000068C000002813D4FFE7FFE741F23B
:104D40001C00C4F20200016841F08051016000685B
:104D500000F0805000900098FFE701208DF80700D8
:104D6000FFE747F20000C4F200000068C005002819
:104D700022D4FFE747F20000C4F20000016841F4CA
:104D800080710160FFF7B6F90390FFE747F200007A
:104D9000C4F200000068C00500280CD4FFE7FFF74C
:104DA000A9F90399401A652804D3FFE703208DF879
:104DB00017004CE1EAE7FFE7FFE70498C068012825
:104DC00009D1FFE741F22000C4F20200016841F07E
:104DD0000101016032E00498C06800280DD1FFE7AE
:104DE00041F22000C4F20200016821F001010160DB
:104DF000016821F0040101601FE00498C0680528E3
:104E00000DD1FFE741F22000C4F20200016841F039
:104E100004010160016841F0010101600CE041F210
:104E20002000C4F20200016821F001010160016864
:104E300021F004010160FFE7FFE7FFE7FFE70498C7
:104E4000C06800281CD0FFE7FFF754F90390FFE784
:104E500041F22000C4F202000068800700280ED44E
:104E6000FFE7FFF747F90399401A41F28931884279
:104E700004D3FFE703208DF81700E8E0E8E71BE024
:104E8000FFF738F90390FFE741F22000C4F2020077
:104E90000068800700280ED5FFE7FFF72BF903997C
:104EA000401A41F28931884204D3FFE703208DF88C
:104EB0001700CCE0E8E7FFE79DF80700012809D1DB
:104EC000FFE741F21C00C4F20200016821F08051AA
:104ED0000160FFE7FFE70498C069002800F0B38095
:104EE000FFE741F20400C4F20200006800F00C0089
:104EF000082800F08280FFE70498C06902285CD18E
:104F0000FFE76020C4F2422000210160FFF7F2F8C1
:104F10000390FFE741F20000C4F202000068800144
:104F200000280CD5FFE7FFF7E5F80399401A03289E
:104F300004D3FFE703208DF8170088E0EAE7049820
:104F4000006AB0F5803F0CD1FFE741F20400C4F2E3
:104F50000200016821F40031049A92681143016053
:104F6000FFE741F20400C4F20200016821F4741169
:104F7000049A136A526A1A43114301606020C4F212
:104F8000422001210160FFF7B5F80390FFE741F2ED
:104F90000000C4F202000068800100280CD4FFE782
:104FA000FFF7A8F80399401A032804D3FFE703206A
:104FB0008DF817004BE0EAE71EE06020C4F24220C3
:104FC00000210160FFF796F80390FFE741F200002F
:104FD000C4F202000068800100280CD5FFE7FFF74B
:104FE00089F80399401A032804D3FFE703208DF8BA
:104FF00017002CE0EAE7FFE724E00498C0690128E5
:1050000004D1FFE701208DF8170020E041F20400F1
:10501000C4F2020000680290029800F48030049903
:10502000096A884208D1FFE7029800F470100499D9
:10503000496A884204D0FFE701208DF8170006E096
:10504000FFE7FFE7FFE700208DF81700FFE79DF877
:10505000170006B080BD000080B582B001900198B5
:1050600001F08AFE02B080BD85B003900291FFE797
:10507000039890F83C00012804D1FFE702208DF846
:1050800013006DE00398012180F83C10FFE7FFE773
:105090000398022180F83D10039800684068019051
:1050A0000398006880680090019820F070000190DB
:1050B00002980068019908430190019803990968D2
:1050C00048600398006842F60041C4F2010188423A
:1050D0002AD0FFE70398006843F20041C4F20101BF
:1050E000884221D0FFE703980068B0F1804F1BD0C1
:1050F000FFE70398006840F20041C4F200018842D3
:1051000012D0FFE70398006840F60001C4F20001E6
:10511000884209D0FFE70398006840F60041C4F2D6
:10512000000188420ED1FFE7009820F08000009037
:105130000298406800990843009000980399096814
:105140008860FFE70398012180F83D10FFE703988E
:10515000002180F83C10FFE700208DF81300FFE7E6
:105160009DF8130005B0704780B584B00290029896
:10517000002804D1FFE701208DF80F0043E00298DA
:1051800090F83D00002808D1FFE70298002180F840
:105190003C10029800F03CF8FFE70298022180F8EA
:1051A0003D10029850F8041B01900846019901F047
:1051B0008DFE0298012180F84610FFE70298012138
:1051C00080F83E10029880F83F10029880F8401056
:1051D000029880F84110FFE7FFE70298012180F86C
:1051E0004210029880F84310029880F84410029808
:1051F00080F84510FFE70298012180F83D1000205B
:105200008DF80F00FFE79DF80F0004B080BD00008F
:1052100082B0019001980068B0F1804F10D1FFE793
:10522000FFE741F21C00C4F20200016841F00101F5
:105230000160006800F0010000900098FFE7FFE7C0
:1052400002B0704780B58AB008900791FFE70898D0
:1052500090F83C00012804D1FFE702208DF82700D8
:10526000B7E00898012180F83C10FFE7FFE70898B5
:10527000022180F83D100898006880680690069822
:1052800020F077000690069820F47F40069006985C
:10529000089909688860079800680028059000F060
:1052A0008280FFE7059810287DD0FFE70598202829
:1052B00079D0FFE70598302875D0FFE7059840289A
:1052C00061D0FFE7059850283DD0FFE7059860289A
:1052D00049D0FFE7059870280BD0FFE70598B0F597
:1052E000805F05D0FFE70598B0F5005F19D061E059
:1052F00061E00898006807994A688B68C96804915A
:105300001946049B01F09EFE08980068806806908C
:10531000069840F07700069006980899096888601A
:1053200049E00898006807994A688B68C968039142
:105330001946039B01F086FE08980068816841F4D5
:105340008041816037E00898006807994A68C96819
:1053500002911146029A02F069F8089800685021FB
:1053600001F08AFE27E00898006807994A68C96832
:1053700001911146019A02F081F8089800686021B5
:1053800001F07AFE17E00898006807994A68C96832
:1053900000911146009A02F049F8089800684021EF
:1053A00001F06AFE07E0089800680799096801F0B3
:1053B00063FE00E0FFE70898012180F83D10FFE759
:1053C0000898002180F83C10FFE700208DF82700A6
:1053D000FFE79DF827000AB080BD000080B588B0C7
:1053E00007900020069005900490039007980068AD
:1053F000B0F1804F32D1FFE7FFE741F21800C4F26D
:105400000200016841F008010160006800F0080036
:1054100002900298FFE74FF470600390022004901E
:10542000069040F60040C4F2010003A9FEF77CFCA0
:10543000FFE70420C4F2010001680191019921F401
:1054400040710191019941F0E0610191019941F4AC
:105450000071019101990160FFE7FFE708B080BD8D
:1054600080B586B0049003910292FFE7049890F80B
:105470003C00012804D1FFE702208DF8170085E0E9
:105480000498012180F83C10FFE7FFE702980C2800
:10549000019000F270800199DFE801F0076D6D6DF9
:1054A000206D6D6D3A6D6D6D530004980068039921
:1054B00001F0F8FD04980068816941F008018161FC
:1054C00004980068816921F00401816103980069F2
:1054D000049909688A69104388614DE0049800685E
:1054E000039901F057FE04980068816941F4006156
:1054F000816104980068816921F480618161039869
:105500000069049909688A6942EA0020886133E0E9
:1055100004980068039901F0B9FE04980068C16915
:1055200041F00801C16104980068C16921F00401DB
:10553000C1610398006904990968CA691043C86188
:105540001AE004980068039901F01CFF04980068B1
:10555000C16941F40061C16104980068C16921F426
:105560008061C1610398006904990968CA6942EAC7
:105570000020C86100E0FFE7FFE70498002180F801
:105580003C10FFE700208DF81700FFE79DF817009B
:1055900006B080BD80B584B002900298002804D186
:1055A000FFE701208DF80F0043E0029890F83D00DE
:1055B000002808D1FFE70298002180F83C100298EB
:1055C00000F03CF8FFE70298022180F83D100298B5
:1055D00050F8041B01900846019901F077FC0298ED
:1055E000012180F84610FFE70298012180F83E1063
:1055F000029880F83F10029880F84010029880F8D6
:105600004110FFE7FFE70298012180F8421002985D
:1056100080F84310029880F84410029880F84510F2
:10562000FFE70298012180F83D1000208DF80F005F
:10563000FFE79DF80F0004B080BD000081B000902E
:1056400001B0704780B58CB00A9009910998002884
:1056500005D1FFE70A9890F83E0007901CE00998F2
:10566000042805D1FFE70A9890F83F00069010E063
:105670000998082805D1FFE70A9890F8400005909E
:1056800004E00A9890F841000590FFE7059806901D
:10569000FFE706980790FFE70798012804D0FFE787
:1056A00001208DF82F00A1E00998002805D1FFE71F
:1056B0000A98022180F83E101EE00998042806D1BD
:1056C000FFE70A98022180F83F10049112E0099840
:1056D000082806D1FFE70A98022180F840100391BC
:1056E00005E00A98022180F841100391FFE7039832
:1056F0000490FFE70498FFE70A98006809990122DF
:10570000029201F083FC0A980068029942F6004276
:10571000C4F20102904201910CD0FFE70A980068A0
:105720004CF60041CBF6FE710844B0FA80F0400917
:105730000190FFE70198C007002807D0FFE70A980B
:105740000068416C41F400414164FFE70A98006839
:1057500042F60041C4F2010188422AD0FFE70A98CC
:10576000006843F20041C4F20101884221D0FFE702
:105770000A980068B0F1804F1BD0FFE70A980068D4
:1057800040F20041C4F20001884212D0FFE70A98BB
:10579000006840F60001C4F20001884209D0FFE72A
:1057A0000A98006840F60041C4F20001884212D114
:1057B000FFE70A980068806800F0070008900898E2
:1057C000062807D0FFE70A980068016841F0010148
:1057D0000160FFE706E00A980068016841F00101F6
:1057E0000160FFE700208DF82F00FFE79DF82F00F4
:1057F0000CB080BD82B00A460190ADF8021002B034
:105800007047000081B0009001B0704780B582B051
:1058100000900098002804D1FFE701208DF80700D0
:1058200040E000988069002801D0FFE700E0FFE732
:10583000009890F83D00002808D1FFE7009800216B
:1058400080F83C10009800F031F8FFE70098242120
:1058500080F83D1000980068C16821F40051C160D3
:10586000009802F023F800980068016921F4904143
:10587000016100980068416921F02A0141610098A6
:105880000068C16841F40051C160009800210164C2
:105890000098202280F83D20009880F83E208DF866
:1058A0000710FFE79DF8070002B080BD80B58CB0FF
:1058B0000B9000200A900990089007900B980068C0
:1058C00044F20041C4F2000188426AD1FFE7FFE7D9
:1058D00041F21C00C4F20200016841F40031016091
:1058E000006800F4003006900698FFE7FFE741F2F9
:1058F0001800C4F20200016841F004010160006870
:1059000000F0040005900598FFE7FFE741F214005E
:10591000C4F20200016841F001010160006800F07A
:10592000010004900498FFE70420079002200890EB
:1059300003210A9140F60001C4F2010107AA039075
:105940000846029111460192FEF7EEF908200790F1
:105950000020089003990991029A0090104601993D
:10596000FEF7E2F940F6A020C2F200006C21C4F27A
:10597000020101600099416081608022C260016182
:10598000416120228261C161FDF7B6FEFFE70B98FD
:1059900040F6A021C2F2000181630B984862FFE744
:1059A000FFE70CB080BD000080B584B013460290C4
:1059B0000191ADF80220029890F83E0020282AD1EB
:1059C000FFE70198002805D0FFE7BDF80200002896
:1059D00004D1FFE701208DF80F0020E0FFE70298D7
:1059E00090F83C00012804D1FFE702208DF80F0059
:1059F00015E00298012180F83C10FFE7FFE70298CC
:105A00000021016302980199BDF8022001F0B0FF66
:105A10008DF80F0003E002208DF80F00FFE79DF8DE
:105A20000F0004B080BD000081B0009001B070474D
:105A300081B0009001B07047FFE7FEE780B541F20A
:105A4000B010C2F20000002101704FF47A60FDF73F
:105A500035FF80BDF0B589B0089041F26610C2F202
:105A60000000007841F26011C2F20001085C1C28BD
:105A700057DBFFE741F26610C2F20000017840F602
:105A80007232C2F20002FD2301FB032C48F6F13E04
:105A9000C0F6000E0790704606926246059302F02B
:105AA00071F90A21049008460391FDF707FF079852
:105AB000017801314AF6AB22CAF6AA22A1FB0223E1
:105AC0009B0803EB4303A1EB430101700178059BA5
:105AD00059434FF0000CDDF818E00EF801C00178D2
