:020000040800F2
:10000000B80F002045010008B93D000881390008FB
:10001000E93C00087D040008ED43000800000000F2
:100020000000000000000000000000009D420008E9
:100030001508000800000000713E0008D9420008C1
:100040005F0100085F0100085F0100085F01000810
:100050005F0100085F0100085F0100085F01000800
:100060005F0100085F0100085F0100080508000843
:100070005F0100085F0100085F0100085F010008E0
:10008000110800085F0100085F0100085F01000817
:100090005F0100085F0100085F0100084D100008C3
:1000A0005F0100085F0100085F0100085F010008B0
:1000B0005F0100085F0100085F0100085F010008A0
:1000C0005F0100085F0100085F0100085F01000890
:1000D0005F0100085F010008E94300085F010008B4
:1000E0005F0100085F0100085F0100085F01000870
:1000F0005F0100085F0100085F0100085F01000860
:100100005F0100085F0100085F0100085F0100084F
:100110005F0100085F0100085F0100085F0100083F
:100120005F0100085F0100085F0100085F0100082F
:10013000DFF80CD000F09EF8004800473D4400086E
:10014000B80F00200648804706480047FEE7FEE754
:10015000FEE7FEE7FEE7FEE7FEE7FEE7FEE7FEE777
:1001600019430008310100082DE9F05F0546002021
:1001700092469B4688460646814640241BE0284618
:1001800041464746224600F064F853465A46C01A94
:10019000914110D311461846224600F04BF82D1A13
:1001A00067EB01084F4622460120002100F042F88B
:1001B00017EB00094E41201EA4F10104DFDC484684
:1001C00031462A464346BDE8F09F40EA01039B07BB
:1001D00003D009E008C9121F08C0042AFAD203E0BC
:1001E00011F8013B00F8013B521EF9D2704730B5BF
:1001F00004460020034600E05B1C934203D2E05C0F
:10020000CD5C401BF8D030BD30B50B460146002018
:100210002022012409E021FA02F59D4205D303FAC8
:1002200002F5491B04FA02F52844151EA2F1010249
:10023000F1DC30BD202A04DB203A00FA02F1002074
:1002400070479140C2F1200320FA03F31943904014
:100250007047202A04DB203A21FA02F0002170477F
:1002600021FA02F3D040C2F120029140084319461E
:10027000704700001CB509480090094801900546E8
:10028000009C06E0E06840F0010394E8070098470E
:100290001034AC42F6D3FFF74FFF0000784A000855
:1002A000984A0008B0B5044600688168C90721D0A3
:1002B000816821F00101816002F054F821688968A9
:1002C000C90717D0054602E08068C00712D002F0C7
:1002D00049F8411B20680329F6D38168C907F3D088
:1002E000A06A40F01000A062E06A40F00100E06205
:1002F0000120B0BD0020B0BD0146406A826A12F004
:10030000500F03D0006A026B084610470168826AEA
:1003100042F400728262896801F46021B1F5602FB5
:1003200001D1017B09B101F0E5B9816A21F4807145
:100330008162816AC90448BF01F0DCB9816A41F079
:100340000101816201F0D6B9406A816A41F0400141
:100350008162C16A41F00401C16201F0CFB90000BD
:10036000406A01F0C9B90000B0B582B0044600206F
:10037000019021688A68D2074ED1886840F0010058
:10038000886040F20C00C2F2000000684DF6836104
:10039000C4F21B31A0FB0101880C01900198A0B1AF
:1003A000019801380190019878B1019801380190C5
:1003B000019850B1019801380190019828B1019835
:1003C0000138019001980028EAD101F0CBFF2168A3
:1003D0008968C9071CD1054603E000BF8068C007D3
:1003E00019D101F0BFFF411B20680329F6D38168B2
:1003F000C907F3D1A06A40F01000A062E06A40F0A3
:100400000100E062002084F82400012002B0B0BDA9
:10041000002002B0B0BD002002B0B0BD10B540F267
:100420009C00C2F20000047801F00EF8024640F28F
:100430001000C2F2000003A32146BDE8104003F003
:1004400055BC00BF70756D703100000010B540F2F2
:100450009C00C2F20000847900F0FCFF024640F2EA
:100460002000C2F2000003A32146BDE8104003F0C3
:100470003DBC00BF70756D7032000000FEE70000EB
:100480002DE9F04F81B040F6BC20C2F200000068B8
:1004900040F242064068C2F20006C0F1640470787F
:1004A000E5B2854200F0AA8140F21C1AC2F2000AAD
:1004B00010D940F28011C2F20001251A014440F225
:1004C0001C10EAB2C2F20000FFF77FFE280674702B
:1004D0001AD193E1C0F1640940F28018C2F2000819
:1004E0005FFA89F708EB000150463A46FFF76DFEC8
:1004F0000AEB070041462A46FFF767FE09EB0405B1
:100500002806747000F07A8140F6E41B4AF201007C
:10051000E9B24FF0000C4FF00109C2F2000B0025C8
:1005200005E000BFB37101358D4280F067811AF894
:100530000530B479AA2B08BFAA2C15D03279012A2C
:10054000F0D1552B08BF552C16D0B278571CFCB2F1
:10055000642CB7700BF80230E4D3728986F804C0BB
:1005600001327281DEE700BF86F802C086F804908F
:1005700001358D42DBD341E196F802E086F804C0F4
:10058000BEF1020F40F2D680BEF103044FF6FF78B1
:1005900000F0A580012C04F0010205D100244FF6E3
:1005A000FF78002A6ED19AE0A4B2A2EB040C6FF09F
:1005B00001094FF6FF7800920BEB0904A278E4786A
:1005C00082EA080280EA5207D30708BF570880EA88
:1005D0005702FB0708BF7A0880EA5203D70708BF13
:1005E000530880EA5302DF0708BF5A0880EA520323
:1005F000D70708BF530880EA5302DF0708BF5A082D
:1006000080EA5203D70708BF530880EA5302DF0786
:1006100008BF5A08624080EA5203D40708BF530853
:1006200080EA5302DC0708BF5A0880EA5203D40765
:1006300008BF530880EA5302DC0708BF5A0880EA63
:100640005203D40708BF530880EA5302DC0708BFEF
:100650005A0880EA5203D40708BF5308DA0709F1A1
:10066000020980EA53080CEB090208BF4FEA53085D
:100670000232A1D1009A09F102044FF0000C4FF0B0
:10068000010962B31BF8042082EA080280EA5203DF
:10069000D70708BF530880EA5302DF0708BF5A088C
:1006A00080EA5203D70708BF530880EA5302DF07E6
:1006B00008BF5A0880EA5203D70708BF530880EAE8
:1006C0005302DF0708BF5A0880EA5203D70708BF62
:1006D000530880EA5308DA0708BF4FEA53080EEBC5
:1006E0000B0212F8033C12F8022C43EA02224245A4
:1006F00020D1BBF8002012BA130C4FF20E629342C5
:100700003381A6F83A901DDC4FF20A1293423AD098
:100710004FF20C3293427FF406AFBBF802209BF8F5
:10072000043012BA120CF286337001358D42FFF498
:10073000FEAE63E072890132728101358D42FFF4B1
:10074000F6AE5BE04FF20F62934250D04FF61102CB
:1007500093427FF4E8AEBBF80220DBF80830B287A2
:10076000DBF80420DBF80C70C6F83E20BBF8102044
:10077000C6F84230C6F84670A6F84A2001358D42C8
:10078000FFF4D5AE3AE0BBF80220DBF80830B281C6
:10079000DBF80420DBF80C70DBF81040C6F80E2004
:1007A000BBF81C20C6F81230C6F81670C6F81A40FE
:1007B000DBF81430F284BBF81E20C6F81E303285F8
:1007C000BBF82020DBF818307285BBF82220C6F871
:1007D0002230B285DBF82420DBF82830C6F82E2042
:1007E000C6F8323001358D42FFF4A1AE06E09BF829
:1007F0000220328701358D42FFF499AE01B0BDE889
:10080000F08F000040F67820C2F2000001F0FAB943
:10081000704700007047000080B540F29000C2F2BF
:100820000000018D91B140F20811C2F20001098867
:100830006422514340F20112C0F21002A1FB0223D4
:10084000C91A03EB5101C1F3C72101E090F82A1046
:100850004278914208BF80BD417004A003F0A6FE1B
:100860000A20BDE8804001F0DFBB00BF64696D3D38
:100870002564FFFFFF00000070B540F29005C2F252
:100880000005A98F44F6A810C0F6000003F08EFE04
:100890000A2001F0C9FBE98F44F6BA10C0F6000047
:1008A00003F084FE0A2001F0BFFBB5F8401044F6C7
:1008B000CC10C0F6000003F079FE0A2001F0B4FB72
:1008C000B5F8421044A003F071FE0A2001F0ACFB21
:1008D000B5F8441045A003F069FE0A2001F0A4FB1E
:1008E000B5F8461046A003F061FE0A2001F09CFB1B
:1008F000B5F8481047A003F059FE0A2001F094FB18
:10090000B5F84A1048A003F051FE0A2001F08CFB14
:100910004AA0422103F04AFE0A2001F085FB40F282
:100920000816C2F20006318849A003F03FFE0A20F3
:1009300001F07AFB01F016FD6968411AB1F57A7F82
:1009400038BF70BD318A48F2C074CDF20664686069
:1009500049B140F6E440A1FB002320461721FFF7F0
:1009600003FC81B200E0002144F6A810C0F60000AC
:1009700003F01CFE0A2001F057FBF08948B140F655
:10098000E441A0FB012320461721FFF7EDFB81B2D4
:1009900000E0002144F6BA10C0F6000003F006FEA5
:1009A0000A2001F041FB708A48B140F6E441A0FB07
:1009B000012320461721FFF7D7FB81B200E0002179
:1009C00044F6CC10C0F6000003F0F0FD0A20BDE8AC
:1009D000704001F029BB00BF6C6576656C312E76E6
:1009E000616C3D2564FFFFFF000000006C657665CB
:1009F0006C322E76616C3D2564FFFFFF0000000025
:100A00006C6576656C332E76616C3D2564FFFFFF67
:100A100000000000646163315F61646A2E76616C7E
:100A20003D2564FFFFFF0000646163325F61646A1B
:100A30002E76616C3D2564FFFFFF000076657273C2
:100A4000696F6E2E76616C3D2564FFFFFF0000002C
:100A50006C6967687473656E736F722E76616C3D36
:100A60002564FFFFFF00000010B544F68600C0F6C5
:100A7000000003F09BFD4FF4FA7001F0D5FA40F24C
:100A80009004C2F20004E18944F60210C0F60000AE
:100A900003F08CFD0A2001F0C7FA218A44F61110F8
:100AA000C0F6000003F082FD0A2001F0BDFAA18922
:100AB00044F62110C0F60000002918BF012103F000
:100AC00075FD0A2001F0B0FAA18A44F63710C0F68D
:100AD000000003F06BFD0A2001F0A6FAE18A44F65B
:100AE0004610C0F6000003F061FD0A2001F09CFAF8
:100AF000618A44F65610C0F60000002918BF012193
:100B000003F054FD0A2001F08FFA218B44F6F11016
:100B1000C0F60000002918BF012103F047FD0A209C
:100B200001F082FA618B44F69310C0F6000003F0E6
:100B30003DFD0A2001F078FAA18B44F67D10C0F645
:100B4000000003F033FD0A2001F06EFAE18B44F659
:100B50000520C0F60000002918BF012103F026FD82
:100B60000A2001F061FA218C44F66C10C0F60000F6
:100B700003F01CFD0A2001F057FA618C44F6422074
:100B8000C0F6000003F012FD0A2001F04DFAA18C1E
:100B900044F65420C0F6000003F008FD0A2001F0DE
:100BA00043FAE08C0138B0FA80F0410944F619208C
:100BB000C0F6000003F0FAFC0A2001F035FA218D9E
:100BC00044F6DE10C0F6000003F0F0FC0A2001F04D
:100BD0002BFA618D44F63120C0F6000003F0E6FCEC
:100BE0000A2001F021FAA18D44F6F200C0F60000BF
:100BF00003F0DCFC0A2001F017FAE18D44F6E00076
:100C0000C0F6000003F0D2FC0A2001F00DFA218E9C
:100C100018A003F0CBFC0A2001F006FA618E1AA09E
:100C200003F0C4FC0A2001F0FFF9A18E1BA003F021
:100C3000BDFC0A2001F0F8F9E18E1EA003F0B6FC1D
:100C40000A2001F0F1F921A0002103F0AFFC0A20F5
:100C500001F0EAF922A0002103F0A8FC0A2001F02B
:100C6000E3F924A0002103F0A1FC0A20BDE8104014
:100C700001F0DAB9466C7569646D61696E2E766152
:100C80006C3D2564FFFFFF0045785F5265762E7648
:100C9000616C3D2564FFFFFF0000000054656D702E
:100CA0005F53656C6563742E76616C3D2564FFFF50
:100CB000FF0000006D616656616C7565496E707568
:100CC000742E76616C3D2564FFFFFF0073657453DD
:100CD0006176652E76616C3D2564FFFFFF000000A4
:100CE00074657374436D642E76616C3D2564FFFFFB
:100CF000FF0000006F7574536176652E76616C3D60
:100D00002564FFFFFF00000070B544F67800C0F6D0
:100D1000000003F04BFC4FF4FA7001F085F940F24B
:100D20009005C2F20005E98944F65D00C0F60000B6
:100D300003F03CFC0A2001F077F9298A44F64300CD
:100D4000C0F6000003F032FC0A2001F06DF9A98A18
:100D500044F2E470C0F6000003F028FC0A2001F021
:100D600063F9E98A44F2FE70C0F6000003F01EFC4D
:100D70000A2001F059F9698B44F62F00C0F60000F3
:100D800003F014FC0A2001F04FF9A98B44F6190076
:100D9000C0F6000003F00AFC0A2001F045F9A8891A
:100DA0000921002844F69400C0F600004FF0090421
:100DB00008BF082103F0FAFB0A2001F035F9688A20
:100DC0000921002844F6A800C0F6000008BF082149
:100DD00003F0ECFB0A2001F027F9288B09210028F9
:100DE00044F6BC00C0F6000008BF082103F0DEFB9B
:100DF0000A2001F019F9288F002844F6CF0008BF17
:100E00000824C0F60000214603F0D0FB0A2001F0C0
:100E10000BF9E88B2FA100282FA02DA208BF1146A7
:100E200003F0C4FB0A2001F0FFF8E88C31A1002890
:100E300031A02FA208BF114603F0B8FB0A2001F031
:100E4000F3F83424C4F20004A068E16846F6CB3617
:100E50000844CAF62876A0FB0612801A02EB50005E
:100E600001092AA003F0A2FB0A2001F0DDF82068A6
:100E700061680844A0FB0612801A02EB50000109C9
:100E800026A003F093FB0A2001F0CEF82878013861
:100E9000B0FA80F0410925A003F088FB0A2001F098
:100EA000C3F827A0002103F081FB0A2001F0BCF861
:100EB00028A0002103F07AFB0A2001F0B5F829A050
:100EC000002103F073FB0A20BDE8704001F0ACB8CC
:100ED0004D5400004154000076616C756553746197
:100EE00075732E7478743D22257322FFFFFF000076
:100EF000487A00004D560000756E69742E7478743F
:100F00003D22257322FFFFFF0000000070756D7009
:100F1000312E76616C3D2564FFFFFF0070756D70AA
:100F2000322E76616C3D2564FFFFFF0076697320E9
:100F30007465737449636F2C2564FFFFFF00000024
:100F400076697320466C75696449636F2C2564FF6C
:100F5000FFFF000076697320686949636F2C256480
:100F6000FFFFFF00766973206C6F7749636F2C2554
:100F700064FFFFFF00000000F0B581B001F0F2F95E
:100F800040F29004C2F20004A168411AB1F57A7FE0
:100F90004DD3A060218E40F20810C2F200004FF045
:100FA000000541B1418940F6272291429EBF0021B0
:100FB0008DF801100125808840F6AC51884201D996
:100FC000012003E040094A2804D802200DF1010164
:100FD0004855013540F23006C2F20006307844F63A
:100FE0006C270228C0F6000707D857F8201011A078
:100FF00003F0DCFA0A2001F017F8A5B1A0780DF192
:101000000102B0FBF5F101FB1500411C105CA17061
:1010100057F8201030700AA003F0C8FA0A2001F037
:1010200003F801B0F0BDFF2030700020A07001B0C7
:10103000F0BD00BF7669732025732C30FFFFFF00E1
:101040007669732025732C31FFFFFF0040F21440B6
:10105000C4F201000168890658BF70472021016071
:1010600040F23800C2F200004188013141807047EF
:1010700070470000B0B540F29C04C2F20004618ADF
:10108000A08D40F20015C2F20005A1B120B100F020
:10109000C9F9A18A884210D82878012815D1687822
:1010A00070B101F05FF96968E28A401A904224BF8A
:1010B0000020288009E00028EED00120288004E0EC
:1010C0000120687001F04EF96860E08C29780028F2
:1010D00018BF0120484000F0010240F60040C4F271
:1010E00001004FF48041BDE8B04001F035B9000087
:1010F000B0B584B04FF480400090012040F6004429
:10110000019000250220C4F2010402950390694673
:10111000204601F01BF840F29C0140F20010C2F2A0
:101120000001C2F20000CA8C058020464FF48041C5
:10113000002A18BF012201F00FF904B0B0BD000071
:1011400040F69031C2F200010022CA6142F2100161
:10115000C4F202010A6842F002020A6048600868AC
:1011600040F040000860704770B542F20C0604463B
:10117000C4F2020601F0F6F83168C9071AD0002C53
:101180005BD00546601C0DD13068C00712D03068B6
:10119000C0071CBF30685FEAC0700BD03068C00762
:1011A000F2D107E001F0DEF8401BA04245D83068DC
:1011B000C007F7D13068800644BF20203060306817
:1011C000C00607D43069C00704D1306840075CBF4F
:1011D000002070BD3068C00604D400203168490783
:1011E0000CD415E040F69030C2F20000C16941F025
:1011F0000201C16110203168490709D540F69031DC
:10120000C2F20001CA6940F0040042F00102CA6162
:101210003169C90702D13060012070BD40F69031BC
:10122000C2F20001CA6942F00402CA61316921F0C8
:10123000010131613060012070BD032070BD0000EC
:1012400070B540F29005C2F2000505F10C0420468D
:1012500040214FF6FF7600F02FF8A88F2146B042CC
:1012600004BF42F21070A887E88F4022B04204BF4A
:1012700042F21070E887B5F84000B04204BF42F275
:101280001070A5F84000B5F84800B04204BF42F223
:101290001070A5F84800B5F84A00B04204BF42F209
:1012A0001070A5F84A0040F24E00C2F20000BDE8FE
:1012B0007040FEF78ABF000010B581B300224B1EBC
:1012C000C0F60102032B01F0030C01D2002113E050
:1012D000A0F10803A1EB0C0E002100BF148804311B
:1012E00023F8084F54888E455C8094889C80D4886D
:1012F00002F10802DC80F1D1BCF1000F08BF10BD83
:101300001388BCF1010F20F8113008D0538800EB8E
:1013100041004380BCF1020F1CBF9188818010BD49
:101320000A4601460020C0F6010002F079BE000026
:1013300040F24200C2F2000000897047B0B500F0F0
:1013400077F840F23E0440F29C05C2F20004C2F27B
:10135000000530B100F06CF801281AD100F06EF8E9
:1013600016E0688B90B140F20811C2F20001288E9D
:10137000098A48F61032484340F6E441A0FB0101D7
:10138000C0F290120023FEF7EFFE01E000F068F8D3
:1013900060802888E8B1628869888A4219D9AB8858
:1013A00064209A4204D2521A5043591A90FBF1F029
:1013B000E988207091B1628829898A4210D96B89A5
:1013C00064209A420DD2521A5043591A90FBF1F000
:1013D00007E00020E98820700029ECD1002000E01F
:1013E0000020607000F0BEFF41F25971CDF2B711DC
:1013F000A0FB0112510B42F2107201FB120102A07C
:10140000BDE8B04003F0D2B86D616656616C756599
:1014100053686F772E7478743D22256422FFFFFF96
:101420000000000040F23E00C2F200004088704719
:1014300040F29000C2F200000078704740F2900045
:10144000C2F20000C08E704740F23E00C2F20000BF
:101450000078704740F23E00C2F2000040787047CA
:1014600040F23800C2F200008088704770B582B048
:1014700004460020019094F82400012803D102259D
:10148000284602B070BD012084F824002046FEF7F3
:1014900009FF054600286DD1A06A41F20211884378
:1014A0000230A06240F20C00C2F200000668022086
:1014B00001F012F8B6FBF0F0400001900198A0B1E5
:1014C000019801380190019878B101980138019094
:1014D000019850B1019801380190019828B1019804
:1014E0000138019001980028EAD12046FEF73CFF20
:1014F0002068816841F00801816000F033FF2168B5
:1015000051F8082F120710D5064602E08168090736
:1015100009D500F027FF811B20680B29F6D38168CD
:101520000907F3D51AE000F10801086840F004004B
:10153000086000F017FF21688968490713D506463F
:1015400003E000BF806840070DD500F00BFF811B52
:1015500020680B29F6D381684907F3D501251020AF
:101560006FF0120102E001206FF00301A26A114046
:101570000843A062002084F82400284602B070BD11
:10158000B0B581B00022009290F82420012A03D146
:101590000221084601B0B0BD4B680122062B80F83D
:1015A000242022D8D0F800C003EB830362465D1FDD
:1015B0001F2352F834EF03FA05F40B682EEA040EE9
:1015C00003FA05F444EA0E05092B15602CD8DCF863
:1015D000102003EB4303072589689D40AA439940E7
:1015E0001143CCF8101000213EE0D0F800C00C2BC5
:1015F000624606D852F830EF03EB8303A3F12304CD
:1016000005E052F82CEF03EB8303A3F141041F2301
:1016100003FA04F50B682EEA050E03FA04F444EA13
:101620000E05092B1560D2D903EB4305DCF80C201D
:101630001E3D07248968AC40A243A940114323F012
:101640000102102ACCF80C100DD142F20841C4F26C
:101650000101A1F1080294450CD0816A41F02001FA
:101660008162012100E00021002280F82420084648
:1016700001B0B0BD0A6812022FD40A68102B42F4E0
:1016800000020A602BD140F20C01C2F2000109688D
:101690004DF68362C4F21B32A1FB0212910C01EBE6
:1016A0008101490000910099D9B100990139009157
:1016B0000099C1B10099013900910099A9B100992F
:1016C00001390091009991B1009901390091009977
:1016D00000294FF00001E8D1C6E70021C4E700214E
:1016E000C2E70021C0E70021BEE70021BCE70021DE
:1016F000BAE7000070470000704700007047000024
:10170000002804BF0120704770B50646044656F80D
:10171000280F20B121688868C0070BD131E0002074
:10172000E06284F82400204600F0ACF82168886864
:10173000C00726D0886820F00100886000F012FE03
:1017400021688A68D2071CD0054602E08868C00775
:1017500017D000F007FE401B21680328F6D38868E5
:10176000C007F3D0A06A40F01000A062E06A40F029
:101770000100E062A06AA06A40F01001012031601F
:1017800070BD32683068D2062CD441F20212904308
:101790000230A062E36981F0804080F49E3083F4DF
:1017A0004022104308BF4FF40023D4E9010243EA6A
:1017B000000C531EB3FA83F35D091346B2F5807F24
:1017C00018BF2B02207D257B01284CEA450019D14A
:1017D0006DB1A56A45F02005A562E56A45F00105F1
:1017E000E5620FE040F010010120316070BDD4F8D7
:1017F00018C04EF20005CFF6FF7505EB4C352B43B4
:1018000043F400634D68B2F5807F25F4694543EAEF
:1018100005034B608B684FF2FD75CFF6E17503EA67
:10182000050343EA00038B6001D0012A06D1226937
:101830000023CFF6F07303EB025200E00022CB6AE4
:1018400023F470031A43CA62896840F6FE62CFF639
:101850001F721140814207D10020E062A16A01227B
:1018600062F30101316070BDA06A40F0100020F009
:101870000200A06254F82C0F40F00101012026461E
:10188000316070BD2DE9F04385B0002740F60005BA
:101890000497CDE902770446C4F20105006805F516
:1018A000E0518842019702D005B0BDE8F08341F2D3
:1018B0001806C4F2020630684FF0030940F40070C5
:1018C000306030680DF1040800F40070009000985A
:1018D0003068414640F010003060306800F0100081
:1018E00000900098306840F004003060306800F0EC
:1018F000040000900098306840F0080030603068C4
:1019000000F00800009000981F20CDF8089001908A
:1019100005F5006000F01AFCC12001902846414600
:1019200000F014FC05F580604146CDF8049000F00D
:101930000DFC56F8040C40F6782540F0010046F8FE
:10194000040C56F8040CC2F2000500F001000090EF
:1019500000980820C4F2020080214FF48072C5E98B
:10196000000705F110004FF4806320264FF4005C5F
:10197000C5E9027180E84C10284600F0BFFA002843
:1019800018BFFFF775FB25626C6205B0BDE8F083F8
:1019900070B515460446006842F60002C4F2010222
:1019A00090420E4605D042F20041C4F20101884245
:1019B00009D142F20440C4F20100006810F4702F13
:1019C0001CBF012070BD94F82400012804BF022030
:1019D00070BD012084F824002046FEF7C5FC18B134
:1019E000002184F8241070BD42F204402168A26AEC
:1019F000C4F2010040F601739A4300F57F7302F5CB
:101A000080729942A26243D0A06A20F48010A06242
:101A10004868400504D5A06A012262F30D30A06237
:101A2000A26A0020D2044FF0000244BFE26A22F012
:101A30000602E26284F82400206A40F2F922C0F62D
:101A4000000240F2613340F2493C00F1280EC0F63A
:101A50000003C0F6000C8EE80C106FF002020A6062
:101A60008A682B4642F480728A604C31324600F01C
:101A70008DFA2068816801F460228168B2F5602FD8
:101A80000CBF41F4A00141F480118160002070BDC1
:101A9000026812F4702FB7D0A26A42F48012A262D8
:101AA00000684005BCD5B6E710B54379012B4FF06F
:101AB00002031DD00371036802F0100ED3F800C0BA
:101AC000D1E9004140F6FE7202FA0EF221432CEAFF
:101AD000020201FA0EF111431960C0211A6801FADD
:101AE0000EF122EA01011960012100230171437105
:101AF000184610BD002804BF0120704710B50446E9
:101B0000007920B900206071204600F007F802201B
:101B10002071002001212061217110BD80B586B0A7
:101B2000016847F20040C4F20000814201D006B0D3
:101B300080BD0021CDE9041141F21801C4F2020177
:101B40004A6800F5144042F000524A604A6802F0C8
:101B500000520192019A0A6842F004020A60096880
:101B600001F00401019101993021029103210391B7
:101B700002A900F0EBFA06B080BD000081B04FF082
:101B8000000CCDF800C000680029009000981044B7
:101B900014BF143008300090009900200B6001B091
:101BA0007047000010B54279012A4FF0020226D09A
:101BB0004FF0010C80F805C00271026801F0100EB0
:101BC00014680CFA0EF323431360D2F800C051B12D
:101BD0003C230CF4701103FA0EF399420BD15168B7
:101BE00041F0020106E00CF03C013C2903D15168B0
:101BF00041F0010151600121002201714271104642
:101C000010BD000010B5D0F800E0D0E90FC3DCF83B
:101C10000020DEF800104C0734D504249C4014400A
:101C200030D0DEF80010890605D4DEF8001021F06F
:101C30000401CEF800100422C4F2020202F17C0179
:101C40008E4553D940F20841C4F202018E4500F09E
:101C5000C88040F21C41C4F202018E4500F0C980E8
:101C600040F23041C4F202018E4540F0CA804FF488
:101C70008061C2F80014C16A002900F03E81BDE80D
:101C8000104008478C074ED502249C4014404AD08F
:101C9000DEF80010890608D4DEF8001021F00A01F1
:101CA000CEF80010012180F821100422C4F20202B3
:101CB00002F17C018E4554D940F20841C4F2020180
:101CC0008E4500F0CC8040F21C41C4F202018E45EA
:101CD00000F0C98040F23041C4F202018E4540F06C
:101CE000C6804FF40071C2F80014FEE04321C4F234
:101CF00002018E454ADD6B21C4F202018E455EDC95
:101D00004421C4F202018E4500F0BC805821C4F287
:101D100002018E4540F0CD804FF480211160C16AF0
:101D20000029ACD1E9E0090740F1E780082199409A
:101D3000114008BF10BDDEF8001021F00E01CEF8F2
:101D40000010012101FA03F2CCF804208163016B39
:101D50004FF480720029028400F0CF80BDE810406B
:101D600008474321C4F202018E4559DD6B21C4F2BC
:101D700002018E4566DC4421C4F202018E4500F06A
:101D8000AA805821C4F202018E459AE00821C4F2CB
:101D900002018E457ED01C21C4F202018E4500F066
:101DA00093803021C4F202018E4540F082804FF4CE
:101DB00080611160C16A00297FF461AF9DE06C21F0
:101DC000C4F202018E456CD08021C4F202018E451E
:101DD0006FD14FF080611160C16A00297FF44FAF6D
:101DE0008BE00421C2F80014C16A00297FF447AFD8
:101DF00083E04021C2F80014C16A00297FF43FAF9C
:101E00007BE002F588634FF480219E4508BF4FF4C4
:101E10008041C2F80014C16A00297FF430AF6CE041
:101E20000821C4F202018E4558D01C21C4F20201DF
:101E30008E4558D03021C4F202018E4541D14FF475
:101E4000007151E06C21C4F202018E4548D080211E
:101E5000C4F202018E4534D14FF0007144E00221FA
:101E6000C2F8001441E02021C2F800143DE002F560
:101E700088634FF400319E4508BF4FF40051C2F80B
:101E8000001432E04FF480411160C16A00297FF4F0
:101E9000F6AE32E004211160C16A00297FF4EFAE92
:101EA0002BE04FF480011160C16A00297FF4E7AE96
:101EB00023E04FF480211160C16A00297FF4DFAE76
:101EC0001BE04FF400310FE040211160C16A00298E
:101ED0007FF4D5AE11E04FF4005105E0022103E09C
:101EE0004FF4001100E020211160816A002280F887
:101EF000202011B1BDE81040084710BD002842D095
:101F00002DE9F04140F2000CC4F2020C01684FF6DA
:101F1000F8320CF58163CBF6FD72994238BF02F5B9
:101F200080624CF6CD430A44CCF6CC43A2FB03239B
:101F30006FF003050CF5806405EA9303D0E9012EE8
:101F4000D0F80C803CBF0024C4F20204C0E90F4367
:101F50000B6843F6F075AB431A43D0E9045442EAE8
:101F60000E0242EA0802D0E906672A4322433243BE
:101F70003A430A6000214FF4807281630284BDE815
:101F8000F04108467047012108467047F0B590F8C7
:101F900020C0BCF1010F32D090F821C04FF0010EEB
:101FA000BCF1010F80F820E026D14FF0020C80F840
:101FB00021C04FF0000CC0F838C0D0E900C4C56A99
:101FC000C66BDCF80070102C27F00107CCF800700D
:101FD000006C0EFA00F070600846CCF8043004BFC4
:101FE00010460A46CCF80800CCF80C20DCF80000BB
:101FF0003DB140F00E000CE0002180F820100220DE
:10200000F0BD20F00400CCF80000DCF8000040F047
:102010000A00CCF80000DCF8000040F00100CCF829
:1020200000000020F0BD0000B0B5044600F09AF9B1
:10203000054640F20400C2F200000078611C18BF9F
:10204000044400BF00F08EF9401BA042FAD3B0BD9B
:1020500042F21001C4F20201086840F08002002040
:102060000A6070472DE9F04F81B040F69038C2F217
:102070000008924698F81820012A03D1022001B0E6
:10208000BDE8F08F8146012088F818004CF25030EE
:102090001C460E46FFF768F8D0BB4D4642F21007CB
:1020A000B9F1020F18BF0425C4F20207B9F1010FFC
:1020B00008BF4D466FF01F0900204FF0000B00BF16
:1020C000202200230101A2EB0012C8F81C3004FA00
:1020D00002F22AFA01F13B68114309EB0012002ACF
:1020E00058BF24FA02F143F001023A6026F81010BA
:1020F0004CF25030FFF738F8396821F001013960AF
:1021000030B90BF1010B5FFA8BF08542D8D8002073
:10211000002188F8181001B0BDE8F08F42F20400E9
:10212000C4F20200C16809065CBF0020704740F29B
:102130002311C4F26751016048F6AB11CCF6EF51A0
:102140000160C068C0F3C010704700002DE9F04F77
:1021500082B0D1F800C0BCF1000F00F0F380A0F114
:10216000804241F60045A2F58432C4F2010540F2F6
:10217000004E4FEAB2240627A842C4F2010E08BF5F
:102180000527052C4FF000044FF001084FF00F0316
:102190004FF0000A4FF0000B38BF4FEAB22700970C
:1021A00008FA0AF91CEA090F0FD100BFD1F800C0E4
:1021B0000AF1010A3CFA0AF204F1040400F0C280B8
:1021C00008FA0AF91CEA090FF0D04E684FF6FF72C0
:1021D000C1F21002964211DC122E51D8DFE806F04F
:1021E000340A424650505050505050505050505069
:1021F00050494D00D1F80CB042E000BF4FF6FF72DD
:10220000C1F2210296420FDC0022C1F21102964275
:102210001AD00022C1F21202964215D00022C1F259
:102220002102964210D02BE00022C1F222029642F7
:102230000AD00022C1F23102964205D00022C1F23A
:10224000320296421CD100BF8A6842B1012A14BFF3
:10225000C0F81490C0F810904FF0080B10E04FF049
:10226000040B0DE0CA6802F1080B09E04FF0000B07
:1022700006E0CA6802F1040B02E0CA6802F10C0B26
:1022800022460646BAF1080F24BF203A04363768C2
:1022900003FA02F5AF430BFA02F23A433260CA790D
:1022A000D2067FF583AF41F21802C4F2020217464C
:1022B00012680F2542F001023A603A684FF608476B
:1022C00002F001020192019A2AF003027244CFF651
:1022D000FF773B46D75904F00C06B540AF43009D4D
:1022E00005FA06F63743D7504E680F23F203DEF89F
:1022F000002054BF22EA090242EA0902CEF8002077
:10230000DEF80420B70354BF22EA090242EA0902B8
:10231000CEF80420DEF80820F70254BF22EA0902B2
:1023200042EA0902CEF8082040F20C42B702C4F299
:1023300001021746126854BF22EA090242EA090262
:102340003A6033E702B0BDE8F08F000080680840D3
:1023500018BF012070470000002A08BF090401616E
:102360007047000040F6B030C2F2000000687047CD
:1023700040F2040040F6B031C2F20000C2F20001A7
:1023800000780A68104408607047000080B542F287
:102390000000C4F20200016841F010010160032056
:1023A00000F08AF8002000F005F800F027F800207F
:1023B00080BD000070B540F20406C2F2000640F293
:1023C0000C013278C2F200014FF47A730968B3FB52
:1023D000F2F20446B1FBF2F1084600F08FFC0F2C3C
:1023E0004FF0010508D838B94FF0FF3021460022E0
:1023F000002500F035F87460284670BD82B041F2C7
:102400001800C4F202000168022241F001010160DB
:10241000016801F0010101910199416841F0805189
:102420004160406800F08050009000980420C4F2A1
:102430000100016862F31A61016002B07047000098
:10244000002848BF704700F01F01012202FA01F185
:102450004EF200124009CEF2000242F820107047FE
:1024600010B54EF60C5CCEF2000CDCF80030C3F375
:10247000022E8EF00704042C28BF0424BEF10303AF
:102480004FF0FF3E0EFA04F438BF0023A1439940F9
:102490000EFA03F39A4300F00F03043B1143634425
:1024A00009010C3300F16042B0F1FF3FC8BF02F5F3
:1024B0006443197010BD00004EF60C51CEF20001BD
:1024C0000A684FF6FF031A4060F30A2242F0806068
:1024D00040F0FD700860704780B5411E0F294FF035
:1024E000000038D8DFE801F00C2937083737370803
:1024F0003737373737373738BDE8804000F0FEB917
:1025000041F20400C4F20200C16940F202320A4002
:10251000B2F5817F04BF4FF4004080BD01F44071EB
:10252000B1F5407F48D0B1F5007F4DD1006A49F642
:102530004041800701EAE07080BD00F0CBF941F234
:102540000401C4F2020109680222C1F3813102EBE5
:102550004101B0FBF1F080BD41F20401C4F202017F
:102560000A6851F8040CC0015CBF002080BDC2F3B2
:10257000834016A3185CD20305D440F60012C0F2C3
:102580003D0250430BE00A6814A3C2F340429A5C38
:1025900041F20023C0F27A03B3FBF2F25043096820
:1025A000490248BF80BD4AF6AB214000CAF6AA21C5
:1025B000A0FB0101480880BD50F8040C4FF22441F3
:1025C000800301EAE07080BD002080BD02030405A5
:1025D000060708090A0B0C0D0E0F1010010200006F
:1025E0002DE9F04182B00446007841F21C06C00794
:1025F000C4F2020660D03068C0000BD430684FF0DF
:10260000010840F080503060306800F08050019048
:10261000019801E04FF0000847F20007C4F20007FC
:102620003868C00512D4386840F480703860FFF70D
:1026300099FE05463868C00508D4FFF793FE401B95
:102640006428F7D9032002B0BDE8F081706810F467
:10265000407024D0616801F4407188421FD07068D6
:1026600040F24042C4F24222012320F44071136040
:102670000023C0071360716011D0FFF773FE054699
:1026800041F288377068800709D4FFF76BFE401B62
:10269000B8424FF00300F5D902B0BDE8F081706890
:1026A000616820F440700843B8F1000F706003D0F7
:1026B000306820F0805030602068810707D556F8D8
:1026C000181CA26821F44041114346F8181CC006AA
:1026D00003D4002002B0BDE8F08156F8180C6169FF
:1026E00020F48000084346F8180C002002B0BDE832
:1026F000F08100002DE9F04381B0002800F0AB80AC
:1027000042F20008C4F202080446D8F800000D4660
:1027100000F0070088420DD2D8F8000020F0070032
:102720002843C8F80000D8F8000000F00700A842CD
:1027300040F09180206841F204098107C4F2020947
:1027400017D5410705D5D9F8001041F4E061C9F863
:102750000010010705D5D9F8001041F46051C9F8FF
:102760000010D9F80010A26821F0F0011143C9F857
:102770000010C0072DD06068012804D159F8041C4E
:10278000890368D508E059F8041C022802D18901A0
:1027900061D501E089075ED5D9F8001021F0030169
:1027A0000843C9F80000FFF7DDFD064641F288370F
:1027B000D9F80000616800F00C00B0EB810F08D080
:1027C000FFF7D0FD801BB842F2D9032001B0BDE86D
:1027D000F083D8F8000000F00700A8420CD9D8F820
:1027E000000020F007002843C8F80000D8F80000D7
:1027F00000F00700A8422ED12068410707D5D9F87C
:102800000010E26821F4E0611143C9F800100007EC
:1028100008D5D9F80000216920F4605040EAC100D1
:10282000C9F80000D9F8002002F00C00082841F295
:102830000020C0F27A001ED144F2BE73C2F383417D
:10284000C0F60003595CD20309D440F60010C0F270
:102850003D0048430FE0012001B0BDE8F083D9F806
:10286000002044F2A473C2F34042C0F600039A5C15
:102870004843B0FBF2F0D9F8001044F2A672C1F35D
:102880000311C0F60002515C40F20C0220FA01F183
:1028900040F20800C2F200000068C2F200021160BB
:1028A000FFF788FD002001B0BDE8F08340F20C0086
:1028B00041F20401C2F20000C4F20201006809689A
:1028C00044F2B672C1F30221C0F60002515CC84066
:1028D0007047000040F20C0041F20401C2F2000017
:1028E000C4F202010068096844F2B672C1F3C22161
:1028F000C0F60002515CC8407047000041F2040C71
:10290000C4F2020CDCF8003003F00C00082841F29D
:102910000020C0F27A0018BF704744F2BE71C3F3C2
:102920008342C0F600018A5CD90305D440F600104A
:10293000C0F23D0050437047DCF8001044F2A4732D
:10294000C1F34041C0F60003595C5043B0FBF1F0C5
:10295000704700002DE9F04182B0002800F0A5800A
:102960000446007841F20006C007C4F202064CD0CB
:10297000706800F00C00042817D0706800F00C009C
:10298000082802D17068C0030FD4606898B1B0F510
:10299000803F06D03168B0F5A02F22D141F48020CD
:1029A0003060306840F4803021E0306880032CD5FE
:1029B000606850BB79E0306820F480303060306867
:1029C00020F480203060FFF7CDFC0546306880039E
:1029D0001BD5FFF7C7FC401B64284FF00300F5D957
:1029E00088E121F480303060306820F4802030604D
:1029F000FFF7B8FC054600BF3068800305D4FFF739
:102A0000B1FC401B6428F7D940E1207880072FD51E
:102A1000706810F00C0F07D0706800F00C000828E8
:102A200009D17068C00306D43068800719D52069C1
:102A300001283AD115E02069002840F20000C4F2D4
:102A4000422000F0E38001210160FFF78BFC054686
:102A50003068800705D4FFF785FC401B0228F7D9B2
:102A600014E13068616920F0F80040EAC10030608C
:102A7000207800071DD4207840072ED4E569002D6A
:102A800000F03781706800F00C00082871D1012D2A
:102A90000BD07068216A00F480328A4205D1616AE5
:102AA00000F47010884200F02481012002B0BDE8DB
:102AB000F081A06900B30020C4F242200121C0F8D7
:102AC0008014FFF74FFC0546706A800774D4FFF747
:102AD00049FC401B0228F7D9D8E0F069C0001ED499
:102AE000F0694FF0010840F08050F061F06900F0AB
:102AF00080500090009814E00020C4F24220002191
:102B0000C0F88014FFF72EFC054600BF706A8007EE
:102B1000B1D5FFF727FC401B0228F7D9B6E04FF0EC
:102B2000000847F20007C4F200073868C00510D457
:102B3000386840F480703860FFF714FC054600BF29
:102B40003868C00505D4FFF70DFC401B6428F7D991
:102B50009CE0E06800286BD0012806D0316A052887
:102B600040F07F8041F004003062306A40F00100A4
:102B70007DE00027C4F2422700203866FFF7F2FB11
:102B8000022D05460CD100BF3068800140F18F80D6
:102B9000FFF7E8FB401B02284FF00300F4D9A9E03F
:102BA0003068800140F1A580FFF7DCFB401B022864
:102BB0004FF00300F4D99DE040F20C00C2F2000097
:102BC000006844F6D351C1F26201A0FB0101480A3A
:102BD000019000BF00BF0198411E002801913FF401
:102BE0004AAF00BF0198411E002801913FF443AF56
:102BF00000BF0198411E002801913FF43CAF00BF87
:102C00000198411E00280191E4D134E700210160C0
:102C1000FFF7A8FB054600BF306880077FF528AFA7
:102C2000FFF7A0FB401B02284FF00300F4D961E03E
:102C3000306A20F001003062306A20F00400306217
:102C4000FFF790FB054641F2883700BF306A8007E6
:102C500020D5FFF787FB401BB8424FF00300F5D9A2
:102C600048E021F001003062306A20F00400306258
:102C7000FFF778FB054641F2883700BF306A8007CE
:102C800008D4FFF76FFB401BB842F7D9032002B00E
:102C9000BDE8F081B8F1000F3FF4F0AEF06920F02C
:102CA0008050F061E569002D7FF4ECAE21E0206AF0
:102CB000B0F5803F05D17168A26821F4003111435D
:102CC00071607168626A21F4741110430843706086
:102CD00001203866FFF746FB044600BF30688001DC
:102CE00007D4FFF73FFB001B02284FF00300F5D984
:102CF00000E0002002B0BDE8F0810000411E00208D
:102D0000B0EB116F1CBF012070474EF21002CEF2E3
:102D1000000251604EF62351CEF20001F0230B70F9
:102D2000072190601160704710B590F83C20012A8F
:102D30004FF0020241D0012380F83C3080F83D2062
:102D40000268D2F804E0D2F808C00C682EF07003D4
:102D5000234340F6FF34C4F20004A24253600FDC68
:102D6000B2F1804F1ED040F20043C4F200039A42F9
:102D700018D040F60003C4F200039A4212D016E0C5
:102D800040F60043C4F200039A420BD043F20043E2
:102D9000C4F201039A4205D042F60043C4F2010393
:102DA0009A4204D149682CF08003194391600121B3
:102DB000002280F83D1080F83C20104610BD000035
:102DC000002804BF0120704710B5044690F83D006C
:102DD00028B9002084F83C00204600F083F8022047
:102DE00084F83D00206840F6FF330268C4F2000317
:102DF00043F2004C9842C4F2010C20DCB0F1804F49
:102E00002BD040F20041C4F20001884225D040F6A8
:102E10000001C4F2000188421FD0984223DCB0F1C7
:102E2000804F2ED040F20041C4F20001884228D0E9
:102E300040F60001C4F20001884222D025E040F6AD
:102E40000041C4F20001884207D0604505D042F637
:102E50000041C4F201018842DFD1A16822F0700272
:102E60000A439842DBDD40F60041C4F2000188428B
:102E700007D0604505D042F60041C4F20101884206
:102E800003D1216922F440720A43A36922F0800130
:102E9000D4F804E0E268194360450160C262C0F8FA
:102EA00028E005D042F60041C4F20101884201D178
:102EB0006169016301214161002084F8461084F8B2
:102EC0003E1084F83F1084F8401084F8411084F8D4
:102ED000421084F8431084F8441084F8451084F8B4
:102EE0003D1010BD81B00068B0F1804F01D001B03D
:102EF000704741F21C00C4F20200016841F0010178
:102F00000160006800F001000090009801B0704777
:102F100080B590F83C20012A4FF0020200F0C080FA
:102F2000012380F83C3080F83D20D0F800C04FF6F7
:102F30007772DCF8083023EA0202CCF808200B682C
:102F40003F2B1CDD5F2B20DD602B4FD0B3F5005FE6
:102F50006CD0702B40F09E80D1E901E3C968DCF8A9
:102F6000082043EA0E0322F47F4243EA0121114381
:102F7000CCF80810DCF8081041F0770188E01F2B2E
:102F800028DC5BB3102B29D084E0402B61D0502B80
:102F900040F08080D1F804E0C968DCF82030DCF82B
:102FA000202022F00102CCF82020DCF8182022F0AA
:102FB000F00242EA011123F00A0242EA0E02CCF8C2
:102FC0001810CCF82020DCF8081041F0570121F04F
:102FD00020015DE0202B01D0302B5BD1DCF8081004
:102FE00021F07001194341F0070151E0D1F804E0EC
:102FF000C968DCF8203023F01003CCF82030DCF86E
:103000001830DCF8202023F4704322F0A00243EAB9
:10301000013142EA0E12CCF81810CCF82020DCF86E
:10302000081041F0670121F0100131E0D1E901E31E
:10303000C968DCF8082043EA0E0322F47F4243EA21
:1030400001211143CCF80810DCF8081041F480414C
:103050001EE0D1F804E0C968DCF82030DCF820205C
:1030600022F00102CCF82020DCF8182022F0F00237
:1030700042EA011123F00A0242EA0E02CCF81810CB
:10308000CCF82020DCF8081041F0470121F0300195
:10309000CCF808100121002280F83D1080F83C2077
:1030A000104680BD80B586B00068B0F1804F4FF00B
:1030B0000000CDE90400CDE9020001D006B080BDDA
:1030C00041F21800C4F20200016841F008010160F9
:1030D000006802A900F00800019001984FF47060A8
:1030E000029002200390059040F60040C4F20100D7
:1030F000FFF72CF80420C4F2010001684FF6FF42EC
:10310000CFF6FF02114041F0E06141F4007101602F
:1031100006B080BDF0B590F83C30012B02D1022101
:103120000846F0BD4FEAB2020123032A80F83C3082
:1031300000F21881DFE802F0024993DD03681A6AA1
:1031400022F001021A621A461E6AD3F804C052F82D
:10315000185F0C6825F073058F6845EA040E43F28A
:10316000004526F00204C4F20105AB4244EA07041C
:1031700005D042F60046C4F20106B34205D1CE683E
:1031800024F00C0426F004063443AB4205D042F68A
:103190000045C4F20105AB4206D1D1E905652CF426
:1031A0004077374347EA050CC3F804C0C3F818E07A
:1031B0004F6809695F631C629F6947F008079F6158
:1031C0009F6927F004079F61C9E003681A6A22F02B
:1031D00010021A621A461C6AD3F804C052F8187F0B
:1031E0000E6827F4E6478D6847EA062E43F200464C
:1031F00024F02004C4F20106B34244EA051405D0C9
:1032000042F60045C4F20105AB4207D1CD686FF02C
:10321000400724F0C00407EA05152C43B34205D04B
:1032200042F60045C4F20105AB4207D1D1E905657C
:103230002CF4406747EA860747EA850CC3F804C0C8
:10324000C3F818E04F6809699F631C629F6947F4DF
:1032500000679F619F6927F480679F617EE0036834
:103260001A6A22F480721A621A461C6AD3F804C0E1
:1032700052F81C7F0E6827F073078D6847EA060E28
:1032800043F2004624F40074C4F20106B34244EA57
:10329000052405D042F60045C4F20105AB4207D132
:1032A000CD6840F2FF472D0224F44064BD432C4317
:1032B000B34205D042F60045C4F20105AB4207D146
:1032C000D1E905652CF4405747EA061747EA051C83
:1032D000C3F804C0C3F81CE04F680969DF631C62CF
:1032E000DF6947F00807DF61DF6927F00407DF6166
:1032F00035E003681A6A22F480521A621A46D3F83B
:1033000020E05C6852F81C6F0D6826F4E6468F6872
:1033100046EA052C43F200452EF40056C4F201059E
:10332000AB4246EA073505D042F60047C4F2010732
:10333000BB4204D14F6924F4804646EA87145C609E
:10334000C3F81CC04F6809691F641D62DF6947F438
:103350000067DF61DF6927F48067DF6109021368B6
:1033600019431160002180F83C100846F0BD0000B0
:10337000002804BF0120704710B5044690F83D00B6
:1033800028B9002084F83C00204600F083F8022091
:1033900084F83D00206840F6FF330268C4F2000361
:1033A00043F2004C9842C4F2010C20DCB0F1804F93
:1033B0002BD040F20041C4F20001884225D040F6F3
:1033C0000001C4F2000188421FD0984223DCB0F112
:1033D000804F2ED040F20041C4F20001884228D034
:1033E00040F60001C4F20001884222D025E040F6F8
:1033F0000041C4F20001884207D0604505D042F682
:103400000041C4F201018842DFD1A16822F07002BC
:103410000A439842DBDD40F60041C4F200018842D5
:1034200007D0604505D042F60041C4F20101884250
:1034300003D1216922F440720A43A36922F080017A
:10344000D4F804E0E268194360450160C262C0F844
:1034500028E005D042F60041C4F20101884201D1C2
:103460006169016301214161002084F8461084F8FC
:103470003E1084F83F1084F8401084F8411084F81E
:10348000421084F8431084F8441084F8451084F8FE
:103490003D1010BD7047000041B1082909D0042932
:1034A00014BF00F1410200F13F0204E000F13E02CE
:1034B00001E000F140021278012A1CBF0120704790
:1034C000022241B1082909D0042914BF80F8412003
:1034D00080F83F2004E080F83E2001E080F84020A2
:1034E000006801F01F010122036A02FA01F123EAD8
:1034F00001020262026A0A4340F6FF31C4F200018F
:103500008842026217DD40F60042C4F20002904297
:1035100020D043F2004CC4F2010C604505D042F6C5
:103520000043C4F2010398421BD1436C884243F428
:10353000004343641BDCB0F1804F0BD040F20041EC
:10354000C4F20001884205D040F60001C4F2000137
:10355000884206D1816801F00701062904BF0020D6
:103560007047016841F001010160002070479042FE
:10357000F0D06045EED042F60041C4F2010188422D
:10358000E8D0EEE77047000070470000002804BF55
:103590000120704710B5044690F83D0028B900207E
:1035A00084F83C00204600F05FF8242084F83D00B9
:1035B0002068D4E90212C36823F40053C36003698E
:1035C00023F440531A430261D4E904231143C2682F
:1035D000194341F20C639A431143C1604169A269E6
:1035E00021F44071114343F60002C4F201029042FB
:1035F000416102D0FFF75AF901E0FFF76BF9626809
:10360000192148439100B0FBF1F048F21F51C5F277
:10361000EB11A0FB01235A096FF0630302FB0300C7
:10362000322303EB0010A0FB0101F02303EA511346
:10363000206803EB0212C1F3431111448160016958
:1036400021F490410161416921F02A014161C16881
:1036500041F40051C16000202021206484F83D1015
:1036600084F83E1010BD00002DE9F04186B000271F
:1036700040F600050597CDE903770446C4F201053D
:103680000068A5F544418842029702D006B0BDE823
:10369000F08141F21400C4F2020081684FF0020888
:1036A00041F400318160816802AE01F40031019182
:1036B0000199416841F004014160416801F0040151
:1036C00001910199016841F00101016000683146F2
:1036D00000F0010001900198042002900320CDF831
:1036E0000C8005902846FEF731FD082002A981E8EC
:1036F000810128463146FEF729FD40F6BC256C20A5
:10370000C2F20005C4F2020080212022C5E90007B0
:103710002846C5E90271C5E90477C5E90627FEF721
:10372000EDFBA5636C6206B0BDE8F08170B582B0B8
:10373000054690F83E0020280ED113460A4600297F
:103740004FF0010418BF002B02D1204602B070BD1B
:1037500095F83C00012803D10224204602B070BD38
:10376000012085F83C00002422202C63AA62AB854E
:103770002C6485F83E002968A86B44F2893C44F229
:10378000D53E44F21D36C0F6000CC0F6000EC0F661
:1037900000060431C0E90ACEC0E90C64FEF7F6FB6E
:1037A000019428680168019141680191019985F8A7
:1037B0003C40C16841F48071C160416941F0010140
:1037C0004161416941F040014161204602B070BD54
:1037D00070470000704700002DE9F04381B00446B7
:1037E00090F83D0020280DD10F4600294FF0010030
:1037F00000F0AE801646002A00F0AA8094F83C0043
:10380000012803D1022001B0BDE8F083012084F833
:103810003C004FF0000921201D46C4F8409084F878
:103820003D00FEF79FFDA684E684A1688046B1F5C1
:10383000805F07D1206900281CBF38464F463E46AE
:10384000074600E0002684F83C90E28C2068002ABD
:1038500001685BD06A1C2BD0002D50D0090609D41A
:10386000FEF780FDA0EB08012068A94273D801682B
:103870000906F5D517B117F8011B04E036F8021B4D
:1038800000276FF35F214160E18C0139E184E28C14
:103890000168002AE2D139E036F8021B00276FF3F5
:1038A0005F214160E18C0139E184E28C01686AB3F7
:1038B00009065FBF01685FEA016101685FEA0161B3
:1038C0000CD40168090609D4016809065FBF0168C4
:1038D0005FEA016101685FEA0161F2D5002FDBD088
:1038E00017F8011BDDE736F8021B00276FF35F2195
:1038F0004160E18C0139E184E28C016832B1090652
:1039000029D5002FEFD017F8011BF1E749061BD48A
:103910000DB3691C0ED10168490615D4016849062A
:103920005CBF01685FEA41610ED401684906F2D5C7
:103930000AE000BFFEF716FDA0EB08012068A942CF
:1039400009D800684006F5D5202084F83D00002005
:1039500001B0BDE8F083C16821F4D071C160416954
:1039600021F001014161202084F83D0084F83E00EF
:10397000002084F83C00032001B0BDE8F083000083
:10398000FEE7000040F24200C2F200000021417058
:10399000704700002DE9F04184B040F6482042F223
:1039A0000041C2F20000C4F201014FF4807201250F
:1039B0004FF000084FF460230A27057380F8148045
:1039C000C361C0E9001882600761FDF799FE002815
:1039D00018BFFDF74DFB40F64824C2F20004204614
:1039E000FDF744FD05260396CDE9017501AD20469E
:1039F0002946FDF7C5FD0B200190022002902046CC
:103A00002946FDF7BDFD0C200190032002902046C1
:103A10002946FDF7B5FD0D200190042002902046B7
:103A20002946FDF7ADFD0E20CDE9010620462946C9
:103A3000FDF7A6FD0620CDE9010020462946FDF749
:103A40009FFD0720CDE9010020462946FDF798FD9E
:103A50000820CDE9010020462946FDF791FD092007
:103A6000CDE9010020462946FDF78AFD204629467A
:103A7000CDE90187FDF784FD40F20811C2F2000193
:103A800020460A22FDF784FF04B0BDE8F081000063
:103A900070B586B0002441F21800CDE90444C4F2A8
:103AA0000200416847F2004641F000514160416820
:103AB000C4F2000601F0005100910099016841F044
:103AC000040101600068694600F00400009000985D
:103AD0003020CDE9024400900320019006F5144007
:103AE000FEF734FB40F2DC05C2F20005284640F840
:103AF000106FFDF7FFFF002818BFFDF7B9FACDE9F9
:103B0000044405F1100404A920460022FDF7CCFF6F
:103B1000002818BFFDF7ACFA04A920461022FDF7D3
:103B2000C3FF002818BFFDF7A3FA20460021FEF7C7
:103B300039F820461021FEF735F8204600210022F2
:103B40000023FEF71BF82046102100220023FEF779
:103B500015F806B070BD000010B58EB040F600300C
:103B60000021C2F200004FF0804201234FF47A742A
:103B70000D91CDE90B11CDE90911CDE90711CDE981
:103B80000511CDE90311CDE90111C0E90023C0E918
:103B90000214016180218161FFF712F9002818BF2A
:103BA000FDF766FA4FF480500A9040F60030C2F2FA
:103BB00000000AA9FFF7ACF9002818BFFDF758FA72
:103BC00040F60030C2F20000FFF7D2FB002818BF19
:103BD000FDF74EFA40F600300024C2F2000008A9BA
:103BE000CDE90844FFF7A0F8002818BFFDF740FA18
:103BF0006020CDE9010440F60030C2F2000001A9C6
:103C0000002203940594FFF785FA002818BFFDF7FA
:103C10002FFA40F60030C2F2000001A90422FFF79B
:103C200079FA002818BFFDF723FA40F60030C2F2F7
:103C3000000001A90822FFF76DFA002818BFFDF760
:103C400017FA40F60030C2F2000001A90C22FFF77B
:103C500061FA002818BFFDF70BFA40F60034C2F2F3
:103C600000042046FFF71EFA20460021FFF714FC4F
:103C700020460421FFF710FC20460821FFF70CFC2A
:103C800020460C21FFF708FC0EB010BD80B540F6B1
:103C9000483044F20041C2F20000C4F200010023A7
:103CA0004FF00C0C4FF4613280E80E00C0E9033392
:103CB000C0E905C3C361FFF769FC002818BFFDF721
:103CC000D7F940F6483040F28011C2F20000C2F24B
:103CD00000016422FFF72AFD002808BF80BDBDE86F
:103CE0008040FDF7C5B90000FEE7000070B51C4636
:103CF000054681B11646B2B3287AC0B1FEF732FB51
:103D0000E968401A632812D8D5E9000140F2B632BA
:103D100002600A6031E000222A72D5E900032146E0
:103D2000026022A01A60BDE8704000F03FBC40F283
:103D30009C00C2F20000008B40F2B63100EB800024
:103D4000A1EB400148F21F527143C5F2EB12A1FBF7
:103D5000021200212972510901EB4002D5E900014C
:103D600002600A6009E001202872FEF7FBFAE860B1
:103D7000D5E90001002202600A6000680968084471
:103D800043F63521C4F2FC41A0FB01014A0A03A01D
:103D90002146BDE8704000F009BC00BF25732E76B7
:103DA000616C3D2564FFFFFF0000000025732E7647
:103DB000616C3D30FFFFFF007047000080B540F6AA
:103DC0000000C4F201000221FEF7C0FA0138B0FA87
:103DD00080F04FEA501140F2DC00C2F2000007D13F
:103DE000428803780132428013B98288013282808E
:103DF000C2880170511C8AB242F210739A42C1808B
:103E000038BF80BDB0F802C048F21F52C5F2EB12B5
:103E1000ACFB022E82884CF6CD41CCF6CC41A2FB05
:103E200001134FEA5E114170D908B2F5FA7F0181A2
:103E300003D8002343814AB913E0A2F5FA7140F296
:103E4000DB539A4288BF4FF47A71418142F210717C
:103E5000A1EB0C0140F29F135943B1FBF2F1A1F227
:103E60002D3300218381C0F80210C18080BD000085
:103E70007047000070B540F24E04C2F20004E08DBD
:103E8000002800F0C38040F29006C2F20006002035
:103E900006F10C05E085204629464022FCF7A7F9EB
:103EA00060B120464021FDF73BFA608BF18C8842DF
:103EB00040F0AD8028464021FDF7FEF9FDF738FAC5
:103EC0004FF20C41884221DC4FF20A11884236D071
:103ED0004FF20B21884232D04FF20C31884240F031
:103EE000958040F24200C2F200000078002818BF1E
:103EF0000120307000F08A80B089002843D0308AD9
:103F0000F38E834241D940F2B63152E04FF20D4177
:103F1000884221D04FF61101884223D04FF612116A
:103F2000884218BF70BD0220307040F6FF7000F06C
:103F3000B7F940F6FF70BDE8704000F0BFB940F23D
:103F40004200C2F200000078002818BF0120307043
:103F5000BDE87040FCF7D8BE03203070BDE870406B
:103F6000FCF782BD40F24200C2F200000021017065
:103F70000020317000F094F9002000F09FF9BDE8B6
:103F80007040FCF7C1BE002113E0F289002190428D
:103F90000FD993420DD3B18C40F2B63501EB8101BC
:103FA0009B1AA5EB41056B43801AB3FBF0F000EBC5
:103FB00041013420C4F200008160C160718A41B1C6
:103FC000F18AF28E8A4208D940F2B631016041602E
:103FD00070BD00210160416070BDB38A994212D961
:103FE0009A4210D3B68C40F2B63506EB8606D21A4A
:103FF000A5EB46056A43C91AB2FBF1F101EB460194
:104000000160416070BD00210160416070BD4FF4EE
:10401000FA70FEF709F8012080F3138800F0E8F940
:104020002DE9F04F87B006466FF31100B0F1006F35
:104030001CBF07B0BDE8F08F144605914FF6FF7521
:10404000FEF76CF806F1784003964FEAD02CC0F3E7
:10405000490E40F2E41BCEF58060A1464FEACC2821
:104060004FF0006AC2F2000BA04238BF044600BF06
:104070000221C0F600010AEBCC204144002200BF1F
:1040800008EB020333F80A302BF802308F5A0BEB9F
:1040900002035F808F187E8820329E80BE88B2F532
:1040A000006FDE80FE881E813E895E817E899E8152
:1040B000BE89DE81FE891E823E8A5E827E8A9E8263
:1040C000BE8ADE82FE8A1E833E8B5E837E8B9E834B
:1040D000BF8BDF83D4D1A1B20029CDF808C00494EE
:1040E000069143D00BEB4E07CDF80490C1F1000CC4
:1040F000BA1DA1F10109002332F8066CAE4241D18C
:10410000994516D007EB43067488AC423AD10CEBC4
:104110000304A11C0DD0B188A94233D1E11C08D001
:104120001188A9422ED106990433994202F108025E
:10413000E2D14CF25030FDF717F80498019C039E31
:10414000000400F087800598DDF81890851E37463A
:1041500035F8022F012039460023FDF783FFB9F11E
:10416000010907F10207F3D174E000BF4CF25030AF
:10417000FCF7FAFF039E4C460699A0B288426DD127
:1041800087E000BFCDF800E0FCF7DAFF4CF25030DA
:10419000FCF7EAFF42F21000C4F202000146006898
:1041A000B9F1030F20F002000860069800F0030C3C
:1041B00007D2DDF814900021009BBCF1000F1FD145
:1041C00036E0DDF81490A0EB0C0E00216FF0010337
:1041D00009EB03067588FC18658009EB41056888C2
:1041E00007EB41025080A8880431908030898E45C9
:1041F00003F108032081EBD1009BBCF1000F17D025
:1042000039F81100CA18BCF1010F2BF812000FD0B9
:10421000481C39F810201844BCF1020F2BF810206C
:1042200006D0881C39F8101018442BF8101000BF65
:10423000019C039EABF102054FF0006735F8022F99
:1042400008EB070101200023FDF70CFF0237B7F14F
:10425000082FF3D10699A0B288421AD0059806EB30
:10426000410600EB4100DDF808C005900396049874
:104270000CF1010C241AA0B2B0F5806FA14628BF42
:104280004FF4806408F500684FF0000E4FF6FF759C
:10429000EEE607B0BDE8F04FFDF7DABE704700006C
:1042A00040F6FF73984238BF034640F2DC00C2F28A
:1042B0000000103000210022FDF760BC40F6FF73C3
:1042C000984238BF034640F2DC00C2F200001030D2
:1042D00010210022FDF752BC80B5FEF749F840F2EC
:1042E0003800C2F2000001884A1C332902800ED334
:1042F000418842F2CD52514344F6D352C1F2620298
:10430000A1FB021200219209018082804180BDE858
:104310008040FFF753BD000070470000406A01680D
:104320004A6990F83D30212B0BD112F0800208D061
:104330000022C284CA6822F0C002CA60202280F82B
:104340003D204A6990F83E30222B17D112F04002EE
:1043500014D00022C285CB6823F49073CB604B69E4
:1043600023F001034B61036B012B03D1CB6823F0D6
:104370001003CB60202180F83E100263016C41F0F5
:1043800010010164FFF700B90168406A09688906F5
:1043900018D40021C1850168CA6822F48072CA60FD
:1043A0004A6922F001024A614A6922F040024A61E8
:1043B000202280F83E20026B012A03D1CA6822F035
:1043C0001002CA60016B012918BFFFF701BA818D85
:1043D000FFF7D8B8406A016B012918BFFFF7FAB997
:1043E000818D4908FFF7CEB870470000FEE7000056
:1043F0004EF60C50BFF34F8FCEF20000016804223E
:1044000001F4E061C0F2FA5211430160BFF34F8F33
:1044100000BFFDE710B582B004468DF8070040F6F6
:104420004830C2F200000DF1070101224FF0FF33C6
:10443000FFF7D2F9204602B010BD000096B0FDF79C
:10444000A5FF002602270120CDE91166CDE90F6600
:10445000CDE90C760E961090102011904FF460105C
:10446000CDE9137615900CA80696CDE90466CDE942
:104470000266FEF76FFA0F20CDE907074FF4806060
:104480000996CDE90A0607A80221FEF733F94FF491
:1044900000400197039001A8FEF7A2F841F218002E
:1044A0000F96C4F20200016840F6000441F02001BA
:1044B00001600168C4F2010401F020010191019939
:1044C00001680CAD41F010010160016801F01001BC
:1044D00001910199016841F004010160016801F056
:1044E000040101910199016841F00801016000682F
:1044F000294600F008000190019820200C9000202F
:10450000C1F23100CDE90D0604F50060FDF71EFE95
:1045100020462946CDE90C760E96FDF717FE1720AA
:1045200000210022FDF79CFF1720FDF789FFFFF710
:1045300031FAFFF711FBFFF7A9FBFFF7A9FAFCF728
:104540007FFEFCF7D5FDFFF71DFAFCF7DDFB48F217
:104550001F55C5F2EB15642608E000BFFCF78CF987
:10456000FCF75AF9FFF786FCFBF78AFFFCF760FFC0
:104570000446FDF7F7FE022CF0D0012C01D0002CF0
:10458000EED1A0FB0512510901FB1600142804D03E
:104590000028E5D1FCF7D2FEE2E7FBF73FFFFBF78F
:1045A00055FFFCF767FDFCF7E7FCD9E70FB4054BB7
:1045B00010B503A9044A029800F018F810BC5DF881
:1045C00014FB0000154400080000002002E008C8A9
:1045D000121F08C1002AFAD170477047002001E07D
:1045E00001C1121F002AFBD1704700002DE9FF4FC7
:1045F0008BB09A460F460546002606E025280BD0CC
:1046000052460D9990476D1C761C28780028F5D1EC
:104610000FB03046BDE8F08F0024A046012260496B
:1046200000E0044315F8013F203B02FA03F0084282
:10463000F7D128782E2817D115F8010F44F004047B
:104640002A280ED06FF02F022878A0F13001092916
:104650000AD808EB880102EB410100EB01086D1C50
:10466000F2E757F8048B6D1C287869283ED006DCE9
:104670000028CDD063280BD0642804D136E07328FD
:1046800010D075284BD052460D999047761C85E086
:1046900017F8040B8DF8000000208DF80100E946A2
:1046A000012003E057F8049B4FF0FF3061074FF003
:1046B000000401D40AE0641C44450DDA8442FADBAC
:1046C00019F804100029F6D106E0641C8442FCDBD2
:1046D00019F804100029F8D1264404E019F8010B58
:1046E00052460D999047641EF8D257E001CF4FF023
:1046F0000A0B002802DA40422D2102E0210504D5F0
:104700002B218DF82410012103E0E10705D02021A1
:10471000F7E70DF1200908910CE00021F9E701CF3E
:104720004FF00A0BF9E75946FBF76EFD01F1300235
:1047300009F8012D0028F6D1ADEB090000F1200B9E
:10474000600701D44FF00108D84502DDA8EB0B004B
:1047500000E000208046002406E009A85246005DE3
:104760000D999047641C761C08988442F5DB04E0A0
:10477000302052460D999047761CB8F10001A8F1FF
:104780000108F5DC05E019F8010B52460D99904738
:10479000761CBBF10001ABF1010BF4DC6D1C34E7BE
:1047A00009280100010200000000000000000102D1
:1047B00003040607080900000000010203040203C5
:1047C0000405060708090A0B0C0D0E0F1010466CA5
:1047D00075696449636F00686949636F006C6F773E
:1047E00049636F00737461727456616C75655368C8
:1047F000322E7478743D22256422FFFFFF00667517
:104800006C6C56616C756553686F77322E74787472
:104810003D22256422FFFFFF0073707261794964B5
:104820006C652E7478743D22256422FFFFFF0073AF
:10483000707261794F702E7478743D22256422FF66
:10484000FFFF0066756C6C56616C756553686F7719
:104850002E7478743D22256422FFFFFF007374617B
:10486000727456616C756553686F772E7478743DF9
:1048700022256422FFFFFF00706167652070616779
:104880006530FFFFFF00706167652070616765310B
:10489000FFFFFF0050756D7031537461742E7069A5
:1048A000633D2564FFFFFF0050756D7032537461E6
:1048B000742E7069633D2564FFFFFF005261696ECD
:1048C000537461742E7069633D2564FFFFFF0045DA
:1048D00078537461742E7069633D2564FFFFFF0097
:1048E000666C65783130302E76616C3D2564FFFF53
:1048F000FF00666C6578302E76616C3D2564FFFFA5
:10490000FF00535441312E76616C3D2564FFFFFF5B
:104910000046554C4C312E76616C3D2564FFFFFFFF
:104920000070756D70456E61626C65312E76616CDC
:104930003D2564FFFFFF00535441322E76616C3DEC
:104940002564FFFFFF0046554C4C322E76616C3DCE
:104950002564FFFFFF0070756D70456E61626C65C8
:10496000322E76616C3D2564FFFFFF0045585F5392
:1049700045542E76616C3D2564FFFFFF007261692E
:104980006E4F666654696D652E76616C3D2564FFD9
:10499000FFFF007261696E4F6E54696D652E76611E
:1049A0006C3D2564FFFFFF006D61667661646A2ED1
:1049B00076616C3D2564FFFFFF0065746876616475
:1049C0006A2E76616C3D2564FFFFFF00616672769A
:1049D00061646A2E76616C3D2564FFFFFF006C699F
:1049E00067687453656E2E76616C3D2564FFFFFF2A
:1049F0000073707261794D61696E2E76616C3D2530
:104A000064FFFFFF0073657445784175746F2E76FF
:104A1000616C3D2564FFFFFF006D61665479706530
:104A200053656C6563742E76616C3D2564FFFFFFF2
:104A3000006272696768742E76616C3D2564FFFFC1
:104A4000FF00657844656C61792E76616C3D256464
:104A5000FFFFFF0070756D70537464447574792E98
:104A600076616C3D2564FFFFFF000000CE47000823
:104A7000D7470008DD470008984A000800000020DA
:104A800038000000CC450008D04A0008380000205B
:104A9000800F0000DC45000800000000010000005D
:104AA000100000000024F4003C00004040000040E2
:104AB000000000000000000034000040380000400A
:104AC0000000000000000000FF00000000000000E7
:0400000508000131BD
:00000001FF
