:020000040800F2
:100000009817002045010008516900080D5F00089D
:100010008D670008CD090008658100080000000018
:100020000000000000000000000000001172000845
:100030000D0F000800000000616D0008E174000869
:100040005F0100085F0100085F0100085F01000810
:100050005F0100085F0100085F0100085F01000800
:100060005F0100085F0100085F010008A90E000899
:100070005F0100085F0100085F0100085F010008E0
:10008000B90E00085F0100085F0100085F01000869
:100090005F0100085F0100085F010008F118000817
:1000A0005F0100085F0100085F0100085F010008B0
:1000B0005F0100085F0100085F0100085F010008A0
:1000C0005F0100085F0100085F0100085F01000890
:1000D0005F0100085F010008118100085F0100084E
:1000E0005F0100085F0100085F0100085F01000870
:1000F0005F0100085F0100085F0100085F01000860
:100100005F0100085F0100085F0100085F0100084F
:100110005F0100085F0100085F0100085F0100083F
:100120005F0100085F0100085F0100085F0100082F
:10013000DFF80CD000F068FA004800473983000867
:10014000981700200648804706480047FEE7FEE76C
:10015000FEE7FEE7FEE7FEE7FEE7FEE7FEE7FEE777
:10016000CD750008310100082DE9F05F054600203B
:1001700092469B4688460646814640241BE0284618
:1001800041464746224600F076F853465A46C01A82
:10019000914110D311461846224600F05DF82D1A01
:1001A00067EB01084F4622460120002100F054F879
:1001B00017EB00094E41201EA4F10104DFDC484684
:1001C00031462A464346BDE8F09F40EA01039B07BB
:1001D00003D009E008C9121F08C0042AFAD203E0BC
:1001E00011F8013B00F8013B521EF9D27047D2B220
:1001F00001E000F8012B491EFBD270470022F6E710
:1002000010B513460A4604461946FFF7F0FF20468C
:1002100010BD30B504460020034600E05B1C93424D
:1002200003D2E05CCD5C401BF8D030BD30B50B464E
:10023000014600202022012409E021FA02F59D4216
:1002400005D303FA02F5491B04FA02F52844151EEA
:10025000A2F10102F1DC30BD202A04DB203A00FAD1
:1002600002F1002070479140C2F1200320FA03F30D
:10027000194390407047202A04DB203A21FA02F00B
:100280000021704721FA02F3D040C2F120029140D0
:100290000843194670472DE9FE4F804681EA030066
:1002A000C00F0C46009021F0004123F00045B8EB50
:1002B0000200A94105D24046214690461C460B4605
:1002C000024623F00040104347D0270DC7F30A0031
:1002D000C3F30A510290401A019040286BDAC3F32D
:1002E000130040F4801B0098924620B10023D2EB0B
:1002F000030A63EB0B0B01985946C0F140025046CC
:10030000FFF7AAFF06460D4650465946019A00F0EF
:1003100093F910EB08006141002487EA115284EA46
:10032000E7731A4340D0009A62B3019A012A4FEA58
:10033000075215DC001B61EB02014FF0004202EA9C
:100340000752CDE90042001C41F5801132462B4690
:1003500000F093F903B0BDE8F08F40462146F9E77D
:10036000001B61EB0201001C41F5801300185B418A
:100370002018A2F5001747EB030140EAD570B61923
:100380006D4111E06D084FEA360645EAC0754FEA47
:100390000752001B61EB0201001C41F58011490866
:1003A0004FEA30000019514132462B4603B0BDE8F8
:1003B000F04F00F053B90098012240000023D0EB29
:1003C000020263EBE073009821464FEAE074B8EB59
:1003D000000061EB0401E9E783F000435BE781F093
:1003E000004158E72DE9FE4F81EA030404F0004480
:1003F00021F0004100944FF0000B23F0004350EA3D
:1004000001045ED052EA03045BD0C3F30A54C1F383
:100410000A552C44A4F2F3340194A0FB0254C1F316
:10042000130141F48011C3F3130343F4801301FB60
:10043000024400FB034E840A970A44EA815447EAC7
:100440008357A4FB076802958D0A05FB07854FEAD1
:10045000932C04FB0C542705029D4FEA065847EAEB
:100460001637B5EB08056EEB070C870E920E47EAC0
:10047000811742EA8312A7FB0201B6EB0B0164EB82
:1004800000042B0D43EA0C335E1844EB1C50DA4693
:100490005146E7FB0201C5F313044FEA0B3343EA6D
:1004A00014534FEA0432019C43EA0603A4F10C04FE
:1004B0000294009CCDE900B400F0DFF803B0BDE881
:1004C000F08F00200146F9E72DE9F04D81EA0304A1
:1004D00004F0004B21F0004514464FF0000A23F0D1
:1004E000004150EA050220D054EA01021DD0C5F3B4
:1004F0000A570246C5F31303C1F31300C1F30A56AA
:1005000040F4801543F48013A7EB0608101BD64671
:1005100008F2FD3873EB050002D308F1010801E091
:1005200092185B41B8F1000F03DA00200146BDE8E4
:10053000F08D00204FF48011064684460EE0171B14
:1005400073EB050705D3121B63EB050306434CEA67
:10055000010C49084FEA300092185B4150EA01074C
:10056000EDD152EA030012D082EA040083EA0501C9
:10057000084305D0101BAB4106D20122002306E040
:1005800000224FF0004302E06FF0010253101AEB1B
:1005900006004CEB085110EB0A0041EB0B01BDE8E3
:1005A000F04D00F05BB8C1F30A52C1F3130140F201
:1005B000FF3341F480119A4202DA0020014670476D
:1005C00040F233439A42A2F2334202DC5242FFF736
:1005D00052BEFFF741BE000030B5041E71F10004A9
:1005E00004DB4FF00044404264EB0101141E73F140
:1005F000000405DB1C464FF00043524263EB04034A
:10060000994208BF904230BD1CB509480090094886
:1006100001900546009C06E0E06840F0010394E884
:10062000070098471034AC42F6D3FFF785FD000071
:10063000E493000804940008202A06DBCB17203A34
:1006400041FA02F043EAE07306E041FA02F3D040D7
:10065000C2F12002914008431946704710B5141E9C
:1006600073F1000408DA401C41F1000192185B416B
:100670001A4301D120F0010010BD2DE9F04D924642
:100680009B4611B1B1FA81F202E0B0FA80F2203259
:100690009046FFF7E1FD04460F4640EA0A0041EAB2
:1006A0000B0153465A46084313D0114653EA010042
:1006B00019D0C8F140025046FFF7DDFD05460E4651
:1006C000504659464246FFF7C7FD084305D0012072
:1006D00004E020463946BDE8F08D0020054346EA97
:1006E000E0762C4337430A986305E40AA0EB080040
:1006F0000022FD0A44EA47540A3002D50020014690
:10070000E9E7010510196941DDE90845001969416A
:10071000BDE8F04DA2E7000080B584B00290002053
:100720000190029800688068C00770B3FFE70298E4
:100730000168886820F00100886003F0EFFE0190F6
:10074000FFE7029800688068C007E8B1FFE703F0A0
:10075000E5FE0199401A032815D3FFE702980068C7
:100760008068C00770B1FFE70299886A40F0100006
:1007700088620299C86A40F00100C86201208DF8C1
:100780000F0006E0FFE7DCE7FFE700208DF80F0031
:10079000FFE79DF80F0004B080BD000080B582B077
:1007A00001900198406A00900098806A10F0500F04
:1007B00028D1FFE70099886A40F4007088620098A9
:1007C0000068806800F46020B0F5602F16D1FFE764
:1007D0000098007B90B9FFE70099886A20F4807048
:1007E00088620098806AC004002806D4FFE7009958
:1007F000886A40F001008862FFE7FFE7009802F096
:1008000049FA05E00098006A016B01988847FFE704
:1008100002B080BD80B582B001900198406A00901E
:100820000099886A40F0400088620099C86A40F0E8
:100830000400C862009802F035FA02B080BD0000E2
:1008400080B582B001900198406A0090009802F053
:1008500025FA02B080BD000080B584B0029000206F
:1008600001900090029800688068C007002849D174
:10087000FFE702980168886840F00100886040F254
:100880000400C2F2000000684DF68361C4F21B311F
:10089000A0FB0110800C0090FFE7009820B1FFE75B
:1008A000009801380090F8E703F038FE0190FFE768
:1008B000029800688068C00718BBFFE703F02EFEAF
:1008C0000199401A03281BD3FFE70298006880684B
:1008D000C007A0B9FFE70299886A40F0100088625B
:1008E0000299C86A40F00100C862FFE7029900203F
:1008F00081F82400FFE701208DF80F0006E0FFE7F4
:10090000D6E7FFE700208DF80F00FFE79DF80F0006
:1009100004B080BD80B582B040F62A20C2F200004B
:10092000008860B1FFE701F0CBFF40F62A22C2F257
:1009300000025188928800F04BF8009002E00020FD
:100940000090FFE700988DF8070040F62A20C2F2D9
:10095000000001789DF8072040F20800C2F2000074
:1009600049F2FD23C0F6000305F062FF02B080BD2E
:1009700080B582B040F62A20C2F20000C08860B183
:10098000FFE701F09DFF40F62A22C2F20002118922
:10099000528900F01DF8009002E000200090FFE76F
:1009A00000988DF8070040F62A20C2F200008179F5
:1009B0009DF8072040F21800C2F2000049F203330C
:1009C000C0F6000305F034FF02B080BDFFE7FEE78C
:1009D00084B0ADF80C00ADF80A10ADF80820BDF8F1
:1009E0000C00BDF80A10884204DCFFE700208DF8F7
:1009F0000F0027E0BDF80C00BDF80810884204DBAA
:100A0000FFE764208DF80F001CE0BDF80C00BDF876
:100A10000A20801A64214843BDF80810891A90FB07
:100A2000F1F08DF807009DF8070018B9FFE70120E5
:100A3000009003E09DF807000090FFE700988DF814
:100A40000F00FFE79DF80F0004B0704780B586B037
:100A50000490039140F6D830C2F20000006840686C
:100A6000C0F164008DF80B009DF80B0041F27C3161
:100A7000C2F200010978884206D1FFE703990020FD
:100A800008708DF8170054E09DF80B0041F27C319E
:100A9000C2F200010978884216DDFFE79DF80B00DD
:100AA00041F27C31C2F200010A78801A039A107078
:100AB00004980A7840F2C611C2F200011144039A68
:100AC0001278FFF782FB29E041F27C31C2F200018B
:100AD0000878C0F164008DF80A009DF80B008DF8CD
:100AE000090004980A7840F2C611C2F2000101918F
:100AF00011449DF80A20FFF768FB019904989DF8BE
:100B00000A2010449DF80920FFF75FFB9DF80A00BA
:100B10009DF80910084403990870FFE79DF80B0041
:100B200041F27C31C2F20001087001208DF81700FB
:100B3000FFE79DF8170006B080BD000080B582B0C9
:100B400040F24D00C2F2000040F24C01C2F200013E
:100B5000FFF77CFF08B9FFE71AE100208DF80700D6
:100B6000FFE79DF8070040F24C01C2F2000109784E
:100B7000884280F20D81FFE79DF8071040F24D009A
:100B8000C2F20000435C40F66A20C2F2000040F668
:100B90007C21C2F20001642207F0A4F808B9FFE743
:100BA000F0E040F67C20C2F200000178407840EA94
:100BB000012140F6E020C2F20000018040F2B202C2
:100BC000C2F200020121D1850088014600914FF256
:100BD0000A1188425BD0FFE700984FF20B21884250
:100BE00000F0CD80FFE700984FF20C31884255D0DD
:100BF000FFE700984FF20D41884200F0C080FFE708
:100C000000984FF20F6188425CD0FFE700984FF2E6
:100C10001071884200F09080FFE700984FF61101B4
:100C2000884200F09780FFE700984FF61211884243
:100C300000F0A580FFE700984FF61321884200F0EE
:100C40009080FFE700984FF65021884260D0FFE780
:100C500000984FF6A121884264D0FFE700984FF634
:100C60001431884200F08480FFE700984FF6154168
:100C700088423DD0FFE700984FF61651884245D094
:100C8000FFE700984FF61761884240D078E040F6C1
:100C90007C20C2F2000005F0DBFF72E040F67C2011
:100CA000C2F200008178C27841EA022140F2B20229
:100CB000C2F200025185007941F28431C2F2000192
:100CC00008705EE040F2B200C2F20000408A70B9E3
:100CD000FFE740F67C20C2F200008078002818BFB1
:100CE000012040F2B201C2F200018885FFE748E02E
:100CF00040F67C20C2F200008078002818BF012056
:100D000040F2B201C2F2000148823AE039E038E034
:100D100040F67C20C2F20000022107F0D9FA06F06A
:100D200085FA2EE040F67C20C2F20000022107F096
:100D3000CFFA06F097FA24E040F67C20C2F20000D9
:100D40008078002818BF012040F2B201C2F20001F1
:100D5000888116E040F67C20C2F2000005F03EFFDC
:100D60000FE041F22731C2F200010120087008E0D3
:100D700041F22731C2F200010020087001E0FFE7D4
:100D8000FFE7FFE79DF8070001308DF80700E8E670
:100D900002B080BD80B586B04FF4006006F046FA20
:100DA000322002F0BBFF002005904FF6FF71ADF836
:100DB0001210ADF810008DF80F00FFE79DF80F003E
:100DC00013282BDCFFE701F0A1FDADF80C00BDF806
:100DD0000C10059808440590BDF80C00BDF81210E1
:100DE000884205DAFFE7BDF80C00ADF81200FFE716
:100DF000BDF80C00BDF81010884205DDFFE7BDF816
:100E00000C00ADF81000FFE7012002F087FFFFE7BC
:100E10009DF80F0001308DF80F00CFE7BDF81210DC
:100E20000598401A0590BDF810100598401A0590D5
:100E3000059848F63961C3F6E301A0FB011080086C
:100E4000ADF80A00BDF80A00C8B1FFE7BDF80A1006
:100E500047F64000C0F27D10B0FBF1F140F2B20065
:100E6000C2F2000041864021019101F0EBFB0199A3
:100E700040F62A20C2F2000001F0D4FBFFE7FFE7B2
:100E800040F62A20C2F20000418E49F2C410C0F69A
:100E9000000007F0FFFA012002F040FFFFE700200A
:100EA00006F0C4F906B080BD80B540F69430C2F2B9
:100EB000000002F011FB80BD7047000084B0039079
:100EC0000291019200930398C16B026C0120904043
:100ED00048600098039909684860039840681028A2
:100EE00009D1FFE70198039909688860029803997E
:100EF0000968C86008E00298039909688860019849
:100F000003990968C860FFE704B0704770470000A4
:100F100080B582B040F62A20C2F20000808B88B1F2
:100F2000FFE740F23800C2F2000000886421484325
:100F300040F60101C0F28001A0FB0110C0088DF84D
:100F4000070007E040F62A20C2F20000807F8DF8FB
:100F50000700FFE79DF80700052804DCFFE70520F0
:100F60008DF80700FFE79DF8070040F63051C2F208
:100F700000010978884213D0FFE79DF8070040F68A
:100F80003051C2F2000108709DF8071049F2DC20D0
:100F9000C0F6000007F07EFA0A2002F0BFFEFFE76D
:100FA00002B080BD80B5FFE740F62A20C2F2000003
:100FB000018E49F2B210C0F6000007F06BFA012072
:100FC00002F0ACFEFFE7FFE740F62A20C2F2000085
:100FD000418E49F2C410C0F6000007F05BFA012010
:100FE00002F09CFEFFE7FFE740F62A20C2F2000075
:100FF000818E49F2D610C0F6000007F04BFA0120AE
:1010000002F08CFEFFE7FFE740F62A20C2F2000064
:10101000C18E49F29C00C0F6000007F03BFA0120A7
:1010200002F07CFEFFE7FFE740F62A20C2F2000054
:10103000018F49F2F200C0F6000007F02BFA012000
:1010400002F06CFEFFE7FFE740F62A20C2F2000044
:10105000418F49F21310C0F6000007F01BFA01207F
:1010600002F05CFEFFE7FFE740F62A20C2F2000034
:10107000818F49F28C10C0F6000007F00BFA0120B6
:1010800002F04CFEFFE7FFE740F62A20C2F2000024
:10109000C18F49F29F10C0F6000007F0FBF9012054
:1010A00002F03CFEFFE7FFE749F22320C0F6000014
:1010B000422107F0EFF9012002F030FEFFE7FFE7E1
:1010C00040F23800C2F20000018849F24920C0F61F
:1010D000000007F0DFF9012002F020FEFFE780BDED
:1010E00080B5FFE748F65A70C0F6000007F0D2F965
:1010F000322002F013FEFFE7FFE740F62A20C2F29B
:101100000000418849F26700C0F6000007F0C2F90C
:10111000012002F003FEFFE7FFE740F62A20C2F2BB
:101120000000818849F27600C0F6000007F0B2F9AD
:10113000012002F0F3FDFFE7FFE740F62A20C2F2AC
:1011400000000188002918BF012149F28600C0F67D
:10115000000007F09FF9012002F0E0FDFFE7FFE744
:1011600040F62A20C2F20000018949F2BD00C0F613
:10117000000007F08FF9012002F0D0FDFFE7FFE744
:1011800040F62A20C2F20000418949F2CC00C0F6A4
:10119000000007F07FF9012002F0C0FDFFE7FFE744
:1011A00040F62A20C2F20000C188002918BF0121A0
:1011B00049F2DC00C0F6000007F06CF9012002F0F3
:1011C000ADFDFFE7FFE740F62A20C2F2000081896B
:1011D000002918BF012149F20F20C0F6000007F0D6
:1011E00059F9012002F09AFDFFE7FFE740F62A20B7
:1011F000C2F20000C18949F23510C0F6000007F0C4
:1012000049F9012002F08AFDFFE7FFE740F62A20B6
:10121000C2F20000018A49F22410C0F6000007F073
:1012200039F9012002F07AFDFFE7FFE740F62A20B6
:10123000C2F20000418A002918BF012149F235207D
:10124000C0F6000007F026F9012002F067FDFFE775
:10125000FFE740F62A20C2F20000818A49F24410DA
:10126000C0F6000007F016F9012002F057FDFFE775
:10127000FFE740F62A20C2F20000C18A49F2551069
:10128000C0F6000007F006F9012002F047FDFFE775
:10129000FFE740F62A20C2F20000018B49F2C72086
:1012A000C0F6000007F0F6F8012002F037FDFFE776
:1012B000FFE740F62A20C2F20000408B0138B0FA66
:1012C00080F0410949F27520C0F6000007F0E2F80D
:1012D000012002F023FDFFE7FFE740F62A20C2F2DB
:1012E0000000818B49F2E810C0F6000007F0D2F848
:1012F000012002F013FDFFE7FFE740F62A20C2F2CB
:101300000000C18B49F28D20C0F6000007F0C2F842
:10131000012002F003FDFFE7FFE740F62A20C2F2BA
:101320000000018C49F25700C0F6000007F0B2F847
:10133000012002F0F3FCFFE7FFE740F62A20C2F2AB
:101340000000418C49F24500C0F6000007F0A2F809
:10135000012002F0E3FCFFE7FFE740F62A20C2F29B
:101360000000818C49F2FB10C0F6000007F092F8F3
:10137000012002F0D3FCFFE7FFE740F62A20C2F28B
:101380000000C18C49F2B620C0F6000007F082F8D8
:10139000012002F0C3FCFFE7FFE740F62A20C2F27B
:1013A0000000018D49F25F20C0F6000007F072F8DE
:1013B000012002F0B3FCFFE7FFE740F62A20C2F26B
:1013C0000000418D49F29E20C0F6000007F062F84F
:1013D000012002F0A3FCFFE7FFE749F26810C0F626
:1013E0000000002107F056F8012002F097FCFFE70B
:1013F00041F28430C2F20000007838B1FFE748F6CD
:101400004970C0F6000007F045F806E048F61E7087
:10141000C0F6000007F03EF8FFE70A2002F07EFC6D
:10142000FFE749F27A10C0F60000002107F032F819
:10143000012002F073FCFFE780BD000080B584B09E
:10144000FFE748F62F70C0F6000007F023F80520EC
:1014500002F064FCFFE7FFE740F62A20C2F200003A
:10146000418848F6E660C0F6000007F013F8012056
:1014700002F054FCFFE7FFE740F62A20C2F200002A
:10148000818848F6CC60C0F6000007F003F8012020
:1014900002F044FCFFE7FFE740F62A20C2F200001A
:1014A000018948F66D60C0F6000006F0F3FF0120E8
:1014B00002F034FCFFE7FFE740F62A20C2F200000A
:1014C000418948F68760C0F6000006F0E3FF01207E
:1014D00002F024FCFFE7FFE740F62A20C2F20000FA
:1014E000C18948F6B860C0F6000006F0D3FF0120BD
:1014F00002F014FCFFE7FFE740F62A20C2F20000EA
:10150000018A48F6A260C0F6000006F0C3FF012081
:1015100002F004FCFFE7FFE740F62A20C2F20000D9
:1015200000880821002818BF092148F6CD70C0F6B0
:10153000000006F0AFFF012002F0F0FBFFE7FFE73D
:1015400040F62A20C2F20000C0880821002818BFF7
:10155000092148F6E170C0F6000006F09BFF01206B
:1015600002F0DCFBFFE7FFE705F098FE082100280A
:1015700018BF092148F6F570C0F6000006F08AFF92
:10158000012002F0CBFBFFE740F62A20C2F2000068
:1015900080893221002818BF7F2149F23100C0F62E
:1015A000000006F077FFFFE700F08CFB0821002821
:1015B00018BF092149F20800C0F6000006F06AFFD2
:1015C000012002F0ABFBFFE740F62A20C2F2000048
:1015D0000390408A7F21002818BF322149F2190068
:1015E000C0F6000006F056FF0398408A80B1FFE77E
:1015F00048F6BE70C0F600001121029106F04AFFC5
:10160000029948F6AE70C0F6000006F043FF0FE006
:1016100048F6BE70C0F600001221019106F03AFFB4
:10162000019948F6AE70C0F6000006F033FFFFE700
:10163000FFE740F62A20C2F20000428B48F65160D4
:10164000C0F6000048F66A61C0F60001002A18BF23
:10165000014648F60170C0F6000006F01BFF0120AD
:1016600002F05CFBFFE7FFE73C20C4F200000068EB
:101670004021C4F200010968014446F6CB30CAF6A5
:101680002870A1FB0020091A00EB5100010949F262
:10169000AD00C0F6000006F0FDFE012002F03EFBAA
:1016A000FFE7FFE73420C4F2000000683821C4F2ED
:1016B00000010968014446F6CB30CAF62870A1FB48
:1016C0000020091A00EB5100010949F20310C0F68D
:1016D000000006F0DFFE012002F020FBFFE7FFE73D
:1016E00001F0F4F80138B0FA80F0410948F68B7047
:1016F000C0F6000006F0CEFE012002F00FFBFFE76F
:1017000001F0E4F801280AD1FFE701F0E5F801460D
:1017100048F63860C0F6000006F0BCFEFFE7FFE7C1
:1017200048F66870C0F60000002106F0B3FE012004
:1017300002F0F4FAFFE7FFE748F67B70C0F600001E
:10174000002106F0A7FE012002F0E8FAFFE7FFE71C
:1017500048F69D70C0F60000002106F09BFE0120B7
:1017600002F0DCFAFFE704B080BD000080B582B073
:1017700041F22730C2F20000007808B1FFE7B5E07F
:1017800002F0CCFE0190019841F29031C2F20001CA
:101790000968401AC0087C2801D8FFE7A6E0019834
:1017A00041F29031C2F20001086000208DF8000083
:1017B00040F62A20C2F20000808CA0B1FFE740F280
:1017C0003800C2F20000408940F2DB5188420ADC56
:1017D000FFE79DF80020501C8DF800000DF101017D
:1017E00000208854FFE740F23800C2F200008088F1
:1017F00000EB800043F6D11188420ADBFFE79DF839
:101800000020501C8DF800000DF1010101208854CA
:10181000FFE740F23800C2F20000808800EB800051
:1018200042F6F72188420ADCFFE79DF80020501CB1
:101830008DF800000DF1010102208854FFE740F20D
:101840003000C2F200000078022815DCFFE740F209
:101850003000C2F20000017849F2D830C0F6000032
:1018600050F8211048F61270C0F6000006F012FE83
:10187000052002F053FAFFE79DF80000012828DB5D
:10188000FFE79DF8001041F28D32C2F2000213789A
:10189000B3FBF1F000FB113010701178481C107090
:1018A0000DF10100415C40F23000C2F20000017015
:1018B000017849F2D830C0F6000050F8211048F6FF
:1018C0003D70C0F6000006F0E5FD022002F026FAA9
:1018D0000CE040F23001C2F20001FF20087041F23A
:1018E0008D31C2F2000100200870FFE702B080BD18
:1018F00040F21440C4F201000068800600280ED5B2
:10190000FFE740F21441C4F201012020086040F6D4
:101910004A31C2F20001088801300880FFE77047B1
:101920007047000080B586B00490039140F61C40DB
:10193000C2F2000000684068C0F164008DF80B003E
:101940009DF80B0040F64831C2F200010978884248
:1019500006D1FFE70399002008708DF8170054E0C6
:101960009DF80B0040F64831C2F200010978884228
:1019700016DDFFE79DF80B0040F64831C2F200018A
:101980000A78801A039A107004980A7840F2FC01D1
:10199000C2F200011144039A1278FEF716FC29E006
:1019A00040F64831C2F200010878C0F164008DF8B9
:1019B0000A009DF80B008DF8090004980A7840F29F
:1019C000FC01C2F20001019111449DF80A20FEF7CA
:1019D000FCFB019904989DF80A2010449DF8092009
:1019E000FEF7F3FB9DF80A009DF8091008440399DF
:1019F0000870FFE79DF80B0040F64831C2F2000185
:101A0000087001208DF81700FFE79DF8170006B059
:101A100080BD000080B582B040F26110C2F20000CB
:101A200040F26011C2F20001FFF77CFF08B9FFE746
:101A30001AE100208DF80700FFE79DF8070040F24B
:101A40006011C2F200010978884280F20D81FFE73F
:101A50009DF8071040F26110C2F20000435C40F2B2
:101A6000F200C2F2000040F6E221C2F2000164225C
:101A700006F038F908B9FFE7F0E040F6E220C2F2DC
:101A800000000178407840EA012140F64630C2F279
:101A90000000018040F2B202C2F200020121D185B1
:101AA0000088014600914FF20A1188425BD0FFE79F
:101AB00000984FF20B21884200F0CD80FFE700989C
:101AC0004FF20C31884255D0FFE700984FF20D419C
:101AD000884200F0C080FFE700984FF20F61884213
:101AE0005CD0FFE700984FF21071884200F09080C0
:101AF000FFE700984FF61101884200F09780FFE75A
:101B000000984FF61211884200F0A580FFE7009878
:101B10004FF61321884200F09080FFE700984FF6BF
:101B20005021884260D0FFE700984FF6A1218842FB
:101B300064D0FFE700984FF61431884200F08480AB
:101B4000FFE700984FF6154188423DD0FFE7009827
:101B50004FF61651884245D0FFE700984FF61761BF
:101B6000884240D078E040F6E220C2F2000005F062
:101B70006FF872E040F6E220C2F200008178C2788D
:101B800041EA022140F2B202C2F20002518500791C
:101B900041F28431C2F2000108705EE040F2B2000E
:101BA000C2F20000408A70B9FFE740F6E220C2F2BC
:101BB00000008078002818BF012040F2B201C2F274
:101BC00000018885FFE748E040F6E220C2F200000D
:101BD0008078002818BF012040F2B201C2F2000153
:101BE00048823AE039E038E040F6E220C2F20000F4
:101BF000022106F06DFB05F019FB2EE040F6E22015
:101C0000C2F20000022106F063FB05F02BFB24E08A
:101C100040F6E220C2F200008078002818BF0120C0
:101C200040F2B201C2F20001888116E040F6E220E3
:101C3000C2F2000004F0D2FF0FE041F22731C2F2FD
:101C400000010120087008E041F22731C2F20001D2
:101C50000020087001E0FFE7FFE7FFE79DF80700BD
:101C600001308DF80700E8E602B080BD80B582B093
:101C70008DF807009DF8070050B1FFE740F62A20D5
:101C8000C2F20000C08CB0FA80F04009009009E078
:101C900040F62A20C2F20000C08C002818BF0120A4
:101CA0000090FFE700988DF806009DF8062040F6AA
:101CB0000040C4F201004FF4804102F017FC02B072
:101CC00080BD000080B582B040F60040C4F2010043
:101CD0004FF4804102F0F2FB8DF8060040F62A2016
:101CE000C2F20000C08C40B1FFE79DF80600B0FAD8
:101CF00080F040098DF8070008E09DF806000138E3
:101D0000B0FA80F040098DF80700FFE79DF8070062
:101D100002B080BD80B582B000208DF8070040F68B
:101D20002A20C2F20000408A78B1FFE700F0C8FD27
:101D300040F62A21C2F20001898A884204DDFFE7C9
:101D400001208DF80700FFE70BE040F62A20C2F2E1
:101D50000000808D20B1FFE701208DF80700FFE72C
:101D6000FFE79DF8070068B1FFE741F28C31C2F24E
:101D700000010120087040F67421C2F20001002029
:101D800008703AE041F28C30C2F20000007898B35B
:101D9000FFE740F67420C2F20000007870B9FFE758
:101DA00040F67421C2F200010120087002F0B6FB77
:101DB00040F67821C2F2000108601CE002F0AEFBA0
:101DC00040F67821C2F200010968401A40F62A2143
:101DD000C2F20001C98A88420CD3FFE741F28C317C
:101DE000C2F200010020087040F67421C2F2000126
:101DF0000870FFE7FFE7FFE7FFE741F28C30C2F230
:101E000000000078FFF732FF41F22730C2F20000F5
:101E1000007808BBFFE7FFE7FFF754FF0821002821
:101E200018BF092149F20800C0F6000006F032FB95
:101E30000A2001F073FFFFE740F62A20C2F20000FB
:101E4000408A7F21002818BF322149F21900C0F6CC
:101E5000000006F01FFBFFE702B080BD80B586B032
:101E60000020019005900490039002904FF480416F
:101E700002910121039104900220059040F6004058
:101E8000C4F2010002A902F06DF9019841F28C310F
:101E9000C2F20001087040F67421C2F2000108701D
:101EA000FFF7E4FE06B080BD80B584B0039000204B
:101EB0008DF80B004FF6FF70ADF80800ADF8060086
:101EC000ADF80400ADF8020000F080F90399084372
:101ED00003909DF80C00ADF808009DF80D00ADF8DA
:101EE00006009DF80E00ADF804009DF80F00ADF857
:101EF00002004CF2503000F0F1FA8DF80B009DF822
:101F00000B00002840F08280FFE741F24031C2F22E
:101F100000010020C86101F023FF8DF80B009DF83F
:101F20000B00002871D1FFE742F21001C4F2020158
:101F3000086840F010000860BDF80800FF2810D0C5
:101F4000FFE7BDF808204FF60801C1F6FF710888C9
:101F5000104308804CF2503000F0C0FA8DF80B00AE
:101F6000FFE79DF80B00A8B9FFE7BDF80600FF28C2
:101F700010D0FFE7BDF806204FF60A01C1F6FF7149
:101F80000888104308804CF2503000F0A7FA8DF812
:101F90000B00FFE79DF80B00A8B9FFE7BDF80400B0
:101FA000FF2810D0FFE7BDF804204FF60C01C1F662
:101FB000FF710888104308804CF2503000F08EFA10
:101FC0008DF80B00FFE79DF80B00A8B9FFE7BDF8FF
:101FD0000200FF2810D0FFE7BDF802204FF60E01E7
:101FE000C1F6FF710888104308804CF2503000F0B1
:101FF00075FA8DF80B00FFE742F21001C4F20201FE
:10200000086820F010000860FFE7FFE79DF80B006C
:1020100004B080BD80B584B0039000208DF80B0023
:102020004FF6FF70ADF80800ADF80600ADF80400FB
:10203000ADF8020000F0CAF80146039860EA01001A
:10204000C04303909DF80C00ADF808009DF80D000A
:10205000ADF806009DF80E00ADF804009DF80F00E5
:10206000ADF802004CF2503000F038FA8DF80B0059
:102070009DF80B00002840F08280FFE741F24031DC
:10208000C2F200010020C86101F06AFE8DF80B0069
:102090009DF80B00002871D1FFE742F21001C4F255
:1020A0000201086840F010000860BDF80800FF2831
:1020B00010D0FFE7BDF808204FF60801C1F6FF7108
:1020C0000888104008804CF2503000F007FA8DF874
:1020D0000B00FFE79DF80B00A8B9FFE7BDF806006D
:1020E000FF2810D0FFE7BDF806204FF60A01C1F621
:1020F000FF710888104008804CF2503000F0EEF973
:102100008DF80B00FFE79DF80B00A8B9FFE7BDF8BD
:102110000400FF2810D0FFE7BDF804204FF60C01A3
:10212000C1F6FF710888104008804CF2503000F072
:10213000D5F98DF80B00FFE79DF80B00A8B9FFE774
:10214000BDF80200FF2810D0FFE7BDF802204FF6CF
:102150000E01C1F6FF710888104008804CF2503023
:1021600000F0BCF98DF80B00FFE742F21001C4F259
:102170000201086820F010000860FFE7FFE79DF803
:102180000B0004B080BD000082B0A52001900020AB
:10219000009042F21C00C4F20200006800F002004D
:1021A00000900098022803D1FFE70020019002E090
:1021B000A5200190FFE7019802B0704742F21C0091
:1021C000C4F202000068C0F38200704742F22000AF
:1021D000C4F202000068704780B584B003908DF8A7
:1021E0000B1001208DF80A004CF2503000F076F907
:1021F0008DF80A009DF80A00F8B9FFE741F2403176
:10220000C2F200010020C86142F21001C4F20201D2
:102210000191086840F0100008609DF80B000399D8
:1022200008804CF2503000F059F901998DF80A00FD
:10223000086820F010000860FFE79DF80A0004B06D
:1022400080BD000080B584B08DF80F0000208DF8AF
:102250000E004CF2503000F041F98DF80E009DF860
:102260000E0000283FD1FFE741F24031C2F20001E9
:102270000020C86142F21001C4F202010291086814
:1022800040F020000860086840F0400008604CF210
:10229000503000F023F902998DF80E00086820F004
:1022A000200008609DF80E00E0B9FFE742F210013F
:1022B000C4F202010191086840F0100008609DF826
:1022C0000F004FF60001C1F6FF7108804CF250304C
:1022D00000F004F901998DF80E00086820F0100054
:1022E0000860FFE7FFE79DF80E0004B080BD000026
:1022F00080B582B08DF8070000208DF806004CF202
:10230000503000F0EBF88DF806009DF8060020BB79
:10231000FFE741F24031C2F200010020C86142F201
:102320001001C4F202010091086840F0100008603A
:102330009DF8070040F088004FF60201C1F6FF71DA
:1023400008804CF2503000F0C9F800998DF8060072
:10235000086820F010000860FFE79DF8060002B052
:1023600080BD000081B0009041F24031C2F2000116
:102370000020C86142F21001C4F20201086840F076
:1023800002000860009842F21402C4F202021060D7
:10239000086840F04000086001B0704782B00190CA
:1023A000ADF8021041F24031C2F200010020C861D4
:1023B00042F21001C4F20201086840F00100086016
:1023C000BDF802000199088002B0704781B000207A
:1023D0000090012040B9FFE742F21C00C4F2020065
:1023E0000068C00748B915E042F20C00C4F20200D0
:1023F0000068C00600280DD5FFE741F24031C2F267
:102400000001C86940F00200C861009840F0100067
:102410000090FFE7012040B9FFE742F21C00C4F240
:1024200002000068C00748B915E042F20C00C4F28F
:1024300002000068400700280DD5FFE741F2403157
:10244000C2F20001C86940F00100C861009840F084
:1024500004000090FFE7002040B9FFE742F21C00B3
:10246000C4F202000068C00750B91CE042F20C0040
:10247000C4F20200006840F20111084213D0FFE7E5
:1024800041F24031C2F20001C86940F00400C86165
:10249000FFE742F21C01C4F20201086820F00100CB
:1024A0000860FFE7FFE7FFE7009840F2011188426C
:1024B00009D1FFE742F21C01C4F20201086820F0D2
:1024C0000100086006E0009842F20C01C4F202012B
:1024D0000860FFE7FFE701B07047000080B584B0F7
:1024E000029002F01BF80190FFE742F20C00C4F2E8
:1024F00002000068C007A8B1FFE70298013080B170
:10250000FFE7029840B1FFE702F008F80199401A8E
:102510000299884204D9FFE703208DF80F0065E097
:10252000FFE7E2E7012040B9FFE742F21C00C4F2F6
:1025300002000068C00748B911E042F20C00C4F282
:10254000020000688006002809D5FFE7FFE742F295
:102550000C01C4F2020120200860FFE7FFE7012020
:1025600040B9FFE742F21C00C4F202000068C00755
:1025700090BB08E042F20C00C4F202000068C00602
:10258000002829D4FFE7002040B9FFE742F21C00F1
:10259000C4F202000068C007F0B909E042F20C0082
:1025A000C4F20200006840F20111084214D1FFE7B2
:1025B000012040B9FFE742F21C00C4F202000068AB
:1025C000C00748B90EE042F20C00C4F202000068F5
:1025D0004007002806D5FFE7FFF7F8FE01208DF839
:1025E0000F0003E000208DF80F00FFE79DF80F00BB
:1025F00004B080BD80B582B040F62A20C2F200004F
:1026000000904021019100F00DF8009805F020FEA7
:102610000099019A40F2B200C2F20000FDF7D5FD28
:1026200002B080BD80B582B00190ADF80210019972
:10263000BDF802204FF60000C0F6030004F0A4FC31
:1026400002B080BD80B582B00190ADF80210019952
:10265000BDF802204FF60000C0F6030004F0C0FCF5
:1026600002B080BD80B582B000F03CF9ADF8060044
:1026700040F62A21C2F200010B8CBDF806004A8CFC
:10268000D21A00FB0230498E484348F6AD31C6F6F7
:10269000DB0180FB0101080B00EBD170ADF80400F9
:1026A000BDF90400B0F1FF3F04DCFFE70020ADF806
:1026B0000400FFE7BDF90400B0F5805F05DBFFE72C
:1026C00040F6FF70ADF80400FFE7BDF8040004F029
:1026D000ADFD00F007F9ADF8020041F26830C2F23A
:1026E00000000088322808DBFFE741F26830C2F2C0
:1026F00000000088972807DBFFE749F22230C0F688
:10270000000005F0C7FE12E0BDF8020049F69A117C
:10271000C1F69911A0FB012101EB8102A0EB42025D
:1027200049F24E30C0F6000005F0B4FEFFE741F27A
:102730006830C2F200000088322808DBFFE741F26F
:102740006830C2F200000088972807DBFFE749F2F3
:102750003830C0F6000005F09DFE50E000F0C8F8EB
:10276000ADF8000040F62A20C2F20000008D98B9B2
:10277000FFE7BDF9000000EBC000400046F26761D2
:10278000C6F2666180FB0101880800EBD17000F59C
:10279000A070ADF80000FFE7BDF90000002816D4D6
:1027A000FFE7BDF9000046F26761C6F2666180FB93
:1027B0000112911001EBD27101EB8102A0EB4202F8
:1027C00049F26830C0F6000005F064FE16E0BDF97D
:1027D0000000404246F26761C6F2666180FB01126A
:1027E000911001EBD27101EB8102A0EB420249F2A0
:1027F0008230C0F6000005F04DFEFFE7FFE702B0B3
:1028000080BD000081B040F6E020C2F200000088E8
:10281000ADF80200BDF8020040B9FFE740F64630CF
:10282000C2F200000088ADF80200FFE740F6E021A8
:10283000C2F200010020088040F64631C2F20001D9
:102840000880BDF8020001B07047000080B582B07A
:1028500000F03CF8B0B9FFE740F62A20C2F20000D1
:10286000408B20B9FFE700F04BF8019003E000F047
:102870004DF80190FFE7019840F64E31C2F2000199
:1028800008800DE000F022F8012808D1FFE700F0F1
:1028900023F840F64E31C2F200010880FFE7FFE75F
:1028A00040F64E30C2F20000018848F63860C0F6AB
:1028B000000005F0EFFD0A2001F030FA02B080BD03
:1028C00040F64E30C2F200000088704740F2C5105A
:1028D000C2F200000078704740F62A20C2F20000E1
:1028E000408D704741F26230C2F2000000887047AC
:1028F00041F27430C2F20000B0F9000070470000ED
:1029000040F64C30C2F200000088704780B540F2BB
:102910003800C2F20000008A00F002F880BD00001A
:1029200080B582B0ADF8060040F62A20C2F2000061
:10293000008EBDF8061048434DF6F021C0F20701A5
:10294000A0FB01014BF6C052CFF214420023FDF769
:102950000BFC80B202B080BD80B586B00490002030
:102960008DF80F000190FFE7049890F824000128EB
:1029700004D1FFE702208DF81700ACE00499012094
:1029800081F82400FFE7FFE70498FDF7C5FE8DF806
:102990000F009DF80F00002840F09280FFE7049898
:1029A000806A40F0020020F488500499886240F266
:1029B0000400C2F2000000680090022001F070FEE6
:1029C00001460098B0FBF1F040000190FFE701984C
:1029D00020B1FFE7019801380190F8E70498FDF76E
:1029E0003BFF04980168886840F00800886001F0A7
:1029F00095FD0290FFE704980068806800070028B2
:102A000022D5FFE701F08AFD0299401A0B281AD35C
:102A1000FFE70498006880680007002812D5FFE7E8
:102A20000498806A40F0100020F002000499886247
:102A3000FFE70499002081F82400FFE701208DF8CA
:102A4000170048E0FFE7D6E704980168886840F07F
:102A50000400886001F062FD0290FFE704980068BE
:102A600080684007002822D5FFE701F057FD029952
:102A7000401A0B281AD3FFE70498006880684007C3
:102A8000002812D5FFE70498806A40F0100020F07B
:102A9000020004998862FFE70499002081F824006D
:102AA000FFE701208DF8170015E0FFE7D6E704984F
:102AB000806A40F0010020F0020004998862FFE77C
:102AC000FFE70499002081F82400FFE79DF80F003C
:102AD0008DF81700FFE79DF8170006B080BD0000D5
:102AE00085B00390029100208DF807000090FFE769
:102AF000039890F82400012804D1FFE702208DF804
:102B00001300C3E00399012081F82400FFE7FFE7E9
:102B100002984068062812D8FFE703980068406BC7
:102B2000029A1168526802EB8202053A1F23934011
:102B300098439140084303990968486329E0029843
:102B400040680C2812D8FFE703980068006B029ACF
:102B50001168526802EB8202233A1F239340984384
:102B60009140084303990968086311E003980068DD
:102B7000C06A029A1168526802EB8202413A1F232E
:102B8000934098439140084303990968C862FFE75E
:102B9000FFE7029800680A2812D3FFE7039800684D
:102BA000C06802990A68896802EB42021E3A07234C
:102BB000934098439140084303990968C86010E026
:102BC00003980068006902990A68896802EB42026A
:102BD000072393409843914008430399096808618B
:102BE000FFE702980068102805D0FFE70298006808
:102BF000112840D1FFE70398006842F20041C4F277
:102C0000010188422DD1FFE7039800688068000227
:102C1000002825D4FFE703980168886840F4000085
:102C2000886002980068102819D1FFE740F204007C
:102C3000C2F2000000684DF68361C4F21B31A0FBB4
:102C40000110800C00EB800040000090FFE700982E
:102C500020B1FFE7009801380090F8E7FFE7FFE7B1
:102C600008E00399886A40F02000886201208DF80E
:102C70000700FFE7FFE7FFE70399002081F8240042
:102C8000FFE79DF807008DF81300FFE79DF813009C
:102C900005B0704781B0009001B0704781B00090DE
:102CA00001B0704781B0009001B0704780B58CB022
:102CB0000A9000208DF827000890079006900A9847
:102CC00020B9FFE701208DF82F0014E10A988068F1
:102CD00030B1FFE70A98007D08B1FFE7FFE7FFE7A3
:102CE0000A98806A50B9FFE70A990020C8620A99D9
:102CF00081F824000A9800F003F9FFE70A98FDF72D
:102D00000BFD8DF827000A98806AC006002800F1A4
:102D1000E480FFE79DF82700002840F0DE80FFE711
:102D20000A98806A40F0020020F488500A9988626C
:102D30000A9908684968059143F60041C4F2010107
:102D4000884211D1FFE70A98C069B0F5402F04D13D
:102D5000FFE74FF40020049003E00A98C069049054
:102D6000FFE70498039003E00A98C0690390FFE727
:102D70000598039908430A99097B40EA410107989D
:102D8000084307900A9881680120B1F5807F02907E
:102D900008D0FFE70A9880680138B0FA80F040094F
:102DA0000290FFE702990898CA0740F48071002A50
:102DB00018BF084608900A98007D01281ED1FFE739
:102DC0000A98007B70B9FFE70A9881694EF200000B
:102DD000CFF6FF7000EB41300899084340F40060E3
:102DE00008900AE00A99886A40F0200088620A99EF
:102DF000C86A40F00100C862FFE7FFE70A98006870
:102E0000406820F46940089908430A9909684860B5
:102E10000A98006880684FF2FD71CFF6E1710840B2
:102E2000079908430A99096888600A98816801200F
:102E3000B1F5807F019008D0FFE70A9880680138DB
:102E4000B0FA80F040090190FFE7019800F001001E
:102E5000002818BF4FF48070B0F5807F09D1FFE7DC
:102E60000A9801690020CFF6F07000EB015006903F
:102E7000FFE70A980068C06A20F4700006990843CA
:102E80000A990968C8620A980068806840F6FE617D
:102E9000CFF61F710840079988420CD1FFE70A99C5
:102EA0000020C8620A98806A40F0010020F0020009
:102EB0000A99886210E00A98806A40F0100020F0B9
:102EC00002000A9988620A99C86A40F00100C86243
:102ED00001208DF82700FFE708E00A99886A40F092
:102EE0001000886201208DF82700FFE79DF8270079
:102EF0008DF82F00FFE79DF82F000CB080BD00007B
:102F000080B58EB00D9000200C900B900A90099027
:102F10000D98006842F20041C4F20101884240F07D
:102F20009680FFE7FFE741F21800C4F20200016853
:102F300041F400710160006800F400700890089886
:102F4000FFE7FFE741F21800C4F20200016841F018
:102F500010010160006800F0100007900798FFE77B
:102F6000FFE741F21800C4F20200016841F00401D9
:102F70000160006800F0040006900698FFE7FFE794
:102F800041F21800C4F20200016841F0080101603A
:102F9000006800F0080005900598FFE70320029004
:102FA0000A901F20099041F20000C4F2010009A913
:102FB000039101F0D7F80399C120099040F6000071
:102FC000C4F2010001F0CEF802980399099040F68E
:102FD0000040C4F2010001F0C5F8FFE741F214001F
:102FE000C4F20200016841F001010160006800F0D4
:102FF000010004900498FFE740F69430C2F200000C
:1030000001900821C4F20201016000214160816049
:103010008021C1604FF4807101614FF48061416192
:10302000202181614FF40051C16100F097FD18B17A
:10303000FFE7FEF775FCFFE7FFE70D9840F69431D8
:10304000C2F2000101620D984862FFE7FFE70EB08F
:1030500080BD000080B586B00490039102920020EC
:103060008DF807000498006842F20041C4F20101A3
:10307000884209D0FFE70498006842F60001C4F2D4
:103080000101884209D1FFE742F20440C4F2010085
:10309000006800F47020009002E000200090FFE73C
:1030A0000098002840F0DC80FFE7FFE7049890F8E4
:1030B0002400012804D1FFE702208DF81700D8E092
:1030C0000499012081F82400FFE7FFE70498FDF749
:1030D000C3FB8DF807009DF80700002840F0B8807A
:1030E000FFE70498806A40F4807040F601618843ED
:1030F000049988620498006842F60001C4F2010154
:10310000884209D1FFE742F20440C4F2010000689E
:1031100010F4702F03D018E00020B0B9FFE7049935
:10312000886A20F48010886204980068406840052E
:10313000002809D5FFE70498806A40F4805020F405
:10314000005004998862FFE72CE00499886A40F4F3
:10315000801088620498006842F20041C4F20101C4
:10316000884209D0FFE70498006842F60001C4F2E3
:103170000101884209D1FFE742F20440C4F2010094
:1031800000684005002803D40BE0012048B9FFE7A0
:103190000498806A40F4805020F4005004998862BA
:1031A000FFE7FFE70498806AC004002806D5FFE720
:1031B0000499C86A20F00600C86203E00499002060
:1031C000C862FFE7FFE70499002081F82400FFE7C9
:1031D0000498016A40F29D70C0F60000886204986D
:1031E000016A40F64100C0F60000C8620498016A16
:1031F00040F61500C0F600000863049801686FF0FF
:103200000200086004980168886840F48070886053
:1032100004980168006A4C31039A029B00F018FD83
:1032200004980068806800F46020B0F5602F07D132
:10323000FFE704980168886840F4A000886006E011
:1032400004980168886840F480108860FFE706E011
:10325000FFE70499002081F82400FFE7FFE703E07F
:1032600001208DF80700FFE79DF807008DF8170093
:10327000FFE79DF8170006B080BD000086B00490FF
:1032800003910292FFE704984079012804D1FFE7F7
:1032900002208DF817003EE0049901204871FFE7F5
:1032A000FFE7049902200871049800680068019003
:1032B000029800F0100140F6FE7000FA01F101984A
:1032C0008843019003990868496808430090009872
:1032D000029901F0100100FA01F1019808430190F0
:1032E0000198049909680860029800F01001C02054
:1032F00000FA01F204980168086890430860049994
:1033000001200871FFE7049900204871FFE70020C1
:103310008DF81700FFE79DF8170006B07047000012
:1033200080B582B00090009820B9FFE701208DF8A9
:10333000070016E00098007938B9FFE700990020EF
:103340004871009800F012F8FFE700990220087118
:10335000009900200861009A012111718DF8070081
:10336000FFE79DF8070002B080BD000080B588B07F
:1033700007900798006847F20041C4F200018842B4
:103380002FD1FFE700200690059004900390FFE7FF
:1033900041F21C00C4F20200016841F000510160DA
:1033A000006800F0005002900298FFE7FFE741F24A
:1033B0001800C4F20200016841F0040101600068D5
:1033C00000F0040001900198FFE7302003900320F3
:1033D000049040F60000C4F2010003A900F0C2FE10
:1033E000FFE708B080BD000085B004900391029211
:1033F000019300200090049800680090039830B971
:10340000FFE70298009908440830009005E0029810
:103410000099084414300090FFE701980099086073
:10342000002005B07047000083B001900091FFE7D5
:1034300001984079012804D1FFE702208DF80B00A4
:1034400046E0019901204871FFE7FFE7019902205A
:103450000871009800F01001012000FA01F20198B3
:103460000168086810430860009880B9FFE7019878
:103470000068006800F03C003C2807D1FFE7019895
:103480000168486840F001004860FFE714E00198D7
:103490000068006800F47010009901F010023C21EF
:1034A0009140884207D1FFE701980168486840F0E1
:1034B00002004860FFE7FFE7019901200871FFE77C
:1034C000019900204871FFE700208DF80B00FFE70D
:1034D0009DF80B0003B0704780B5ACB02B902B98D3
:1034E000C06B00682A902B980068006829902A9881
:1034F0002B99096CC8404007002840F17581FFE70F
:103500009DF8A4004007002840F16E81FFE72B984A
:10351000006800688006002807D4FFE72B98016840
:10352000086820F004000860FFE72B9800688121FC
:10353000C4F202018842C0F0A880FFE72B9800681F
:103540000821C4F20201884203D1FFE70420289039
:1035500094E02B9800681C21C4F20201884203D138
:10356000FFE74020279086E02B9800683021C4F2C6
:103570000201884204D1FFE74FF48060269077E093
:103580002B9800684421C4F20201884204D1FFE76D
:103590004FF48040259068E02B9800685821C4F2D1
:1035A0000201884204D1FFE74FF48020249059E0C3
:1035B0002B9800686C21C4F20201884204D1FFE715
:1035C0004FF4800023904AE02B9800688021C4F2D9
:1035D0000201884204D1FFE74FF0806022903BE077
:1035E0002B98006840F20841C4F20201884203D1DE
:1035F000FFE7042021902CE02B98006840F21C414A
:10360000C4F20201884203D1FFE7402020901DE070
:103610002B98006840F23041C4F20201884204D184
:10362000FFE74FF480601F900DE02B98016840F297
:103630004442C4F202024FF48020914208BF4FF48A
:1036400080401F90FFE71F982090FFE7209821906F
:10365000FFE721982290FFE722982390FFE7239825
:103660002490FFE724982590FFE725982690FFE710
:1036700026982790FFE727982890FFE7289840F2A0
:103680000441C4F202010860A5E02B9800680821FB
:10369000C4F20201884203D1FFE704201E9094E0A7
:1036A0002B9800681C21C4F20201884203D1FFE775
:1036B00040201D9086E02B9800683021C4F2020162
:1036C000884204D1FFE74FF480601C9077E02B988C
:1036D00000684421C4F20201884204D1FFE74FF49C
:1036E00080401B9068E02B9800685821C4F20201CA
:1036F000884204D1FFE74FF480201A9059E02B98BC
:1037000000686C21C4F20201884204D1FFE74FF443
:10371000800019904AE02B9800688021C4F20201D1
:10372000884204D1FFE74FF0806018903BE02B986F
:10373000006840F20841C4F20201884203D1FFE769
:10374000042017902CE02B98006840F21C41C4F232
:103750000201884203D1FFE7402016901DE02B981C
:10376000006840F23041C4F20201884204D1FFE710
:103770004FF4806015900DE02B98016840F24442B0
:10378000C4F202024FF48020914208BF4FF48040FF
:103790001590FFE715981690FFE716981790FFE72A
:1037A00017981890FFE718981990FFE719981A9042
:1037B000FFE71A981B90FFE71B981C90FFE71C98E7
:1037C0001D90FFE71D981E90FFE71E980421C4F28C
:1037D00002010860FFE72B98C06A20B1FFE72B9831
:1037E000C16A8847FFE7B7E12A982B99096CC8405E
:1037F0008007002840F17F81FFE79DF8A400800743
:10380000002840F17881FFE72B9800680068800667
:1038100000280BD4FFE72B980168086820F00A0005
:1038200008602B99012081F82100FFE72B980068A0
:103830008121C4F202018842C0F0A880FFE72B98E2
:1038400000680821C4F20201884203D1FFE7022088
:10385000149094E02B9800681C21C4F20201884265
:1038600003D1FFE72020139086E02B9800683021D9
:10387000C4F20201884204D1FFE74FF400701290B5
:1038800077E02B9800684421C4F20201884204D1F9
:10389000FFE74FF40050119068E02B980068582122
:1038A000C4F20201884204D1FFE74FF400301090C7
:1038B00059E02B9800686C21C4F20201884204D1BF
:1038C000FFE74FF400100F904AE02B98006880212A
:1038D000C4F20201884204D1FFE74FF000700E905D
:1038E0003BE02B98006840F20841C4F20201884294
:1038F00003D1FFE702200D902CE02B98006840F2E6
:103900001C41C4F20201884203D1FFE720200C9041
:103910001DE02B98006840F23041C4F20201884259
:1039200004D1FFE74FF400700B900DE02B98016875
:1039300040F24442C4F202024FF40030914208BF08
:103940004FF400500B90FFE70B980C90FFE70C989A
:103950000D90FFE70D980E90FFE70E980F90FFE790
:103960000F981090FFE710981190FFE711981290B0
:10397000FFE712981390FFE713981490FFE714984D
:1039800040F20441C4F202010860A5E02B980068EF
:103990000821C4F20201884203D1FFE702200A9005
:1039A00094E02B9800681C21C4F20201884203D1E4
:1039B000FFE72020099086E02B9800683021C4F2B0
:1039C0000201884204D1FFE74FF40070089077E0CD
:1039D0002B9800684421C4F20201884204D1FFE719
:1039E0004FF40050079068E02B9800685821C4F20B
:1039F0000201884204D1FFE74FF40030069059E0FD
:103A00002B9800686C21C4F20201884204D1FFE7C0
:103A10004FF4001005904AE02B9800688021C4F212
:103A20000201884204D1FFE74FF0007004903BE0B0
:103A30002B98006840F20841C4F20201884203D189
:103A4000FFE7022003902CE02B98006840F21C4115
:103A5000C4F20201884203D1FFE7202002901DE05A
:103A60002B98006840F23041C4F20201884204D130
:103A7000FFE74FF4007001900DE02B98016840F2D1
:103A80004442C4F202024FF40030914208BF4FF4A6
:103A900000500190FFE701980290FFE70298039021
:103AA000FFE703980490FFE704980590FFE7059867
:103AB0000690FFE706980790FFE707980890FFE752
:103AC00008980990FFE709980A90FFE70A980421EF
:103AD000C4F202010860FFE7FFE72B99002081F89C
:103AE0002000FFE72B98806A20B1FFE72B98816ABE
:103AF0008847FFE72FE02A982B99096CC8400007F8
:103B0000002827D5FFE79DF8A4000007002821D54D
:103B1000FFE72B980168086820F00E0008602B98DA
:103B2000C26B016C012000FA01F151602B9988638E
:103B30002B9981F82100FFE72B99002081F82000C4
:103B4000FFE72B98006B20B1FFE72B98016B8847AC
:103B5000FFE7FFE7FFE7FFE72CB080BD83B00190F0
:103B600000200090019820B9FFE701208DF80B009C
:103B70006AE00198006840F20741C4F202018842FD
:103B800018D8FFE7019908684FF6F872CBF6FD7276
:103B900010444CF6CD42CCF6CC42A0FB02026FF0B2
:103BA000030000EA9200086401990020C4F20200B8
:103BB000C86318E0019908684FF6F832CBF6FD7239
:103BC00010444CF6CD42CCF6CC42A0FB02026FF082
:103BD000030000EA92000864019940F20040C4F238
:103BE0000200C863FFE70199022081F821000198D3
:103BF000006800680090009843F6F07188430090D8
:103C000001994868D1F808C0CB680A6940EA0C00FD
:103C1000184310434A6910438A691043C969014334
:103C2000009808430090009801990968086001997C
:103C300000208863019A012182F82110019981F8FE
:103C400020008DF80B00FFE79DF80B0003B07047D4
:103C500080B586B0049003910292019300208DF804
:103C60000300FFE7049890F82000012804D1FFE743
:103C700002208DF817004CE00499012081F8200003
:103C8000FFE7FFE7049890F82100012832D1FFE711
:103C90000499022081F82100049900208863049887
:103CA0000168086820F00100086004980399029AEE
:103CB000019BFDF703F90498C06A38B1FFE7049847
:103CC0000168086840F00E0008600CE00498016884
:103CD000086820F00400086004980168086840F053
:103CE0000A000860FFE704980168086840F00100D6
:103CF000086009E0FFE70499002081F82000FFE751
:103D000002208DF80300FFE79DF803008DF81700EF
:103D1000FFE79DF8170006B080BD000080B584B0B5
:103D2000039000F0FBFB0290039801900198013092
:103D300048B1FFE740F22800C2F200000178019884
:103D400008440190FFE7FFE700F0E8FB0299401A02
:103D50000199884201D2FFE7F6E704B080BD000078
:103D600080B582B0A5208DF8070001208DF80600EF
:103D7000FEF70AFA8DF807004CF25030FEF7AEFB62
:103D80008DF806009DF8060050BBFFE741F2403178
:103D9000C2F200010020C86142F21001C4F2020127
:103DA0000091086840F020000860086840F040007A
:103DB00008604CF25030FEF791FB00998DF8060038
:103DC000086820F0200008609DF8060038B9FFE779
:103DD0009DF80700FEF736FA8DF80600FFE7FFE7CB
:103DE0009DF8060002B080BD80B582B001900199B7
:103DF00007200860FEF7EAF901998860FEF7C4F928
:103E000001990874FEF7DAF90199487402B080BD8F
:103E100080B584B0029001208DF80700FFE741F2E1
:103E20004030C2F20000007E012804D1FFE70220EA
:103E30008DF80F0099E041F24031C2F200010120FB
:103E40000876FFE7FFE702980078C00728B3FFE78E
:103E500002984068012807D1FFE702988068FEF7C2
:103E6000D9F88DF8070006E002988068FEF71CF884
:103E70008DF80700FFE79DF8070068B1FFE7FFE74F
:103E800041F24031C2F2000100200876FFE79DF8C0
:103E900007008DF80F0068E0FFE7029800788007C0
:103EA000002818D5FFE70298007CFEF7CBF98DF8C3
:103EB00007009DF8070068B1FFE7FFE741F24031D6
:103EC000C2F2000100200876FFE79DF807008DF898
:103ED0000F004AE0FFE7029800784007002818D555
:103EE000FFE70298407CFEF703FA8DF807009DF883
:103EF000070068B1FFE7FFE741F24031C2F200017D
:103F000000200876FFE79DF807008DF80F002CE0F1
:103F1000FFE7029800780007002819D5FFE702990B
:103F20004869097EFEF758F98DF807009DF80700EB
:103F300068B1FFE7FFE741F24031C2F20001002023
:103F40000876FFE79DF807008DF80F000DE0FFE70A
:103F5000FFE741F24031C2F2000100200876FFE79E
:103F60009DF807008DF80F00FFE79DF80F0004B0E3
:103F700080BD000042F21001C4F20201086840F066
:103F8000800008600020704780B500F087FB80BD8E
:103F900081B042F21000C4F20200006880050028DF
:103FA0000FD4FFE742F20801C4F2020140F22310ED
:103FB000C4F26750086048F6AB10CCF6EF500860CA
:103FC00003E001208DF8030003E000208DF80300DA
:103FD000FFE79DF8030001B07047000080B588B08E
:103FE000069005910393029201208DF807000020AE
:103FF0008DF806008DF80500FFE741F24030C2F26F
:104000000000007E012804D1FFE702208DF81F0088
:1040100076E041F24031C2F2000101200876FFE76C
:10402000FFE74CF25030FEF759FA8DF807009DF883
:104030000700002857D1FFE70698012804D1FFE7C1
:1040400001208DF805000CE00698022804D1FFE756
:1040500002208DF8050003E004208DF80500FFE73D
:10406000FFE700208DF80600FFE79DF806009DF8A9
:104070000510884236DAFFE705989DF806C000EB88
:104080004C000299039A4FEA0C1E2023A3EB0C1359
:1040900002FA03F321FA0EF119436FF01F0303EB49
:1040A0000C13DA40002B58BF114689B2FEF776F99F
:1040B0004CF25030FEF712FA8DF8070042F2100170
:1040C000C4F20201086820F0010008609DF80700B2
:1040D00008B1FFE706E0FFE79DF8060001308DF824
:1040E0000600C2E7FFE7FFE741F24031C2F20001FC
:1040F00000200876FFE79DF807008DF81F00FFE716
:104100009DF81F0008B080BD81B000208DF803002D
:1041100042F21000C4F202000068000600281CD51C
:10412000FFE742F20401C4F2020140F22310C4F29C
:104130006750086048F6AB10CCF6EF50086042F2CA
:104140001000C4F2020000680006002804D5FFE752
:1041500001208DF80300FFE7FFE79DF8030001B0A1
:104160007047000092B01190109100200F900B90BA
:10417000FFE7109800680F99C840002800F09B8165
:10418000FFE70F99012088400E90109800680E9963
:1041900008400D900D980E99884240F08881FFE705
:1041A000109840680790002851D0FFE70798012831
:1041B0003AD0FFE7079802283FD0FFE70798032887
:1041C0005FD0FFE70798112832D0FFE70798122841
:1041D00038D0FFE707980021C1F21101884236D09C
:1041E000FFE707980021C1F2120188422FD0FFE7B4
:1041F00007980021C1F22101884228D0FFE70798E3
:104200000021C1F22201884221D0FFE70798002156
:10421000C1F2310188421AD0FFE707980021C1F2AC
:104220003201884213D02FE01098C0680B902CE028
:104230001098C06804300B9027E01098C0680830D0
:104240000B9022E01098C0680C300B901DE0109885
:10425000806818B9FFE704200B9011E0109880687F
:10426000012806D1FFE708200B900E9811990861EC
:1042700005E008200B900E9811994861FFE7FFE7D1
:1042800003E000200B9000E0FFE70D98FF2803D823
:10429000FFE71198069003E0119804300690FFE7BD
:1042A00006980A900D98FF2804D8FFE70F98800021
:1042B000059006E00F996FF01F0000EB810005905C
:1042C000FFE7059809900A980068099A0F21914024
:1042D00088430B99914008430A9908601098C07967
:1042E000C006002840F1E280FFE7FFE741F2180036
:1042F000C4F20200016841F001010160006800F0B1
:10430000010008900898FFE70F9820F003000821AB
:10431000C4F2010140580C900F9800F00300810096
:104320000F2000FA01F10C9888430C90119840F688
:104330000001C4F20101884203D1FFE7002004908C
:1043400042E0119840F60041C4F20101884203D1D5
:10435000FFE70120039034E0119841F20001C4F21C
:104360000101884203D1FFE70220029026E0119864
:1043700041F20041C4F20101884203D1FFE703206A
:10438000019018E0119841F60001C4F20101884241
:1043900003D1FFE7042000900AE0119941F60042A2
:1043A000C4F201020620914208BF05200090FFE7F9
:1043B00000980190FFE701980290FFE702980390B0
:1043C000FFE703980490FFE704980F9901F00301B9
:1043D000890000FA01F10C9808430C900C980F9991
:1043E00021F003010822C4F201028850109880795C
:1043F000C00748B1FFE70D9A40F20041C4F2010145
:1044000008681043086008E00D9A40F20041C4F2C9
:104410000101086890430860FFE7109880798007E1
:10442000002809D5FFE70D9A40F20441C4F20101CA
:1044300008681043086008E00D9A40F20441C4F295
:104440000101086890430860FFE710988079C00672
:10445000002809D5FFE70D9A40F20841C4F2010196
:1044600008681043086008E00D9A40F20841C4F261
:104470000101086890430860FFE710988079800682
:10448000002809D5FFE70D9A40F20C41C4F2010162
:1044900008681043086008E00D9A40F20C41C4F22D
:1044A0000101086890430860FFE7FFE7FFE70F9806
:1044B00001300F905DE612B07047000082B00190AD
:1044C000ADF8021001988068BDF80210084204D0CF
:1044D000FFE701208DF8010003E000208DF80100C6
:1044E000FFE79DF8010002B07047000082B0019024
:1044F000ADF802108DF801209DF8010028B1FFE70A
:10450000BDF802000199086105E0BDF80200000451
:1045100001990861FFE702B07047000041F288305E
:10452000C2F200000068704740F22800C2F20000AA
:10453000027841F28831C2F2000108681044086034
:104540007047000080B582B042F20001C4F202015F
:10455000086840F010000860032000F097F8002081
:10456000019000F005F800F03BF8019802B080BD22
:1045700080B582B0009040F20400C2F200000068F2
:1045800040F22801C2F200010A784FF47A71B1FBBF
:10459000F2F1B0FBF1F000F059FF20B1FFE701208C
:1045A0008DF8070018E000980F280DD8FFE7009954
:1045B0004FF0FF30002200F04FF8009840F22C013D
:1045C000C2F20001086003E001208DF8070003E05B
:1045D00000208DF80700FFE79DF8070002B080BDBE
:1045E00083B0FFE741F21800C4F20200016841F015
:1045F00001010160006800F0010002900298FFE7ED
:10460000FFE741F21C00C4F20200016841F0805152
:104610000160006800F0805001900198FFE7FFE71B
:104620000421C4F2010108680090009820F0E060C5
:104630000090009840F00070009000980860FFE73C
:1046400003B0704780B582B08DF807009DF9070070
:1046500003F08AFD02B080BD80B586B08DF81700EA
:10466000049103920020029003F096FD02909DF9C0
:104670001700019002980499039A02F06BF9014621
:10468000019803F091FD06B080BD000080B582B0B6
:104690000190019803F0AAFD02B080BD03F0C4FDB3
:1046A00080B58CB00B9040F60E70C1F210000A90ED
:1046B00040F60A30C0F60C50099040F20670C0F681
:1046C0000810089040F20230C0F20450079040F207
:1046D0000120ADF81A00002005900490039002908C
:1046E00001900B980138014600910F2800F2BF801D
:1046F0000099DFE801F069ACBC61BCBCBC65BCBC26
:10470000BCBCBCBCBC0841F20400C4F2020000689E
:10471000029041F20000C4F202000068C0010028CB
:1047200049D5FFE70298C0F3834107A8405C039096
:104730009DF80A00C007F0B1FFE741F20400C4F29F
:104740000200006800F400310DF11A0040EA514007
:10475000007805909DF80A00C00758B1FFE7059959
:1047600041F20020C0F27A00B0FBF1F00399484317
:104770000490FFE707E0039840F60011C0F23D0106
:1047800048430490FFE741F20400C4F202000068CD
:104790004002002803D5FFE7049801900AE004983E
:1047A00040004AF6AB21CAF6AA21A0FB011040083E
:1047B0000190FFE7FFE75BE000F098FA019057E017
:1047C00000F094FA019053E041F22000C4F202009C
:1047D00000680290029800F44070B0F5807F0AD122
:1047E000FFE79DF808008007002804D5FFE74FF495
:1047F000004001902AE0029800F44070B0F5007F7C
:104800000DD1FFE741F22400C4F2020000688007E6
:10481000002804D5FFE749F64040019015E00298D2
:1048200000F44070B0F5407F0DD1FFE741F2000089
:10483000C4F2020000688003002804D5FFE74FF2AD
:104840002440019000E0FFE7FFE7FFE710E000F001
:104850003BFA41F20401C4F20201096801F440424A
:10486000022101EB5231B0FBF1F0019000E0FFE7D3
:1048700001980CB080BD000080B586B00490002087
:104880000390029004980078C007002800F0AC80E4
:10489000FFE700208DF8070041F21C00C4F202007F
:1048A0000068C000002813D4FFE7FFE741F21C00B6
:1048B000C4F20200016841F080510160006800F01C
:1048C000805000900098FFE701208DF80700FFE777
:1048D00047F20000C4F200000068C005002822D49E
:1048E000FFE747F20001C4F20001086840F480705D
:1048F0000860FFF713FE0390FFE747F20000C4F2E1
:1049000000000068C00500280CD4FFE7FFF706FE92
:104910000399401A652804D3FFE703208DF8170098
:104920008AE0EAE7FFE741F22000C4F202000068F3
:1049300000F4407002900298E0B3FFE702980499F7
:10494000496801F44071884234D0FFE741F2200108
:10495000C4F20201086820F44070029040F2404224
:10496000C4F242220120106000201060029808600A
:104970009DF80800C007E0B1FFE7FFF7CFFD039007
:10498000FFE741F22000C4F202000068800700281F
:104990000ED4FFE7FFF7C2FD0399401A41F28931B7
:1049A000884204D3FFE703208DF8170044E0E8E7CE
:1049B000FFE7FFE741F22001C4F20201086820F49A
:1049C0004070049A5268104308609DF8070001285F
:1049D00009D1FFE741F21C01C4F20201086820F08E
:1049E00080500860FFE7FFE7049800788007002800
:1049F0000CD5FFE741F20401C4F20201086820F47B
:104A00004040049A926810430860FFE704980078D9
:104A1000C00600280CD5FFE741F20401C4F20201F0
:104A2000086820F48000049A526910430860FFE788
:104A300000208DF81700FFE79DF8170006B080BD35
:104A400080B584B002900191029820B9FFE701205F
:104A50008DF80F001BE1019842F20001C4F202013F
:104A6000096801F00701884216D9FFE742F2000009
:104A7000C4F20200016821F00701019A11430160AC
:104A8000006800F007000199884204D0FFE7012088
:104A90008DF80F00FBE0FFE7029800788007002800
:104AA0002AD5FFE7029800784007002809D5FFE7DC
:104AB00041F20401C4F20201086840F4E0600860B9
:104AC000FFE7029800780007002809D5FFE741F2C8
:104AD0000401C4F20201086840F460500860FFE776
:104AE00041F20401C4F20201086820F0F000029AC9
:104AF000926810430860FFE702980078C00700281A
:104B000060D0FFE70298406801280ED1FFE741F22C
:104B10000000C4F2020000688003002804D4FFE70C
:104B200001208DF80F00B2E021E0029840680228D1
:104B30000ED1FFE741F20000C4F2020000688001DC
:104B4000002804D4FFE701208DF80F009FE00DE05E
:104B500041F20000C4F2020000688007002804D47B
:104B6000FFE701208DF80F0091E0FFE7FFE741F23A
:104B70000401C4F20201086820F00300029A52689E
:104B800010430860FFF7CAFC0090FFE741F2040001
:104B9000C4F20200006800F00C0002994968B0EB12
:104BA000810F0ED0FFE7FFF7B9FC0099401A41F2E0
:104BB0008931884204D3FFE703208DF80F0066E0B7
:104BC000E4E7FFE7019842F20001C4F2020109683C
:104BD00001F00701884216D2FFE742F20000C4F25A
:104BE0000200016821F00701019A11430160006889
:104BF00000F007000199884204D0FFE701208DF8FA
:104C00000F0044E0FFE702980078400700280CD529
:104C1000FFE741F20401C4F20201086820F4E060F9
:104C2000029AD26810430860FFE7029800780007F4
:104C300000280DD5FFE741F20401C4F20201086823
:104C400020F46050029A126940EAC2000860FFE74F
:104C500000F04CF841F20401C4F202010968C9B243
:104C60000A0948F6D051C0F60001895CC84040F2FC
:104C70000401C2F20001086040F22C00C2F2000000
:104C80000068FFF775FC00208DF80F00FFE79DF826
:104C90000F0004B080BD000040F20400C2F200002A
:104CA0000068704780B5FFF7F7FF41F20401C4F2D6
:104CB00002010968C1F3022248F6E051C0F6000182
:104CC000895CC84080BD000080B5FFF7E5FF41F278
:104CD0000401C4F202010968C1F3C22248F6E0519E
:104CE000C0F60001895CC84080BD00008BB040F672
:104CF0000E70C1F210000A9040F60A30C0F60C5057
:104D0000099040F20670C0F60810089040F2023098
:104D1000C0F20450079040F20120ADF81A000020C4
:104D20000590049003900290019041F20400C4F2B7
:104D3000020000680590059800F00C000146009103
:104D4000E0B3FFE70098042804D0FFE700980828A4
:104D500006D034E041F20020C0F27A00019034E045
:104D60000598C0F3834107A8405C02909DF81600A7
:104D7000C007C0B1FFE741F20400C4F202000068BE
:104D800000F400310DF11A0040EA5140007804901F
:104D9000029841F20021C0F27A0148430499B0FB25
:104DA000F1F0039007E0029840F60011C0F23D01D7
:104DB00048430390FFE70398019006E0FFE741F2C4
:104DC0000020C0F27A000190FFE701980BB0704715
:104DD00080B586B00490049820B9FFE701208DF8D3
:104DE00017002EE304980078C007002800F0AE807A
:104DF000FFE741F20400C4F20200006800F00C007A
:104E0000042813D0FFE741F20400C4F20200006856
:104E100000F00C0008281BD1FFE741F20400C4F2A7
:104E200002000068C003002812D5FFE741F200002D
:104E3000C4F2020000688003002808D5FFE7049848
:104E4000406820B9FFE701208DF81700F9E27CE007
:104E5000FFE704984068B0F5803F09D1FFE741F2D1
:104E60000001C4F20201086840F48030086032E0BA
:104E70000498406868B9FFE741F20001C4F20201FA
:104E8000086820F480300860086820F480200860FA
:104E900020E004984068B0F5A02F0DD1FFE741F263
:104EA0000001C4F20201086840F48020086008682C
:104EB00040F4803008600CE041F20001C4F20201CD
:104EC000086820F480300860086820F480200860BA
:104ED000FFE7FFE7FFE7FFE704984068D0B1FFE78F
:104EE000FFF71CFB0390FFE741F20000C4F2020051
:104EF0000068800300280CD4FFE7FFF70FFB03993D
:104F0000401A652804D3FFE703208DF8170098E2C4
:104F1000EAE719E0FFF702FB0390FFE741F2000028
:104F2000C4F202000068800300280CD5FFE7FFF7F9
:104F3000F5FA0399401A652804D3FFE703208DF89A
:104F400017007EE2EAE7FFE7FFE7FFE70498007853
:104F50008007002840F18D80FFE741F20400C4F291
:104F60000200006810F00C0F13D0FFE741F20400BC
:104F7000C4F20200006800F00C00082829D1FFE705
:104F800041F20400C4F202000068C003002820D4EB
:104F9000FFE741F20000C4F2020000688007002829
:104FA00009D5FFE704980069012804D0FFE7012034
:104FB0008DF8170045E241F20001C4F202010868D1
:104FC00020F0F800049A526940EAC2000860FFE746
:104FD0004EE00498006958B3FFE70021C4F2422173
:104FE00001200860FFF79AFA0390FFE741F2000002
:104FF000C4F202000068800700280CD4FFE7FFF726
:105000008DFA0399401A032804D3FFE703208DF893
:10501000170016E2EAE741F20001C4F20201086853
:1050200020F0F800049A526940EAC20008601EE0CD
:105030000021C4F2422100200860FFF76FFA0390BC
:10504000FFE741F20000C4F2020000688007002878
:105050000CD5FFE7FFF762FA0399401A032804D33F
:10506000FFE703208DF81700EBE1EAE7FFE7FFE732
:10507000FFE7049800780007002848D5FFE7049868
:10508000806918B3FFE740F28041C4F24221012059
:105090000860FFF743FA0390FFE741F22400C4F2EF
:1050A00002000068800700280CD4FFE7FFF736FAFB
:1050B0000399401A032804D3FFE703208DF8170053
:1050C000BFE1EAE7012001F04DFE1FE040F2804120
:1050D000C4F2422100200860FFF720FA0390FFE7A6
:1050E00041F22400C4F202000068800700280CD5B9
:1050F000FFE7FFF713FA0399401A032804D3FFE7E9
:1051000003208DF817009CE1EAE7FFE7FFE704982A
:1051100000784007002840F1D880FFE700208DF894
:10512000070041F21C00C4F202000068C000002821
:1051300013D4FFE7FFE741F21C00C4F2020001684C
:1051400041F080510160006800F0805000900098AC
:10515000FFE701208DF80700FFE747F20000C4F2E7
:1051600000000068C005002822D4FFE747F20001D4
:10517000C4F20001086840F480700860FFF7CEF9BF
:105180000390FFE747F20000C4F200000068C0058A
:1051900000280CD4FFE7FFF7C1F90399401A6528EE
:1051A00004D3FFE703208DF817004AE1EAE7FFE7A1
:1051B000FFE70498C068012809D1FFE741F2200108
:1051C000C4F20201086840F00100086031E0049870
:1051D000C06868B9FFE741F22001C4F20201086823
:1051E00020F001000860086820F0040008601FE05B
:1051F0000498C06805280DD1FFE741F22001C4F2F0
:105200000201086840F004000860086840F00100EE
:1052100008600CE041F22001C4F20201086820F0AD
:1052200001000860086820F004000860FFE7FFE75D
:10523000FFE7FFE70498C068E0B1FFE7FFF76EF90A
:105240000390FFE741F22000C4F2020000688007EB
:1052500000280ED4FFE7FFF761F90399401A41F2E5
:105260008931884204D3FFE703208DF81700E8E076
:10527000E8E71BE0FFF752F90390FFE741F2200057
:10528000C4F202000068800700280ED5FFE7FFF790
:1052900045F90399401A41F28931884204D3FFE766
:1052A00003208DF81700CCE0E8E7FFE79DF8070042
:1052B000012809D1FFE741F21C01C4F2020108688C
:1052C00020F080500860FFE7FFE70498C0690028DD
:1052D00000F0B380FFE741F20400C4F2020000686E
:1052E00000F00C00082800F08280FFE70498C069F5
:1052F00002285CD1FFE76021C4F24221002008604F
:10530000FFF70CF90390FFE741F20000C4F202003E
:105310000068800100280CD5FFE7FFF7FFF803992C
:10532000401A032804D3FFE703208DF8170088E014
:10533000EAE70498006AB0F5803F0CD1FFE741F23C
:105340000401C4F20201086820F40030049A926853
:1053500010430860FFE741F20401C4F2020108684B
:1053600020F47410049B1A6A5B6A1A4310430860A5
:105370006021C4F2422101200860FFF7CFF80390BA
:10538000FFE741F20000C4F202000068800100283B
:105390000CD4FFE7FFF7C2F80399401A032804D39F
:1053A000FFE703208DF817004BE0EAE71EE06021DD
:1053B000C4F2422100200860FFF7B0F80390FFE735
:1053C00041F20000C4F202000068800100280CD500
:1053D000FFE7FFF7A3F80399401A032804D3FFE778
:1053E00003208DF817002CE0EAE7FFE724E004989B
:1053F000C069012804D1FFE701208DF8170020E0E3
:1054000041F20400C4F2020000680290029800F425
:1054100080300499096A884208D1FFE7029800F4B5
:1054200070100499496A884204D0FFE701208DF882
:10543000170006E0FFE7FFE7FFE700208DF8170001
:10544000FFE79DF8170006B080BD000080B582B070
:105450000190019802F01AF802B080BD85B0039067
:105460000291FFE7039890F83C00012804D1FFE780
:1054700002208DF813006DE00399012081F83C00B3
:10548000FFE7FFE70399022081F83D0003980068D9
:10549000406801900398006880680090019820F0AF
:1054A00070000190029801680198084301900198EA
:1054B0000399096848600398006842F60041C4F205
:1054C000010188422AD0FFE70398006843F20041B7
:1054D000C4F20101884221D0FFE703980068B0F1CF
:1054E000804F1BD0FFE70398006840F20041C4F2F0
:1054F0000001884212D0FFE70398006840F60001DF
:10550000C4F20001884209D0FFE70398006840F622
:105510000041C4F2000188420ED1FFE7009820F05C
:10552000800000900298416800980843009000981D
:10553000039909688860FFE70399012081F83D001D
:10554000FFE70399002081F83C00FFE700208DF879
:105550001300FFE79DF8130005B0704780B582B0D7
:105560000090009820B9FFE701208DF807003FE088
:10557000009890F83D0040B9FFE70099002081F8BD
:105580003C00009800F038F8FFE70099022081F80D
:105590003D00009951F8040B02F01AF8009901201F
:1055A00081F84600FFE70099012081F83E0000994C
:1055B00081F83F00009981F84000009981F841008E
:1055C000FFE7FFE70099012081F84200009981F888
:1055D0004300009981F84400009981F84500FFE7F5
:1055E0000099012081F83D0000208DF80700FFE7B9
:1055F0009DF8070002B080BD82B00190019800685C
:10560000B0F1804F10D1FFE7FFE741F21C00C4F278
:105610000200016841F001010160006800F0010032
:1056200000900098FFE7FFE702B0704780B586B0B2
:1056300004900391FFE7049890F83C00012804D1FE
:10564000FFE702208DF81700A7E00499012081F8F8
:105650003C00FFE7FFE70499022081F83D00049831
:10566000006880680290029820F07700029002980B
:1056700020F47F400290029804990968886003989A
:1056800000680190002872D0FFE7019810286ED0C2
:10569000FFE7019820286AD0FFE70198302866D0FC
:1056A000FFE70198402855D0FFE70198502837D0F0
:1056B000FFE70198602840D0FFE7019870280BD0E1
:1056C000FFE70198B0F5805F05D0FFE70198B0F5DE
:1056D000005F16D052E052E004980068039B5A68BD
:1056E0009968DB6802F030F80498006880680290DE
:1056F000029840F077000290029804990968886047
:105700003DE004980068039B5A689968DB6802F0E2
:105710001BF804980168886840F4804088602EE097
:1057200004980068039A5168D26802F001FA04985C
:105730000068502102F022F821E004980068039AE2
:105740005168D26802F01CFA04980068602102F0E7
:1057500015F814E004980068039A5168D26802F0C2
:10576000E7F904980068402102F008F807E004987F
:1057700000680399096802F001F800E0FFE7049966
:10578000012081F83D00FFE70499002081F83C00EA
:10579000FFE700208DF81700FFE79DF8170006B01F
:1057A00080BD000080B588B007900020069005906D
:1057B0000490039007980068B0F1804F32D1FFE762
:1057C000FFE741F21800C4F20200016841F008014D
:1057D0000160006800F0080002900298FFE74FF4B3
:1057E0007060039002200490069040F60040C4F2DE
:1057F000010003A9FEF7B6FCFFE70421C4F2010192
:1058000008680190019820F440700190019840F0E0
:10581000E0600190019840F40070019001980860E8
:10582000FFE7FFE708B080BD80B586B00490039124
:105830000292FFE7049890F83C00012804D1FFE7AA
:1058400002208DF8170085E00499012081F83C00C2
:10585000FFE7FFE7029801900C2800F270800199A1
:10586000DFE801F0076D6D6D206D6D6D3A6D6D6D4A
:10587000530004980068039901F096FF04980168AA
:10588000886940F00800886104980168886920F000
:1058900004008861039802690498016888691043CC
:1058A00088614DE004980068039901F0F5FF0498C1
:1058B0000168886940F4006088610498016888691B
:1058C00020F48060886103980269049801688869FF
:1058D00040EA0220886133E004980068039902F0EE
:1058E00057F804980168C86940F00800C861049836
:1058F0000168C86920F00400C8610398026904982F
:105900000168C8691043C8611AE0049800680399E7
:1059100002F0BAF804980168C86940F40060C861F0
:1059200004980168C86920F48060C861039802691E
:1059300004980168C86940EA0220C86100E0FFE7F6
:10594000FFE70499002081F83C00FFE700208DF874
:105950001700FFE79DF8170006B080BD80B582B044
:105960000090009820B9FFE701208DF807003FE084
:10597000009890F83D0040B9FFE70099002081F8B9
:105980003C00009800F038F8FFE70099022081F809
:105990003D00009951F8040B01F01AFE0099012016
:1059A00081F84600FFE70099012081F83E00009948
:1059B00081F83F00009981F84000009981F841008A
:1059C000FFE7FFE70099012081F84200009981F884
:1059D0004300009981F84400009981F84500FFE7F1
:1059E0000099012081F83D0000208DF80700FFE7B5
:1059F0009DF8070002B080BD81B0009001B07047F3
:105A000080B58CB00A900991099828B9FFE70A98E7
:105A100090F83E0007901CE00998042805D1FFE7A4
:105A20000A9890F83F00069010E00998082805D1E0
:105A3000FFE70A9890F84000059004E00A9890F873
:105A400041000590FFE705980690FFE7069807904C
:105A5000FFE70798012804D0FFE701208DF82F0009
:105A60009FE0099828B9FFE70A99022081F83E00D3
:105A70001EE00998042806D1FFE70A99022081F860
:105A80003F00049012E00998082806D1FFE70A9920
:105A9000022081F84000039005E00A99022081F875
:105AA00041000390FFE703980490FFE70498FFE7A5
:105AB0000A98006809990122019201F029FE0198D3
:105AC0000A99096842F60042C4F20102914202902A
:105AD0000CD0FFE70A9800684CF60041CBF6FE7147
