:020000040800F2
:10000000580E002045010008252C0008FD2B000893
:10001000212C0008610400082932000800000000BB
:10002000000000000000000000000000452F000854
:100030007505000800000000292C0008552F000855
:100040005F0100085F0100085F0100085F01000810
:100050005F0100085F0100085F0100085F01000800
:100060005F0100085F0100085F01000869050008E2
:100070005F0100085F0100085F0100085F010008E0
:100080005F0100085F0100085F0100085F010008D0
:100090005F0100085F0100085F0100089508000883
:1000A0005F0100085F0100085F0100085F010008B0
:1000B0005F0100085F0100085F0100085F010008A0
:1000C0005F0100085F0100085F0100085F01000890
:1000D0005F0100085F010008253200085F01000889
:1000E0005F0100085F0100085F0100085F01000870
:1000F0005F0100085F0100085F0100085F01000860
:100100005F0100085F0100085F0100085F0100084F
:100110005F0100085F0100085F0100085F0100083F
:100120005F0100085F0100085F0100085F0100082F
:10013000DFF80CD000F04EF800480047813200088C
:10014000580E00200648804706480047FEE7FEE7B5
:10015000FEE7FEE7FEE7FEE7FEE7FEE7FEE7FEE777
:100160008D2F00083101000840EA01039B0703D0EE
:1001700009E008C9121F08C0042AFAD203E011F8E6
:10018000013B00F8013B521EF9D2704730B50446DE
:100190000020034600E05B1C934203D2E05CCD5C90
:1001A000401BF8D030BD30B50B4601460020202260
:1001B000012409E021FA02F59D4205D303FA02F574
:1001C000491B04FA02F52844151EA2F10102F1DCD4
:1001D00030BD00001CB50948009009480190054653
:1001E000009C06E0E06840F0010394E807009847AF
:1001F0001034AC42F6D3FFF79FFF00003C380008F4
:100200005C380008B0B5044600688168C90709D0A9
:10021000816821F00101816001F0B8F921688968E5
:10022000C90701D10020B0BD054602E08068C007C3
:10023000F8D001F0ABF9411B20680329F6D381689F
:10024000C907F3D0A06A40F01000A062E06A40F055
:100250000100E0620120B0BDB0B582B004460020CC
:10026000019021688A68D2074BD1886840F001006C
:10027000886040F20C00C2F2000000684DF6836115
:10028000C4F21B31A0FB0101880C01900198A0B1C0
:10029000019801380190019878B1019801380190D6
:1002A000019850B1019801380190019828B1019846
:1002B0000138019001980028EAD101F067F921681E
:1002C0008968C9071CD1054603E000BF8068C007E4
:1002D00016D101F05BF9411B20680329F6D3816830
:1002E000C907F3D1A06A40F01000A062E06A40F0B4
:1002F0000100E062002084F82400012002B0B0BDBB
:10030000002002B0B0BD000070B53C25C4F200056D
:1003100000F01EFC40F2DC060446C2F2000618B3F0
:100320003078012808D101F031F97168401A642849
:1003300002D240F2B6300AE00020307004EB8410A4
:1003400046F2676148434FF4967101EB9040286094
:10035000686014A003F0B6F840F2C600C2F20000D4
:10036000007B90B114A014E00120307001F00EF970
:10037000706000202860686015A003F0A3F840F2C8
:10038000C600C2F20000007B002843F62400C0F63D
:10039000000003F097F813A02146BDE8704003F079
:1003A00091B800BF50756D7031537461742E7069CF
:1003B000633D39FFFFFF00006368696D6E65795327
:1003C00077697463682E76616C3D31FFFFFF000032
:1003D00050756D7031537461742E7069633D38FFD0
:1003E000FFFF000070756D70312E76616C3D2564E5
:1003F000FFFFFF0010B500F0B1FB044600280146E6
:1004000009A20EA018BF40F2B63108BF1046342230
:10041000C4F200021160516003F054F80CA02146B0
:10042000BDE8104003F04EB850756D7032537461E2
:10043000742E7069633D38FFFFFF000050756D70CA
:1004400032537461742E7069633D39FFFFFF000001
:1004500070756D70322E76616C3D2564FFFFFF0074
:10046000FEE700002DE9F04F81B040F65C10C2F2CB
:100470000000006840F27008C2F200084068D8F836
:100480001C1040F21202C2F20002525CC0F11E00C7
:1004900088F83620C2B28A42BCBF1E200022401A11
:1004A0000106C8F81C205BD040F6E40508F13607C9
:1004B000C6B208F10204C2F200054FF001094FF282
:1004C0000E5A4FF20C3B05E06888A8F82A0000BFDE
:1004D000013E45D017F8013B204629461E2202F076
:1004E00057FD0028F4D0288888F8339000BA000C13
:1004F0005045A8F800002DD05845E5D04FF20A111C
:100500008842E5D168886968A8F820004FEA314040
:100510002989C8F82200A8F82810A87A297BEA7A45
:1005200088F82C0042EA4100697B88F83200687C38
:10053000A8F83410A97CC0002A7C40EA0110E97BAD
:1005400040EA8200AA7B40EA4100104388F82D006F
:10055000BEE700BFD5F80200C8F82E00B8E700BF1C
:1005600001B0BDE8F08F000040F61810C2F20000A4
:1005700000F074BC7047000010B543F2AF70C0F6D5
:10058000000002F09FFF642000F04AFE40F2C40425
:10059000C2F20004618843F2BD70C0F6000002F0B0
:1005A00091FF0A2000F03CFEA18843F2DC70C0F607
:1005B000000002F087FF0A2000F032FEE18843F2DB
:1005C000CC70C0F6000002F07DFF0A2000F028FE8B
:1005D000218943F2EB70C0F6000002F073FF0A209D
:1005E00000F01EFE618943F2FB70C0F6000002F0CD
:1005F00069FF0A2000F014FE43F22F70C0F60000DD
:1006000002F060FF0A2000F00BFE43F21E70C0F6FD
:10061000000002F057FF0A2000F002FE43F2407093
:10062000C0F6000002F04EFF0A2000F0F9FDA1899B
:1006300043F60C00C0F6000002F044FF0A2000F070
:10064000EFFDA17B43F29C7043F25172C0F60000B3
:10065000C0F60002002908BF104602F033FF0A204E
:1006600000F0DEFDE07B43F2E661C00743F272700A
:10067000C0F60000C0F6000108BF084602F022FFE5
:100680000A2000F0CDFDE07B43F2F461800743F2E5
:100690008070C0F60000C0F6000158BF084602F0A6
:1006A00011FF0A2000F0BCFDE07B43F2027140071D
:1006B00043F28E70C0F60000C0F6000158BF084635
:1006C00002F000FF0A2000F0ABFDE07B43F2107166
:1006D000000712A0C0F6000158BF084602F0F2FE63
:1006E0000A2000F09DFDE07B10A1C00613A058BFBA
:1006F000084602F0E7FE207D14A1C00719A008BF3C
:10070000084602F0DFFE207D1CA1800721A058BF13
:100710000846BDE8104002F0D5BE00BF6F757434C6
:100720002E76616C3D31FFFFFF0000006F75743560
:100730002E76616C3D30FFFFFF0000006F75743551
:100740002E76616C3D31FFFFFF00000070756D700B
:10075000456E61626C65312E76616C3D30FFFFFF46
:100760000000000070756D70456E61626C65312E21
:1007700076616C3D31FFFFFF0000000070756D7009
:10078000456E61626C65322E76616C3D30FFFFFF15
:100790000000000070756D70456E61626C65322EF0
:1007A00076616C3D31FFFFFF0000000010B543F2A1
:1007B0006470C0F6000002F085FE4FF4FA7000F09D
:1007C0002FFD40F2C404C2F20004618811A002F0BF
:1007D00079FE0A2000F024FDE18815A002F072FEE7
:1007E0000A2000F01DFDA07B19A1002819A017A266
:1007F00008BF114602F066FE207818B91BA002F06F
:1008000061FE2078012818BF10BD1DA0BDE8104072
:1008100002F058BE737461727456616C75655368EA
:100820006F772E7478743D22256422FFFFFF00004D
:1008300066756C6C56616C756553686F772E74784D
:10084000743D22256422FFFFFF0000004D5400008C
:100850004154000076616C756553746175732E7434
:1008600078743D22257322FFFFFF00007669732014
:100870007465737449636F2C30FFFFFF0000000044
:10088000766973207465737449636F2C31FFFFFFC1
:100890000000000040F21440C4F201000168890623
:1008A00058BF70472021016040F26000C2F2000092
:1008B000418801314180704740F63021C2F2000189
:1008C0000022CA6142F21001C4F202010A6842F039
:1008D00002020A604860086840F040000860704703
:1008E00070B542F20C060446C4F2020600F04EFE59
:1008F0003168C9071CD13068800644BF20203060B1
:100900003068C00607D43069C00704D1306840079A
:100910005CBF002070BD3068C00640F63020C2F2D7
:10092000000021D400213268520725D42AE000BFFC
:10093000C4B10546601C10D13068C007DBD03068F8
:10094000C0071CBF30685FEAC070D4D03068C007F1
:10095000F2D1D0E73068C007CDD000F017FE401BC1
:10096000A042F7D9032070BDC16941F00201C16105
:1009700010213268520705D5C26941F0040142F0E6
:100980000102C2613269D20702D10120316070BD1B
:10099000C26942F00402C261306920F00100306196
:1009A0000120316070BD000010B540F2C400C2F2F9
:1009B0000000841C2046162100F00AF840F2900046
:1009C000C2F2000021461622BDE81040FFF7CCBB62
:1009D000002908BF704710B50022C0F601020429A3
:1009E00001F0030C02D2002116E000BF21F0030E3B
:1009F000A0F10803002100BF32F8084B043123F8AE
:100A0000084F32F8064C8E455C8032F8044C9C80CE
:100A100032F8024CDC80EFD1BCF1000F0ED013880D
:100A2000BCF1010F20F8113008D0538800EB4100D1
:100A30004380BCF1020F1CBF91888180BDE810404B
:100A4000704700000A4601460020C0F6010002F08F
:100A500047B9000040F27000C2F200000088704701
:100A6000F0B581B000F068F8044600F08FFD40F268
:100A70006807C2F200074CB17968401A41F2873129
:100A8000884213D800F05EF8788015E041F2597181
:100A9000CDF2B711A0FB0112510B42F2107201FB13
:100AA0001200788000F072FD786005E0002002F00E
:100AB0004BFA15A002F006FD40F2C603C2F2000395
:100AC000987C79880022C5074FF000040DD01D885E
:100AD000A9420AD9B3F804C06424614505D24E1B6B
:100AE0006643ACEB050596FBF5F45B883C709BB266
:100AF000994288BF012202EA500208A07A7001B030
:100B0000BDE8F04002F0DEBC766973207465737452
:100B100049636F2C30FFFFFF000000006D616656D7
:100B2000616C756553686F772E7478743D22256407
:100B300022FFFFFF0000000040F2C400C2F20000EC
:100B40000078704740F2C400C2F20000808970470C
:100B500040F26800C2F200000078704740F268007E
:100B6000C2F200004078002818BF642070470000DF
:100B700070B582B004460020019094F8240001284A
:100B800002D1022002B070BD012084F8240020466A
:100B9000FFF738FB20B1002184F8241002B070BDAB
:100BA0000646A06A41F2021188430230A06240F278
:100BB0000C00C2F200000568022000F0A3FDB5FBA6
:100BC000F0F0400001900198A8B100BF01980138F1
:100BD0000190019878B1019801380190019850B1C5
:100BE000019801380190019828B1019801380190CD
:100BF00001980028EAD12046FFF72EFB2068816883
:100C000041F00801816000F0C1FC21688A68120788
:100C10000ED4886840F00400886000F0B7FC2168BA
:100C20008968490714D401216FF00302304621E09E
:100C3000054602E088680007EBD500F0A7FC401BE2
:100C400021680B28F6D388680007F3D50EE000BFB3
:100C5000054602E080684007E5D500F097FC411B9F
:100C600020680B29F6D381684907F3D501201021AC
:100C70006FF01202A36A1A401143A162002184F8A6
:100C8000241002B070BD0000002804BF012070478E
:100C9000B0B50446806A28B121688868C0070CD1C5
:100CA00015E000BF0020E06284F82400204600F038
:100CB000A1F821688868C00709D0886820F0010081
:100CC000886000F063FC21688A68D20730D1A06A8E
:100CD000C00644D4A06A41F2021290430230A062DE
:100CE000E36981F0804080F49E3083F44022104319
:100CF000D4E9010208BF4FF4002343EA000C531E5D
:100D0000B3FA83F35D091346B2F5807F18BF2B0257
:100D1000207D257B01284CEA45002CD135B3A56AFE
:100D200045F02005A562E56A45F00105E56222E08F
:100D3000054602E08868C007C9D000F027FC401BC8
:100D400021680328F6D38868C007F3D0A06A40F072
:100D50001000A062E06A40F00100E062A06AA06AB0
:100D600040F01000A0620120B0BD00BFA56903EBF8
:100D70004533A3F5C0534D68B2F5807F25F469452E
:100D800043EA05034B608B684FF2FD75CFF6E175C2
:100D900003EA050343EA00038B6001D0012A07D16F
:100DA00022690023CFF6F07303EB025201E000BF8B
:100DB0000022CB6A23F470031A43CA62896840F6A2
:100DC000FE62CFF61F721140814207D10020E0621F
:100DD000A16A012262F30101A162B0BDA06A40F0E4
:100DE000100020F00200A062E06A40F00100E06222
:100DF0000120B0BD80B586B0014641F20000C4F2CA
:100E00000100096800F5A05291424FF00001CDE9C0
:100E10000411CDE9021101D006B080BD41F21801E4
:100E2000C4F202010A6842F400720A600A6802F41D
:100E300000720192019A0A6842F010020A60096881
:100E400001F0100101910199072102910321039101
:100E500002A900F0A7FA06B080BD000010B5D0E9E5
:100E60000FE3D0F800C0DEF80020DCF80010DA4014
:100E700054072DD511F004042AD0DCF8001089069F
:100E800005D4DCF8001021F00401CCF80010042295
:100E9000C4F2020202F17C018C4569D940F208419A
:100EA000C4F202018C4500F0B78040F21C41C4F24C
:100EB00002018C4500F0A88040F23041C4F20201EA
:100EC0008C4540F0AD804FF48061C2F80014F7E02B
:100ED000940731D511F002042ED0DCF800108906F9
:100EE00008D4DCF8001021F00A01CCF80010012130
:100EF00080F821100422C4F2020202F17C018C4528
:100F00004CD940F20841C4F202018C4500F0BE8089
:100F100040F21C41C4F202018C4500F0AD8040F269
:100F20003041C4F202018C4540F0BC804FF40071A6
:100F3000C2F80014D6E000BF120740F1D98011F0CA
:100F4000080108BF10BDDCF8001021F00E01CCF83C
:100F50000010012101FA03F2CEF804208163016B35
:100F60004FF480720029028440F0AC80C0E000BFE2
:100F70004321C4F202018C4526DD6B21C4F202013B
:100F80008C4533DC4421C4F202018C4500F08280A0
:100F90005821C4F202018C453AE000BF4321C4F25B
:100FA00002018C4548DD6B21C4F202018C4555DC01
:100FB0004421C4F202018C4500F08A805821C4F219
:100FC00002018C455EE000BF0821C4F202018C459D
:100FD00056D01C21C4F202018C456FD03021C4F2DE
:100FE00002018C4514D14FF4806168E06C21C4F299
:100FF00002018C4552D08021C4F202018C4507D1F8
:101000004FF080615BE000BF4021C2F8001457E060
:101010004FF4802153E000BF0421C2F800144FE0D8
:1010200002F588634FF480219C4508BF4FF480414E
:10103000C2F8001444E000BF0821C4F202018C454C
:1010400044D01C21C4F202018C4549D03021C4F2A5
:1010500002018C4516D14FF4007142E06C21C4F2BC
:1010600002018C4538D08021C4F202018C4509D19F
:101070004FF0007135E000BF2021C2F8001431E0CC
:1010800004211CE04FF400312BE000BF0221C2F824
:10109000001427E04FF4804111E000BF4FF48001BD
:1010A0000DE000BF02F588634FF400319C4508BF96
:1010B0004FF40051C2F8001414E000BF4021116049
:1010C000C16AA9B1BDE81040084700BF022108E08D
:1010D0004FF4005105E000BF4FF4001101E000BFE4
:1010E00020211160816A0022002980F82020E9D1A6
:1010F00010BD0000002804BF012070472DE9F04119
:1011000040F2000CC4F2020C01684FF6F8320CF504
:101110008163CBF6FD72994238BF02F580624CF6CE
:10112000CD430A44CCF6CC43A2FB03236FF0030467
:101130000CF5806204EA9303D0E9017ED0F80C80BC
:101140003CBF0022C4F20202C0E90F230A6843F642
:10115000F0739A4300F110063A4378CE42EA0E0249
:1011600042EA08021A4322432A4332430A6000211A
:101170004FF4807281630284BDE8F04108467047F5
:1011800090F820C0BCF1010F04BF02207047F0B5F9
:1011900090F821C04FF0010EBCF1010F80F820E063
:1011A00026D14FF0020C80F821C04FF0000CC0F89F
:1011B00038C0D0E900C4C56AC66BDCF80070102CDA
:1011C00027F00107CCF80070006C0EFA00F0706098
:1011D0000846CCF8043004BF10460A46CCF8080094
:1011E000CCF80C20DCF8000045B140F00E000DE01A
:1011F000002180F820100220F0BD00BF20F0040084
:10120000CCF80000DCF8000040F00A00CCF8000048
:10121000DCF8000040F00100CCF800000020F0BD38
:10122000B0B5044600F0B2F9054640F20400C2F23F
:1012300000000078611C18BF044400BF00F0A6F94C
:10124000401BA042FAD3B0BD42F21001C4F2020129
:10125000086840F0800200200A6070472DE9F043E2
:1012600081B040F63027C2F2000716463A7E012AC6
:1012700004D1022001B0BDE8F08300BF0546012083
:1012800038764CF250300C469946FFF729FB28B1CE
:101290000021397601B0BDE8F08300BF42F21008AA
:1012A0000020C4F20208F861D8F8000040F0010004
:1012B000C8F800004CF250302680FFF711FBD8F838
:1012C0000010002821F00101C8F8001018BF0046E6
:1012D000DED1012DDCD00020F861D8F80000310CFF
:1012E00040F00100C8F800004CF250306180FFF778
:1012F000F7FAD8F80010002821F00101C8F8001012
:10130000C6D1E81E10F1030F4FF00000C0D8F861FD
:10131000D8F8000040F00100C8F800004CF250304E
:10132000A4F80490FFF7DCFAD8F80010002821F0A8
:101330000101C8F80010ABD10020F861D8F8000016
:101340004FEA194140F00100C8F800004CF250305B
:10135000E180FFF7C5FAD8F80010002821F001015C
:10136000C8F8001018BF00460021397601B0BDE86A
:10137000F083000042F20400C4F20200C1680906D2
:101380005CBF0020704740F22311C4F26751016036
:1013900048F6AB11CCF6EF510160C068C0B2C0098D
:1013A000704700002DE9F04F82B00E68002E00F06B
:1013B000E980A0F1804241F6004540F20043A2F5E9
:1013C0008432C4F201050624C4F201034FEAB227B5
:1013D000A84208BF05244FF0000E4FF001080F256A
:1013E0004FF0000A4FF0000B052F38BF4FEAB22430
:1013F000009408E00E680AF1010A36FA0AF20EF1CA
:10140000040E00F0BF8008FA0AFC16EA0C09F1D0BD
:101410004E684FF6FF72C1F21002964212DC122E95
:1014200056D8DFE806F0350B4D49555555555555FD
:101430005555555555555545510000BFD1F80CB07F
:1014400046E000BF4FF6FF72C1F2210296420FDC68
:101450000022C1F2110296421AD00022C1F21202F9
:10146000964215D00022C1F22102964210D02FE000
:101470000022C1F2220296420AD00022C1F23102B9
:10148000964205D00022C1F23202964220D100BF1E
:101490008A684AB1012A14BFC0F814C0C0F810C04D
:1014A0004FF0080B14E000BF4FF0040B10E000BF3A
:1014B000CA6802F1040B0BE04FF0000B08E000BF1C
:1014C000CA6802F1080B03E0CA6802F10C0B00BF06
:1014D00002467446B9F5807F24BF0432203C16686A
:1014E00005FA04F726EA07070BFA04F637431760F4
:1014F000CA79D2067FF57EAF41F21807C4F202071F
:101500003A684FF6084542F001023A603A68CFF671
:10151000FF7502F001020192019A2AF003021A44B7
:101520000F2457590EF00C06B440A743009C04FA50
:1015300006F6374357514E680F25F2031A6854BF19
:1015400022EA090242EA09021A605A68B70354BF44
:1015500022EA090242EA09025A60F7029A6854BF75
:1015600022EA090242EA0902B70240F20C479A60F5
:10157000C4F201073A6854BF22EA090242EA0902AA
:101580003A6037E702B0BDE8F08F000040F6502027
:10159000C2F200000068704740F2040040F650219B
:1015A000C2F20000C2F2000100780A68104408602C
:1015B0007047000080B542F20000C4F202000168EA
:1015C00041F010010160032000F08CF8002000F0D1
:1015D00005F800F027F8002080BD000070B540F24B
:1015E0000406C2F2000640F20C013278C2F2000199
:1015F0004FF47A730968B3FBF2F20446B1FBF2F1DF
:10160000084600F0BBFC0F2C4FF0010508D838B994
:101610004FF0FF3021460022002500F037F87460BB
:10162000284670BD82B041F21800C4F20200016881
:10163000022241F001010160016801F00101019104
:101640000199416841F080514160406800F080504C
:10165000009000980420C4F20100016862F31A614E
:10166000016002B070470000002848BF704700F0DA
:101670001F01012202FA01F11C2202EAD0004EF2FF
:101680000012CEF2000281507047000010B54EF6F5
:101690000C5CCEF2000CDCF80030C3F3022E8EF0AE
:1016A0000704042C28BF0424BEF103034FF0FF3EBF
:1016B0000EFA04F438BF0023A14399400EFA03F355
:1016C0009A43114300F00F0200F160430901043A0C
:1016D00003F564436244002848BF02F10C0319700B
:1016E00010BD00004EF60C51CEF200010A684FF614
:1016F000FF031A4060F30A2242F0806040F0FD7060
:1017000008607047411E0F294FF000003DD8DFE808
:1017100001F00B2B3C093C3C3C093C3C3C3C3C3C38
:101720003C3D00BF00F0FEB941F20400C4F20200EB
:10173000C16940F202320A40B2F5817F04BF4FF422
:101740000040704701F44071B1F5407F50D0B1F5D1
:10175000007F1CBF00207047006A49F640418007A7
:1017600001EAE070704700BF80B500F0C7F941F2B0
:101770000401C4F2020109680222C1F3813102EBC3
:101780004101B0FBF1F0BDE88040704741F2040137
:10179000C4F202010A6851F8040CC0015CBF0020C9
:1017A0007047C2F3834016A3185CD20306D440F6F8
:1017B0000012C0F23D0250430CE000BF0A6814A3BF
:1017C000C2F340429A5C41F20023C0F27A03B3FBB9
:1017D000F2F250430968490248BF70474AF6AB210C
:1017E0004000CAF6AA21A0FB01014808704700BFCB
:1017F00050F8040C4FF22441800301EAE070704776
:1018000002030405060708090A0B0C0D0E0F101041
:10181000010200002DE9F04182B00446007841F257
:101820001C06C007C4F202064AD030685FEAC0084E
:1018300008D4306840F080503060306800F080504C
:101840000190019847F20007C4F200073868C0050C
:1018500012D4386840F480703860FFF797FE054670
:101860003868C00508D4FFF791FE401B6428F7D9FB
:10187000032002B0BDE8F081706810F4407012D00F
:10188000616801F4407188420DD0706840F24042B6
:10189000C4F24222012320F4407113600023C007E8
:1018A0001360716026D17068616820F4407008434D
:1018B000B8F1000F706003D4306820F080503060C1
:1018C0002068810707D556F8181CA26821F440410A
:1018D000114346F8181CC00607D556F8180C616964
:1018E00020F48000084346F8180C002002B0BDE840
:1018F000F08100BFFFF74AFE054641F2883700BF7E
:1019000070688007CFD4FFF741FE401BB8424FF00C
:101910000300F5D9EAE70000002804BF0120704762
:101920002DE9F04381B042F20008C4F202080446F7
:10193000D8F800000D4600F0070081420CD9D8F815
:10194000000020F007002843C8F80000D8F8000085
:1019500000F00700A8426CD1206841F20409810719
:10196000C4F2020917D5410705D5D9F8001041F492
:10197000E061C9F80010010705D5D9F8001041F45D
:101980006051C9F80010D9F80010A26821F0F001E8
:101990001143C9F80010C00742D1D8F8000000F088
:1019A000070085420CD2D8F8000020F00700284339
:1019B000C8F80000D8F8000000F00700A84238D1AD
:1019C0002068410707D5D9F80010E26821F4E061EA
:1019D0001143C9F80010000708D5D9F800002169A3
:1019E00020F4605040EAC100C9F80000D9F8002096
:1019F00002F00C00082841F20020C0F27A004DD11C
:101A000043F2D663C2F38341C0F60003595CD203AC
:101A100038D440F60010C0F23D0048433EE000BF1D
:101A2000606859F8041C022808D0012826D18903CF
:101A300006D4012001B0BDE8F08300BF8901F8D5CC
:101A4000D9F8001021F003010843C9F80000FFF79E
:101A50009DFD064641F28837D9F80000616800F024
:101A60000C00B0EB810F98D0FFF790FD801BB842BF
:101A7000F2D9032001B0BDE8F08300BF8907D8D5B3
:101A8000DEE700BFD9F8002043F2BC63C2F3404256
:101A9000C0F600039A5C4843B0FBF2F0D9F800109E
:101AA00043F2BE62C1F30311C0F60002515C40F282
:101AB0000C0220FA01F140F20800C2F200000068B6
:101AC000C2F200021160FFF789FD002001B0BDE8FD
:101AD000F083000040F20C0041F20401C2F2000069
:101AE000C4F202010068096843F2CE62C1F3022128
:101AF000C0F60002515CC8407047000040F20C0084
:101B000041F20401C2F20000C4F202010068096857
:101B100043F2CE62C1F3C221C0F60002515CC8405C
:101B20007047000041F2040CC4F2020CDCF80030F3
:101B300003F00C00082841F20020C0F27A0018BF20
:101B4000704743F2D661C3F38342C0F600018A5C5A
:101B5000D90305D440F60010C0F23D005043704751
:101B6000DCF8001043F2BC63C1F34041C0F600034F
:101B7000595C5043B0FBF1F070470000002804BFEF
:101B8000012070472DE9F04182B00446007841F20F
:101B90000006C007C4F202060CD0706800F00C000A
:101BA000042840F081803068800303D560680028F5
:101BB00000F04681207880071BD5706810F00C0F6C
:101BC00009D0706800F00C00082840F08780706829
:101BD000C00300F183803068800703D520690128A5
:101BE00040F02E813068616920F0F80040EAC100C1
:101BF00030602078000713D4207840072CD4E569A2
:101C0000002D00F01881706800F00C00082840F0EA
:101C1000A780012D40F00481012002B0BDE8F081D1
:101C2000A069002800F084800020C4F24220012135
:101C3000C0F88014FFF7AAFC054600BF706A800751
:101C400000F1B280FFF7A2FC401B0228F6D9032066
:101C500002B0BDE8F08100BFF0695FEAC00808D4B7
:101C6000F06940F08050F061F06900F08050009021
:101C7000009847F20007C4F200073868C00549D44D
:101C8000386840F480703860FFF780FC054600BF7C
:101C90003868C0053ED4FFF779FC401B6428F7D9AB
:101CA000032002B0BDE8F081706800F00C00082845
:101CB00003D17068C0033FF576AF616830680029D2
:101CC00000F00C81B1F5A02F00F00081B1F5803F4C
:101CD00040F01A8140F480301CE100BF20690028E8
:101CE00040F20000C4F2422000F08880012101602F
:101CF000FFF74CFC054600BF306880073FF572AF28
:101D0000FFF744FC401B0228F6D9032002B0BDE8CF
:101D1000F08100BFE168306A002900F09D8005294C
:101D200000F09280012940F0AF8040F00100B1E066
:101D30000020C4F242200021C0F88014FFF726FCE6
:101D4000054600BF706A80077FF556AFFFF71EFC9F
:101D5000401B0228F6D9032002B0BDE8F08100BF85
:101D60000027C4F2422700203866FFF70FFC022D3F
:101D700005460DD13068800140F1DE80FFF706FC9A
:101D8000401B02284FF00300F4D902B0BDE8F081F7
:101D9000306880014FD5FFF7F9FB401B02284FF058
:101DA0000300F5D9F1E700BF40F20C00C2F20000D9
:101DB000006844F6D351C1F26201A0FB0101480A58
:101DC000019000BF00BF0198411E002801913FF41F
:101DD00013AF00BF0198411E002801913FF40CAFE2
:101DE00000BF0198411E002801913FF405AF00BFDC
:101DF0000198411E00280191E4D1FDE60021016017
:101E0000FFF7C4FB054600BF306880077FF5F1AEE1
:101E1000FFF7BCFB401B02284FF00300F4D9B4E7E6
:101E20007068216A00F480328A4209D1616A00F444
:101E30007010884204D1002002B0BDE8F08100BFDC
:101E4000012002B0BDE8F08140F004003062306A49
:101E500040F001001EE000BF20F001003062306A57
:101E600020F004003062FFF791FB054641F288370D
:101E7000306A800720D5FFF789FB401BB8424FF03E
:101E80000300F5D981E700BF20F001003062306A1D
:101E900020F004003062FFF779FB054641F28837F5
:101EA000306A800708D4FFF771FB401BB842F7D9AE
:101EB000032002B0BDE8F081B8F1000F3FF59FAEFE
:101EC000F06920F08050F06199E600BF40F4802076
:101ED0003060306840F480301CE000BF20F4803077
:101EE0003060306820F480203060FFF74FFB0546FB
:101EF000306880037FF55EAEFFF748FB401B642827
:101F00004FF00300F4D940E720F4803030603068AF
:101F100020F480203060FFF739FB054630688003ED
:101F20003FF548AEFFF732FB401B6428F6D903208B
:101F300002B0BDE8F08100BF206AB0F5803F05D156
:101F40007168A26821F40031114371607168626A9E
:101F500021F4741111430843706001203866FFF7C3
:101F600015FB0446306880013FF565AFFFF70EFBB7
:101F7000001B02284FF00300F4D906E7411E0020A1
:101F8000B0EB116F1CBF012070474EF21002CEF271
:101F9000000251604EF62351CEF20001F0230B7087
:101FA000072190601160704790F83C20012A4FF0A3
:101FB000020242D010B580F83D200268D2F804E059
:101FC000D2F808C00C682EF07003234340F6FF34AB
:101FD000C4F20004A242536010DCB2F1804F1FD063
:101FE00040F20043C4F200039A4219D040F60003C5
:101FF000C4F200039A4213D017E000BF40F600433A
:10200000C4F200039A420BD043F20043C4F201032E
:102010009A4205D042F60043C4F201039A4204D129
:1020200049682CF08003194391600121002280F857
:102030003D1080F83C20BDE810401046704700007D
:10204000002804BF0120704710B590F83D1031B949
:10205000002180F83C10044600F082F8204602215E
:1020600080F83D10016840F6FF320B68C4F20002B0
:1020700040F6004E43F2004C9142C4F2000EC4F20E
:10208000010C21DCB1F1804F28D040F20044C4F2B1
:102090000004A14222D040F60004C4F20004A14290
:1020A0001CD0914220DCB1F1804F27D040F2004299
:1020B000C4F20002914221D040F60002C4F20002B4
:1020C00091421BD01EE000BF714507D0614505D08D
:1020D00042F60044C4F20104A142E2D1846823F034
:1020E000700323439142DEDD714507D0614505D081
:1020F00042F60042C4F20102914203D1026923F484
:1021000040731343846923F08002D0F804E0C3686D
:10211000224361450A60CB62C1F828E005D042F64F
:102120000042C4F20102914201D142690A630122D4
:102130004A6180F8462080F83E2080F83F2080F8F1
:10214000402080F8412080F8422080F8432080F829
:10215000442080F8452080F83D20002010BD00007C
:102160000068B0F1804F18BF704781B041F21C0089
:10217000C4F20200016841F001010160006800F052
:1021800001000090009801B07047000090F83C20DA
:10219000012A4FF0020248D080B580F83D20D0F8E7
:1021A00000C04FF67772DCF8083023EA0202CCF860
:1021B00008200B683F2B1DDD5F2B39DD602B5BD0CA
:1021C000B3F5005F00F09880702B26D1D1E901E3D0
:1021D000C968DCF8082043EA0E0322F47F4243EA90
:1021E00001211143CCF80810DCF8081041F0770108
:1021F00011E000BF1F2B03DC33B1102B04D00CE027
:10220000202B01D0302B08D1DCF8081021F0700110
:10221000194341F00701CCF808100121002280F891
:102220003D1080F83C20BDE880401046704700BF5C
:10223000402B41D0502BF0D1D1F804E0C968DCF834
:102240002030DCF8202022F00102CCF82020DCF83D
:10225000182022F0F00242EA011123F00A0242EAB9
:102260000E02CCF81810CCF82020DCF8081041F051
:10227000570121F02001CEE7D1F804E0C968DCF86D
:10228000203023F01003CCF82030DCF81830DCF8D4
:10229000202023F4704322F0A00243EA013142EAF5
:1022A0000E12CCF81810CCF82020DCF8081041F001
:1022B000670121F01001AEE7D1F804E0C968DCF84D
:1022C0002030DCF8202022F00102CCF82020DCF8BD
:1022D000182022F0F00242EA011123F00A0242EA39
:1022E0000E02CCF81810CCF82020DCF8081041F0D1
:1022F000470121F030018EE7D1E901E3C968DCF83C
:10230000082043EA0E0322F47F4243EA01211143ED
:10231000CCF80810DCF8081041F480417BE700009D
:1023200080B586B00068B0F1804F4FF00000CDE975
:102330000400CDE9020001D006B080BD41F21800D2
:10234000C4F20200016841F008010160006802A9BE
:1023500000F00800019001984FF470600290022094
:102360000390059040F60040C4F20100FFF71AF810
:102370000420C4F2010001684FF6FF42CFF6FF02CD
:10238000114041F0E06141F40071016006B080BD90
:1023900090F83C30012B04BF022070474FEAB20294
:1023A000032A00F217812DE9F041DFE802F003C7AC
:1023B000479100BF036843F200461A6AC4F201065F
:1023C00022F001021A621D6A1A465C6852F818CFA0
:1023D0008F68D1F800E025F00205B34245EA070511
:1023E00005D042F60047C4F20107BB4205D1CF68D1
:1023F00025F00C0527F004073D43B34205D042F613
:102400000046C4F20106B34205D1D1E9056724F4C0
:10241000407434433C432CF0730747EA0E075C607A
:102420009F614F6809695F631D629F6947F00807F4
:102430009F619F6927F004079F61C6E0036843F22C
:1024400000461A6AC4F2010622F480721A621D6AFA
:102450001A46D3F804C052F81CEF8F68D1F80080F8
:1024600025F40075B34245EA072505D042F600473A
:10247000C4F20107BB4208D1CF6840F2FF443F02DB
:1024800025F4406527EA04042543B34205D042F60B
:102490000044C4F20104A34206D1D1E905462CF45C
:1024A0004057264347EA061C2EF0730747EA080701
:1024B000C3F804C0DF614F680969DF631D62DF692B
:1024C00047F00807DF61DF6927F00407DF617CE080
:1024D000036843F200471A6AC4F2010722F48052EB
:1024E0001A621A46D3F820C05D6852F81C4FD1F822
:1024F00000E08E68BB4205D042F60047C4F20107F7
:10250000BB4204D14F6925F4804545EA87152CF478
:10251000005747EA063724F4E64646EA0E265D6091
:10252000DE614E6809691E641F62DF6947F4006757
:10253000DF61DF6927F48067DF6145E0036843F20C
:1025400000481A6AC4F2010822F010021A621D6AD9
:102550001A465C6852F818CF8F68D1F800E025F071
:102560002005434545EA071505D042F60047C4F269
:102570000107BB4207D1CF686FF0400625F0C005C8
:1025800006EA07163543434505D042F60046C4F235
:102590000106B34206D1D1E9056724F440643E4305
:1025A00044EA86042CF4E64747EA0E275C609F6104
:1025B0004F6809699F631D629F6947F400679F61C7
:1025C0009F6927F480679F610902136819431160AE
:1025D000BDE8F041002180F83C1000207047000069
:1025E000002804BF0120704710B590F83D1031B9A4
:1025F000002180F83C10044600F082F820460221B9
:1026000080F83D10016840F6FF320B68C4F200020A
:1026100040F6004E43F2004C9142C4F2000EC4F268
:10262000010C21DCB1F1804F28D040F20044C4F20B
:102630000004A14222D040F60004C4F20004A142EA
:102640001CD0914220DCB1F1804F27D040F20042F3
:10265000C4F20002914221D040F60002C4F200020E
:1026600091421BD01EE000BF714507D0614505D0E7
:1026700042F60044C4F20104A142E2D1846823F08E
:10268000700323439142DEDD714507D0614505D0DB
:1026900042F60042C4F20102914203D1026923F4DE
:1026A00040731343846923F08002D0F804E0C368C8
:1026B000224361450A60CB62C1F828E005D042F6AA
:1026C0000042C4F20102914201D142690A6301222F
:1026D0004A6180F8462080F83E2080F83F2080F84C
:1026E000402080F8412080F8422080F8432080F884
:1026F000442080F8452080F83D20002010BD0000D7
:1027000070470000C1B1042908D0082914BF412234
:102710004022825C012A05D016E000BF3F22825C85
:10272000012A11D10222082910D0042914BF80F8EF
:10273000412080F83F200BE090F83E20012A03D191
:10274000022280F83E2003E00120704780F84020FC
:10275000006801F01F010122036A02FA01F123EA75
:1027600001020262026A114340F6FF32C4F2000223
:10277000904201620EDCB0F1804F25D040F2004162
:10278000C4F2000188421FD040F60001C4F20001EB
:1027900018E000BF40F60041C4F20001884213D0A7
:1027A00043F20042C4F2010242F600419042C4F2F8
:1027B000010101D088420ED1436C904243F40043A2
:1027C000436401D0884206D1816801F007010629DF
:1027D00004BF00207047016841F001010160002042
:1027E000704700007047000070470000002804BFD9
:1027F0000120704710B5044690F83D0028B900202C
:1028000084F83C00204600F061F8242084F83D0064
:102810002068D4E90212C36823F40053C36003693B
:1028200023F440531A430261D4E904231143C268DC
:10283000194341F20C639A431143C1604169A26993
:1028400021F44071114343F60002C4F201029042A8
:10285000416103D0FFF73EF902E000BFFFF74EF9F8
:10286000D4E90023192148439900B0FBF1F048F264
:102870001F5CC5F2EB1CA0FB0C314FF69C734909A1
:10288000C0F6FF7301FB0300322303EB0010A0FB33
:102890000C03F02000EA531000EB0110C3F34311C6
:1028A000084490601069202120F490401061506924
:1028B00020F02A005061D06840F40050D060002021
:1028C000206484F83D1084F83E1010BD2DE9F041DD
:1028D00086B040F600050446C4F201050068A5F57F
:1028E0004441002788420597CDE90377029703D03A
:1028F00006B0BDE8F08100BF41F21400C4F202004E
:10290000816802AE41F40031816081684FF00208B5
:1029100001F4003101910199416841F004014160E5
:10292000416801F0040101910199016841F0010140
:1029300001600068314600F0010001900198042018
:102940000290032005902846CDF80C80FEF72AFD62
:10295000082002A981E8810128463146FEF722FDC0
:1029600040F65C156C20C2F20005C4F20200802122
:102970002022C5E900072846C5E90271C5E90477A8
:10298000C5E90627FEF7B6FBA5636C6206B0BDE895
:10299000F081000090F83E30202B1CBF02207047D1
:1029A00070B582B096460A4600294FF0010118BF63
:1029B000BEF1000F04D102B0BDE870400846704778
:1029C00090F83C10012905D1022102B0BDE8704009
:1029D00008467047012180F83C1000212223016342
:1029E0008262A0F82CE0016480F83E300368D0F8E1
:1029F00038C043F2C514C0F6000443F2112543F277
:102A00005916C0F60005C0F60006CCF82840CCF8F0
:102A10003410191D044660467346CCF82C50CCF88F
:102A20003060FEF7ADFB0021019120680268019241
:102A300042680192019A84F83C10C26842F48072A4
:102A4000C260426942F001024261426942F04002C2
:102A5000426102B0BDE87040084670477047000010
:102A6000704700002DE9F04381B0044690F83D0026
:102A700020280DD100294FF0010018BF002A03D1F2
:102A800001B0BDE8F08300BF94F83C00012803D1F9
:102A9000022001B0BDE8F083012084F83C00002052
:102AA000206421201D460E4684F83D001746FEF79F
:102AB0006DFDA784E784A1688146B1F5805F03D1ED
:102AC0002069002800F0968037460021002084F815
:102AD0003C00E28C2068002A40D06A1C23D0002DE4
:102AE0005FD088460168090608D4FEF74FFDA0EBC9
:102AF00009012068A942F5D968E000BF17B117F8AD
:102B0000011B04E038F8021B00276FF35F214160CE
:102B1000E18C0139E184E18C0029E3D11EE000BFA2
:102B20000268120609D40268120606D40268120668
:102B30005CBF02685FEA0262F2D51FB117F8012B91
:102B400005E000BF31F8022B00276FF35F224260DF
:102B5000E28C013AE284E28C002AE4D10168490661
:102B60000FD49DB3691C2AD10168490609D40168B4
:102B700049065CBF01685FEA416102D40168490609
:102B8000F2D5202084F83D00002001B0BDE8F0839C
:102B900017F8012B4260E28C013AE284E28C002AB1
:102BA000DCD00268120611D5002FF1D131F8022BCA
:102BB00000276FF35F22EDE700684006E1D4FEF7DF
:102BC000E5FCA0EB09012068A942F5D9C16821F410
:102BD000D071C160416921F001014161202084F878
:102BE0003D0084F83E00002084F83C00032001B042
:102BF000BDE8F0830027314668E70000FEE70000EB
:102C000040F2700040F6E401C2F20000C2F200019E
:102C100032220023C0E90313C0E9053270470000E7
:102C2000FEE70000704700007047000070B540F2FA
:102C30009004C2F20004E07C002808BF70BD40F29E
:102C4000C406C2F200060020B51CE07420462946E6
:102C50001622FDF79BFA58B120461621FDF7F2FE29
:102C6000A08AF18A884231D128461621FDF7B0FEAC
:102C7000FDF7F0FE4FF20B21884203D1BDE8704012
:102C8000FDF794BDFDF7E6FE4FF20C31884203D10B
:102C90000120307070BD00BFFDF7DCFE4FF20D412A
:102CA000884203D1BDE87040FDF766BCFDF7D2FE57
:102CB0004FF20E51884207D143F26470C0F6000013
:102CC000BDE8704000F0FEBB70BD00BF4FF4FA706D
:102CD000FEF7A6FA012080F3138800F0A7FA00009F
:102CE0002DE9F04F89B00023CFF2FC731546C218CE
:102CF00003F100639A423CBF09B0BDE8F08F8846FB
:102D00000446FEF737FB04F17840C4F3490E40F265
:102D1000FF7140F2E40BA446C20ACEF5806420EABB
:102D200001094FF0006AC2F2000BA542079538BFB7
:102D30002C4600BF0221C0F6000106920AEBC22019
:102D40004944002209EB020333F80A302BF8023021
:102D50008F5A0BEB02035F808F187E8820329E8093
:102D6000BE88B2F5006FDE80FE881E813E895E81DE
:102D70007E899E81BE89DE81FE891E823E8A5E82B8
:102D80007E8A9E82BE8ADE82FE8A1E833E8B5E83A0
:102D90007E8B9E83BF8BDF83D4D121044FF6FF75DA
:102DA000059447D04FEA4E020291CDF810C0A1B26F
:102DB00001920BEB4E02C1F1000CCDF80CE0931D1B
:102DC0000891A1F1010E002733F8061CA9423BD15E
:102DD000BE4516D002EB47046688AE4234D10CEBF8
:102DE0000706B11C0DD0A188A9422DD1F11C08D035
:102DF0001988A94228D108990437B94203F1080378
:102E0000E2D14CF25030FDF76BFD0298002877D0EC
:102E1000089E049FA8F10205344600BF35F8022F32
:102E2000012039460023FEF719FA013C07F1020799
:102E3000F4D166E04CF250306446FDF751FD079F37
:102E4000A446002660E000BFFDF736FD4CF250308E
:102E5000FDF746FD42F21001C4F202010868089A2B
:102E600020F00200042A086002D2039C00201AE02D
:102E70000198039C0BEB00016FF0060000EA420290
:102E80000023002038F8037008EB0306CF52778840
:102E9000CD186F80B7880833AF80F7889A4200F169
:102EA0000400EF80EED1089E16F0030114D038F82C
:102EB0001020231801292BF813200DD0421C38F8BC
:102EC0001230224402292BF8123005D0023038F893
:102ED000101020442BF81010049D002409EB04006E
:102EE0003BF8042000F1006101200023FEF7B6F951
:102EF0000234B4F5006FF1D1079FAC4604E000BF87
:102F00000026079FDDF810C0059BB9B298B2069A5B
:102F1000814211D0FF1ABCB2013208EB46080CEB1B
:102F2000460C0797B4F5806F28BF4FF4806409F50D
:102F300000694FF0000EFDE609B0BDE8F04FFEF766
:102F400083B900007047000040F2C401C2F20001E2
:102F50000870704780B5FEF71FFB40F26000C2F2B8
:102F6000000001884A1C3329028038BF80BD418897
:102F700042F2CD52514344F6D352C1F26202A1FB58
:102F80000212002101609109818080BD704700001C
:102F90002DE9F041AA2B0BD1067AAA2E26D10021C9
:102FA00001704FF48031C0F802100020BDE8F081BC
:102FB00086884EB3552B1BD1067A552E18D190F822
:102FC00000E00022BEF1020F828040F2BE80BEF11E
:102FD00003024FF6FF751BD04AF20103012A1FFAC4
:102FE00082FC19D10022002479E000BF86885EB1FE
:102FF00007787E1C0670CB5501788A4204D8C288B7
:1030000000218180511CC18003720020BDE8F08145
:103010004FF6FF7290E000BF2CF00102C2F10008F1
:103020006FF001028E18B778F6787D4083EA550775
:10303000EC0708BF6F0883EA5704FD0708BF7C0848
:1030400083EA5405E70708BF650883EA5504EF07DC
:1030500008BF6C0883EA5405E70708BF650883EAE0
:103060005504EF0708BF6C0883EA5405E70708BF5B
:10307000650883EA5504EF0708BF6C08744083EACB
:103080005405E60708BF650883EA5504EE0708BF44
:103090006C0883EA5405E60708BF650883EA55040F
:1030A000EE0708BF6C0883EA5405E60708BF650809
:1030B00083EA5504EE0708BF6C0883EA5406E50767
:1030C00008BF6608F40702F1020283EA560508EB1E
:1030D000020408BF75080234A4D1941C2A465FEA92
:1030E000CC7729D00A5D6A4083EA5207D60708BF29
:1030F000570883EA5702FE0708BF7A0883EA520797
:10310000D60708BF570883EA5702FE0708BF7A08A8
:1031100083EA5207D60708BF570883EA5702FE071B
:1031200008BF7A0883EA5207D60708BF570883EA20
:103130005702FB0708BF7A084280714431F8031C2C
:10314000914204BF0120BDE8F081C1880131C180F6
:103150000020BDE8F0810000406A01684A6990F8EB
:103160003D30212B0BD112F0800208D00022C28406
:10317000CA6822F0C002CA60202280F83D204A6955
:1031800090F83E30222B17D112F0400214D00022CA
:10319000C285CB6823F49073CB604B6923F00103A5
:1031A0004B61036B012B03D1CB6823F01003CB6081
:1031B000202180F83E100263016C41F0100101648F
:1031C000FFF712BB0168406A0968890618D400211C
:1031D000C1850168CA6822F48072CA604A6922F017
:1031E00001024A614A6922F040024A61202280F8C5
:1031F0003E20026B012A03D1CA6822F01002CA6085
:10320000016B012918BFFFF729BC818DFFF7EABACE
:10321000406A016B012918BFFFF722BC818D490864
:10322000FFF7E0BA70470000FEE700004EF60C50D2
:10323000BFF34F8FCEF200000168042201F4E06179
:10324000C0F2FA5211430160BFF34F8F00BF00BFBD
:1032500000BF00BFFAE7000010B582B004468DF849
:10326000070040F6E810C2F200000DF1070101224C
:103270004FF0FF33FFF7F6FB204602B010BD000011
:1032800096B0FEF797F900271020CDE9117711903D
:103290004FF460100224012615900CA8CDE90F7799
:1032A0000597CDE90377CDE90177CDE90C470E9776
:1032B0001096CDE91347FEF761FC0F2006A991C1D6
:1032C0004FF48060CDE9090706A80221FEF724FB30
:1032D0004FF40040029068460094FEF79BFA41F2DA
:1032E0001800CDE90E77CDE90C77C4F20200016831
:1032F00044F2004841F0200101600168C4F2000876
:1033000001F0200100910099016841F01001016075
:10331000016801F0100100910099016841F0040179
:103320000160016801F0040100910099016841F019
:103330000801016000680CA900F0080000900098E6
:1033400020200C900020C1F23100CDE90D0708F5D6
:103350004C40FEF727F8172000210022FEF796F9CF
:103360001720FEF781F940F2100408F56040C2F220
:10337000000444F8200F4FF46020E0610320206136
:10338000204627732775C4E90177FDF77DFC2046A9
:10339000FDF7EEFB40F6A015C2F200054FF08040AD
:1033A00085E8C10080204FF47A71A8612846039710
:1033B000CDE90177CDE90677CDE91177CDE90F7732
:1033C000C5E90317FEF73CFE4FF4805000906946B4
:1033D0002846FEF7DBFE2846FFF702F906A9284635
:1033E000FEF7E2FD60200CAECDE90C072846314621
:1033F00000220E971097FEF7CBFF28463146042295
:10340000FEF7C6FF284631460822FEF7C1FF2846D0
:1034100031460C220C26FEF7BBFF2846FEF780FF44
:1034200028460021FFF76EF928460421FFF76AF9C4
:1034300028460821FFF766F928460C21FFF762F9B4
:1034400040F6E815C2F200054FF46130C5E900808E
:103450002846C5E90277C5E90476C5E90677FFF78E
:10346000C5F9A4F11E0128461E22FFF793FAFDF7C5
:103470009BFAFFF7C5FBFDF799F945F6294445F698
:103480002845CCF28F24C0F28F2505E0FDF7E8FA3D
:10349000FFF7CCFBFCF7E6FFFEF778F860434FEA56
:1034A000B000A842F2D9FEF771F8604300F1CC30C9
:1034B0004FEAB000A842EBD8FCF726FFFCF79AFFD2
:1034C000E6E700000FB4054B10B503A9044A0298C3
:1034D00000F018F810BC5DF814FB00005932000829
:1034E0000000002002E008C8121F08C1002AFAD11B
:1034F00070477047002001E001C1121F002AFBD174
:10350000704700002DE9FF4F8BB09A460F460546E5
:10351000002606E025280BD052460D9990476D1CD9
:10352000761C28780028F5D10FB03046BDE8F08F22
:103530000024A0460122604900E0044315F8013F41
:10354000203B02FA03F00842F7D128782E2817D141
:1035500015F8010F44F004042A280ED06FF02F0252
:103560002878A0F1300109290AD808EB880102EB7C
:10357000410100EB01086D1CF2E757F8048B6D1C4C
:10358000287869283ED006DC0028CDD063280BD0EF
:10359000642804D136E0732810D075284BD05246E9
:1035A0000D999047761C85E017F8040B8DF8000004
:1035B00000208DF80100E946012003E057F8049B44
:1035C0004FF0FF3061074FF0000401D40AE0641CA3
:1035D00044450DDA8442FADB19F804100029F6D1CB
:1035E00006E0641C8442FCDB19F804100029F8D1C1
:1035F000264404E019F8010B52460D999047641EC9
:10360000F8D257E001CF4FF00A0B002802DA40420F
:103610002D2102E0210504D52B218DF82410012154
:1036200003E0E10705D02021F7E70DF1200908911B
:103630000CE00021F9E701CF4FF00A0BF9E75946FA
:10364000FCF7B1FD01F1300209F8012D0028F6D197
:10365000ADEB090000F1200B600701D44FF0010829
:10366000D84502DDA8EB0B0000E0002080460024D6
:1036700006E009A85246005D0D999047641C761C2F
:1036800008988442F5DB04E0302052460D999047BB
:10369000761CB8F10001A8F10108F5DC05E019F885
:1036A000010B52460D999047761CBBF10001ABF11E
:1036B000010BF4DC6D1C34E7092801000102000055
:1036C00000000000000001020304060708090000D2
:1036D00000000102030402030405060708090A0B9F
:1036E0000C0D0E0F10106F7574312E76616C3D301D
:1036F000FFFFFF006F7574322E76616C3D30FFFF67
:10370000FF006F7574332E76616C3D30FFFFFF0054
:103710006F7574342E76616C3D30FFFFFF00746569
:103720007374436D642E76616C3D30FFFFFF007350
:103730006574536176652E76616C3D30FFFFFF0046
:103740006F7574536176652E76616C3D30FFFFFFB7
:103750000073657445784175746F2E76616C3D30E9
:10376000FFFFFF0070616765207061676530FFFFD4
:10377000FF006F7574312E76616C3D31FFFFFF00E5
:103780006F7574322E76616C3D31FFFFFF006F75EF
:1037900074332E76616C3D31FFFFFF007365744515
:1037A000784175746F2E76616C3D31FFFFFF0070BC
:1037B000616765207061676531FFFFFF0053544109
:1037C000312E76616C3D2564FFFFFF0046554C4C61
:1037D000312E76616C3D2564FFFFFF00535441326A
:1037E0002E76616C3D2564FFFFFF0046554C4C3240
:1037F0002E76616C3D2564FFFFFF0045585F534501
:10380000542E76616C3D2564FFFFFF006D616656A6
:10381000616C7565496E7075742E76616C3D2564BA
:10382000FFFFFF006368696D6E65795377697463A4
:10383000682E76616C3D30FFFFFF000060380008A5
:103840000000002010000000E43400087038000878
:1038500010000020480E0000F434000800000000B2
:103860000000000001000000100000000024F4002F
:0400000508000131BD
:00000001FF
