:020000040800F2
:10000000D00E0020450100085932000835320008A2
:1000100055320008A5040008F93800080000000067
:100020000000000000000000000000001936000879
:10003000F505000800000000D53200081D36000854
:100040005F0100085F0100085F0100085F01000810
:100050005F0100085F0100085F0100085F01000800
:100060005F0100085F0100085F010008E905000862
:100070005F0100085F0100085F0100085F010008E0
:100080005F0100085F0100085F0100085F010008D0
:100090005F0100085F0100085F010008AD0B000868
:1000A0005F0100085F0100085F0100085F010008B0
:1000B0005F0100085F0100085F0100085F010008A0
:1000C0005F0100085F0100085F0100085F01000890
:1000D0005F0100085F010008F53800085F010008B3
:1000E0005F0100085F0100085F0100085F01000870
:1000F0005F0100085F0100085F0100085F01000860
:100100005F0100085F0100085F0100085F0100084F
:100110005F0100085F0100085F0100085F0100083F
:100120005F0100085F0100085F0100085F0100082F
:10013000DFF80CD000F04EF80048004749390008BD
:10014000D00E00200648804706480047FEE7FEE73D
:10015000FEE7FEE7FEE7FEE7FEE7FEE7FEE7FEE777
:100160005D3600083101000840EA01039B0703D017
:1001700009E008C9121F08C0042AFAD203E011F8E6
:10018000013B00F8013B521EF9D2704730B50446DE
:100190000020034600E05B1C934203D2E05CCD5C90
:1001A000401BF8D030BD30B50B4601460020202260
:1001B000012409E021FA02F59D4205D303FA02F574
:1001C000491B04FA02F52844151EA2F10102F1DCD4
:1001D00030BD00001CB50948009009480190054653
:1001E000009C06E0E06840F0010394E807009847AF
:1001F0001034AC42F6D3FFF79FFF000060410008C7
:1002000080410008B0B5044600688168C90721D064
:10021000816821F00101816001F0FEFC216889689C
:10022000C90717D0054602E08068C00712D001F068
:10023000F3FC411B20680329F6D38168C907F3D07A
:10024000A06A40F01000A062E06A40F00100E062A5
:100250000120B0BD0020B0BD0146406A826A12F0A4
:10026000500F03D0006A026B084610470168826A8B
:1002700042F400728262896801F46021B1F5602F56
:1002800001D1017B09B100F04FBF816A21F4807177
:100290008162816AC90448BF00F046BF816A41F0AB
:1002A0000101816200F040BF406A816A41F0400173
:1002B0008162C16A41F00401C16200F039BF0000EF
:1002C000406A00F033BF0000B0B582B004460020A1
:1002D000019021688A68D2074ED1886840F00100F9
:1002E000886040F20C00C2F2000000684DF68361A5
:1002F000C4F21B31A0FB0101880C01900198A0B150
:10030000019801380190019878B101980138019065
:10031000019850B1019801380190019828B10198D5
:100320000138019001980028EAD101F075FC21689C
:100330008968C9071CD1054603E000BF8068C00773
:1003400019D101F069FC411B20680329F6D38168AB
:10035000C907F3D1A06A40F01000A062E06A40F043
:100360000100E062002084F82400012002B0B0BD4A
:10037000002002B0B0BD002002B0B0BDB0B500F0AA
:100380007DFDF8B140F21815C2F200050446287848
:10039000012808D101F040FC6968401A642802D2A3
:1003A00040F2B63018E04CF6CD4104EB8410CCF6A8
:1003B000CC41A0FB0101002028704FF4967000EBA7
:1003C000D10009E040F21814C2F2000401202070AC
:1003D00001F022FC606000203C21C4F200010860B2
:1003E000486008684968084443F63521C4F2FC4176
:1003F000A0FB0101490A02A0BDE8B04003F03EBCE9
:1004000070756D70312E76616C3D2564FFFFFF00C5
:10041000B0B500F039FDF8B140F21815C2F2000590
:1004200004466878012808D101F0F6FBA968401A53
:10043000642802D240F2B63018E04CF6CD4104EB0D
:100440008410CCF6CC41A0FB0101002068704FF471
:10045000967000EBD10009E040F21814C2F20004DB
:100460000120607001F0D8FBA06000203421C4F2AC
:1004700000010860486008684968084443F635216F
:10048000C4F2FC41A0FB0101490A02A0BDE8B04052
:1004900003F0F4BB70756D70322E76616C3D25648F
:1004A000FFFFFF00FEE700002DE9F04F81B040F6AE
:1004B000D810C2F20000006840F288064068C2F21C
:1004C0000006C0F13201F26940F22E00C2F20000D3
:1004D000805C40F22417C2F20007CBB2891A387050
:1004E0009342BCBFC2F1320100238DF8031009060C
:1004F000F36175D09DF803804FF00109B41C06F13B
:1005000020054FF20E6A4FF0010B00BFC3B2204628
:100510002946322203F0A4F850B3308CA7F860903B
:1005200000BA000C504530800EDC4FF20A118842B0
:1005300025D04FF20C3188421AD1708CA7F85C009C
:10054000C34517D34CE000BF4FF20F61884242D041
:100550004FF6110188420BD1D6F82200D6F82610AA
:10056000D6F82A20C7F86200C7F86610C7F86A20D4
:10057000C34535D217F80B000BF1010BC6E7708CA1
:10058000D6F82A107886706AD6F82E207863308DD7
:10059000D6F832307887F963D6F83600718F3A642E
:1005A0007B64B864A7F84C10B08FF18FA7F84E00A9
:1005B000A7F85010D6E9100196F84820C7F8520065
:1005C00096F84900C7F8561042EA4000A7F85A00CA
:1005D000C345CFD304E0708CA7F85E00C345C9D3F0
:1005E00001B0BDE8F08F000040F69410C2F20000A8
:1005F00000F068BF704700007047000010B540F27F
:10060000DA04C2F20004618E44F20010C0F6000069
:1006100003F034FB0A2001F067F9A18E1AA003F061
:100620002DFB0A2001F060F9E18E1CA003F026FBEF
:100630000A2001F059F9218F1DA003F01FFB0A20A9
:1006400001F052F9618F1FA003F018FB0A2001F09E
:100650004BF9A18F20A003F011FB0A2001F044F90F
:1006600022A0422103F00AFB0A2001F03DF940F2EA
:100670001A00C2F20000018821A003F0FFFA0A204C
:10068000BDE8104001F030B96574687661646A2E87
:1006900076616C3D2564FFFFFF00000061667276A5
:1006A00061646A2E76616C3D2564FFFFFF000000E7
:1006B0006C6576656C312E76616C3D2564FFFFFFBD
:1006C000000000006C6576656C322E76616C3D250D
:1006D00064FFFFFF000000006C6576656C332E76CA
:1006E000616C3D2564FFFFFF0000000076657273BA
:1006F000696F6E2E76616C3D2564FFFFFF00000080
:100700006C6967687473656E736F722E76616C3D89
:100710002564FFFFFF00000010B544F23000C0F672
:10072000000003F0ABFA642001F0DEF840F2DA04D6
:10073000C2F20004A18844F28600C0F6000003F073
:100740009DFA0A2001F0D0F8E18844F29500C0F645
:10075000000003F093FA0A2001F0C6F8618843F61E
:10076000C97043F64372C0F60000C0F600020029CB
:1007700008BF104603F082FA0A2001F0B5F861893B
:1007800044F2A500C0F6000003F078FA0A2001F058
:10079000ABF8A18944F2B400C0F6000003F06EFA91
:1007A0000A2001F0A1F8218943F6DE7043F6587261
:1007B000C0F60000C0F60002002908BF104603F092
:1007C0005DFA0A2001F090F8E18943F6F37043F6F0
:1007D0006D72C0F60000C0F60002002908BF104686
:1007E00003F04CFA0A2001F07FF8218A44F2EB0072
:1007F000C0F6000003F042FA0A2001F075F8618AA1
:1008000044F2D500C0F6000003F038FA0A2001F0E7
:100810006BF8A18A44F2060043F68072C0F600002D
:10082000C0F60002002908BF104603F027FA0A208C
:1008300001F05AF8E18A44F2C400C0F6000003F067
:100840001DFA0A2001F050F8218B44F23610C0F650
:10085000000003F013FA0A2001F046F8618B44F21D
:100860004810C0F6000003F009FA0A2001F03CF835
:10087000A18B43F6937044F21902C0F60000C0F653
:100880000002012908BF104603F0F8F90A2001F020
:100890002BF8E18B44F21210C0F6000003F0EEF9E1
:1008A0000A2001F021F8218C44F22510C0F6000046
:1008B00003F0E4F90A2001F017F8618C44F27600A5
:1008C000C0F6000003F0DAF90A2001F00DF8A18C5F
:1008D00044F26400C0F6000003F0D0F90A2001F0F1
:1008E00003F8E18C15A003F0C9F90A2000F0FCFF21
:1008F000218D17A003F0C2F90A2000F0F5FF618DE9
:1009000018A003F0BBF90A2000F0EEFFA18D1BA098
:1009100003F0B4F90A2000F0E7FF1EA003F0AEF9DF
:100920000A2000F0E1FF20A003F0A8F90A2000F05F
:10093000DBFF22A0BDE8104003F0A0B9466C75694A
:10094000646D61696E2E76616C3D2564FFFFFF006A
:1009500045785F5265762E76616C3D2564FFFFFF1A
:100960000000000054656D705F53656C6563742E04
:1009700076616C3D2564FFFFFF0000006D616656E7
:10098000616C7565496E7075742E76616C3D256479
:10099000FFFFFF00736574536176652E76616C3DD1
:1009A00030FFFFFF0000000074657374436D642E18
:1009B00076616C3D30FFFFFF000000006F757453DF
:1009C0006176652E76616C3D30FFFFFF0000000010
:1009D00010B543F6AA70C0F6000003F04FF94FF4CB
:1009E000FA7000F081FF40F2DA04C2F20004A1883C
:1009F00043F61770C0F6000003F040F90A2000F03B
:100A000073FFE18843F6FD60C0F6000003F036F99D
:100A10000A2000F069FF618943F69E60C0F600007D
:100A200003F02CF90A2000F05FFFA18943F6B860BB
:100A3000C0F6000003F022F90A2000F055FF218AD9
:100A400043F6E960C0F6000003F018F90A2000F050
:100A50004BFF618A43F6D360C0F6000003F00EF945
:100A60000A2000F041FF618844F2510044F23E0246
:100A7000C0F60000C0F60002002908BF104603F0CF
:100A8000FDF8218923A01EA2002908BF104603F00B
:100A9000F5F8E18929A024A2002908BF104603F037
:100AA000EDF8E18D2EA02AA2002908BF104603F020
:100AB000E5F8A08A2FA100282FA02DA208BF11467B
:100AC00003F0DCF8A08B33A1002833A030A208BFCC
:100AD000114603F0D3F8207830B943F63270C0F6EF
:100AE000000003F0CBF82078012818BF10BD43F6B2
:100AF000B870C0F60000BDE8104003F0BFB800BFFA
:100B000050756D7032537461742E7069633D38FF97
:100B1000FFFF000050756D7032537461742E706960
:100B2000633D39FFFFFF00005261696E53746174C9
:100B30002E7069633D38FFFFFF0000005261696E4F
:100B4000537461742E7069633D39FFFFFF0000002C
:100B50004578537461742E7069633D38FFFFFF0060
:100B60004578537461742E7069633D39FFFFFF004F
:100B70004D5400004154000076616C7565537461FA
:100B800075732E7478743D22257322FFFFFF0000D9
:100B9000485A00006D560000756E69742E747874A2
:100BA0003D22257322FFFFFF0000000040F21440A9
:100BB000C4F201000168890658BF70472021016016
:100BC00040F27C00C2F20000418801314180704750
:100BD0007047000040F6A821C2F200010022CA615D
:100BE00042F21001C4F202010A6842F002020A60F5
:100BF0004860086840F040000860704770B542F2F5
:100C00000C060446C4F2020601F006F83168C90772
:100C10001AD0002C5BD00546601C0DD13068C0078F
:100C200012D03068C0071CBF30685FEAC0700BD0BC
:100C30003068C007F2D107E000F0EEFF401BA04291
:100C400045D83068C007F7D13068800644BF2020FF
:100C500030603068C00607D43069C00704D13068FE
:100C600040075CBF002070BD3068C00604D400207F
:100C7000316849070CD415E040F6A820C2F2000004
:100C8000C16941F00201C16110203168490709D5ED
:100C900040F6A821C2F20001CA6940F0040042F007
:100CA0000102CA613169C90702D13060012070BDFB
:100CB00040F6A821C2F20001CA6942F00402CA61EA
:100CC000316921F0010131613060012070BD0320E4
:100CD00070BD000010B540F2DA00C2F20000841CC2
:100CE00020463C2100F00AF840F25610C2F2000003
:100CF00021463C22BDE81040FFF736BA10B581B35B
:100D000000224B1EC0F60102032B01F0030C01D29E
:100D1000002113E0A0F10803A1EB0C0E002100BF9D
:100D20001488043123F8084F54888E455C809488D9
:100D30009C80D48802F10802DC80F1D1BCF1000F64
:100D400008BF10BD1388BCF1010F20F8113008D086
:100D5000538800EB41004380BCF1020F1CBF918817
:100D6000818010BD0A4601460020C0F6010002F055
:100D700015BB000040F28800C2F2000000887047F6
:100D8000B0B500F06FF840F2820440F2DC05C2F228
:100D90000004C2F2000530B100F064F801281AD155
:100DA00000F066F816E0688B90B140F21A01C2F2CA
:100DB0000001288E098A484340F6E441484342F244
:100DC0009D110009C0F28E61A0FB0101080C01E039
:100DD00000F060F86080288810B3628869888A42D1
:100DE0001ED9AB8864209A4204D2521A5043591A31
:100DF00090FBF1F0E9882070B9B1618828898142BF
:100E000014D96A89914218D20B1A64256B43101ABF
:100E100093FBF0F060700CA0BDE8B04002F02EBF74
:100E20000020E98820700029E7D1618800206070E7
:100E300005A0BDE8B04002F021BF6420607002A0B0
:100E4000BDE8B04002F01ABF6D616656616C756511
:100E500053686F772E7478743D22256422FFFFFF5C
:100E60000000000040F2DA00C2F200000078704793
:100E700040F2DA00C2F20000808D704740F282003A
:100E8000C2F200000078704740F28200C2F2000017
:100E90004078704740F27C00C2F2000080887047C2
:100EA00070B582B004460020019094F82400012817
:100EB00003D10225284602B070BD012084F8240029
:100EC0002046FFF79FF9054600286DD1A06A41F240
:100ED000021188430230A06240F20C00C2F200000E
:100EE0000668022000F052FFB6FBF0F040000190CF
:100EF0000198A0B1019801380190019878B101984A
:100F000001380190019850B1019801380190019881
:100F100028B101980138019001980028EAD12046B3
:100F2000FFF7D2F92068816841F00801816000F084
:100F300073FE216851F8082F120710D5064602E00B
:100F40008168090709D500F067FE811B20680B291D
:100F5000F6D381680907F3D51AE000F108010868A3
:100F600040F00400086000F057FE216889684907D6
:100F700013D5064603E000BF806840070DD500F09A
:100F80004BFE811B20680B29F6D381684907F3D5F6
:100F9000012510206FF0120102E001206FF0030123
:100FA000A26A11400843A062002084F82400284669
:100FB00002B070BDB0B581B00022009290F824203C
:100FC000012A03D10221084601B0B0BD4B680122BD
:100FD000062B80F8242022D8D0F800C003EB83032E
:100FE00062465D1F1F2352F834EF03FA05F40B68C5
:100FF0002EEA040E03FA05F444EA0E05092B1560E7
:101000002CD8DCF8102003EB4303072589689D40AA
:10101000AA4399401143CCF8101000213EE0D0F8CB
:1010200000C00C2B624606D852F830EF03EB830366
:10103000A3F1230405E052F82CEF03EB8303A3F1A3
:1010400041041F2303FA04F50B682EEA050E03FA88
:1010500004F444EA0E05092B1560D2D903EB4305CD
:10106000DCF80C201E3D07248968AC40A243A9404F
:10107000114323F00102102ACCF80C100DD142F2DA
:101080000841C4F20101A1F1080294450CD0816A23
:1010900041F020018162012100E00021002280F85E
:1010A0002420084601B0B0BD0A6812022FD40A6895
:1010B000102B42F400020A602BD140F20C01C2F264
:1010C000000109684DF68362C4F21B32A1FB0212D3
:1010D000910C01EB8101490000910099D9B100996F
:1010E000013900910099C1B100990139009100992D
:1010F000A9B1009901390091009991B10099013984
:101100000091009900294FF00001E8D1C6E70021C5
:10111000C4E70021C2E70021C0E70021BEE70021AB
:10112000BCE70021BAE700007047000070470000EC
:1011300070470000002804BF0120704770B50646C4
:10114000044656F8280F20B121688868C0070BD1E3
:1011500031E00020E06284F82400204600F0ACF882
:1011600021688868C00726D0886820F00100886060
:1011700000F052FD21688A68D2071CD0054602E0C3
:101180008868C00717D000F047FD401B216803287E
:10119000F6D38868C007F3D0A06A40F01000A062C0
:1011A000E06A40F00100E062A06AA06A40F010012D
:1011B0000120316070BD32683068D2062CD441F213
:1011C000021290430230A062E36981F0804080F413
:1011D0009E3083F44022104308BF4FF40023D4E92B
:1011E000010243EA000C531EB3FA83F35D09134670
:1011F000B2F5807F18BF2B02207D257B01284CEAA9
:10120000450019D16DB1A56A45F02005A562E56AD2
:1012100045F00105E5620FE040F01001012031606A
:1012200070BDD4F818C04EF20005CFF6FF7505EB7F
:101230004C352B4343F400634D68B2F5807F25F4B1
:10124000694543EA05034B608B684FF2FD75CFF6A5
:10125000E17503EA050343EA00038B6001D0012A2C
:1012600006D122690023CFF6F07303EB025200E0AF
:101270000022CB6A23F470031A43CA62896840F6DD
:10128000FE62CFF61F721140814207D10020E0625A
:10129000A16A012262F30101316070BDA06A40F0D1
:1012A000100020F00200A06254F82C0F40F0010161
:1012B00001202646316070BD2DE9F04186B000273F
:1012C00040F600050597CDE903770446C4F2010511
:1012D000006805F5E0518842029702D006B0BDE8EB
:1012E000F08141F21800C4F2020001684FF00308D7
:1012F00041F400710160016802AE01F400710191D6
:101300000199016841F010010160016801F01001CC
:1013100001910199016841F004010160016801F047
:10132000040101910199016841F008010160006820
:10133000314600F00800019001981F20CDF80C8084
:10134000029005F5006000F061FBC1200290284684
:10135000314600F05BFB05F580603146CDF8088032
:1013600000F054FB40F694150820C2F20005C4F2C8
:10137000020080214FF48072C5E9000705F11000DA
:101380004FF4806320264FF4005CC5E9027180E8C9
:101390004C10284600F012FA002818BFFFF718FC7E
:1013A00025626C6206B0BDE8F081000070B515469C
:1013B0000446006842F60002C4F2010290420E4662
:1013C00005D042F20041C4F20101884209D142F243
:1013D0000440C4F20100006810F4702F1CBF01200B
:1013E00070BD94F82400012804BF022070BD0120C4
:1013F00084F824002046FEF767FF18B1002184F826
:10140000241070BD42F204402168A26AC4F20100B7
:1014100040F601739A4300F57F7302F5807299429A
:10142000A26243D0A06A20F48010A0624868400500
:1014300004D5A06A012262F30D30A062A26A0020E6
:10144000D2044FF0000244BFE26A22F00602E262D8
:1014500084F82400206A40F25922C0F6000240F2CB
:10146000C12340F2A92C00F1280EC0F60003C0F6FB
:10147000000C8EE80C106FF002020A608A682B469E
:1014800042F480728A604C31324600F0DFF9206805
:10149000816801F460228168B2F5602F0CBF41F4CD
:1014A000A00141F480118160002070BD026812F437
:1014B000702FB7D0A26A42F48012A2620068400581
:1014C000BCD5B6E710B5D0F800E0D0E90FC3DCF822
:1014D0000020DEF800104C0734D504249C40144052
:1014E00030D0DEF80010890605D4DEF8001021F0B7
:1014F0000401CEF800100422C4F2020202F17C01C1
:101500008E4553D940F20841C4F202018E4500F0E5
:10151000C88040F21C41C4F202018E4500F0C9802F
:1015200040F23041C4F202018E4540F0CA804FF4CF
:101530008061C2F80014C16A002900F03E81BDE854
:10154000104008478C074ED502249C4014404AD0D6
:10155000DEF80010890608D4DEF8001021F00A0138
:10156000CEF80010012180F821100422C4F20202FA
:1015700002F17C018E4554D940F20841C4F20201C7
:101580008E4500F0CC8040F21C41C4F202018E4531
:1015900000F0C98040F23041C4F202018E4540F0B3
:1015A000C6804FF40071C2F80014FEE04321C4F27B
:1015B00002018E454ADD6B21C4F202018E455EDCDC
:1015C0004421C4F202018E4500F0BC805821C4F2CF
:1015D00002018E4540F0CD804FF480211160C16A38
:1015E0000029ACD1E9E0090740F1E78008219940E2
:1015F000114008BF10BDDEF8001021F00E01CEF83A
:101600000010012101FA03F2CCF804208163016B80
:101610004FF480720029028400F0CF80BDE81040B2
:1016200008474321C4F202018E4559DD6B21C4F203
:1016300002018E4566DC4421C4F202018E4500F0B1
:10164000AA805821C4F202018E459AE00821C4F212
:1016500002018E457ED01C21C4F202018E4500F0AD
:1016600093803021C4F202018E4540F082804FF415
:1016700080611160C16A00297FF461AF9DE06C2137
:10168000C4F202018E456CD08021C4F202018E4565
:101690006FD14FF080611160C16A00297FF44FAFB4
:1016A0008BE00421C2F80014C16A00297FF447AF1F
:1016B00083E04021C2F80014C16A00297FF43FAFE3
:1016C0007BE002F588634FF480219E4508BF4FF40C
:1016D0008041C2F80014C16A00297FF430AF6CE089
:1016E0000821C4F202018E4558D01C21C4F2020127
:1016F0008E4558D03021C4F202018E4541D14FF4BD
:10170000007151E06C21C4F202018E4548D0802165
:10171000C4F202018E4534D14FF0007144E0022141
:10172000C2F8001441E02021C2F800143DE002F5A7
:1017300088634FF400319E4508BF4FF40051C2F852
:10174000001432E04FF480411160C16A00297FF437
:10175000F6AE32E004211160C16A00297FF4EFAED9
:101760002BE04FF480011160C16A00297FF4E7AEDD
:1017700023E04FF480211160C16A00297FF4DFAEBD
:101780001BE04FF400310FE040211160C16A0029D5
:101790007FF4D5AE11E04FF4005105E0022103E0E3
:1017A0004FF4001100E020211160816A002280F8CE
:1017B000202011B1BDE81040084710BD002842D0DC
:1017C0002DE9F04140F2000CC4F2020C01684FF622
:1017D000F8320CF58163CBF6FD72994238BF02F501
:1017E00080624CF6CD430A44CCF6CC43A2FB0323E3
:1017F0006FF003050CF5806405EA9303D0E9012E30
:10180000D0F80C803CBF0024C4F20204C0E90F43AE
:101810000B6843F6F075AB431A43D0E9045442EA2F
:101820000E0242EA0802D0E906672A432243324305
:101830003A430A6000214FF4807281630284BDE85C
:10184000F04108467047012108467047F0B590F80E
:1018500020C0BCF1010F32D090F821C04FF0010E32
:10186000BCF1010F80F820E026D14FF0020C80F887
:1018700021C04FF0000CC0F838C0D0E900C4C56AE0
:10188000C66BDCF80070102C27F00107CCF8007054
:10189000006C0EFA00F070600846CCF8043004BF0B
:1018A00010460A46CCF80800CCF80C20DCF8000002
:1018B0003DB140F00E000CE0002180F82010022025
:1018C000F0BD20F00400CCF80000DCF8000040F08F
:1018D0000A00CCF80000DCF8000040F00100CCF871
:1018E00000000020F0BD0000B0B5044600F094F9FF
:1018F000054640F20400C2F200000078611C18BFE7
:10190000044400BF00F088F9401BA042FAD3B0BDE8
:1019100042F21001C4F20201086840F08002002087
:101920000A6070472DE9F04F81B040F6A828C2F256
:101930000008924698F81820012A03D1022001B02D
:10194000BDE8F08F8146012088F818004CF2503035
:101950001C460E46FFF752F9D0BB4D4642F2100727
:10196000B9F1020F18BF0425C4F20207B9F1010F43
:1019700008BF4D466FF01F0900204FF0000B00BF5D
:10198000202200230101A2EB0012C8F81C3004FA47
:1019900002F22AFA01F13B68114309EB0012002A16
:1019A00058BF24FA02F143F001023A6026F8101001
:1019B0004CF25030FFF722F9396821F0010139600B
:1019C00030B90BF1010B5FFA8BF08542D8D80020BB
:1019D000002188F8181001B0BDE8F08F42F2040031
:1019E000C4F20200C16809065CBF0020704740F2E3
:1019F0002311C4F26751016048F6AB11CCF6EF51E8
:101A00000160C068C0F3C010704700002DE9F04FBE
:101A100082B0D1F800C0BCF1000F00F0F380A0F15B
:101A2000804241F60045A2F58432C4F2010540F23D
:101A3000004E4FEAB2240627A842C4F2010E08BFA6
:101A40000527052C4FF000044FF001084FF00F035D
:101A50004FF0000A4FF0000B38BF4FEAB227009753
:101A600008FA0AF91CEA090F0FD100BFD1F800C02B
:101A70000AF1010A3CFA0AF204F1040400F0C280FF
:101A800008FA0AF91CEA090FF0D04E684FF6FF7207
:101A9000C1F21002964211DC122E51D8DFE806F096
:101AA000340A4246505050505050505050505050B0
:101AB00050494D00D1F80CB042E000BF4FF6FF7224
:101AC000C1F2210296420FDC0022C1F211029642BD
:101AD0001AD00022C1F21202964215D00022C1F2A1
:101AE0002102964210D02BE00022C1F2220296423F
:101AF0000AD00022C1F23102964205D00022C1F282
:101B0000320296421CD100BF8A6842B1012A14BF3A
:101B1000C0F81490C0F810904FF0080B10E04FF090
:101B2000040B0DE0CA6802F1080B09E04FF0000B4E
:101B300006E0CA6802F1040B02E0CA6802F10C0B6D
:101B400022460646BAF1080F24BF203A0436376809
:101B500003FA02F5AF430BFA02F23A433260CA7954
:101B6000D2067FF583AF41F21802C4F20202174693
:101B700012680F2542F001023A603A684FF60847B2
:101B800002F001020192019A2AF003027244CFF698
:101B9000FF773B46D75904F00C06B540AF43009D94
:101BA00005FA06F63743D7504E680F23F203DEF8E6
:101BB000002054BF22EA090242EA0902CEF80020BE
:101BC000DEF80420B70354BF22EA090242EA090200
:101BD000CEF80420DEF80820F70254BF22EA0902FA
:101BE00042EA0902CEF8082040F20C42B702C4F2E1
:101BF00001021746126854BF22EA090242EA0902AA
:101C00003A6033E702B0BDE8F08F0000806808401A
:101C100018BF01207047000040F6C820C2F2000043
:101C20000068704740F2040040F6C821C2F200008C
:101C3000C2F2000100780A68104408607047000092
:101C400080B542F20000C4F20200016841F01001C8
:101C50000160032000F08AF8002000F005F800F091
:101C600027F8002080BD000070B540F20406C2F2E3
:101C7000000640F20C013278C2F200014FF47A7390
:101C80000968B3FBF2F20446B1FBF2F1084600F03A
:101C90008FFC0F2C4FF0010508D838B94FF0FF30FA
:101CA00021460022002500F035F87460284670BDFA
:101CB00082B041F21800C4F202000168022241F031
:101CC00001010160016801F0010101910199416880
:101CD00041F080514160406800F0805000900098D1
:101CE0000420C4F20100016862F31A61016002B0CD
:101CF00070470000002848BF704700F01F01012214
:101D000002FA01F14EF200124009CEF2000242F84E
:101D10002010704710B54EF60C5CCEF2000CDCF8CB
:101D20000030C3F3022E8EF00704042C28BF0424D5
:101D3000BEF103034FF0FF3E0EFA04F438BF002358
:101D4000A14399400EFA03F39A4300F00F03043BBA
:101D50001143634409010C3300F16042B0F1FF3FCD
:101D6000C8BF02F56443197010BD00004EF60C5157
:101D7000CEF200010A684FF6FF031A4060F30A2210
:101D800042F0806040F0FD700860704780B5411EF1
:101D90000F294FF0000038D8DFE801F00C29370890
:101DA000373737083737373737373738BDE8804068
:101DB00000F0FEB941F20400C4F20200C16940F231
:101DC00002320A40B2F5817F04BF4FF4004080BD6B
:101DD00001F44071B1F5407F48D0B1F5007F4DD19D
:101DE000006A49F64041800701EAE07080BD00F0DA
:101DF000CBF941F20401C4F2020109680222C1F3E5
:101E0000813102EB4101B0FBF1F080BD41F20401F0
:101E1000C4F202010A6851F8040CC0015CBF002042
:101E200080BDC2F3834016A3185CD20305D440F6EC
:101E30000012C0F23D0250430BE00A6814A3C2F343
:101E400040429A5C41F20023C0F27A03B3FBF2F203
:101E500050430968490248BF80BD4AF6AB214000A3
:101E6000CAF6AA21A0FB0101480880BD50F8040C65
:101E70004FF22441800301EAE07080BD002080BD64
:101E800002030405060708090A0B0C0D0E0F1010BB
:101E9000010200002DE9F04182B00446007841F2D1
:101EA0001C06C007C4F2020660D03068C0000BD424
:101EB00030684FF0010840F080503060306800F02A
:101EC00080500190019801E04FF0000847F20007B0
:101ED000C4F200073868C00512D4386840F4807036
:101EE0003860FFF799FE05463868C00508D4FFF74B
:101EF00093FE401B6428F7D9032002B0BDE8F081AF
:101F0000706810F4407024D0616801F44071884218
:101F10001FD0706840F24042C4F24222012320F4F4
:101F2000407113600023C0071360716011D0FFF788
:101F300073FE054641F288377068800709D4FFF7C1
:101F40006BFE401BB8424FF00300F5D902B0BDE86C
:101F5000F0817068616820F440700843B8F1000FA8
:101F6000706003D0306820F08050306020688107B6
:101F700007D556F8181CA26821F44041114346F8D1
:101F8000181CC00603D4002002B0BDE8F08156F84A
:101F9000180C616920F48000084346F8180C0020F2
:101FA00002B0BDE8F08100002DE9F04381B00028C7
:101FB00000F0AB8042F20008C4F202080446D8F8F0
:101FC00000000D4600F0070088420DD2D8F800004E
:101FD00020F007002843C8F80000D8F8000000F0FF
:101FE0000700A84240F09180206841F2040981076F
:101FF000C4F2020917D5410705D5D9F8001041F4FC
:10200000E061C9F80010010705D5D9F8001041F4C6
:102010006051C9F80010D9F80010A26821F0F00151
:102020001143C9F80010C0072DD06068012804D101
:1020300059F8041C890368D508E059F8041C0228E3
:1020400002D1890161D501E089075ED5D9F8001078
:1020500021F003010843C9F80000FFF7DDFD064643
:1020600041F28837D9F80000616800F00C00B0EB4D
:10207000810F08D0FFF7D0FD801BB842F2D90320B2
:1020800001B0BDE8F083D8F8000000F00700A842D6
:102090000CD9D8F8000020F007002843C8F8000049
:1020A000D8F8000000F00700A8422ED120684107B0
:1020B00007D5D9F80010E26821F4E0611143C9F8AE
:1020C0000010000708D5D9F80000216920F46050FD
:1020D00040EAC100C9F80000D9F8002002F00C0065
:1020E000082841F20020C0F27A001ED143F68E6328
:1020F000C2F38341C0F60003595CD20309D440F611
:102100000010C0F23D0048430FE0012001B0BDE8DF
:10211000F083D9F8002043F67463C2F34042C0F65E
:1021200000039A5C4843B0FBF2F0D9F8001043F684
:102130007662C1F30311C0F60002515C40F20C025A
:1021400020FA01F140F20800C2F200000068C2F279
:1021500000021160FFF788FD002001B0BDE8F083A8
:1021600040F20C0041F20401C2F20000C4F202018C
:102170000068096843F68662C1F30221C0F60002D6
:10218000515CC8407047000040F20C0041F204016D
:10219000C2F20000C4F202010068096843F68662D8
:1021A000C1F3C221C0F60002515CC8407047000074
:1021B00041F2040CC4F2020CDCF8003003F00C0015
:1021C000082841F20020C0F27A0018BF704743F699
:1021D0008E61C3F38342C0F600018A5CD90305D443
:1021E00040F60010C0F23D0050437047DCF800108C
:1021F00043F67463C1F34041C0F60003595C504399
:10220000B0FBF1F0704700002DE9F04182B00028EA
:1022100000F0A5800446007841F20006C007C4F231
:1022200002064CD0706800F00C00042817D07068CB
:1022300000F00C00082802D17068C0030FD4606859
:1022400098B1B0F5803F06D03168B0F5A02F22D10B
:1022500041F480203060306840F4803021E0306804
:1022600080032CD5606850BB79E0306820F4803062
:102270003060306820F480203060FFF7CDFC0546E8
:10228000306880031BD5FFF7C7FC401B64284FF064
:102290000300F5D988E121F480303060306820F403
:1022A00080203060FFF7B8FC054600BF306880032F
:1022B00005D4FFF7B1FC401B6428F7D940E1207832
:1022C00080072FD5706810F00C0F07D0706800F0F1
:1022D0000C00082809D17068C00306D43068800754
:1022E00019D5206901283AD115E02069002840F26B
:1022F0000000C4F2422000F0E38001210160FFF7FA
:102300008BFC05463068800705D4FFF785FC401B31
:102310000228F7D914E13068616920F0F80040EA3A
:10232000C1003060207800071DD4207840072ED4EB
:10233000E569002D00F03781706800F00C00082876
:1023400071D1012D0BD07068216A00F480328A426D
:1023500005D1616A00F47010884200F024810120E8
:1023600002B0BDE8F081A06900B30020C4F24220B1
:102370000121C0F88014FFF74FFC0546706A800702
:1023800074D4FFF749FC401B0228F7D9D8E0F06964
:10239000C0001ED4F0694FF0010840F08050F06199
:1023A000F06900F080500090009814E00020C4F222
:1023B00042200021C0F88014FFF72EFC054600BF24
:1023C000706A8007B1D5FFF727FC401B0228F7D9B8
:1023D000B6E04FF0000847F20007C4F20007386883
:1023E000C00510D4386840F480703860FFF714FCE2
:1023F000054600BF3868C00505D4FFF70DFC401B3B
:102400006428F7D99CE0E06800286BD0012806D04A
:10241000316A052840F07F8041F004003062306A64
:1024200040F001007DE00027C4F24227002038661A
:10243000FFF7F2FB022D05460CD100BF306880018A
:1024400040F18F80FFF7E8FB401B02284FF00300AC
:10245000F4D9A9E03068800140F1A580FFF7DCFBEA
:10246000401B02284FF00300F4D99DE040F20C001D
:10247000C2F20000006844F6D351C1F26201A0FB31
:102480000101480A019000BF00BF0198411E0028C9
:1024900001913FF44AAF00BF0198411E002801910D
:1024A0003FF443AF00BF0198411E002801913FF463
:1024B0003CAF00BF0198411E00280191E4D134E7F0
:1024C00000210160FFF7A8FB054600BF30688007C8
:1024D0007FF528AFFFF7A0FB401B02284FF0030059
:1024E000F4D961E0306A20F001003062306A20F0F7
:1024F00004003062FFF790FB054641F2883700BFC9
:10250000306A800720D5FFF787FB401BB8424FF0A9
:102510000300F5D948E021F001003062306A20F074
:1025200004003062FFF778FB054641F2883700BFB0
:10253000306A800708D4FFF76FFB401BB842F7D919
:10254000032002B0BDE8F081B8F1000F3FF4F0AE17
:10255000F06920F08050F061E569002D7FF4ECAE69
:1025600021E0206AB0F5803F05D17168A26821F4AE
:102570000031114371607168626A21F47411104373
:102580000843706001203866FFF746FB044600BF31
:102590003068800107D4FFF73FFB001B02284FF093
:1025A0000300F5D900E0002002B0BDE8F081000092
:1025B000411E0020B0EB116F1CBF012070474EF28E
:1025C0001002CEF2000251604EF62351CEF200010D
:1025D000F0230B70072190601160704710B590F8E0
:1025E0003C20012A4FF0020241D0012380F83C3008
:1025F00080F83D200268D2F804E0D2F808C00C68E8
:102600002EF07003234340F6FF34C4F20004A242CC
:1026100053600FDCB2F1804F1ED040F20043C4F291
:1026200000039A4218D040F60003C4F200039A4215
:1026300012D016E040F60043C4F200039A420BD0D9
:1026400043F20043C4F201039A4205D042F600432C
:10265000C4F201039A4204D149682CF08003194363
:1026600091600121002280F83D1080F83C20104646
:1026700010BD0000002804BF0120704710B50446BB
:1026800090F83D0028B9002084F83C00204600F076
:1026900083F8022084F83D00206840F6FF3302688A
:1026A000C4F2000343F2004C9842C4F2010C20DC57
:1026B000B0F1804F2BD040F20041C4F200018842BB
:1026C00025D040F60001C4F2000188421FD0984294
:1026D00023DCB0F1804F2ED040F20041C4F2000163
:1026E000884228D040F60001C4F20001884222D07E
:1026F00025E040F60041C4F20001884207D0604561
:1027000005D042F60041C4F201018842DFD1A16840
:1027100022F070020A439842DBDD40F60041C4F229
:102720000001884207D0604505D042F60041C4F25E
:102730000101884203D1216922F440720A43A3694E
:1027400022F08001D4F804E0E2681943604501609A
:10275000C262C0F828E005D042F60041C4F201018F
:10276000884201D16169016301214161002084F83F
:10277000461084F83E1084F83F1084F8401084F826
:10278000411084F8421084F8431084F8441084F80F
:10279000451084F83D1010BD81B00068B0F1804F45
:1027A00001D001B0704741F21C00C4F20200016880
:1027B00041F001010160006800F001000090009804
:1027C00001B0704780B590F83C20012A4FF002021A
:1027D00000F0C080012380F83C3080F83D20D0F824
:1027E00000C04FF67772DCF8083023EA0202CCF81A
:1027F00008200B683F2B1CDD5F2B20DD602B4FD0AA
:10280000B3F5005F6CD0702B40F09E80D1E901E3FE
:10281000C968DCF8082043EA0E0322F47F4243EA49
:1028200001211143CCF80810DCF8081041F07701C1
:1028300088E01F2B28DC5BB3102B29D084E0402BD1
:1028400061D0502B40F08080D1F804E0C968DCF8FA
:102850002030DCF8202022F00102CCF82020DCF827
:10286000182022F0F00242EA011123F00A0242EAA3
:102870000E02CCF81810CCF82020DCF8081041F03B
:10288000570121F020015DE0202B01D0302B5BD1DE
:10289000DCF8081021F07001194341F0070151E004
:1028A000D1F804E0C968DCF8203023F01003CCF83C
:1028B0002030DCF81830DCF8202023F4704322F0BC
:1028C000A00243EA013142EA0E12CCF81810CCF80B
:1028D0002020DCF8081041F0670121F0100131E000
:1028E000D1E901E3C968DCF8082043EA0E0322F4C9
:1028F0007F4243EA01211143CCF80810DCF80810AC
:1029000041F480411EE0D1F804E0C968DCF82030D1
:10291000DCF8202022F00102CCF82020DCF818207E
:1029200022F0F00242EA011123F00A0242EA0E020A
:10293000CCF81810CCF82020DCF8081041F0470142
:1029400021F03001CCF808100121002280F83D1060
:1029500080F83C20104680BD80B586B00068B0F19C
:10296000804F4FF00000CDE90400CDE9020001D016
:1029700006B080BD41F21800C4F20200016841F0C7
:1029800008010160006802A900F0080001900198A8
:102990004FF47060029002200390059040F60040D2
:1029A000C4F20100FFF732F80420C4F2010001680C
:1029B0004FF6FF42CFF6FF02114041F0E06141F4D3
:1029C0000071016006B080BDF0B590F83C30012B7D
:1029D00002D102210846F0BD4FEAB2020123032AC8
:1029E00080F83C3000F21881DFE802F0024993DD04
:1029F00003681A6A22F001021A621A461E6AD3F8A4
:102A000004C052F8185F0C6825F073058F6845EA1A
:102A1000040E43F2004526F00204C4F20105AB4265
:102A200044EA070405D042F60046C4F20106B34268
:102A300005D1CE6824F00C0426F004063443AB42E2
:102A400005D042F60045C4F20105AB4206D1D1E9FA
:102A500005652CF44077374347EA050CC3F804C0FA
:102A6000C3F818E04F6809695F631C629F6947F00B
:102A700008079F619F6927F004079F61C9E0036809
:102A80001A6A22F010021A621A461C6AD3F804C0AD
:102A900052F8187F0E6827F4E6478D6847EA062E3D
:102AA00043F2004624F02004C4F20106B34244EA93
:102AB000051405D042F60045C4F20105AB4207D12A
:102AC000CD686FF0400724F0C00407EA05152C43D9
:102AD000B34205D042F60045C4F20105AB4207D12E
:102AE000D1E905652CF4406747EA860747EA850C7B
:102AF000C3F804C0C3F818E04F6809699F631C62FB
:102B00009F6947F400679F619F6927F480679F6111
:102B10007EE003681A6A22F480721A621A461C6AFE
:102B2000D3F804C052F81C7F0E6827F073078D6835
:102B300047EA060E43F2004624F40074C4F201068C
:102B4000B34244EA052405D042F60045C4F201052B
:102B5000AB4207D1CD6840F2FF472D0224F4406418
:102B6000BD432C43B34205D042F60045C4F20105F3
:102B7000AB4207D1D1E905652CF4405747EA061767
:102B800047EA051CC3F804C0C3F81CE04F68096994
:102B9000DF631C62DF6947F00807DF61DF6927F048
:102BA0000407DF6135E003681A6A22F480521A6272
:102BB0001A46D3F820E05C6852F81C6F0D6826F4C2
:102BC000E6468F6846EA052C43F200452EF400568F
:102BD000C4F20105AB4246EA073505D042F600478C
:102BE000C4F20107BB4204D14F6924F4804646EA8F
:102BF00087145C60C3F81CC04F6809691F641D62BC
:102C0000DF6947F40067DF61DF6927F48067DF6110
:102C10000902136819431160002180F83C1008462E
:102C2000F0BD0000002804BF0120704710B5044625
:102C300090F83D0028B9002084F83C00204600F0C0
:102C400083F8022084F83D00206840F6FF330268D4
:102C5000C4F2000343F2004C9842C4F2010C20DCA1
:102C6000B0F1804F2BD040F20041C4F20001884205
:102C700025D040F60001C4F2000188421FD09842DE
:102C800023DCB0F1804F2ED040F20041C4F20001AD
:102C9000884228D040F60001C4F20001884222D0C8
:102CA00025E040F60041C4F20001884207D06045AB
:102CB00005D042F60041C4F201018842DFD1A1688B
:102CC00022F070020A439842DBDD40F60041C4F274
:102CD0000001884207D0604505D042F60041C4F2A9
:102CE0000101884203D1216922F440720A43A36999
:102CF00022F08001D4F804E0E268194360450160E5
:102D0000C262C0F828E005D042F60041C4F20101D9
:102D1000884201D16169016301214161002084F889
:102D2000461084F83E1084F83F1084F8401084F870
:102D3000411084F8421084F8431084F8441084F859
:102D4000451084F83D1010BD7047000041B10829BE
:102D500009D0042914BF00F1410200F13F0204E050
:102D600000F13E0201E000F140021278012A1CBF8E
:102D700001207047022241B1082909D0042914BF5B
:102D800080F8412080F83F2004E080F83E2001E0F8
:102D900080F84020006801F01F010122036A02FA56
:102DA00001F123EA01020262026A0A4340F6FF319E
:102DB000C4F200018842026217DD40F60042C4F20C
:102DC0000002904220D043F2004CC4F2010C604556
:102DD00005D042F60043C4F2010398421BD1436C74
:102DE000884243F4004343641BDCB0F1804F0BD0B6
:102DF00040F20041C4F20001884205D040F60001D3
:102E0000C4F20001884206D1816801F00701062959
:102E100004BF00207047016841F0010101600020FB
:102E200070479042F0D06045EED042F60041C4F2C7
:102E300001018842E8D0EEE77047000070470000CB
:102E4000002804BF0120704710B5044690F83D00EB
:102E500028B9002084F83C00204600F05FF82420C8
:102E600084F83D002068D4E90212C36823F40053BB
:102E7000C360036923F440531A430261D4E9042375
:102E80001143C268194341F20C639A431143C16074
:102E90004169A26921F44071114343F60002C4F272
:102EA00001029042416102D0FFF75AF901E0FFF7B9
:102EB0006BF96268192148439100B0FBF1F048F2C8
:102EC0001F51C5F2EB11A0FB01235A096FF06303F8
:102ED00002FB0300322303EB0010A0FB0101F023EF
:102EE00003EA5113206803EB0212C1F343111144AA
:102EF0008160016921F490410161416921F02A0159
:102F00004161C16841F40051C1600020202120646A
:102F100084F83D1084F83E1010BD00002DE9F0410A
:102F200086B0002740F600050597CDE903770446F3
:102F3000C4F201050068A5F544418842029702D019
:102F400006B0BDE8F08141F21400C4F202008168CD
:102F50004FF0020841F400318160816802AE01F453
:102F6000003101910199416841F0040141604168DB
:102F700001F0040101910199016841F00101016032
:102F80000068314600F00100019001980420029091
:102F90000320CDF80C8005902846FEF737FD082069
:102FA00002A981E8810128463146FEF72FFD40F64F
:102FB000D8156C20C2F20005C4F202008021202244
:102FC000C5E900072846C5E90271C5E90477C5E9E6
:102FD0000627FEF7F3FBA5636C6206B0BDE8F0813F
:102FE00070B582B0054690F83E0020280ED11346F9
:102FF0000A4600294FF0010418BF002B02D12046D9
:1030000002B070BD95F83C00012803D1022420468F
:1030100002B070BD012085F83C00002422202C6302
:10302000AA62AB852C6485F83E002968A86B43F63C
:10303000950C43F6E10E43F62906C0F6000CC0F6E7
:10304000000EC0F600060431C0E90ACEC0E90C64E7
:10305000FEF7FCFB01942868016801914168019129
:10306000019985F83C40C16841F48071C1604169B3
:1030700041F001014161416941F040014161204657
:1030800002B070BD70470000704700002DE9F043AA
:1030900081B0044690F83D0020280DD10F4600294C
:1030A0004FF0010000F0AE801646002A00F0AA8022
:1030B00094F83C00012803D1022001B0BDE8F08360
:1030C000012084F83C004FF0000921201D46C4F87F
:1030D000409084F83D00FEF79FFDA684E684A16839
:1030E0008046B1F5805F07D1206900281CBF3846B3
:1030F0004F463E46074600E0002684F83C90E28CAE
:103100002068002A01685BD06A1C2BD0002D50D0AB
:10311000090609D4FEF780FDA0EB08012068A9424A
:1031200073D801680906F5D517B117F8011B04E03B
:1031300036F8021B00276FF35F214160E18C0139F3
:10314000E184E28C0168002AE2D139E036F8021B02
:1031500000276FF35F214160E18C0139E184E28C4B
:1031600001686AB309065FBF01685FEA016101682F
:103170005FEA01610CD40168090609D401680906F7
:103180005FBF01685FEA016101685FEA0161F2D532
:10319000002FDBD017F8011BDDE736F8021B0027F4
:1031A0006FF35F214160E18C0139E184E28C0168B9
:1031B00032B1090629D5002FEFD017F8011BF1E72E
:1031C00049061BD40DB3691C0ED10168490615D4FC
:1031D000016849065CBF01685FEA41610ED401687D
:1031E0004906F2D50AE000BFFEF716FDA0EB080184
:1031F0002068A94209D800684006F5D5202084F847
:103200003D00002001B0BDE8F083C16821F4D07119
:10321000C160416921F001014161202084F83D0035
:1032200084F83E00002084F83C00032001B0BDE893
:10323000F0830000FEE7000040F28800C2F20000C8
:1032400000F1200132220023C0E90313C0E9053256
:1032500070470000FEE700007047000080B540F6B0
:103260000000C4F201000221FEF7D0FC0138B0FAE0
:1032700080F04FEA501140F21000C2F2000007D176
:10328000428803780132428013B9828801328280F9
:10329000C2880170511C8AB242F210739A42C180F6
:1032A00038BF80BD418848F21F52C5F2EB12A1FB26
:1032B000021281884CF6CD43CCF6CC43A1FB03131C
:1032C00051094170D90801810021C0F80210C18064
:1032D00080BD00007047000070B540F25614C2F285
:1032E0000004E08D00284ED040F2DA06C2F200065B
:1032F0000020B51CE085204629463C22FCF746FF0D
:1033000058B120463C21FDF72DFD608BB18B8842E2
:103310003AD128463C21FDF7F1FCFDF72BFD4FF299
:103320000B21884205D0FDF725FD4FF20A11884296
:1033300003D1BDE87040FDF74BBBFDF71BFD4FF21D
:103340000C31884208BF70BDFDF714FD4FF20D41EE
:10335000884203D1BDE87040FDF7DEB9FDF70AFDF4
:103360004FF61211884202D10220307070BDFDF775
:1033700001FD4FF61101884205D100203070BDE8F3
:103380007040FDF725BB70BD4FF4FA70FEF7ACFA44
:10339000012080F3138800F0B1FA00002DE9F04F0E
:1033A00087B006466FF31100B0F1006F1CBF07B085
:1033B000BDE8F08F144605914FF6FF75FEF70EFB42
:1033C00006F1784003964FEAD02CC0F3490E40F244
:1033D000921BCEF58060A1464FEACC284FF0006AE0
:1033E000C2F2000BA04238BF044600BF0221C0F663
:1033F00000010AEBCC204144002200BF08EB02038D
:1034000033F80A302BF802308F5A0BEB02035F803F
:103410008F187E8820329E80BE88B2F5006FDE80D5
:10342000FE881E813E895E817E899E81BE89DE8105
:10343000FE891E823E8A5E827E8A9E82BE8ADE82ED
:10344000FE8A1E833E8B5E837E8B9E83BF8BDF83D3
:10345000D4D1A1B20029CDF808C00494069143D07C
:103460000BEB4E07CDF80490C1F1000CBA1DA1F191
:103470000109002332F8066CAE4241D1994516D0BD
:1034800007EB43067488AC423AD10CEB0304A11C51
:103490000DD0B188A94233D1E11C08D01188A942CE
:1034A0002ED106990433994202F10802E2D14CF27E
:1034B0005030FDF7A3FB0498019C039E000400F02C
:1034C00087800598DDF81890851E374635F8022F5D
:1034D000012039460023FEF725FAB9F1010907F169
:1034E0000207F3D174E000BF4CF25030FDF786FBC9
:1034F000039E4C460699A0B288426DD187E000BF7A
:10350000CDF800E0FDF766FB4CF25030FDF776FB9E
:1035100042F21000C4F2020001460068B9F1030F44
:1035200020F002000860069800F0030C07D2DDF8D6
:1035300014900021009BBCF1000F1FD136E0DDF894
:103540001490A0EB0C0E00216FF0010309EB0306B1
:103550007588FC18658009EB4105688807EB410216
:103560005080A8880431908030898E4503F108038B
:103570002081EBD1009BBCF1000F17D039F811006E
:10358000CA18BCF1010F2BF812000FD0481C39F8F3
:1035900010201844BCF1020F2BF8102006D0881C14
:1035A00039F8101018442BF8101000BF019C039E2E
:1035B000ABF102054FF0006735F8022F08EB070169
:1035C00001200023FEF7AEF90237B7F1082FF3D13F
:1035D0000699A0B288421AD0059806EB410600EB86
:1035E0004100DDF808C00590039604980CF1010C29
:1035F000241AA0B2B0F5806FA14628BF4FF48064B2
:1036000008F500684FF0000E4FF6FF75EEE607B0C4
:10361000BDE8F04FFEF77CB97047000080B5FEF7BB
:1036200001FB40F27C00C2F2000001884A1C3329F1
:1036300002800ED3418842F2CD52514344F6D35218
:10364000C1F26202A1FB0212002192090180828074
:103650004180BDE88040FFF701BE000070470000D8
:103660002DE9F041AA2B0BD1067AAA2E08D1002110
:103670004FF480320170C0F802200846BDE8F081A6
:1036800086884EB3552B1BD1067A552E18D190F84B
:1036900000E00022BEF1020F828040F2BE80BEF147
:1036A00003024FF6FF7500F0AA804AF20103012AD7
:1036B00002F0010C15D10022BCF1000F75D19EE083
:1036C00007787E1C0670CB550178914204D3C288DE
:1036D00000218180511CC180037200210846BDE891
:1036E000F08192B2ACEB02086FF001028E18B7784D
:1036F000F6787D4083EA5507EC0708BF6F0883EA38
:103700005704FD0708BF7C0883EA5405E70708BF94
:10371000650883EA5504EF0708BF6C0883EA54057F
:10372000E70708BF650883EA5504EF0708BF6C0880
:1037300083EA5405E70708BF650883EA5504EF07E5
:1037400008BF6C08744083EA5405E60708BF6508A3
:1037500083EA5504EE0708BF6C0883EA5405E607C0
:1037600008BF650883EA5504EE0708BF6C0883EAC2
:103770005405E60708BF650883EA5504EE0708BF4D
:103780006C0883EA5406E50708BF6608F40702F1EF
:10379000020283EA560508EB020408BF75080234EA
:1037A000A4D10232BCF1000F29D08A5C6A4083EABE
:1037B0005207D60708BF570883EA5702FE0708BF1B
:1037C0007A0883EA5207D60708BF570883EA5702E8
:1037D000FE0708BF7A0883EA5207D60708BF5708D2
:1037E00083EA5702FE0708BF7A0883EA5207D60722
:1037F00008BF570883EA5705FA0708BF7D084580C8
:10380000714411F8032C11F8021C42EA0121A9426B
:1038100003D101210846BDE8F081C1880131C18092
:1038200000210846BDE8F081406A01684A6990F8C5
:103830003D30212B0BD112F0800208D00022C2842F
:10384000CA6822F0C002CA60202280F83D204A697E
:1038500090F83E30222B17D112F0400214D00022F3
:10386000C285CB6823F49073CB604B6923F00103CE
:103870004B61036B012B03D1CB6823F01003CB60AA
:10388000202180F83E100263016C41F010010164B8
:10389000FFF7D4BA0168406A0968890618D4002184
:1038A000C1850168CA6822F48072CA604A6922F040
:1038B00001024A614A6922F040024A61202280F8EE
:1038C0003E20026B012A03D1CA6822F01002CA60AE
:1038D000016B012918BFFFF7D5BB818DFFF7ACBA8B
:1038E000406A016B012918BFFFF7CEBB818D4908E3
:1038F000FFF7A2BA70470000FEE700004EF60C503A
:10390000BFF34F8FCEF200000168042201F4E061A2
:10391000C0F2FA5211430160BFF34F8F00BFFDE7C1
:1039200010B582B004468DF8070040F66420C2F25C
:1039300000000DF1070101224FF0FF33FFF7A6FB56
:10394000204602B010BD000096B0FEF779F90027BE
:1039500002264FF0010A1020CDE91177CDE90F774B
:10396000CDE90C670E97CDF840A011904FF4601090
:10397000CDE9136715900CA80597CDE90377CDE93C
:103980000177FEF741FC0F2006A9C1C14FF480600A
:10399000CDE9090706A80221FEF706FB4FF4004017
:1039A000009602906846FEF775FA41F218000F97EC
:1039B000C4F20200016844F2004841F020010160B5
:1039C0000168C4F2000801F020010091009901682B
:1039D0000CAC41F010010160016801F01001009190
:1039E0000099016841F004010160016801F00401DF
:1039F00000910099016841F00801016000682146CA
:103A000000F008000090009820200C900020C1F2E7
:103A10003100CDE90D0708F54C40FDF7F7FF08F53B
:103A200044402146CDE90C670E97FDF7EFFF1720C4
:103A300000210022FEF76EF91720FEF75BF940F235
:103A4000100408F56040C2F2000444F83C0F4FF443
:103A500080704FF4602184F80CA02775E161C4E9FF
:103A600001704FF00A0B2046C4F810B0FDF762FB5E
:103A70002046FDF715FA0CAD4FF005092046294602
:103A8000CDF83890CDE90CBAFDF794FA0B20CDE9CA
:103A90000C0620462946FDF78DFA0C200C900320D9
:103AA0000D9020462946FDF785FA0D200C90042044
:103AB0000D9020462946FDF77DFA0E20CDE90C0930
:103AC00020462946FDF776FA0620CDE90C0020466F
:103AD0002946FDF76FFA0720CDE90C00204629465C
:103AE000FDF768FA0820CDE90C0020462946FDF7CD
:103AF00061FA0920CDE90C0020462946FDF75AFA63
:103B000020462946CDE90C7BFDF754FAA4F1320199
:103B100020460A22FDF74AFC40F61C25C2F20005A9
:103B20004FF080404FF47A71C5E9000A8020C5E962
:103B300002712F61A86128460397CDE90177CDE98D
:103B40001177CDE90F77FEF795FD4FF48050009087
:103B500069462846FEF736FE2846FFF763F806A9B1
:103B60002846CDE90677FEF739FD60200CAECDE999
:103B70000C072846314600220E971097FEF724FFC7
:103B8000284631460422FEF71FFF28463146082208
:103B9000FEF71AFF284631460C22FEF715FF28468D
:103BA000FEF7DAFE28460021FFF7D0F82846042168
:103BB000FFF7CCF828460821FFF7C8F828460C2163
:103BC000FFF7C4F840F66425C2F200054FF46130F7
:103BD000C5E900800C20C5E902772F61C5E905071A
:103BE0002846EF61FFF72CF9A4F11E0128461E229A
:103BF000FFF7F6F9FDF76EF8FFF71EFBFCF7E8FE9E
:103C000045F6294445F6284548F21F56CCF28F2444
:103C1000C0F28F25C5F2EB166427FDF723F980B9B2
:103C200013E000BFFDF71EF9022808BFFCF7E6FC11
:103C3000FCF7E2FCFFF750FBFCF736FCFDF712F94E
:103C400018B1FDF70FF90128ECD1FDF7E5FF60434E
:103C50004FEAB000A8420DD9FDF7DEFFA0FB061227
:103C6000510901FB17001428E2D1FCF787FBFCF790
:103C7000CFFBDDE7FDF784F8DAE700000FB4054B72
:103C800010B503A9044A029800F018F810BC5DF8BA
:103C900014FB0000213900080000002002E008C8E1
:103CA000121F08C1002AFAD170477047002001E0B6
:103CB00001C1121F002AFBD1704700002DE9FF4F00
:103CC0008BB09A460F460546002606E025280BD005
:103CD00052460D9990476D1C761C28780028F5D126
:103CE0000FB03046BDE8F08F0024A04601226049A5
:103CF00000E0044315F8013F203B02FA03F00842BC
:103D0000F7D128782E2817D115F8010F44F00404B4
:103D10002A280ED06FF02F022878A0F1300109294F
:103D20000AD808EB880102EB410100EB01086D1C89
:103D3000F2E757F8048B6D1C287869283ED006DC22
:103D40000028CDD063280BD0642804D136E0732836
:103D500010D075284BD052460D999047761C85E0BF
:103D600017F8040B8DF8000000208DF80100E946DB
:103D7000012003E057F8049B4FF0FF3061074FF03C
:103D8000000401D40AE0641C44450DDA8442FADBE5
:103D900019F804100029F6D106E0641C8442FCDB0B
:103DA00019F804100029F8D1264404E019F8010B91
:103DB00052460D999047641EF8D257E001CF4FF05C
:103DC0000A0B002802DA40422D2102E0210504D529
:103DD0002B218DF82410012103E0E10705D02021DB
:103DE000F7E70DF1200908910CE00021F9E701CF78
:103DF0004FF00A0BF9E75946FCF7D5F901F130020B
:103E000009F8012D0028F6D1ADEB090000F1200BD7
:103E1000600701D44FF00108D84502DDA8EB0B0084
:103E200000E000208046002406E009A85246005D1C
:103E30000D999047641C761C08988442F5DB04E0D9
:103E4000302052460D999047761CB8F10001A8F138
:103E50000108F5DC05E019F8010B52460D99904771
:103E6000761CBBF10001ABF1010BF4DC6D1C34E7F7
:103E7000092801000102000000000000000001020A
:103E800003040607080900000000010203040203FE
:103E90000405060708090A0B0C0D0E0F10107374A9
:103EA00061727456616C75655368322E7478743D16
:103EB00022256422FFFFFF0066756C6C56616C75ED
:103EC0006553686F77322E7478743D22256422FF23
:103ED000FFFF00737072617949646C652E747874A9
:103EE0003D22256422FFFFFF0073707261794F70DD
:103EF0002E7478743D22256422FFFFFF0066756CE6
:103F00006C56616C756553686F772E7478743D22BA
:103F1000256422FFFFFF00737461727456616C7533
:103F20006553686F772E7478743D22256422FFFFF5
:103F3000FF00766973207465737449636F2C30FFDA
:103F4000FFFF0070756D70456E61626C65312E7695
:103F5000616C3D30FFFFFF0070756D70456E6162F2
:103F60006C65322E76616C3D30FFFFFF007370721E
:103F700061794D61696E2E76616C3D30FFFFFF0007
:103F800073657445784175746F2E76616C3D30FFB2
:103F9000FFFF006D61665479706553656C656374ED
:103FA0002E76616C3D30FFFFFF0070616765207009
:103FB00061676530FFFFFF00766973207465737475
:103FC00049636F2C31FFFFFF0070756D70456E61A6
:103FD000626C65312E76616C3D31FFFFFF007075BC
:103FE0006D70456E61626C65322E76616C3D31FF9D
:103FF000FFFF0073707261794D61696E2E76616C9E
:104000003D31FFFFFF0073657445784175746F2E75
:1040100076616C3D31FFFFFF006D6166547970651C
:1040200053656C6563742E76616C3D31FFFFFF0054
:1040300070616765207061676531FFFFFF00507533
:104040006D7031537461742E7069633D38FFFFFFEA
:104050000050756D7031537461742E7069633D3911
:10406000FFFFFF00666C65783130302E76616C3D65
:104070002564FFFFFF00666C6578302E76616C3D2D
:104080002564FFFFFF00535441312E76616C3D25BE
:1040900064FFFFFF0046554C4C312E76616C3D2588
:1040A00064FFFFFF00535441322E76616C3D25645E
:1040B000FFFFFF0046554C4C322E76616C3D256467
:1040C000FFFFFF0045585F5345542E76616C3D2538
:1040D00064FFFFFF007261696E4F666654696D652B
:1040E0002E76616C3D2564FFFFFF007261696E4FA3
:1040F0006E54696D652E76616C3D2564FFFFFF008F
:104100006D61667661646A2E76616C3D2564FFFFA1
:10411000FF006C6967687453656E2E76616C3D258F
:1041200064FFFFFF006272696768742E76616C3D00
:104130002564FFFFFF00657844656C61792E766128
:104140006C3D2564FFFFFF0070756D70537464440F
:104150007574792E76616C3D2564FFFFFF000000C9
:104160008041000800000020100000009C3C000876
:104170009041000810000020C00E0000AC3C000878
:104180000000000001000000100000000024F40006
:0400000508000131BD
:00000001FF
